:10100000A04300204559000067BA010019590000AB
:10101000195900001959000019590000000000007A
:101020000000000000000000000000002D5600003D
:101030001959000000000000D9550000195900009E
:10104000DD56000015290100DD560000DD560000C8
:10105000DD560000DD560000DD560000DD560000C4
:10106000DD560000DD560000DD560000DD560000B4
:10107000DD560000DD560000DD560000DD560000A4
:10108000DD560000DD560000DD560000DD56000094
:10109000DD560000DD560000DD560000DD56000084
:1010A000DD560000DD560000DD560000DD56000074
:1010B000DD560000DD560000DD560000DD56000064
:1010C000DD560000DD560000DD560000DD56000054
:1010D000DD560000DD560000DD560000DD56000044
:1010E000DD560000DD560000DD560000DD56000034
:1010F000DD560000DD560000DD560000DD56000024
:1011000053B94AB9002908BF00281CBF4FF0FF316E
:101110004FF0FF3000F00CB8ADF1080C6DE904CED3
:1011200000F008F8DDF804E0DDE9022304B07047C0
:10113000704700BF2DE9F04F07468C460846099ED0
:1011400015463C461946002B40F0C6808242B2FA52
:1011500082F746D94FB1C7F1200E24FA0EFE00FAED
:1011600007F3BD404EEA030CBC404FEA15481FFA96
:1011700085FEBCFBF8F9220C08FB19C309FB0EFA2B
:1011800042EA03439A4528D9EB1809F1FF3004D20B
:101190009A4502D9A9F102002B44A3EB0A03A4B299
:1011A000B3FBF8F208FB123302FB0EFE44EA0344E1
:1011B000A64514D92C1902F1FF3303D2A64501D953
:1011C000931E2C44A4EB0E0443EA00401EB1FC40E5
:1011D000002334607360BDE8F08F4846DDE71346B6
:1011E000F0E702B9FFDE87BB831A01214FEA154EF3
:1011F000AAB2B3FBFEFC200C0EFB1C330CFB02F866
:1012000040EA0343984563D9EB180CF1FF3004D250
:10121000984502D9ACF102002B44A3EB0803A4B219
:10122000B3FBFEFC0EFB1C330CFB02F244EA03444E
:10123000A2424FD92C190CF1FF3304D2A24202D999
:10124000ACF102032C44A41ABEE7C7F1200C20FA2B
:101250000CF800FA07F324FA0CFCBD404CEA030238
:101260004FEA154EABB2B8FBFEFC110C0EFB1C8016
:101270000CFB03F941EA0040814504FA07F423D945
:1012800028180CF1FF3104D2814502D9ACF10201DA
:101290002844A0EB090092B2B0FBFEFC0EFB1C0040
:1012A0000CFB03F842EA004398450FD9EB180CF108
:1012B000FF3204D2984502D9ACF102022B44A3EBD1
:1012C000080342EA014191E76146E2E76246F6E738
:1012D0006046A2E76346B6E7834205D90EB1C6E988
:1012E00000700021084676E7B3FA83F181B98342A2
:1012F00001D3BA420AD8BC1A60EB030301209C4612
:10130000002E68D0C6E9004C002164E70846F7E7E4
:10131000C1F1200C8B4022FA0CF41C4302FA01F5B7
:1013200000FA01F327FA0CF220FA0CFB4FEA1449F9
:101330001343BBFBF9F81FFA84FE09FB18BB1A0C18
:1013400008FB0EFA42EA0B42924507FA01F73ED932
:10135000A21808F1FF3004D2924502D9A8F1020088
:101360002244A2EB0A029BB2B2FBF9F809FB182255
:1013700008FB0EFE43EA024296452AD9A21808F15C
:10138000FF3304D2964502D9A8F10203224443EA6E
:101390000040A0FB0593A2EB0E029A42CE4698466F
:1013A00002D306D14F4504D2B9EB050E63EB040816
:1013B000013886B1B7EB0E0362EB080707FA0CFCA5
:1013C000CB404CEA0303CF40C6E900379CE74046D8
:1013D000C7E74346DBE73146FDE6000000000000BA
:1013E0002DE9F041D0E90B35866A5C193034A6420C
:1013F0008846174618D81C4DA3FB050118A3D3E94E
:101400000023FFF77DFEA41B20F07F40C8F80000FA
:1014100013A3D3E90023A4FB0501FFF771FE20F01D
:101420007F403860BDE8F0810F4C0DA3D3E9002365
:10143000A6FB0401FFF764FE05F1300120F07F40B8
:10144000C8F8000006A3D3E90023A1FB0401FFF7BD
:1014500057FE20F07F403860BDE8F081AFF3008098
:101460008D49FD1A0700000000CA9A3B00000000E9
:101470002DE9F04FAE4C8FB094F86A20002800F0B0
:101480003C8112F0010740F03A8194F82500FF23D7
:1014900000F0030084F8263010F0D6FD94F86A00BE
:1014A00041072DD494F8292094F8353004EB8202BA
:1014B00004EB8303D2F82C80D3F83890B8F1000FF6
:1014C00011D09B4841460AF03FF898F800305A0680
:1014D00005D5062104F08AFC002800F0D28194484A
:1014E00049460AF031F898F8003013F00E0F40F03A
:1014F000F180236A9BB10C2738460FB0BDE8F08F0E
:101500003A4604F16B01C0F3C00010F02FFFFF2832
:1015100084F82600C6D0384610F0DCFDC2E708F09B
:10152000D5FE8246002800F0B68108F0DBFE834637
:10153000002800F0B5810BF091F90546002800F075
:10154000AC81406F4FF6FF732B8505F11C0300281B
:1015500000F09D8105F1680205F164010B9304F030
:1015600051FCB5F86020734B22F4EF6222F00702C1
:1015700042F4887242F00102A5F8602095F8392003
:1015800002F03F0262F07F0285F8392095F87A2058
:1015900022F0070285F87A2095F83C2022F0070215
:1015A00085F83C2095F8D82022F0070285F8D8204D
:1015B0004FF01B12C5E916237F22002685F8BD20B7
:1015C0000622A5F8C020C5E912666E67A5F8786006
:1015D000EE852E6385F83B602E65A5F8C460A5F8FE
:1015E000C860A5F8D060A5F8CC60A5F8E46085F8DF
:1015F000E660C5F80861A5F80C61A5F8206108F05F
:1016000027F995F83A21A5F8386122F0030285F808
:101610003A2195F87A20A5F8406122F0180285F861
:101620007A2095F8662185F8436122F0070285F853
:10163000662195F88621C5F844A166F3451285F820
:10164000862195F8AE21A5F8646166F3C302C5E969
:101650004A0100210020C5E94C0185F8AE2185F83A
:10166000D960A5F88461C5F8E060A5F8AC61A5F87B
:10167000B8610BF0E7FCA5F8D2000BF0E9FCD5F857
:10168000BC112D4AA5F8D4000A40C5F8BC210BF0C6
:10169000E5FC95F8C02160F3020285F8C0210BF04B
:1016A000E3FC0B9B236295F8C031C5F8C46160F37D
:1016B000C503C4E918ABC5E97466C5E97266C5E936
:1016C00005662E70ED6185F8C03111F07BFE0028B3
:1016D00040F0D98094F824300121C3F342030DF186
:1016E00033008DF8333004F00DFD38BB236A002B36
:1016F0003FF401AF09F0F4FBFDE6D50704D4002761
:1017000038460FB0BDE8F08F236A5BB193F8202014
:1017100042F0020283F82020236A93F82030D80791
:101720003FF5E9AE0FB0BDE8F04F09F01BBC00BFBC
:10173000381B0020480148010000FFF699F801100D
:101740000246404609F0BCFC5B49B4F8689031237E
:101750000025A360A0FB010155A3D3E90023C4E940
:10176000055525706560E560FFF7CAFC206105F04E
:1017700075FF0646B9F1000F08D198F8005005F042
:101780000F05A5F10105B5FA85F56D0994F824005A
:10179000236965F3000010F0010584F8240031D0BE
:1017A0000020464ADFF81891049302250DF1340811
:1017B000019305920321CDE902000694334600907F
:1017C000CDF82080CDF81C902A460D9505F01CFE22
:1017D000414608F00BFE002888D13A4A05924AF2A9
:1017E000D8320092CDE90300CDE90100CDF81C907C
:1017F000CDF8208006943346012203210D9505F093
:1018000003FE29E0304A3148049303F24713A9FB51
:101810000001069402951360912303FB0911284BE4
:101820000793264B05934FF6FF7309924FF0020979
:1018300003930DF134081EA3D3E90023CDF83490AF
:10184000CDF82080FFF75CFC3346CDE900504A46D6
:101850002846032105F082FD414608F0C7FD002817
:101860007FF444AF94F86A3043F0010384F86A309F
:101870000AF04CF800287FF442AF012010F0C6FBBC
:101880003AE6122738E609F02BFB032734E605F188
:101890006C0068675EE607272EE6584608F028FDCC
:1018A000504608F019FD072726E600BFAFF3008079
:1018B0008D49FD1A0700000000CA9A3B31B10000B3
:1018C0001D99000071AC0000AC1B0020002AE784C9
:1018D00070B590F824308AB0C3F342030D46044635
:1018E00001210DF1230016468DF8233004F00AFC87
:1018F00071780246284609F0E3FB1D491AA3D3E993
:101900000023A0FB0101FFF7FBFB2369984205467A
:1019100020D21B1A00220192164A0293164BA21AD9
:10192000A3FB02320221920900230A4409AE099165
:1019300012490591CDE903330321D2B206960093F3
:10194000184605F0D3FD314608F050FD48B9256131
:101950000AB070BD02D9C21A0023DCE700200AB029
:1019600070BD0C200AB070BD8D49FD1A0700000043
:1019700000CA9A3B381B002009CB3D8D1D99000001
:1019800038B5194C9DF810E094F844C01CF00105DE
:1019900022D163F3420C400194F83230A1874FEA20
:1019A000CE0E0EF0180E00F0200040EA0E0023F0DC
:1019B000380303430D4884F83230A2FB0001912321
:1019C00003FB021106A3D3E9002384F844C0FFF708
:1019D00097FB2064284638BD0C25284638BD00BF3B
:1019E0008D49FD1A07000000D01B0020002AE78463
:1019F00010B59DF808C0044649014FEACC0000F03C
:101A0000180001F0200CA17D22844CEA000C0C4847
:101A100021F038014CEA010C9122A3FB000102FBEA
:101A2000031184F816C004A3D3E90023FFF768FB71
:101A3000606210BDAFF300808D49FD1A0700000001
:101A4000002AE784000000002DE9F047044600F179
:101A5000350190F8440094F83230C0F3400060F350
:101A600086138CB084F8323005F030FE94F83220C2
:101A7000A38F4D48E46102F079020025A3FB000129
:101A800084F83220912202FB0311C4E9055544A3D6
:101A9000D3E900232570FFF733FB3123C4E9015359
:101AA000236CE5600933A0F13102934232BF236118
:101AB00022612564064605F0D1FD236A07460DF133
:101AC0002C08002B4CD0394D394BCDF82080069492
:101AD000651BA3FB05353448A38F4FF0000AA3FB19
:101AE00000019122CDF80CA002FB0311236904939D
:101AF000304B0793304B05934FF0020928A3D3E9ED
:101B00000023CDF82C90FFF7FBFA104619464FF44E
:101B10007A720023FFF7F4FA2D090435EDB22A4654
:101B2000CDE901603B460321CDF800A0504605F009
:101B30006BFC414608F05AFC054668B994F84430FD
:101B400043F0010384F8443009F0D4FC0446F8B1B2
:101B500028460CB0BDE8F0870C200CB0BDE8F0873B
:101B6000CDE90A33216943460AAA032001F09CF912
:101B70000B990029A7D0114809A3D3E90023A1FBA1
:101B80000001FFF7BDFA0A9F20F07F4007449AE763
:101B9000484610F03BFA20460CB0BDE8F08700BF85
:101BA0008D49FD1A07000000002AE784D01B0020A1
:101BB000398EE3381D99000009B7000000CA9A3B2E
:101BC0002DE9F04FC38D458E1D4490F80E31ADB216
:101BD0002944164613F007028BB0044689B20AD096
:101BE000531E042B00F27483DFE813F0C6013A029F
:101BF000A10150013D02B0F8E870C91B1FFA81F83D
:101C0000090400F16E8190F93930002BC0F26D8229
:101C100094F8E43084F8E53094F8842194F8853120
:101C200094F80C1184F80D1193420AD094F886317F
:101C300003F00F03062B04D1002384F88521A4F8B8
:101C4000C830BF4BD4F808911A68944204BF0022F0
:101C50001A60B9F1000F00F05A81D9F8000000288D
:101C600000F05581B4F81031B4F82AC04268C4F8C5
:101C700008216345B4F81221B4F8141100F03D8234
:101C8000B4F828C0A9F81E30182389F804300023BE
:101C9000A9F806C0A9F82020A9F8221089F81C305C
:101CA000494608F02BFB08F033FBA368002B09DA48
:101CB000E168626823F0004391422CBF7618B618A1
:101CC000A360F61A608DB4F8109110FB08F080B292
:101CD000B0FBF9F119FB01F39BB298421FFA81FAAC
:101CE00080F004811B1A40F2E241964803FB01F1A7
:101CF000A1FB000190A3D3E90023FFF701FA20F034
:101D00007F400644E38D1F4494F939307D1B5544D0
:101D100040F2E24B002BE5850BFB09F7C0F20F8286
:101D2000D4F81811874884A3D3E90023A1FB00014C
:101D3000FFF7E6F920F07F483D4608F10108824AA6
:101D4000B4F81431B4F812018049A4F82A903A4446
:101D5000B2FBF7F2A4F8C62042F2107202FB037342
:101D60003944013BB1FBF7F1B3FBF7F78AB2831DAE
:101D70009A42A085A4F8C270A4F8CE2004DDC0F574
:101D80007F43FA331A4492B294F80E31A4F8CA2071
:101D90001B0744BF0023A4F8C4300221012014F023
:101DA000D7F9002202218146012004F07BF868491E
:101DB0004FF4F072204604F005F800F1050A5FFACE
:101DC0008AFA644B009452460121002005F0A6FBDC
:101DD00030F002030CD0604A6049614840F6B443D9
:101DE00019F0CAFA404080F311884FF0030002DF77
:101DF000544FA5FB077B50A3D3E90023384659462F
:101E0000FFF77EF920F07F4556480723A5FB000128
:101E1000381A03FB05116BEB01014FF47A720023B2
:101E2000FFF76EF9CDE9015008940694CDF80080D3
:101E3000216994F939504C4804914C494C4C079411
:101E400011EA250138BF014605914FF6FE71334670
:101E5000039152460121002005F0D6FA30F002032A
:101E60000CD03D4A3D493E4840F6CE4319F084FA35
:101E7000404080F311884FF0030002DFB9F1000FFA
:101E800040F0578100200BB0BDE8F08F828D90F8B4
:101E90000E51D0F8EC3006321144D0F8C42189B28A
:101EA0006FF30205A0F8E8101981A3F10900D4F836
:101EB000C81184F80E5122B194F86651AE0740F172
:101EC0008C81002900F0A081D4F8CC21116843F85E
:101ED000091C106053F8092CC4F8CC01002A00F04A
:101EE00090816FF076000BB0BDE8F08F09FB110117
:101EF00040F2E243134889B203FB01F1A1FB000168
:101F00000DA3D3E90023FFF7FBF8361AFAE6124ACD
:101F10001849134840F6094319F02EFA404080F35F
:101F200011884FF0030002DFD9F800009AE66FF045
:101F30000F000BB0BDE8F08F8D49FD1A07000000BF
:101F40002C1C002000CA9A3BFF5962027FC3C901C2
:101F5000D80900204DBE000008D90100E8D90100D1
:101F600004D301008D49FD1A910E0100A10C01005E
:101F7000F5BD0000D4D90100DFF81C83012008F072
:101F8000CDF90746002800F05081C44803F0E4FE74
:101F90000546002800F04981C14B1A68002A00F06C
:101FA0001A8108F0D9F93B68D4F808215A602B79D6
:101FB000C4F8087103F01C0343F003032B710C23D6
:101FC0006B710023AB71EB7194F81C312B72B54A25
:101FD000D4F81831A2FB03239B0AA5F80930B4F802
:101FE0001031A5F80B30B4F81231A5F80D30B4F863
:101FF0001431A5F80F3094F80E31C4F8F0600322C4
:1020000062F3020384F80E31A368002B0ADAE16858
:10201000626823F0004391422CBF7618B618F31A79
:10202000C4F8F030A04B01220935C4F8EC5002216D
:102030001046C3E9024803F067FF00283FF451AFA0
:102040009A4A9B499B4840F65C3319F095F9404009
:1020500080F311884FF0030002DF6FF0760012E783
:10206000DFF854828AE7D0F8EC20D0F8C43190F839
:10207000E40084F8E50094F80C01894984F80D0126
:1020800094F8840184F8850100200860D4F8C80120
:10209000A2F10901B3B194F86651AD0712D494F8D6
:1020A000BF51EF070ED4D4F8D051AB4200F0D78027
:1020B00058B9187900F00300032800F0DF80C4F855
:1020C000C83104E0002800F0A980D4F8CC311868A9
:1020D00042F8090C196052F8093CC4F8CC11002BE5
:1020E00000F0A6806FF08B00CDE690F8D930002B81
:1020F0003FF48EAD80F8D9208EE5B4F82CC094451D
:102100007FF4BEAD40F2E24C0CFB03FE42F2107CC9
:102110000CFB01EC0CF1FF3CBCFBFEFCB4F8C2E094
:102120001FFA8CFCE6457FF4ABAD012389F804303F
:10213000B6E501220221104603F0B4FEA2E6226CAD
:10214000A36C02FB1833A36411F090F9054694F8D0
:10215000D800DFF86881C0F3C20011F089F90544A6
:1021600007FB05F5564B94F81C2105F5742505F27F
:102170003F25A3FB0535AD0CA36C25640BFB02F2D8
:1021800005FB0AF022657A080344963A934228BF79
:102190001346C4E911230023A0FB0801C4F8E03072
:1021A0003BA3D3E90023FEF7ABFF3E4B361AD4F82E
:1021B0001801A3FB0030800A0BFB00F0A0FB080114
:1021C00033A3D3E90023FEF79BFF7D1BB4F81091E6
:1021D00020F07F48B3E51C60E3E694F8BF51ED07BB
:1021E0003FF56FAED4F8D051AA4226D000297FF433
:1021F0006BAE117901F00301032963D0C4F8C82143
:1022000064E6C4F8D4016CE643F8092CC4E9710013
:10221000C4F8CC01002A7FF464AEF2E742F8093C2E
:10222000C4E97111C4F8CC1159E76FF068002AE6CF
:10223000C4F8D4116FF08B0025E61568C4F8D051AE
:1022400000297FF441AE116843F8091C106053F86F
:10225000092CC4E97200002A7FF443AED1E71D685F
:10226000C4F8D05100287FF430AF186842F8090C48
:10227000196052F8093CC4E9721130E7D879032893
:10228000F3D00A287FF41BAFEFE700BFAFF3008065
:102290008D49FD1A07000000E5140100541D0020BF
:1022A0002C1C00205917B7D15004002008D9010078
:1022B00014D7010004D301007130000000CA9A3B1A
:1022C00083DE1B43D1790329BDD00A2996D1BAE711
:1022D000074A084908484FF43B6319F04DF840405D
:1022E00080F311884FF0030002DF4FF0000845E64D
:1022F00008D9010084D3010004D3010000000000CC
:102300002DE9F04F0B68D2F800801B6897B00C469F
:102310000A93037F00F11E01C3F38013054617469D
:1023200014A806228DF8473019F0D1FB94F81190CB
:10233000B9F1FF0F0DF1480B5BD05A460DF1470183
:1023400048460FF07FFB9DF8473002338DF8473049
:102350002946032251F82E6B07F1080007F1040A01
:1023600019F0B5FB07F11803042205F12A015046C4
:102370000B9319F0ACFB0B9B052205F13A011846B3
:1023800019F0A5FB0B9B0521184603F0BBFE7B7FD4
:1023900095F83F2000F03F0060F305037B77C2F320
:1023A0000403BB77AB8EFB81012899B202F01F03B7
:1023B00005D91B3303F01F030B2B00D8F9B90A9B77
:1023C000EC6800225A6197F82030304662F300032F
:1023D000012687F8203029462E7107F08FFF2068EC
:1023E0002671214607F08AFF07F092FF17B0BDE87B
:1023F000F08F062214A9584619F069FBA8E7236854
:102400000020586095F8370095F8363043EA0023ED
:102410003B8298F8D830520962F3C5036A8E0D9258
:1024200040F2E24202FB01F088F8D8300B9011F044
:102430001DF80C9098F8D800C0F3C20011F018F8FD
:102440000C9BC54903440B9800FB03F303F574236D
:1024500003F23F23A1FB03239B0C7B6295F83130F1
:10246000398A40F2E24203FB02F24308963BBA6328
:10247000BB622B8FB94AADF83A309E46B84B8446C2
:1024800003440244B3FBF0F3B2FBF0F242F21070EB
:10249000A8F8C6201FFA8EF200FB02C2013A881D7E
:1024A000B2FBFCF2A8F8C2209AB28242A8F8CE2071
:1024B00004DDC1F57F41FA310A4492B2A8F8CA207E
:1024C0005146042208F1DC0019F001FB2B4613F8F9
:1024D0001C2FC2F34011DA070F910C9100F1158106
:1024E0004FF48073AB830A9B93F8260010F05CF8DE
:1024F0000146062205F12B00002900F0EB8005F1D2
:10250000240119F0E4FAB9F1FF0F05F1250000F0FC
:10251000E48014A9062219F0DAFA9DF84730AB7767
:102520005946062205F11F0019F0D1FA98F8D83063
:10253000FA896A863A8AAA86C3F3C203BDF83A20AA
:1025400085F83830EA8640460AF094F92946B88181
:10255000E8806568304607F0D1FEBB89EB801B231D
:102560002B710C9B2E68002B40F0BC809DF83C30FA
:102570002B772946304607F0C1FE07F0C9FE97F8D1
:102580004500B7F84050B7F84260012100F007005D
:1025900010F07AFD2E4406F5E17631188246714836
:1025A0004FF000093123C8F80830A1FB000168A3EF
:1025B000D3E90023C8F80490C8F80C90FEF7A0FDFA
:1025C0000B9B7E6A0D9AE5689E1B40F2E24303FB7B
:1025D000025520F07F4005F2B245A5EB0A034A46BA
:1025E0000221C8F8100001200B9303F05BFC0A9D48
:1025F000284608F065FF821C5B4B0095D2B2484626
:10260000012104F08BFF012800F08C800A9B93F8D5
:102610002430DB0771D440460AF02CF9DFF84491EE
:10262000A6FB09564AA3D3E9002383463146284630
:10263000FEF766FDA368CDF818800BF10504A3F141
:102640003A0B4A4B07934A4B05934FF4E4730893B4
:10265000D8F8103020F07F4746484FF0000ACDE907
:1026600003A3A7FB00010723281A03FB071166EB4E
:1026700001014FF47A720023FEF742FD0B9BCDE976
:102680000170A3FB090132A3D3E90023FEF738FD53
:10269000E4B220F07F4000905B4622460121504684
:1026A00004F0B2FE30F002030CD0334A3349344810
:1026B00040F2C91318F060FE404080F311884FF0DB
:1026C000030002DF01220221104603F0EBFB17B0EA
:1026D000BDE8F08F19F006FA15E70622002119F07F
:1026E00001FA1AE77B7F43F040037B7750460EF0F8
:1026F000A7FF0123F8832B773BE7002301220093F8
:102700001846114604F00AFF85E71B4A1D491C487C
:10271000F12318F031FE404080F311884FF00300A0
:1027200002DFDDE607F0A0FE0A9B83423FF46EAFB6
:10273000114A1549124840F29F2318F01DFE4040EF
:1027400080F311884FF0030002DF5FE7AFF30080F2
:102750008D49FD1A0700000083DE1B43FF5962020A
:102760007FC3C90100CA9A3B650C0100350C01000A
:10277000A10C01008D49FD1AF8DA0100E8D9010029
:1027800004D3010020D5010054DB0100000000004B
:102790002DE9F04F8BB00F460493BDF858300590EB
:1027A00006930020BDF860309DF85490BDF85CB0F1
:1027B0000393164609F0B8F8002800F0A08109F04C
:1027C000010A0546504604F071FFBAF1000F6AD1C4
:1027D0002B6A05F11C020792002B6BD0D5F82080E4
:1027E000D8F8004098F84400C0F3C00100F007009A
:1027F00010F048FCB8F8401000F5E1700144B8F85A
:1028000042000144C848C6A3D3E90023A1FB00014C
:10281000FEF776FC20F07F40206130460FF036FC5A
:1028200095F833306FF3410385F83330FF2385F893
:10283000343066B3A9F10203012B40F2648195F8AC
:102840004430049A69F3420385F8443095F83330F4
:1028500062F3000385F833301499062205F1240051
:1028600019F035F9039B2B86059A00963B4605F136
:102870001C000021FFF7BCF810F0A4FD002840F078
:102880005F812846FFF7E0F80BB0BDE8F08F10F04D
:1028900039F80028CED01499049832460FF066FD1E
:1028A00085F83400C6E7062103F0A0FA00288FD18E
:1028B0001220E9E707F00AFD0790002800F0778171
:1028C00009F0CCFF0446002800F09381203003F08B
:1028D0002DFC04F11C08002840F05C81032104F168
:1028E000240010F083FA069B606F63854FF6FF7338
:1028F000A4F82CB02385002800F05B8104F164016A
:1029000004F1680203F07EFAB4F86030874A23F4D9
:10291000EF6323F0070343F4887343F00103A4F843
:10292000603094F87A3023F0070384F87A304FF05F
:102930001B134FF0000BC4E916327F2384F8BD301F
:10294000C4F874B0A4F878B0A4F82EB0C4F830B0CD
:1029500004F134000EF028FE94F8393060F30503DA
:10296000012184F839300DF1270010F03FFA9DF86D
:1029700027206F4BDDF80CC0A08D84F83BB0A3FB83
:102980000213DB0803EB4303A2EB8303053384F854
:102990003A3094F839300699A4F8C4B003F03F03F4
:1029A00084F8393094F83C30A4F8C8B023F003031D
:1029B00040F2E24284F83C305E4BA4F8D0B002FB17
:1029C00001F10A460B44B3FBF1F35B49A4F8CCB028
:1029D0001144B1FBF2F1A4F8C61042F2107101FBF0
:1029E0000C210139B1FBF2F2A4F8C2200622A4F8AE
:1029F000C020811D9AB28A42A4F8CE2002DD063A98
:102A0000121A92B294F8D830A4F8CA204FF0000BF2
:102A100023F0070384F8D830A4F8E4B084F8E6B0D3
:102A2000C4F808B1A4F80CB1A4F820B106F010FF66
:102A3000079BC4F8443194F83A31A4F838B123F034
:102A4000030384F83A3194F87A30A4F840B123F0C3
:102A5000180384F87A3094F8663184F843B123F08F
:102A6000070384F8663194F88631A4F864B16BF3F7
:102A7000451384F8863194F8AE31A4F884B16BF331
:102A8000C303002284F8AE310023C4E94A01C4E93B
:102A90004C23A4F8ACB1A4F8B8B10AF0D3FAA4F866
:102AA000D2000AF0D5FAD4F8BC21244BA4F8D40003
:102AB0001340C4F8BC310AF0D1FA94F8C03160F385
:102AC000020384F8C0310AF0CFFA94F8C031C4F898
:102AD000C4B160F3C50384F8C0313123C4E974BBC9
:102AE000C4E972BBC4F804B0C4F80CB0A360C5F864
:102AF0002080C4E905BB84F800B0E46172E60C20D4
:102B00000BB0BDE8F08F00200FF0E4FA95F83330F9
:102B100043F00203D14685F8333090E6AFF30080EE
:102B20008D49FD1A0700000000CA9A3B4801480180
:102B3000ABAAAAAA7FC3C901FF5962020000FFF62F
:102B40002C6AA36D63B12D4A2D492E4840F2B4433F
:102B500018F012FC404080F311884FF0030002DFB0
:102B600004F14C0104F1480003F050F90646002836
:102B700031D02768A665D7F84441F4B1204607F064
:102B8000ABFB384609F070FE002303202B620BB02C
:102B9000BDE8F08F194A1C491A48BF2318F0ECFB16
:102BA000404080F311884FF0030002DF96E60720D3
:102BB0006AE604F16C006067A0E6104A1349114808
:102BC00040F2BD4318F0D8FB404080F311884FF02D
:102BD000030002DFD2E7094A0C490A4840F2B64333
:102BE00018F0CAFB404080F311884FF0030002DF69
:102BF000BFE7079807F070FB072045E684DB01007C
:102C00004CD8010004D30100ECD5010060D90100CB
:102C10002DE9F04F80468FB004460F46154600F16F
:102C2000240106220CA818F81C6F18F050FF94F825
:102C30001C9018F0010FC9F3401BC6F3C016D9460B
:102C400040F004810023A383B97C97F8118011F030
:102C5000010104F12B004FF0060200F0E18004F1C5
:102C60001E0118F034FFB8F1FF0F04F1250304F141
:102C70001F0A00F0DF805246404604F11E010B930C
:102C80000EF0E0FE0B9B1846A37F02330CA9A3773E
:102C9000062218F01CFF3B68D3F800A0EB8963867E
:102CA0002B8AA386BAF83030E38610F0DDFB84F877
:102CB0003800D5F80080404609F0DCFD7E68A88128
:102CC0002146E080206807F019FBAB89F3801B23C5
:102CD00034683371B9F1000F40F0C68086F81CB03B
:102CE0003146204607F00AFB07F012FBD8F8043003
:102CF000D8F8086095F84400B5F80E90FC689E423C
:102D000038BF1E46C0F3C00140F2E24300F00700A6
:102D100003FB09F910F0B6F9203400220221241A2D
:102D2000012003F0BFF8504608F0D6FD021D564BB7
:102D3000CDF800A0D2B20121002004F0EFFB30F06A
:102D400002030CD0514A5249524840F2C53318F0A0
:102D500013FB404080F311884FF0030002DF4FF077
:102D6000000A534603220121CDF800A0504604F08A
:102D7000D5FB404609F07EFDBB68CDF81880093BC5
:102D80009E1B454B0793454B059340F2F533444F4B
:102D90000893D8F81030A9FB0798CDE903A3451D87
:102DA00037A3D3E9002348464146FEF7A9F9104668
:102DB00019464FF47A720023FEF7A2F930A3D3E943
:102DC0000023029041464846FEF79AF92CA3D3E926
:102DD00000230190A4FB0701FEF792F9EDB220F069
:102DE0007F40009033462A460121504604F00CFBF8
:102DF00030F002030CD0254A2549264840F2F6332C
:102E000018F0BAFA404080F311884FF0030002DF57
:102E100001220221104603F045F80FB0BDE8F08F03
:102E200018F060FEB8F1FF0F04F1250304F11F0A4A
:102E30007FF421AF18460622002118F053FEA67732
:102E40000CA95046062218F042FE24E70F4A154905
:102E500010484FF4517318F08FFA404080F31188F6
:102E60004FF0030002DFEDE66B7F43F040036B772A
:102E7000281D0EF0E5FB0123E883337730E700BF20
:102E80008D49FD1A070000005D0E010084DB010082
:102E9000E8D9010004D30100610E0100910E010088
:102EA00000CA9A3B20D501002DE9F04F8FB01E4695
:102EB00009931546FF230A1DDFF80481DFF804B1EA
:102EC000DFF804A1DFF80491089200213160044684
:102ED0008DF82F3004930C91059106910DAF0CAE37
:102EE00002230D93CDE9018700962B460DF12F02A9
:102EF0002146002004F054FB02282DD00D9B002B0E
:102F000030D19DF82F30FF2B3CD0052BE8D100208D
:102F100009F0B8FC0028E3D090F93930002BDFDB52
:102F2000049902690C9BFF290CD006990792184658
:102F3000049304F095FB059B089A99188842049B1A
:102F4000079A22D8CDE905239DF82F300493C7E7CF
:102F50002146002004F06AFB0D9B022BF8D00D9B4C
:102F6000002BCED073235A465146484618F004FA37
:102F7000404080F311884FF0030002DF9DF82F30AE
:102F8000FF2BC2D1049BFF2B10D0DDE90532104886
:102F90001344A3FB0001072202FB031106A3D3E99C
:102FA0000023FEF7ADF8099B803018600FB0BDE834
:102FB000F08F00BFAFF3008000CA9A3B0000000012
:102FC0002D120100D0DB010014DC010004D301004C
:102FD0008D49FD1A0000000070B582B01C460192B8
:102FE0001546064601AA0220FFF75EFF23680BB3D1
:102FF0000198431B1B021FD4294604F031FB1A4AD7
:1030000003460721A0FB020201FB032114A3D3E91D
:103010000023FEF775F8226802442260002A09DBCB
:1030200040F2E24006FB00F0904203D2121A8242C4
:10303000FCD8226002B070BD0146284604F010FBA7
:10304000094A03460721A0FB020201FB032104A356
:10305000D3E90023FEF754F82268121A2260DDE754
:1030600000CA9A3B000000008D49FD1A00000000D4
:103070002DE9F041B0F8941188B0044640F2E243E3
:103080004748002603FB01F105AD0623C5E90166AB
:103090008DF80F30A1FB00013FA3D3E90023059673
:1030A000FEF72EF80DF10F0301950093B4F88A3165
:1030B000049004AA204601210EF0BAF89DF80F8072
:1030C00008F1FF3C5FFA8CFC0DF11603304604F565
:1030D000CA7703EB4C0C04F5D0764FF6FF7E3A88A6
:1030E000B8F1000F0AD02B46724504D019889142DE
:1030F0004FF001001DD002339C45F5D10237BE428E
:10310000EDD1D4F8EC3048BBBDF8142040F2E241D8
:1031100002FB01F1100AC4F818111A70587094F8E3
:103120000E31042262F3020384F80E3108B0BDE8C8
:10313000F081D4F8EC1040F2E24302FB03F3100AF2
:10314000C4F818310A70487094F80E31042262F302
:10315000020384F80E3108B0BDE8F081032203F8C1
:10316000042C13F8052C94F80E11052542F00302E7
:10317000112003F8020C03F8052C65F302010F205F
:10318000202203F8010C1A7084F80E1108B0BDE873
:10319000F08100BFAFF300808D49FD1A07000000E9
:1031A00000CA9A3B0000000038B5044611F004F84C
:1031B000A27DC2F34103013303F00303032B34D098
:1031C00063F34202A27503F125000FF019FF636853
:1031D0000BB32369FBB112F027FE054604F03EFA5B
:1031E000C11C002012F0EEFD12F06AFE12F01CFE6F
:1031F000294604F035FA124903460722A0FB0101D3
:1032000002FB03110CA3D3E90023FDF779FF236927
:103210001B1A236138BD04F021FAC11C002012F0F2
:10322000D1FDBDE8384012F04BBE6FF34202A275EB
:103230002520CAE7AFF3008000CA9A3B00000000D7
:103240008D49FD1A000000002DE9F04F89B00446B9
:1032500012F014FBC0B250B90FF02AFFB848214653
:1032600012F0ACF909B0BDE8F04F12F0DBBA12F081
:1032700025FB054612F010FD834612F017FD81462E
:1032800012F032FF064612F013FF824612F0C8FC1D
:10329000EDB2804612F0A2FC0FF00AFF002DDDD047
:1032A000012007F083F90546002800F085811BF016
:1032B000FF0BF6B240F07781002E40F0D380FF275D
:1032C0005A463B463146204611F09EF90028C5D0AB
:1032D0002B7F626800218DF81B105FFA88F803F0DD
:1032E0000F01002A00F0DA80626892F8202090072F
:1032F00000F1D4800729B1D0A27D120740F16A8184
:10330000002940F0B5806B7F252B00F22A81042034
:1033100007F04CF90028A1D012F0DAFD636A81466B
:1033200043B9238C40F2712202FB03F3B0FBF3F2AA
:1033300003FB120923681A69824B0721A2FB0303CE
:1033400001FB02317CA3D3E90023FDF7D9FEA0F2F3
:1033500042334B4582D312F033FC63680593384601
:103360000FF030F9E37D9B07814640F1D6810028BC
:1033700000F0D38101464FF0010B049112F0ACFA3A
:103380002B7F049907AA039205F11E02CDE901B132
:1033900082460146C3F3801300922046002211F0BA
:1033A0004DF9504612F010FA12F05EFA002840F083
:1033B000C9816548214612F001F9B8F1000F40F0CB
:1033C000CF816168A37D91F8202043F0800342F013
:1033D000010281F82020A37507F006F91623804624
:1033E00003714FF6FF732D7FC380514624221C309A
:1033F00018F06DFB98F81C30C8F80840C5F340156C
:1034000065F3451388F81C3012F00EFD0021C8F852
:1034100010000120079D12F0EBF9002E08BFFF27D6
:1034200088F81970E37D2D1A13F00203C8F81450C0
:1034300003D0B9F1000318BF012398F81A2063F3F1
:10344000000288F81A2007F0CFF803464146D8F862
:103450000000C8F80C3007F0DDF807F0EBF809B011
:10346000BDE8F08F5FFA8AF00FF03AF9074627E7D8
:10347000012915D16B7F0C2B7FF4F0AE2A7F0097CA
:1034800000230193D20905F12403204611F00EF820
:1034900000287FF43CAF297F01F00F01002955D0AF
:1034A000062953D0022900F0A880012959D16B7F49
:1034B0000C2B7FF4D3AE2A7F00970DF11B030193F1
:1034C000D20905F124030021204610F0EFFF002867
:1034D00047D06B7F002B3FF4C1AE63682BB12B7FCD
:1034E00003F00F03072B7FF4B9AE03209DF81B9068
:1034F00007F05CF8054600283FF4B0AE07F074F81A
:103500004FF6FF73EB8005232B71B8F1000F70D1DC
:103510007F20AB7E2876002E08BFFF2769F341038A
:103520002868AB7629466F7607F074F807F082F8C2
:1035300094E600BFAFF3008000CA9A3B0000000091
:10354000714201008D49FD1A754401006B7F252BE6
:1035500007D8A27D920602D56268002A4FD0252B9B
:10356000B8D92B7F03F00F03042B7FF477AE6B7F6A
:10357000252B3FF673AEA37DD9077FF56FAE12F012
:10358000ABF92B7F0278C3F38013B3EBD21F7FF428
:1035900065AE0830062205F11E0118F087FA0028F2
:1035A0007FF45CAE95E7A07D5FFA89F1C0F3C000BF
:1035B0000FF02CF8074683E6734A744974484FF4B9
:1035C000307317F0D9FE404080F311884FF00300AC
:1035D00002DF6CE6FF2F8DF81C70C3F3801978D0E2
:1035E000237EDB1BB3FA83F35B09002B7FF488AEE9
:1035F00054E712F007FBC0B28BE76B7FAFE7962072
:1036000012F06AFB002012F0B1FA032006F0CEFFA0
:10361000814600283FF422AE06F0E6FF4FF6FF7326
:10362000A9F80630052389F80430B8F1000F70D1ED
:103630007F23002E89F8183014BF3B46FF2389F8FA
:10364000193099F81A30D9F800006FF3410389F85E
:103650001A30494606F0DEFF06F0ECFF12F03CF9A6
:103660002B7F0646C3F380133278DB0102F0700231
:1036700043F00303134333700C23384673700EF08A
:10368000A1FFE37D9F074ED500284CD0337801463B
:10369000304643F0400300F8023B062218F017FAC8
:1036A000062205F11E0106F1080018F010FA304656
:1036B00012F08AF812F0D8F8002857D112F000FC66
:1036C000A37D344843F00103A375214611F076FF32
:1036D000C5E605F11E0A07AA514648460FF0B6F89E
:1036E00000283FF4D8AEE37D03F001034B457FF49F
:1036F000D2AE5146062204F1080018F0D7F9297F0E
:10370000B0FA80F35B0901F00F01002B7FF4F8ADF4
:10371000C4E612F077FAC3B28BE7A27D04F1190177
:10372000C2F3801B29E6A37D3278C3F380133046B1
:1037300063F3861200F8022B04F11901062218F037
:10374000C6F9ADE7104A1449114840F2A24317F0F8
:1037500013FE404080F311884FF0030002DF28E69B
:1037600012F050FA059B83F8A1002AE6064A0A499E
:10377000074840F2275317F0FFFD404080F31188BF
:103780004FF0030002DF99E734E00100E8DF0100B9
:1037900004D3010085420100F0DF010008B50020DC
:1037A00001F062F820B10348BDE8084017F0E4BD1D
:1037B0000148F9E768E401007DE401000B6801338A
:1037C0000B60014B1B6818471000002007B50B4623
:1037D000002102460191034801A900F0E5F803B079
:1037E0005DF804FBBD3700002DE9F84FB0F81890E4
:1037F00019F00808044693460DD001290CBF49F082
:10380000100949F02009A0F818908BF31188BFF334
:103810006F8FBDE8F88F09F00709022907D120460C
:1038200017F0D1FD0028F0D00128238B4ED1676915
:10383000218B002F15DA256821F00701C4E90088E3
:1038400041F0010121830026218B01F0070ACA45BE
:1038500002D0A368002B5AD10DB9002E71D00023DD
:1038600056E001F007035A1F012A1ED821F0070174
:10387000062B256889B2C4E900880AD13DB1638B63
:103880002A46126801339BB2002AFAD1638341F0C1
:1038900002012183204617F096FD06460028D3D06A
:1038A000238B43F020032383CDE7042B0CD121F09D
:1038B000070189B22183204617F085FD05460028BF
:1038C000C1D041F0200121830025BCE7032809D1A4
:1038D000226923F00703166843F0060323830025BB
:1038E0002F46B1E7042806D1226923F00703566862
:1038F00043F00403F2E7052806D1226923F0070309
:10390000966843F00503E9E700252E46E8E7012322
:1039100041F0080121838BF31188BFF36F8FFBB94E
:1039200085BB16B11F492046B0474FF02003EFF387
:10393000118B83F31288BFF36F8F238B23F008035F
:103940002383238BDA0625D523F01003238301215B
:10395000B4F8189009F0070900297FF45EAF54E726
:10396000A1680029DCD0D1F80090D1F804B03B4622
:1039700052462046D847B9F1000FD1D04946D9F870
:103980000090F2E729463B46524620462D6817F044
:1039900036FDC5E713F020011EBF23F0200323836B
:1039A0000221D5E72BB401002DE9F04F91B08B46F1
:1039B000029092461C4600259AF8000008B9284655
:1039C0005FE325280AF1010707D0029B5946984773
:1039D0000028C0F25683013512E2182200210AA8FD
:1039E00018F080F89AF80130252B78D00022104684
:1039F000964694461646394617F8013B2B2B00F0A5
:103A00009D8000F29480202B00F09B80232B00F0FF
:103A10009B802EB19DF8306046F004068DF8306032
:103A2000BCF1000F05D09DF8306046F008068DF817
:103A30003060BEF1000F05D09DF8306046F01006F2
:103A40008DF8306028B19DF8300040F020008DF8EE
:103A500030002AB19DF8302042F040028DF830202D
:103A60009DF8302002F04400442803D16FF3861201
:103A70008DF830209DF830202A2B42F080028DF8FE
:103A800030207BD19DF8312042F001024B1C8DF893
:103A900031201A782E2A9DF831200CBF01210021F7
:103AA00061F341028DF8312074D15A782A2A6AD004
:103AB000013300210A26184610F8012BA2F1300725
:103AC000092F40F28E809DF830200E91C2F3400005
:103AD00040EAD17161F341028DF830205AE00AF1D9
:103AE00002078DF833309DF83130D90740F1498114
:103AF00054F8049BB9F1000F07DA9DF8302042F02A
:103B000004028DF83020C9F100095A0740F14281C2
:103B100054F8048BB8F1000F80F241819DF83130E8
:103B20006FF341038DF831304FF0FF3837E12D2B23
:103B30000CD0302B7FF46DAF01225CE74FF0010C0D
:103B400059E74FF0010E56E7012054E7012652E7EE
:103B50000CFB0202303A33461E4616F8010BA0F168
:103B60003007092FF4D9994293D09DF830100D9267
:103B7000D20F62F341018DF830108AE70B46002224
:103B80004FF00A0CE8E79DF8312042F004028DF86E
:103B9000312002331F4617F8012B6C2A41D025D85B
:103BA000682A2BD06A2A46D04C2A4CD01F4617F8D8
:103BB000012B9DF831308DF83320782A00F2D9801E
:103BC000572A4DD8412A03D0453A022A00F2D18023
:103BD0009DF83230042262F302038DF83230012363
:103BE0009EE006FB01213039034664E7742A26D0A3
:103BF0007A2ADBD19DF8313006220DE05A78682A06
:103C00009DF8312006D1012161F3C6028DF83120E3
:103C10009F1CCCE71346022262F3C6038DF83130B5
:103C2000C5E75A786C2A9DF8312001D10421EBE7D1
:103C300013460322F0E79DF831300522ECE79DF8AA
:103C400031300722E8E7BDF8303023F4F04323F0A9
:103C5000020343F4804343F00203ADF83030A6E79B
:103C6000A2F15801202900F2848001A050F821F02F
:103C7000353D0000733D0000733D0000733D0000C2
:103C8000733D0000733D0000733D0000733D000074
:103C9000733D0000D13B0000733D0000353D000046
:103CA000F53C0000D13B0000D13B0000D13B0000BF
:103CB000733D0000F53C0000733D0000733D0000C3
:103CC000733D0000733D00003D3D0000353D0000A8
:103CD000593D0000733D0000733D0000593D000058
:103CE000733D0000353D0000733D0000733D000052
:103CF000353D00009DF83210012003F0780360F399
:103D00000201402B8DF8321002BF9DF8301041F0B7
:103D100001018DF83010632A31D1003B18BF012317
:103D20009DF83020C2F340010B4363F341028DF84C
:103D30003020D8E69DF832100220DEE79DF83220D0
:103D400003F07803A3F14000032161F30202434230
:103D50008DF832204341E3E79DF83220032113F030
:103D6000780F61F302028DF8322014BF0123002383
:103D7000D6E79DF8303043F001038DF83030002352
:103D8000CEE79DF93020002AB4BFDDF834904FF023
:103D9000FF39BAE69B077FF5C7AEDDF838809DF89E
:103DA00031100023CDE90D339DF8323003F00703C5
:103DB000012BC1F3C30138D1CB1E042B22D8DFE87D
:103DC00003F003090921210054F8043BDA17CDE977
:103DD0000A3206E0073424F00704F4E80223CDE9B0
:103DE0000A239DF8303013F0030656D002983B4664
:103DF0005246594617F0E9FD0028C0F242810544B9
:103E0000BA46D9E554F8043B01294FEAE372CDE9FB
:103E10000A3205D19DF828300A9300230B93E0E77E
:103E20000229DED1BDF92830D0E7022B23D1CB1EE9
:103E3000042B13D8DFE803F0030A0A1212002268E9
:103E40000A920023201D0B930446CAE7E01D20F0D0
:103E50000700F0E80223CDE90A23F5E754F8043B14
:103E60000A9301294FF000030B93D3D00229B8D154
:103E7000BDF82830D0E7042B09D1E31D23F0070358
:103E800003F10804D3E90023CDE90A23A9E7032BB2
:103E900004BF54F8043B0A93A3E79DF83300782845
:103EA000AED8622822D825283FF48FAD5828A7D154
:103EB0000DF126030093DDE90A0104AB0CAA17F00B
:103EC0003EFD8246B8F1000F0DF126000CDB9DF897
:103ED0003020A0EB0A036FF3861298458DF830204E
:103EE00002D9A8EB03030D9380463DE06338152803
:103EF00086D801A252F820F0793F0000DD3F000093
:103F0000013E0000013E0000013E0000013E0000B5
:103F1000DD3F0000013E0000013E0000013E0000C8
:103F2000013E00003740000005400000094000004D
:103F3000013E0000013E0000513F0000013E000034
:103F400005400000013E0000013E00000540000069
:103F5000B8F1000FDDF828A00ADB4146504617F003
:103F600090FD0AEB00080026BAF1000F0CD147E7DC
:103F7000504617F07FFDF4E70A9B8DF810300026BD
:103F80000DF1100A0DF11108A8EB0A0306B1013377
:103F90009DF83220D00668D5023352060D9948BFED
:103FA0000E9A0B4448BF9B18B9F1000F76DD9DF8BF
:103FB0003020A9EB0309C2F38003039353076DD4A8
:103FC000500661D546B1029B5946304698470028B5
:103FD00057DB039B01351E46302356E01E070FD4E6
:103FE00013F0100618BF2026DDE90A23002BBFF6C8
:103FF0005FAF524263EB4303CDE90A232D2657E717
:104000002B26F1E7002653E70A9840B30DF126036B
:1040100000930CAA04AB002117F091FCBDF83230DC
:1040200003F0EF0343F4F04343F010038246ADF88E
:104030003230002646E70A9B07293FF6E1AEDFE86B
:1040400001F00C04060C08080C0C1D70D8E61D804D
:10405000D6E6EA17C3E90052D2E61D60D0E6DFF8E3
:10406000C8A006460AF105088EE7110748BF0133CC
:1040700093E7184603935946029B98470028039BF1
:1040800004DA11B0BDE8F08F20234D444A46002ADF
:10409000A5EB090109F1FF39EBDC0D4636B1029BB6
:1040A0005946304698470028EBDB01359DF8323001
:1040B000D90601D41A0706D5029B594630209847E5
:1040C0000028DEDB01359DF83230DB0607D59DF890
:1040D0003300029B594698470028D2DB01350D9EDC
:1040E0002E44731B002B16DC029843465246594659
:1040F00017F06BFC0028C4DB0544A944A9EB0503B9
:10410000002B7FF77DAE029B594620209847002860
:10411000B7DB0135F2E7029B59463020984700286B
:10412000AFDB0135DDE700BF98E401000C4BF0B4D4
:104130005F6A0C4E0C4BB34203D36FF08500F0BCAA
:1041400070475D68BD4209D31C693CB195F802C057
:104150000579AC4502D12346F0BC18472433EAE781
:10416000580E0020D0070020AC0700202DE9F047B2
:10417000134CDFF85080DFF8509005460E46174686
:10418000444503D36FF08500BDE8F0876268D9F835
:1041900024309A4212D3A36983B190782979884256
:1041A00005D13A4631462846BDE8F04718475279CE
:1041B000012A03D13A463146284698472434DFE79E
:1041C000AC070020D0070020580E00202DE9F04158
:1041D0000B4CDFF8308005460E461746444502D3A7
:1041E0006FF0850009E063690BB92434F6E73A46BD
:1041F0003146284698470028F7D1BDE8F08100BF36
:10420000AC070020D007002007B583788DF8003078
:104210000379427943EA0223ADF80230C378684655
:1042200003F003038DF8043012F020FE10F1780F34
:1042300004D018B1002003B05DF804FB9DF8000025
:1042400012F09AFE10F1780F01D00028F2D1024B43
:10425000012083F8B900EEE7580E0020024808223A
:10426000002117F03FBC00BF130F002070B50B4BAF
:104270000B4CA34201D3002070BD196A1E7F00229F
:104280000439D5B2AE4201D82433F2E7013211F835
:1042900032508542F5D10120EEE700BFAC07002087
:1042A000D0070020094808B50378C3F341130A3347
:1042B00050F823303BB100F1080200F1100198479B
:1042C000C043C00F08BD1846FCE700BF580E0020D1
:1042D00004282DE9F047DFF8808004460E460CD113
:1042E000FFF7BCFFDFF8749099F8B9303BB100F0EC
:1042F000B9FD042C03D11A4D14E00528F2D0184D55
:1043000045451ED3154B1B6A1BB331462046BDE8FD
:10431000F0471847D5F820A000272A7FFBB29A4221
:1043200003D824354545F5D307E00AEBC30301372D
:10433000187912F04BFE0028EFDA002389F8B93023
:10434000DDE7EB681BB13246214628469847243505
:10435000D6E7BDE8F08700BFD0070020580E002048
:10436000AC07002073B5C4B263060D468DF8074054
:1043700007D02046FFF77AFF88B10F4B93F8BA00B9
:1043800068B10D4E204665B112F092FDF3690BB98C
:10439000012004E008200DF107019847284602B0EB
:1043A00070BD12F0ADFDF369002BF1D00DF10701E6
:1043B00009209847ECE700BF580E00202DE9F04790
:1043C000A84EB36905460F46904663B9287800F0B9
:1043D0001F00012800F0A680022800F00E8138B1ED
:1043E0006FF0150095E098470028EFD1002090E08D
:1043F00095F900206B78002A31DA062BD8F80020D6
:1044000010D0082B25D0002BEAD101215370117058
:1044100096F8C310002918BF022343F0010313705C
:1044200002231AE06B881A0A111F0129D8D9072A1A
:10443000D6D8D9B2736A1C78002CD1D05D78954259
:1044400003D1814200F0128101302344F3E71B784D
:1044500012E196F8BA30137001233B6059E0013B3A
:10446000082BBDD801A252F823F000BF054500007B
:10447000E143000017450000E143000091440000C3
:10448000E1430000E1430000E14300009D440000DF
:10449000A87812F0D9FC0028A8D0A1E76C8844B114
:1044A0004FF0FF08776A0020C1463C786CB90028BD
:1044B00096D0FFF7D3FE6B8886F8BA30F369002BED
:1044C00094D069490320984790E77B78042B0CD05F
:1044D000052B0DD0022B05D197F805806A8842453F
:1044E00008BF01203B781F44DFE797F80390F9E706
:1044F0006B884345F6D1B9F1000FF3D13846FFF789
:1045000083FEEFE76B88012B7FF46AAF002086F80B
:10451000C300BDE8F0876B88012B7FF461AF86F89C
:10452000C33063E796F8BA30002B3FF459AF746A92
:10453000B5F804C0287923461A78002A3FF450AF12
:104540005978022904D193F804E0864500F2968058
:104550001344F1E7107050703960DAE70C449BE0C7
:104560000B287FF43DAF00274FF0FF0AD046B94635
:1045700006E06378042B0FD0052B22D023781C444F
:104580002378002BF5D1F36913B1494607209847EA
:10459000002F7FF42BAF23E794F802A0AA8894F8A9
:1045A000038092455346E9D1698888451FFA88F20D
:1045B000E4D1072B1ED83344A14683F8BB20012742
:1045C000DCE7AB885345D9D1AB7843450DD0A7780C
:1045D000384600F029FC384612F0F8FC10F1780F4C
:1045E000EDD0B0FA80F77F09C8E72046FFF70CFE50
:1045F0000746C3E7A1460027C0E795F900206B787E
:10460000002A19DA002B7FF4EBAE2C7963060AD06E
:104610002046FFF72BFE00283FF4E2AE96F8BA30B2
:10462000002B3FF4DDAED8F800502046294612F0AA
:1046300087FC00206870F3E6012B08D0032B7FF481
:10464000CFAE6B88002B7FF4CBAE012103E06988ED
:1046500000297FF4C5AEA888FFF784FE00287FF408
:10466000C5AEBDE6580E0020120F0020022AC8F881
:1046700000307FF4ECAE5B883B60B7E695F9003024
:104680006878002BBFF66CAFD8F8002000283FF404
:1046900061AF0A287FF4A4AE217800293FF4A0AED0
:1046A0006378042B7FF45AAFA3789C457FF456AF10
:1046B000072B96BF9B19002393F8BB30137001237F
:1046C000DAE700BF13B5134C237DC3B9E268A168D4
:1046D000019201AB802017F08FF90199A268E3687D
:1046E0000A445B1AA260E3603BB92369E2889A42FC
:1046F00003DD9B0601D10123237502B010BD002309
:104700001A4619468020237502B0BDE8104012F009
:1047100083BC00BF580E002030B585B00023024690
:104720000D46019300285FD100293CD108220B4699
:104730000DEB020117F010FB002804DA802012F0C4
:10474000B7FB05B030BD2D4C9DF809309DF8082011
:104750006370BDF80A306380BDF80C302270A3800E
:1047600004F13801BDF80E30E3801206C4E90355A8
:10477000A16025750AD4802B04D9802012F098FB03
:104780000020DCE713B1C4E90333DAE7FFF78AFD61
:104790000028D3D0E28823699A42D4BFE260E36064
:1047A000FFF790FFCDE7154CD4E90215002D01ABC2
:1047B00004DC17F0D1FA0028C3DABFE72A4617F065
:1047C000CBFA0028D9DB0199A268E3680A445B1A96
:1047D000A260E360002BB4D104F13803A360FFF7BB
:1047E00061FD0028DCD1A9E78028AAD1034BDA6853
:1047F000002AD5D11B7D002BD2D1A2E7580E002074
:10480000044B93F8C3300BB117F0B5BA6FF00C003E
:10481000704700BF580E0020054B064A9A62064AB0
:10482000DA62064A1A63064A58629A6100207047A3
:10483000580E0020BD4300002D410000CD41000076
:104840006D410000074B10B593F8B84024B900F053
:104850009FF918B1FFF7E0FF002010BD4FF0FF30C7
:10486000FBE700BF580E00202DE9F3410446344D0C
:1048700034484FF0FF324FF0FF3315F047FD95F805
:10488000B860002E3ED130482C62E86112F0DAFCAC
:1048900012F09CFA041E36DB00F038FB041E32DBFB
:1048A00040236846ADF802308DF804608DF8006052
:1048B00012F0DCFA041E26DB802768468DF80070B3
:1048C00012F0D4FA041E1EDB2049304612F0A6FC7A
:1048D000041E18DB1D49384612F0A0FC041E12DB32
:1048E0001B4CDFF87080444514D3002012F044FBC9
:1048F000041E08DB802012F03FFB041E03DB0123B3
:1049000085F8B83000240F4815F078FD204602B035
:10491000BDE8F081276A0026227FF3B29A4201D8CF
:104920002434E0E707EBC30257F83310107912F094
:1049300075FC01360028EFD04FF0FF34E3E700BFED
:10494000580E00201C060020D1420000194700002C
:10495000AC070020D007002030B51F4B8BB005AA54
:1049600003F1100518685968144603C40833AB42B4
:104970002246F7D11B7823701022002101A817F0DE
:10498000B1F812220021154817F0ACF8102101A847
:1049900017F0DDFA00281BDD0828B8BF082008380A
:1049A00001AB0E4A1844002110F8013B0AAC04EB9D
:1049B000131403F00F0314F8144C14700AAC2344BE
:1049C000013113F8143C5370082902F10202EBD1B3
:1049D00002480BB030BD00BF9EE40100AE300020A5
:1049E0002DE9F04F044685B000254FF0011BA94684
:1049F0002E46AA46207820B9614B02349C421FD033
:104A0000F2E76378052B05D8DFE803F07804037834
:104A10000720A24623781C44ECE7E378002BF9D169
:104A2000A37883B109F101095FFA89F9F2E77268A5
:104A3000944200F09D8024369E42F8D34FF0FF3020
:104A400005B0BDE8F08F4F4E4F4BF5E7002EF5D087
:104A500000230121327F9342F0D2326AA77802EB21
:104A6000C3021079874201D00133F3E70127E078D0
:104A700094F805C000F003008DF80C00207940EA9E
:104A80000C20ADF80A0094F9020000285FFA87F8BC
:104A900028DA07F1100001FA00F010EA0B0F29D113
:104AA00068F07F008DF8080002A8CDE9003217F009
:104AB0003BF9DDE900320121E0B99DF80830A3702F
:104AC00013F0800F1CBF08F110085FFA88F813710B
:104AD0000B4615BF01FA08F8BB404BEA080B4BEA3E
:104AE000030B97E701FA07F010EA0B0F02D18DF8DC
:104AF0000880D9E70137102FB9D1B5E7032D1DD1B3
:104B0000FFF72AFF074668B116F0B4FF804648B1A8
:104B10001E4816F0AFFF804504D142463946A01C1E
:104B200016F0D5FF23786FF00201E218091B04EBA1
:104B30005303D14213D50135EDB26BE7002DF1D10E
:104B4000BAF1000F3FF47AAFA4EB0A038AF80230FF
:104B5000C3F307238AF803308AF80490EBE74FF099
:104B6000000002F8010C13F8010902F8020DE0E759
:104B7000B368002B3FF456AF49462046984751E7AB
:104B8000AB070020AC070020D00700209EE4010006
:104B900008B50448FFF724FF0028024818BF00208A
:104BA00008BD00BF2C07002010B5094B00211A4694
:104BB0001C78844205D15C681CB1482000FB0120B0
:104BC00010BD0131042903F14803F1D10020F7E7BA
:104BD0001C0F00202DE9F34150F8303C10F8346CE4
:104BE0001033044610D1036950F8282C99073CD59E
:104BF00002BB13F0040304D11A461946304616F0DE
:104C0000FBFE002344F8303C54F8303C10330ED007
:104C100054F8205C5DB154F8247C54F81C8C17F0D7
:104C200079FD00284CD02E48214617F0DEFE02B058
:104C3000BDE8F08150F82C1C01AB304616F0DCFECC
:104C400010B16FF01503DDE7019A54F82C3C1344C2
:104C500044F82C3C54F8283C9B1A44F8283C54F85F
:104C6000243C134444F8243CCEE750F82C1C01AB00
:104C7000304612F049FA0028E3D1019D54F82C3C4B
:104C80002B4444F82C3C54F8283C5B1B44F8283C4B
:104C900054F8243C2B4444F8243C002DB1D0304639
:104CA00012F0D6FAB5FBF0F303FB1055002DA8D196
:104CB00054F8283C002BA4D0304612F06DFAA3E73C
:104CC00044F8200CA4F1180015F00EFC54F8303C08
:104CD0008C33ACD0424639463046A847A7E700BFE0
:104CE000B00D00204B1E012B73B506460D460FD8A4
:104CF000FFF75AFF044668B9012D09D101AB012223
:104D00000DF10301304612F0FFF9019B002BF5D1A4
:104D100002B070BD17F0FEFC04F1340108B1012DA2
:104D200005D1084602B0BDE87040FFF753BF034805
:104D300002B0BDE8704017F058BE00BFB00D0020B3
:104D40002DE9F74F064601911546984616F071FE7B
:104D5000044600285FD14FF02003EFF3118A83F35C
:104D60001288BFF36F8FDFF8B4B04FF0480909FB2A
:104D700004F700220023584615F0DCFB68B9DFF881
:104D8000A09009EB0704636813F1100F14D101938D
:104D9000584615F0A9FB019B06E00134042C0BF1E9
:104DA000480BE4D16FF00B038AF31188BFF36F8FC8
:104DB000184603B0BDE8F08F019B2061C4E90235BD
:104DC0000C9B63610D9BA3616FF00F0309F80760F3
:104DD000C4F844806360304612F03AFA58B1304665
:104DE00012F036FAB5FBF0F202FB10551DB1636C00
:104DF00043F00403636418F0020F07D03437094806
:104E000009EB070117F0F1FD0023CDE7304612F062
:104E1000C3F90346C8E76FF00F03C9E7380F002056
:104E20001C0F0020B00D002010B54FF02003EFF351
:104E3000118483F31288BFF36F8FFFF7B5FE50B173
:104E40004368103307D16FF08B03436000F13401E6
:104E5000034817F0CAFD84F31188BFF36F8F10BDAC
:104E6000B00D00202DE9F041104CDFF844800425FE
:104E70006FF08B074FF02003EFF3118683F3128856
:104E8000BFF36F8F6368103305D104F134014046DE
:104E9000676017F0AAFD86F31188BFF36F8F013D9D
:104EA00004F14804E6D1BDE8F08100BF1C0F0020EA
:104EB000B00D0020F0B504468BB00D4616461F46D7
:104EC0000122002104A817F007FD03AB01930E4B4C
:104ED000009332463B4629462046FFF731FF88B90A
:104EE00040F6CD42002304A815F024FB48B120462B
:104EF000FFF75AFE10B143681033F1D06FF08B000A
:104F000000E003980BB0F0BD29BA010070B50A4C5F
:104F10000A4E00253146204617F05EFD0122A4F11D
:104F200018001146013517F0D7FC042D04F1480490
:104F3000F0D1002070BD00BF500F0020D54B000005
:104F4000014B9970704700BF4707002007B50378F1
:104F500090F90000002815DB03F06003202B11D12D
:104F60000B6801931368009300220023002000F0D7
:104F70007DFE014648B1064816F08BFE002003B0C6
:104F80005DF804FB6FF08500F9E76FF00B00F6E7C2
:104F90006006002038B5084D4FF0FF324FF0FF3368
:104FA000284616F058FE044600F092FE0028F3D082
:104FB000204611F081FBEFE7600600202DE9F34168
:104FC0000E46002940D02B4DD5F80080B8F1000FD7
:104FD00048D1294F01914FF0FF3200974FF0FF3336
:104FE000022000F043FE047D244A2860022C11D0E8
:104FF000042C14D034B1A2F8008011F05DFB002322
:105000002B6014E0BB7803240333B4420CD9002393
:105010001380F2E77B8804339BB20424F5E77B8896
:10502000C3F30D030433F0E71380002BE5D02968A8
:1050300051B1124C8A8923889A4205D1104816F042
:1050400028FE00232B602380002301930D480E4B84
:1050500000930949007B05234022FFF771FE02B04F
:10506000BDE8F0810A4608F10800034916F034FE55
:10507000DDE700BF3C100020C1300020A43000203C
:105080006006002014000020BD4F000070B51A4ECD
:105090001A4D4FF0FF334FF0FF32304616F0DBFD74
:1050A000BFF35B8F2B68BFF35B8F044643B9237D4F
:1050B000012B13D0032B19D0204611F0FDFAE8E79D
:1050C000FFF79EFBBFF35B8F2B68BFF35B8F002B5B
:1050D000EDD00021212015F093FEF3E70848A289C6
:1050E000A16800790623FFF7E5FEE5E70448A289F9
:1050F000A168007D0223F6E778060020401000201A
:1051000014000020F0B5184889B000F0E7FD04460F
:1051100038BB002600276FF00705CDE90205CDE971
:1051200000000490CDE90667104B114911484FF477
:10513000806215F04DF810490E4817F0F1FA0F4B48
:105140000F490094CDE90667CDE90354CDE9014448
:105150004FF400720B4815F03BF80B49094817F063
:10516000DFFA204609B0F0BD78060020954F000018
:1051700040310020D0070020AFE401008D50000036
:105180006035002050080020B9E40100013910B555
:10519000052912D8DFE801F00311121F3641284B10
:1051A00000221A70274BBFF35B8F53E8001F43E8C0
:1051B00000200028F9D1BFF35B8F10BD204B1A7877
:1051C000002AFAD1012119701F4BBDE81040187B4D
:1051D0001146FFF7F3BE1C4C2079FFF725FE207D1A
:1051E000FFF722FE207BFFF71FFE154B00221A70EF
:1051F000144BBFF35B8F53E8001F43E800200028E7
:10520000D9D0F8E70F4BBFF35B8F012253E8001FA3
:1052100043E800200028CED0F8E70A4BBFF35B8FAD
:10522000002253E8001F43E800200028F9D1BFF313
:105230005B8F0029C1D0024B1B78002BBDD0C3E788
:10524000C030002040100020140000202DE9F84359
:1052500005464FF02003EFF3118683F31288BFF366
:105260006F8F0E4B1C689CB10D4FDFF838804FF0EC
:105270000C09D4E90132002D08BF13462BB198F870
:10528000142009FB02F2B85C98472468002CF0D186
:1052900086F31188BFF36F8FBDE8F88344100020B8
:1052A000501000206430002000F01F0301229A40BB
:1052B0000A4BBFF35B8F400903EB800050E8003FCF
:1052C00043EA020140E8001CBCF1000FF6D1BFF335
:1052D0005B8F1A4214BF0120002070475C10002031
:1052E00030B51D4B1C7DBFF35B8F04F01F03012203
:1052F0009A401A4B610985B0D04303EB810353E810
:10530000001F01EA000543E8005CBCF1000FF6D184
:10531000BFF35B8F114217D0114D0C2202FB0452D8
:1053200007CA01AB83E807000E4A7AB193E8070089
:1053300016F0F4FB0020FFF789FF0C235C432A19C9
:1053400000232B51C2E9013305B030BD82F311882F
:10535000BFF36F8FEEE700BF643000204C100020D9
:10536000501000201DBB01002DE9F041374B384C97
:105370001D7D88B080462846FFF796FF60B96F46CE
:1053800042462946384616F05FFB97E807000C2690
:1053900006FB054686E807000C236B43E218E05C39
:1053A0006E0905F01F0700283BD0B8F1FF3F10D071
:1053B000D2F808E02748284A4FF4004C0021002387
:1053C000EEFB0C01FBF79CFE0121A8EB000017F09F
:1053D0005BFC15F097FA0120FFF738FFBFF35B8FF6
:1053E0001E4B0122BA4003EB860353E8001F114312
:1053F00043E800100028F8D1BFF35B8F0C2303FBB8
:10540000054494E8070005AB83E80700144A1AB185
:1054100093E8070016F06FFBFFF762FF15F040FC02
:105420000120104ABFF35B8F0123BB40DB4302EB3B
:10543000860656E8002F1A4046E800210029F8D1D8
:10544000BFF35B8F08B0BDE8F08100BF643000207F
:10545000501000203F420F0040420F004C1000202F
:10546000F7BA01005C100020014910220A60704761
:1054700010ED00E072B6404080F31188BFF36F8FEB
:10548000BFF34F8F30BF62B6BFF36F8F704700BF5F
:1054900072B6494081F3118820BF80F3118862B64B
:1054A000704700BF43B2002B08DB012200F01F0051
:1054B00002FA00F05B09024A42F82300704700BF7D
:1054C00000E100E043B2002B0DDB01225B0900F09C
:1054D0001F0002FA00F02033034A42F82300BFF312
:1054E0004F8FBFF36F8F704700E100E0054B42091B
:1054F00000F01F0053F82220012303FA00F01040AF
:10550000704700BF00E100E043B2002BA8BF03F1E9
:10551000604301F10101B8BF064B4FEA4111ACBF36
:1055200003F5614300F00F00C9B2B4BF195483F80A
:105530000013704714ED00E008B572B6044B9A6989
:105540001AB100229A6117F0F0F862B608BD00BFE8
:105550006430002030BFFFF7FDBF00BF0F4A08B521
:105560000F4B22F07F029A60BFF34F8FBFF36F8F14
:10557000D3F8882022F47002C3F88820EFF3148354
:1055800023F0040383F31488BFF36F8F14F00EFD30
:1055900015F0CAFC00F0CAF914F012FD001000006A
:1055A00000ED00E0094A0A4993680968D96709498A
:1055B00098674B6843F080534B60002383F3118856
:1055C000BFF36F8F9368D86F704700BF64300020BF
:1055D00040E4010000ED00E012498A684FF030001D
:1055E0001044EFF3098C80E8F01F202080F312882C
:1055F000BFF36F8F0C4F4FF00066CA698A603E6040
:10560000906F0023936780F3118804B5104600F073
:10561000CFF9BDE8044002F1300090E8F01F8CF3B0
:10562000098870476430002004ED00E01EF0040F8C
:105630000CBFEFF30880EFF30980816911F8021CB9
:105640000229FFD001B516F006FA01BD42F8203C50
:10565000009B42F81C3C0A49019B42F8183C029B03
:1056600042F8143C21F001014FF0807342F8043CF1
:1056700042F8081C0023203A02658367704700BF88
:105680009FB50100094A0346906870B113F1160FE7
:10569000806E05D0A0F120029A4205D8834203D241
:1056A000814228BF002070470020704764300020EE
:1056B00008B5094B98600D46144600F079F920466C
:1056C00085F30988002163B681F31188BFF36F8FDA
:1056D0000022002315F063FF6430002001B572B68C
:1056E0000B4A906900281EBF0021916117F01DF838
:1056F00062B6EFF30580A0F110004FEAC000054943
:10570000014409C99847BDE8014003490847000022
:1057100064300020ACD001001D570000044B996894
:10572000D869884203D003494FF080520A6070471D
:105730006430002004ED00E038B5194B14469A6A35
:105740009A6A9A6A0546900719D5586B9A6A1206A2
:1057500015D519B19A6A22F080029A629A6A9A6AF9
:105760009A6AD1060ED49B6A9A070BD400200C4A81
:10577000936A43F0FF0393620023237038BD6FF0F8
:105780001500EBE7064B5B681B05EFD52946FFF7D5
:1057900079FF0028EAD080F309880220E7E700BFFC
:1057A00000ED00E00D4B9A6A9A6A9A6A920508D554
:1057B0009A6B9A6A120404D518B19A6A22F40042CC
:1057C0009A62064B9A6A9A6AD20558BF9A6A9A6A8E
:1057D000002042F47F429A620870704700ED00E0BA
:1057E00070B5484B5B688AB00D46C3F308030026CA
:1057F00086F31188BFF36F8F02F07F41B1F17F4FC5
:1058000011D102F00C0108290DD0110701D4054671
:1058100001260022033B8DF80720032B6BD8DFE81D
:1058200003F00455595D3546F3E7364BDC6A14F056
:10583000020460D1DA6A002A15DBDA6A520012D556
:10584000AA6932F8021C4DF6027291420AD093F80E
:1058500028200AB30DF1070201212846FFF76CFF4B
:10586000044600E02C689DF807309BB920222946A9
:1058700002A816F02CF9099B002E3ED0C3F30802B3
:1058800022B96FEA53236FEA4323099302A9204602
:1058900016F0DFF80AB070BD93F829202AB10DF197
:1058A00007010120FFF77EFFDAE75A8D92B2002A46
:1058B000D9D09A6A9A6A9A6A9A6A9A6A9A6A9A6A23
:1058C0006FEA02426FEA12429A62CCE70DF10702D8
:1058D0000021C2E70DF107010020E3E7094B9A6AB6
:1058E0009A6A9A6A9A6A9A6A9A6A9A6A6FEA024203
:1058F0006FEA12429A620024B5E723F4FF7323F0A3
:105900000103C2E700ED00E0024A536943F01003CF
:105910005361704700ED00E0EFF30880EFF3098179
:1059200001B57246FFF75CFF01BD00BF04480023CC
:105930002021C2180133302B82F80013F9D17047AF
:1059400000E100E017F034FB202080F311880848C4
:105950004FF40261401880F30988EFF314800221AC
:10596000084380F31488BFF36F8FFFF7F7FD000043
:1059700020450020064B9B68834207D1EFF3058347
:1059800023B1044A536843F08053536015F068BA5A
:105990006430002000ED00E0024B034A034801217F
:1059A00000F06EB8000004200000002068D2010062
:1059B000826E054B203A1A60044A2021C3E9011285
:1059C0001846012100F066B86010002000000B1599
:1059D000F0B51F4F00268E4201DB1046F0BD446833
:1059E0009CB353B104F1FF3C14EA0C0F18D11F2CE7
:1059F00016D905681CEA050F12D1202C0568D0F8CD
:105A000008C0D2B20FD9B4F1004F0ED8013CB4FA9D
:105A100084F4C4F11F046400072A4CEA040406D984
:105A20006FF01502D9E70824F6E73E24F4E725F0E5
:105A30001F05154345F0100544F00104C7F89820F0
:105A4000C7F89C500132C7F8A04001360C30C2E7BD
:105A500000ED00E0044B0522C3F89420BFF34F8F04
:105A6000BFF36F8F704700BF00ED00E0BFF35F8FA3
:105A7000024B0022C3F89420704700BF00ED00E005
:105A800010B5034C01232278FFF7A2FF207010BD50
:105A90000131002008B5094A00231278FFF798FF6A
:105AA00010F1160F02D0064A072800DD08BDC2F823
:105AB0009800C2F8A0300130F6E700BF01310020A5
:105AC00000ED00E014490868082810B521D8FFF758
:105AD000CDFF124C49680022904201F10C0105D122
:105AE0000F4B1870FFF7B6FF002010BDC4F89820C8
:105AF00051F80C3C23F01F03134343F01003C4F888
:105B00009C3051F8043C43F00103C4F8A03001324A
:105B1000E2E74FF0FF30E8E774D2010000ED00E06B
:105B20000131002010B54FF02003EFF3118083F313
:105B30001288BFF36F8F114A0123C2F840354FF02E
:105B400080424FF08051C2F87835D1F83041082CAE
:105B500008D1D1F83411052904D8094C615C09B188
:105B6000C2F838364FF080430122C3F8802580F315
:105B70001188BFF36F8F002010BD00BF00E001400F
:105B8000D2E4010020B1034B800143F00103184728
:105B9000704700BF60D201004FF08043D3F8403619
:105BA000DB072ED54FF01023D3F8043303F007039F
:105BB000072B26D1144A0123C2F80435D2F8003449
:105BC000002BFBD04FF01021D1F8043323F0070352
:105BD00043F00403C1F804330023C2F804350A4A31
:105BE000D2F80034002BFBD0BFF34F8F0749084B8E
:105BF000CA6802F4E0621343CB60BFF34F8F00BF6B
:105C0000FDE70020704700BF00E0014000ED00E02C
:105C10000400FA05074A0346106828B9D96831B16B
:105C2000196921B1136070476FF0770070476FF00A
:105C3000150070476C100020052838B5054610D8AF
:105C40000124844014F02A0409D0074815F0FEFF0F
:105C5000044620B10021083016F017F825752046BB
:105C600038BD0024FBE700BF000700202DE9F0410C
:105C70000546DDE90678C8B1022819D10D4815F0AE
:105C8000E5FF044678B100F108060021304615F022
:105C9000FCFF25753FB1B8F1000F04D042463946EC
:105CA000304616F019F82046BDE8F0810248E6E7D4
:105CB0000024F8E7A8060020D406002008B5034B0E
:105CC0000146186815F0E5FF002008BD701000209F
:105CD000014B1B681B6918476C100020044B054AD8
:105CE0001B6810600BB1DB6818476FF0120070473B
:105CF0006C100020701000202DE9F0411646C21DE6
:105D000022F00302751E0F46ADB2186082B0044641
:105D100016800021042207FB050015F0E3FEBDB14B
:105D2000023EB6B206FB077306FB07F81C44A8EB5D
:105D300003080025042204EB08000DEB0201019486
:105D400015F0C5FEB542A4EB070405F10105F1D13C
:105D500002B0BDE8F08100BF70B5056882B095B1B2
:105D6000EB1D23F003030422044629460DEB020039
:105D70001E8815F0ACFE019B23B1DA1D22F0030250
:105D8000013E16802360284602B070BD0B6870B5D6
:105D90000C46054683B1073323F003031E88013602
:105DA000B6B204222146284615F091FEEB1D23F0E1
:105DB00003031E80256070BD0126F2E702FB01008F
:105DC000704700BF401A80B2B0FBF2F0704700BFCE
:105DD000531E11449BB242B1DB430138CA1811F87B
:105DE000013D00F8013F9142F9D17047014402E0C2
:105DF00010F8013B1BB98842FAD1002070470120FE
:105E0000704700BF10600860704700BF0A68034613
:105E10000068904205BF00220A6000201A607047A7
:105E2000D2F800C0CCF80000D2F800C0CCF80410C2
:105E300010607047884203D01AB1436813607047FE
:105E4000002070470B68834209D02AB1586810605F
:105E50001A680A6018467047002BF9D1FAE7002348
:105E6000F8E700BF2DE9F041DFF830800C4E0C2739
:105E700006F130044546221D214628460C3CFFF71A
:105E8000C1FFB442A5F10805F5D1043F3B1DA8F1BF
:105E90002008A4F13006EBD1BDE8F081EC10002021
:105EA0007C11002010B40346154C8C4692B100EBD7
:105EB00040010CEB4C00000100EB81012144487AC9
:105EC0000C7AA04204BF0130087210BC614618462B
:105ED00010F01EB901EB4102120100EB400302EB8E
:105EE000830323449C7ADA7AA24201D010BC704723
:105EF00001329A72034B01225A5410BC10F05EB961
:105F0000F8100020F410002070B582B00646019110
:105F10001C460D462AB322786378D21A12F0030287
:105F200005D0012A42D00133DBB223700FE00133E8
:105F3000DBB230212370042311FB05311C4A606859
:105F40000C2313FB06131A442146FFF769FF194B74
:105F5000012230465A55294610F030F9002002B08F
:105F600070BD10F015F90028D5D02946304610F044
:105F7000EFF80028CFD005EB450212010C4906EBE3
:105F8000460302EB83030B449A7ADB7A9A42C2D12E
:105F900022786378D21A920702D00233DBB22370E0
:105FA000D4E902039847002002B070BD1046D6E73E
:105FB000F8100020F4100020504A135C002B00F071
:105FC0009B802DE9F04F00234D4F135487B01A46A4
:105FD0004FF03C0BCDE901200BFB007B039300EB62
:105FE00040030BF1040807EB03174FF003090023EC
:105FF000D7E9090105AA0593FFF71CFF07F124065D
:106000008346002834D0059C63782578ED1A05F086
:106010000305012D06D1013B6370D4E902029047CC
:10602000059C63782078C31A03F00303012B4FF01B
:10603000000231465FFA80FA0FD0B86AFFF702FF1C
:1060400094F801C02378C4F804B0A3EB0C0303F068
:106050000303012B84F801A046D0D7E9090105AA62
:10606000FFF7E8FE012D009083462BD00028CAD10F
:1060700097F82E3097F82F209A4203D087F82F30C8
:106080000123019397F82C3097F82D209A4203D0E2
:1060900087F82D300123039309F1FF395FFA89F95D
:1060A000B9F1FF0FA7F10C07A1D1DDE9013AC3B1A6
:1060B000039BB3B91A465146504607B0BDE8F04FAE
:1060C00010F026B8B9F1000F01D10028D0D0DDF8CA
:1060D00008A00A4A012302F80A305146504610F03F
:1060E0006DF807B0BDE8F08F42462146584684F867
:1060F00001C0FFF795FEB0E7704700BFF410002025
:10610000F81000204B1EDBB271B1411E00EB030CF6
:10611000002011F8013F23B15A1E01301340C0B2D4
:10612000FAD16145F5D17047084670472DE9F04F27
:10613000A24D83B0074603260124042138460CF003
:1061400055FE38684FF000084FEAD07E1E234FF00E
:10615000010AC346C1461AE008F101010E2BC9B27B
:106160005FFA83FE40F29980D2B39646CC461C2B50
:1061700040F2A2801B2B40F20F8119293BD08846A8
:106180009246BCF10C0FE14635D0013B3BD320FADF
:1061900003F202F001027245DED10AF10102072B7F
:1061A000D2B240F2DD80062A40F2D480BEF1000F68
:1061B00051D004FA03F220EA0200CC464FF0000E60
:1061C00008F101010E2BC9B288BF0122D5D8E145E3
:1061D00000F0BD8019290ED088464FF0010AD4E79F
:1061E000CC460122052B40F28680062A4FF0000E95
:1061F000BDD11929C3D1013304FA03F3BEF1000F55
:106200003DD05B42184080EA050301930DF1040C78
:106210000DF1080E00221CF8013B23B1591E01327A
:106220000B40D2B2FAD1E645F5D1012A09D983B2A1
:10623000B3EB104F4FEA104224D1C3B2B3EB106F4F
:1062400020D1013E16F0FF067FF477AF6FF00D000E
:1062500003B0BDE8F08F04FA03F210434146CC4688
:106260004FF0010E8845ABD00E2B8AD8E1458CD17A
:1062700041460CF1010C5FFA8CFC52467DE7013B74
:106280001843C0E7C0F30721130A38700020797063
:10629000BA70FB7003B0BDE8F08F09F1010CBEF1DC
:1062A000070F5FFA8CFC1DD912B9964601225EE7F2
:1062B000012907D0964660E700297FF45BAFBEF165
:1062C000000F37D004FA03F2072B20EA020088BF40
:1062D0004FF0000EC6D80BF1FF3B5FFA8BFB4FF07F
:1062E000000EBFE7002A3FF47CAF0BF1010B5FFA11
:1062F0008BFB96463EE7BBF1000F0BD0042B3FF61D
:1063000074AFBBF1010F05D9032B3FF66EAFBBF1A4
:10631000020F09D804FA03F210430BF1010B5FFAE4
:106320008BFB4FF0010E9DE7062A0DD011B14FF007
:10633000000E1FE704FA03F2072B40EA020088BFB1
:106340004FF0010E8ED8E8E74FF0000E15E74FF042
:10635000010A8EE7BEF1000F12D14146CC4641E75B
:10636000BEF1000F1FD00BF1010B062A5FFA8BFB69
:106370000BD904FA03F220EA02004146CC46AAE710
:10638000062A18D14146CC46F9E6FBD04146CC4618
:10639000B8F1000F96D0EDE601293FF6EEAEBEF162
:1063A000000FC7D08EE7062AD7D904FA03F21043AC
:1063B0004146CC46B1E74146CC46D8E6D6BE898EAA
:1063C00030B5437F0568FF2B14D003EB43028B42AB
:1063D00005EB021228D04FF0000C01E099420BD0DF
:1063E0009E4613789468FF2B03EB4302A44405EB0D
:1063F0000212F3D1002030BD714518D01378906897
:106400000FFA8EFE0EEB4E0E4FEA0E1E05F80E3002
:106410001378FF2B06D003EB430305EB0315AB68A2
:106420000344AB60604430BD9E464FF0000C1378CF
:106430004377E4E7A2EB010C1CF4000F10B483686F
:1064400044690AD12CF07F410B44A34214D91B1B91
:10645000002110BC836041617047891A21F07F419F
:106460008B4206D82144C91A002310BC83604161C5
:1064700070475B1AA342EAD8E11AF5E72DE9F04F1D
:1064800087B00346427A01900068029058680590F0
:10649000002A00F0F480531EDBB200EBC3030F466A
:1064A0000393039B5A685E780492FF2F5ED007EB3C
:1064B0004704029B4FEA041AB84613F80A7003EB2C
:1064C00004140025019B4FF0FF0984F80090D3F8D5
:1064D00000E05A7F0EEB0A0B4A45DBF808100FD19B
:1064E000C8E0091A06D1BBF81EA0BCF81EC0E245E0
:1064F00000F286801EF80330FF2B914672D01A46B8
:1065000002EB42030EEB031C1B01DCF8080088427F
:10651000E7D9B9F1FF0FCBF808108BF8002066D14E
:10652000019B83F81D80FF2A08D002EB42020EEB8C
:10653000021EDEF808305B1ACEF80830A37801336B
:106540006370002DB1D04FF00002EB6A2A70002278
:10655000AA6213B1296B104698476368002BA4D137
:10656000D5E90B23FF2FC4E90823A0D1039B98781A
:10657000B0422FD0DDE903B906EB460206EB8202FA
:106580009BF8001019F822300136F6B2B14208BF6C
:106590000026042B09EB82051AD195F80180029997
:1065A00008EB480301EB03144FEA031AA178637860
:1065B0005B1A13F0FF0325D04FF0000309F82230D7
:1065C000EB6A0120A8620BB1296B98479BF8020087
:1065D000B042D1D1039A05999142A2F108034ED05D
:1065E00003935EE7CBF808108BF800301A460FFAD9
:1065F00089F909EB49094FEA09190EF8098092E770
:10660000014686E7AA8A0199D5F824904969D5E917
:1066100003EC4FF6FE708242C4F82890C4F804E000
:10662000C4F820C024D04FF6FF73D31AB3FA83F313
:106630005B0984F82C304FF6FD739A4288BF002224
:10664000AB69A361EB69E3602B6A2361AB68A3606C
:106650000023A28363616A6820469946FFF7EAFE39
:106660004FF00103C4F82490A4F81E90E37029E7CA
:106670001A46E5E70EF80A2083F81D805EE707B0AA
:10668000BDE8F08F2DE9F04F827F8FB00123069295
:10669000C377002A5BD1437FFF2B814656D00EF093
:1066A00025FFD9F8142099F81C3099F81D80801A1C
:1066B000FF2B20F07F4700F03C81D9F81830BB4217
:1066C00094BF002301230393B8F1FF0FD9F800B062
:1066D00000F045814FF0000ACDF8109008EB480813
:1066E0000BEB08144FEA0818A368BB4237D8A1780F
:1066F0001BF80880FF1A9A4463785B1ADBB2012BFF
:106700002AD1A669002E54D0039B002B4CD0E38BDA
:106710000593A36A3BB11A681AB11A7A002A00F0ED
:10672000EF8000221A72059A94F82C00013292B27E
:10673000E28378B1A08B90420CD2002B00F0FC8059
:106740001A7A012A06D04FF0010C36E0C2770FB05A
:10675000BDE8F08F0139A170B8F1FF0FBED1DDF8AF
:106760001090514699F80B3099F80A209A420AD1B4
:106770000132D2B2022A1CBF13460693069A89F848
:106780000B2008BF002309EB8303D9F82440D9600C
:10679000002289F81F204B46012204210320A44631
:1067A0000FB0BDE8F04F604794F92D300793803368
:1067B00041D1A36AF3B14FF0000C00221A72E568D0
:1067C000481E59685A60A070002DC5D0049B6069AE
:1067D0005B69626A2669AAEB0000184420F07F40DA
:1067E000E378BCF1000F16D0CDE900364FF6FF7309
:1067F000A847B1E7E5680139A170002DACD0194672
:106800006369626A2669AAEB0300049B5B6918440A
:10681000E37820F07F40B4F81EC0CDE9003663462F
:10682000A847A369002B039B18BF012303930023F0
:10683000E383E37090E7B8F1FF0FBAD0E28BA38B4C
:10684000656805929A4228BFD21A02FB055008904B
:106850000798CDE90A17121ACDE90CA84346099208
:10686000A0464FF0000C2C461BB203EB43030BEB8E
:1068700003121B01D2F808E0F444664539D391694C
:1068800099B3D18B908BD2F8049092F92D708142FC
:106890000D4628BF0D1AB9F1000F3ED0A9EB0E0E20
:1068A000BCB309FB05EEDDF82090F1458CBF4FF03D
:1068B000010E4FF0000E34BF4FF001094FF00009F8
:1068C000814292F803A098F803200ED3924529D86C
:1068D00017F1800F26D0099AED1B954202DDBEF11B
:1068E000000F1FD0079ABA4219D01BF80330FF2BB4
:1068F000BAD14446DDE90B7A0A99DDF8348058E7CD
:10690000A28B059882423FF60CAF4FF001021A723B
:1069100009E74FF0010EA146D2E7CE46C0E7B9F134
:10692000000FE2D04446DDE90B7A0A99DDF83480A5
:10693000EFE6069B0393C7E6E5680139A170002DD9
:106940003FF40AAF19466369626A2669AAEB03003D
:10695000049B5B69184420F07F40E37844E7002300
:106960001946FFE6C37F002B40F031842DE9F04F3C
:10697000827F8DB08346002A40F08C80837AC17A72
:1069800001208BF81E009942DBF81400079000F0FC
:1069900040840133DBB2022B08BF13460BEB8302AA
:1069A0008BF80A309BF81D30D2680993079B03923D
:1069B000134423F07F439BF80920CBF81430DBF815
:1069C00000300093DBF804300593531E0692DBB2CF
:1069D000002A00F0D58101220B92059A02EBC3092F
:1069E00000230893FF230193CA46DAF804809AF83B
:1069F00003C09AF80270674544D09AF800207B1CC7
:106A00003EB2DBB29A4208BF002306EB460206EB19
:106A100082068AF8023018F82600042808EB86045B
:106A200042D9082842D86178009A01EB410502EB6F
:106A300005156A7895F802E0A2EB0E0212F0FF024B
:106A400034D0052841D0012A40F01881062806D00C
:106A50005846FFF7B5FCAB78A8606B7061789BF87F
:106A60001C308B4200F0D980002008F82600E36A31
:106A7000A0620BB1216B98479AF803C09AF8027094
:106A80006745BAD1059A5245AAF1080300F007817B
:106A90009A46AAE7446A0421034601220420A44638
:106AA0000DB0BDE8F04F60471F46A4E7002208F88C
:106AB0002620E26A0120A062002AF5D0216B9047CF
:106AC0009AF803C09AF8027095E7606848B9A06820
:106AD00038B9E06828B9206918B9606930F07F409A
