:10000000004300200D3D00009DDC0100E13C0000AC
:10001000E13C0000E13C0000E13C00000000000089
:100020000000000000000000000000005D3700003C
:10003000E13C00000000000009370000E13C000046
:100040000D3800002D5901000D3800000D3800005A
:100050000D3800000D3800000D3800000D3800008C
:100060000D3800000D3800000D3800000D3800007C
:100070000D3800000D3800000D3800000D3800006C
:100080000D3800000D3800000D3800000D3800005C
:100090000D3800000D3800000D3800000D3800004C
:1000A0000D3800000D3800000D3800000D3800003C
:1000B0000D3800000D3800000D3800000D3800002C
:1000C0000D3800000D3800000D3800000D3800001C
:1000D0000D3800000D3800000D3800000D3800000C
:1000E0000D3800000D3800000D3800000D380000FC
:1000F0000D3800000D3800000D3800000D380000EC
:1001000053B94AB9002908BF00281CBF4FF0FF317E
:100110004FF0FF3000F00CB8ADF1080C6DE904CEE3
:1001200000F008F8DDF804E0DDE9022304B07047D0
:10013000704700BF2DE9F04F07468C460846099EE0
:1001400015463C461946002B40F0C6808242B2FA62
:1001500082F746D94FB1C7F1200E24FA0EFE00FAFD
:1001600007F3BD404EEA030CBC404FEA15481FFAA6
:1001700085FEBCFBF8F9220C08FB19C309FB0EFA3B
:1001800042EA03439A4528D9EB1809F1FF3004D21B
:100190009A4502D9A9F102002B44A3EB0A03A4B2A9
:1001A000B3FBF8F208FB123302FB0EFE44EA0344F1
:1001B000A64514D92C1902F1FF3303D2A64501D963
:1001C000931E2C44A4EB0E0443EA00401EB1FC40F5
:1001D000002334607360BDE8F08F4846DDE71346C6
:1001E000F0E702B9FFDE87BB831A01214FEA154E03
:1001F000AAB2B3FBFEFC200C0EFB1C330CFB02F876
:1002000040EA0343984563D9EB180CF1FF3004D260
:10021000984502D9ACF102002B44A3EB0803A4B229
:10022000B3FBFEFC0EFB1C330CFB02F244EA03445E
:10023000A2424FD92C190CF1FF3304D2A24202D9A9
:10024000ACF102032C44A41ABEE7C7F1200C20FA3B
:100250000CF800FA07F324FA0CFCBD404CEA030248
:100260004FEA154EABB2B8FBFEFC110C0EFB1C8026
:100270000CFB03F941EA0040814504FA07F423D955
:1002800028180CF1FF3104D2814502D9ACF10201EA
:100290002844A0EB090092B2B0FBFEFC0EFB1C0050
:1002A0000CFB03F842EA004398450FD9EB180CF118
:1002B000FF3204D2984502D9ACF102022B44A3EBE1
:1002C000080342EA014191E76146E2E76246F6E748
:1002D0006046A2E76346B6E7834205D90EB1C6E998
:1002E00000700021084676E7B3FA83F181B98342B2
:1002F00001D3BA420AD8BC1A60EB030301209C4622
:10030000002E68D0C6E9004C002164E70846F7E7F4
:10031000C1F1200C8B4022FA0CF41C4302FA01F5C7
:1003200000FA01F327FA0CF220FA0CFB4FEA144909
:100330001343BBFBF9F81FFA84FE09FB18BB1A0C28
:1003400008FB0EFA42EA0B42924507FA01F73ED942
:10035000A21808F1FF3004D2924502D9A8F1020098
:100360002244A2EB0A029BB2B2FBF9F809FB182265
:1003700008FB0EFE43EA024296452AD9A21808F16C
:10038000FF3304D2964502D9A8F10203224443EA7E
:100390000040A0FB0593A2EB0E029A42CE4698467F
:1003A00002D306D14F4504D2B9EB050E63EB040826
:1003B000013886B1B7EB0E0362EB080707FA0CFCB5
:1003C000CB404CEA0303CF40C6E900379CE74046E8
:1003D000C7E74346DBE73146FDE6000000000000CA
:1003E00070B5454DD5F85431996811F0010188B0C8
:1003F00021D103AA40F6034004F0A0FD04460028E2
:1004000076D1039B9B681B7893B9BFF35B8F2B4618
:1004100053F8CC2FBFF35B8F02F00502BFF35B8F65
:1004200053E8001F43E800200028F9D1BFF35B8F99
:10043000039818F02DFA03AA002141F2030004F0FA
:100440007DFD0446002853D1039B2C48996808225F
:1004500001311DF073FC039818F01AFA214603AA23
:1004600041F2010004F06AFD0446002840D10398DF
:1004700083685A7885F86820D9789A7842EA012208
:10048000A5F86A201A7985F86920197ADA7942EA9A
:100490000122A5F86C205A799B7942EA0323A5F83A
:1004A0006E3018F0F5F9214603AA41F2020004F07B
:1004B00045FD0446E0B9039B11489968402201318B
:1004C0001DF03CFC0E481DF0E3FC039818F0E0F929
:1004D00095F874305A061BD40A4B0B490B48C91ABD
:1004E000C908890141F001011BF0B7FF6FF0120448
:1004F000204608B070BD00BF000000207000002042
:1005000078000020EC110200D4120200293B020006
:10051000214603AA42F2030004F010FD044600281D
:10052000E6D1039BAA489968082201311DF006FC18
:10053000039818F0ADF9214603AA42F2020004F034
:10054000FDFC04460028D3D1039B9B68B3F801202F
:10055000A5F8FC2091B221B1DA789E48114620F02E
:10056000CBF8039818F094F995F8746016F020060B
:1005700000F0F98095F894301B0712D503AA0021EA
:1005800042F21C0004F0DAFC04460028B0D10398C3
:100590008368D3F80120D3F80530C5E9362318F075
:1005A00077F995F8D0309E0624D502A90DF1060002
:1005B00004F03EFD044600289AD1042142F22400B2
:1005C00004F05CFB0646002800F0D48004210830CB
:1005D0001FF089FCBDF806300380BDF80830438069
:1005E0002246314642F2240004F0A8FC04460028CA
:1005F0007FF47EAF95F8D0305C0610D503AA0021B9
:1006000042F22A0004F09AFC044600287FF470AFFE
:10061000039883685B7885F8183118F039F9082158
:1006200042F2010004F02AFB0446002800F0A280F8
:10063000082108441FF057FC95F8D01011F0400F26
:10064000024640F2022308BF032388074CBF43F051
:100650002C0043F00C008B0695F8D13048BF40F0D9
:10066000400013F0090F95F89A3018BF40F400606D
:1006700003F00603CE0748BF40F01000062B08BF6A
:1006800040F4C07000211DF0A7FC2146002242F278
:10069000010004F053FC044600287FF429AF95F8CC
:1006A0007430B5F8FC10980679D4D9B903AA41F290
:1006B000050004F043FC044600287FF419AFB5F8A8
:1006C000FC3063B9039B9B685A78997842EA01220F
:1006D000A5F8FC209A883F48114620F00DF80398B1
:1006E00018F0D6F8082140F6014004F0C7FA044695
:1006F00000283FD0082108441FF0F5FB95F8D030C2
:10070000D90702465AD530A1D1E900011DF064FC99
:100710002146002240F6014004F010FC0446002867
:100720007FF4E6AE014602AA4FF6014004F006FC53
:10073000294C2A4BE41AE408A401002856D0284882
:1007400044F002011BF089FE05F0FCFC0446002881
:100750007FF4CEAE06F080FF044600287FF4C8AEDA
:1007600005F064F8C4E6022140F66D4004F086FA14
:10077000044610B96FF06804BAE6022108301FF091
:10078000B2FB0123037046702146324640F66D40AD
:1007900004F0D4FB044600283FF4ECAEA8E60029A0
:1007A000A0D10E4B0C490F48C91AC908890141F064
:1007B00001011BF052FE6FF0040499E60A484FF065
:1007C0000051A3E7AFF30080908800020080002072
:1007D000D000002000010020D4120200EC11020021
:1007E000703B02004D3B020010880002029B36481D
:1007F0009E68B6F80120032A96BF3449344951F85F
:10080000221044F003031BF049FEB6F80110B6F8BD
:100810000320022944F003032ED1032A2CD82D49AA
:1008200051F822102C481BF039FE72792B48032A0C
:1008300096BF2B49264951F82210CDE90312B2790F
:100840000592B6F807200692D6F80920079244F0E0
:100850000303052203A91BF056FE029818F018F8AE
:1008600002AA00214FF6024004F068FB064628B1B8
:100870001C4844F0020165E71549D3E7029B1A487A
:100880009968022201311DF059FA029818F000F817
:1008900095F8B9305B077FF557AF02AA31464FF69E
:1008A000034004F04BFB18B1104844F0020149E743
:1008B000029B0F489968012211441DF03FFA0298EB
:1008C00017F0E6FF40E700BF943B0200B8180200B3
:1008D0002D36020078180200AD3B0200C53B020035
:1008E000F0180200F23B0200B90000201B3C02009D
:1008F000B8000020000000002DE9F041D0E90B35E0
:10090000866A5C193034A6428846174618D81C4DB2
:10091000A3FB050118A3D3E90023FFF7F1FBA41BF8
:1009200020F07F40C8F8000013A3D3E90023A4FB04
:100930000501FFF7E5FB20F07F403860BDE8F0815E
:100940000F4C0DA3D3E90023A6FB0401FFF7D8FB4E
:1009500005F1300120F07F40C8F8000006A3D3E97C
:100960000023A1FB0401FFF7CBFB20F07F403860A0
:10097000BDE8F081AFF300808D49FD1A070000004B
:1009800000CA9A3B000000002DE9F04FAB4C8FB03D
:1009900094F86A20002800F0398112F0010740F035
:1009A000B78194F82500FF2300F0030084F8263077
:1009B00014F060FC94F86A0041072DD494F82920C3
:1009C00094F8353004EB820204EB8303D2F82C80D8
:1009D000D3F83890B8F1000F11D0984841460EF086
:1009E000FFFF98F800305A0605D506210AF0F4FA00
:1009F000002800F0C981914849460EF0F1FF98F8AF
:100A0000003013F00E0F40F0EE80236A9BB10C27EC
:100A100038460FB0BDE8F08F3A4604F16B01C0F3E1
:100A2000C00014F08DFDFF2884F82600C6D038469B
:100A300014F03AFCC2E70DF0C1FE8246002800F037
:100A4000AD810DF0C7FE8346002800F0AC810FF0A9
:100A5000D5FE0546002800F0A381406F4FF6FF73D6
:100A60002B8505F11C03002800F0948105F1680234
:100A700005F164010B930AF0BBFAB5F86020704BE6
:100A800022F4EF6222F0070242F4887242F001027F
:100A9000A5F8602095F8392002F03F0262F07F024D
:100AA00085F8392095F87A2022F0070285F87A2017
:100AB00095F83C2022F0070285F83C2095F8D820D4
:100AC00022F0070285F8D8204FF01B120026C5E956
:100AD00016230622A5F8C020C5E912666E67A5F8A0
:100AE0007860EE852E6385F83B602E65A5F8C460BE
:100AF000A5F8C860A5F8D060A5F8CC60A5F8E460BA
:100B000085F8E660C5F80861A5F80C61A5F82061D4
:100B10000DF03CF995F83A21A5F8386122F003026E
:100B200085F83A2195F87A20A5F8406122F018025C
:100B300085F87A2095F8662185F8436122F007024E
:100B400085F8662195F88621C5F844A166F345121B
:100B500085F8862195F8AE21A5F8646166F3C30295
:100B6000C5E94A0100210020C5E94C0185F8AE2104
:100B700085F8D960A5F88461C5F8E060A5F8AC6196
:100B8000A5F8B86110F080F9A5F8D20010F082F94C
:100B9000D5F8BC112B4AA5F8D4000A40C5F8BC21F1
:100BA00010F07EF995F8C02160F3020285F8C021AB
:100BB00010F07CF90B9B236295F8C031C5F8C46135
:100BC00060F3C503C4E918ABC5E97466C5E972668C
:100BD000C5E905662E70ED6185F8C03115F0F4FBAE
:100BE000002840F0D38094F824300121C3F342035D
:100BF0000DF133008DF833300AF07AFB20BB236A05
:100C0000002B3FF404AF0EF0C1FB00E712F0010728
:100C10003FF4FEAE236A5BB193F8202042F002025B
:100C200083F82020236A93F82030D8073FF5EFAEF1
:100C30000FB0BDE8F04F0EF0EBBB00BF081F002067
:100C4000480148010000FFF699F8011002464046AD
:100C50000EF082FC5849B4F8689031230025A36057
:100C6000A0FB010152A3D3E90023C4E90555257077
:100C70006560E560FFF744FA20610BF03DFC064635
:100C8000B9F1000F08D198F8005005F00F05A5F153
:100C90000105B5FA85F56D0994F82400236965F31B
:100CA000000010F0010584F8240036D00020434AEB
:100CB000DFF80C91049302250DF13408019305929D
:100CC0000321CDE90200069433460090CDF8208040
:100CD000CDF81C902A460D950BF042FB41460DF0D5
:100CE000FDFD00288BD1374A05924AF2D832009296
:100CF000CDE90300CDE90100CDF81C90CDF82080AE
:100D000006943346012203210D950BF029FB2EE0BA
:100D1000002738460FB0BDE8F08F2B4A2B480493CC
:100D200003F24713A9FB0001069402951360912377
:100D300003FB0911224B0793204B05934FF6FF73DA
:100D400009924FF0020903930DF1340818A3D3E977
:100D50000023CDF83490CDF82080FFF7D1F9334649
:100D6000CDE900504A46284603210BF0A3FA41463C
:100D70000DF0B4FD00287FF442AF94F86A3043F0E0
:100D8000010384F86A3043E6122741E60EF0FEFACA
:100D900003273DE605F16C00686767E6072737E63D
:100DA00058460DF01DFD50460DF00EFD07272FE6AD
:100DB0008D49FD1A0700000000CA9A3BC9F50000E2
:100DC0002DDE00001DF100007C1F0020002AE784BA
:100DD00070B590F824308AB0C3F342030D46044640
:100DE00001210DF1230016468DF823300AF080FA18
:100DF0007178024628460EF0AFFB1D491AA3D3E9CD
:100E00000023A0FB0101FFF77BF923699842054607
:100E100020D21B1A00220192164A0293164BA21AE4
:100E2000A3FB02320221920900230A4409AE099170
:100E300012490591CDE903330321D2B206960093FE
:100E400018460BF0FFFA31460DF048FD48B9256110
:100E50000AB070BD02D9C21A0023DCE700200AB034
:100E600070BD0C200AB070BD8D49FD1A070000004E
:100E700000CA9A3B081F002009CB3D8D2DDE0000E3
:100E80002DE9F04FC38D468E1E4490F80E31B6B258
:100E9000314413F007038BB004461FFA81F940F088
:100EA000A381B0F8E870A9EB07011FFA81F90904E2
:100EB00000F10582904690F93920002AC0F2358170
:100EC00094F8E43084F8E53094F8842194F885317E
:100ED00094F80C1184F80D11934206D094F88631E1
:100EE00003F00F03062B00F04D82B14BD4F80851EC
:100EF0001A68944204BF00221A60002D00F0448159
:100F00002868002800F04081B4F81031B4F82AC0F5
:100F10004268C4F808216345B4F81221B4F81411EA
:100F200000F01781B4F828C0EB8318232B7100233D
:100F3000A5F806C02A8469842B7729460DF056FC53
:100F40000DF05EFCA368002BC0F2F780608DB4F852
:100F5000105110FB09F080B2B0FBF5F115FB01F365
:100F60009BB298421FFA81FAC0F0CE8005FB1101B6
:100F700040F2E2438F4889B203FB01F1A1FB00017B
:100F800089A3D3E90023FFF7BBF8A8EB0008E38DA2
:100F90001F4494F93930BE1B564440F2E247002BFF
:100FA000E68507FB05F6C0F29C81834A83498448A5
:100FB00040F685431AF0F7FE404080F311884FF069
:100FC000030002DF0027B3467E4AB4F814317E499D
:100FD000B4F81201A0853244B2FBF6F2A4F8C620A0
:100FE00042F2107202FB03633144013BB1FBF6F1A4
:100FF000B3FBF6F6B4F8103163858AB2831D9A42CA
:10100000A4F8C260A4F8CE2004DDC0F57F43FA3313
:101010001A4492B294F80E31A4F8CA201B0744BFB8
:101020000023A4F8C4300221012017F075F9002232
:101030000221814601200AF02BF864494FF4F07236
:10104000204609F0B5FF00F1030A5FFA8AFA604B07
:1010500000945246012100200BF00CFA30F00203FC
:101060000CD0554A5B49564840F6B4431AF09BFEF3
:10107000404080F311884FF0030002DF4D4EABFB80
:10108000066B49A3D3E9002330465946FFF738F8E9
:10109000089420F07F4506944F4823690493A5FBEC
:1010A0000001072303FB05114C4B07934C4B0593A1
:1010B000301A4FF6FE736BEB010103934FF47A7213
:1010C0000023FFF71DF84346CDE901500097524633
:1010D000012100200BF044F930F002030CD0364A15
:1010E0003C49374840F6CE431AF05DFE404080F35D
:1010F00011884FF0030002DFB9F1000F40F03C818E
:1011000000200BB0BDE8F08F1B1A2A4940F2E240E4
:1011100003FB00F0A0FB010123A3D3E90023FEF7AA
:10112000EFFF20F07F40804431E790F8D920002A7B
:101130003FF4C6AE80F8D930C6E6E168626823F0B5
:10114000004391422CBF88449044A360A8EB03085D
:10115000FCE6B4F82CC094457FF4E4AE40F2E24CD7
:101160000CFB03FE42F2107C0CFB01EC0CF1FF3C8B
:10117000BCFBFEFCB4F8C2E01FFA8CFCE6457FF431
:10118000D1AE01232B71D8E60B4A16490C4840F624
:1011900009431AF008FE404080F311884FF0030025
:1011A00002DF2868B0E600BF8D49FD1A0700000085
:1011B0009C1F002000CA9A3BFC210200841C0200F4
:1011C000EC1B0200FF5962027FC3C901A811002075
:1011D0002D000100DC2202008D49FD1AD5FF000020
:1011E00071460100C822020001200DF00FFB0646E7
:1011F000002800F0D5807C4809F0A4FE05460028B0
:1012000000F0CE80794B1A68002A00F0C1800DF002
:101210001BFB3368D4F808215A602B79C4F80861A5
:101220000C2203F01C036A7143F003032B71704E10
:10123000D4F81831A18DD4F8C4210020A6FB036393
:1012400094F80E61A871E8719B0A60F302060631FA
:1012500094F81C01A5F80930B4F81031A5F80B304A
:101260004944B4F81231A5F80D3089B2B4F81431FC
:101270002872A5F80F3084F80E61A4F8E810A5F8DC
:1012800011100AB394F866319E071DD494F8BF314B
:10129000D80719D4D4F8D0319A42D4F8C83100F024
:1012A0008280002B00F08C80D4F8CC2113682B6056
:1012B00015602A68C4F8CC510AB9C4F8D4516FF04B
:1012C00076000BB0BDE8F08FD4F8C831002B61D0A8
:1012D000D4F8CC311A682A601D602A68C4F8CC5151
:1012E000EAE7226CA36C02FB1933A36415F0BEF885
:1012F000054694F8D800C0F3C20015F0B9F80544CB
:1013000006FB05F53B4B94F81C2105F5742505F209
:101310003F25A3FB0535AD0C07FB02F2A36C22654C
:1013200005FB0AF072080344963A934228BF13461D
:101330002564A6EB050B304DC4E911230023C4F846
:10134000E030A0FB050126A3D3E90023FEF7D8FE79
:101350002749A8EB0008D4F81801A1FB0030800A47
:1013600007FB00F01EA3D3E90023A0FB0501FEF755
:10137000C7FE20F07F4727E601220221104609F030
:1013800087FEBDE6002384F88521A4F8C830ACE5CB
:101390001C603CE72A60C4E97155C4F8CC518BE766
:1013A0006FF06800ADE61168C4F8D011002B7FF42F
:1013B0007BAF13682B6015602A68C4E972557BE720
:1013C000137903F00303032B02D0C4F8C8216DE79F
:1013D000D379032BEDD00A2BF7D1EAE7AFF30080E6
:1013E0008D49FD1A07000000302000209C1F0020BE
:1013F0005917B7D183DE1B4300CA9A3B0000000097
:101400002DE9F04F0B68D2F800801B6897B00C46AE
:101410000A93037F00F11E01C3F3801305461746AC
:1014200014A806228DF847301CF088FC94F811901F
:10143000B9F1FF0F0DF1480B5BD05A460DF1470192
:10144000484613F027FC9DF8473002338DF84730AB
:101450002946032251F82E6B07F1080007F1040A10
:101460001CF06CFC07F11803042205F12A01504618
:101470000B931CF063FC0B9B052205F13A01184607
:101480001CF05CFC0B9B0521184609F031FF7B7FAB
:1014900095F83F2000F03F0060F305037B77C2F32F
:1014A0000403BB77AB8EFB81012899B202F01F03C6
:1014B00005D91B3303F01F030B2B00D8F9B90A9B86
:1014C000EC6800225A6197F82030304662F300033E
:1014D000012687F8203029462E710DF087F9206803
:1014E000267121460DF082F90DF08AF917B0BDE89A
:1014F000F08F062214A958461CF020FCA8E72368A8
:101500000020586095F8370095F8363043EA0023FC
:101510003B8298F8D830520962F3C5036A8E0D9267
:1015200040F2E24202FB01F088F8D8300B9014F050
:101530009DFF0C9098F8D800C0F3C20014F098FFFB
:101540000C9BC54903440B9800FB03F303F574237C
:1015500003F23F23A1FB03239B0C7B6295F8313000
:10156000398A40F2E24203FB02F24308963BBA6337
:10157000BB622B8FB94AADF83A309E46B84B8446D1
:1015800003440244B3FBF0F3B2FBF0F242F21070FA
:10159000A8F8C6201FFA8EF200FB02C2013A881D8D
:1015A000B2FBFCF2A8F8C2209AB28242A8F8CE2080
:1015B00004DDC1F57F41FA310A4492B2A8F8CA208D
:1015C0005146042208F1DC001CF0B8FB2B4613F84E
:1015D0001C2FC2F34011DA070F910C9100F1158115
:1015E0004FF48073AB830A9B93F8260014F0C2F883
:1015F0000146062205F12B00002900F0EB8005F1E1
:1016000024011CF09BFBB9F1FF0F05F1250000F050
:10161000E48014A906221CF091FB9DF84730AB77BB
:101620005946062205F11F001CF088FB98F8D830B7
:10163000FA896A863A8AAA86C3F3C203BDF83A20B9
:1016400085F83830EA8640460FF0E4F82946B8813C
:10165000E880656830460DF0C9F8BB89EB801B2334
:101660002B710C9B2E68002B40F0BC809DF83C3009
:101670002B77294630460DF0B9F80DF0C1F897F8F0
:101680004500B7F84050B7F84260012100F007006C
:1016900014F0FCFC2E4406F5E176311882467148C0
:1016A0004FF000093123C8F80830A1FB000168A3FE
:1016B000D3E90023C8F80490C8F80C90FEF720FD89
:1016C0000B9B7E6A0D9AE5689E1B40F2E24303FB8A
:1016D000025520F07F4005F2B245A5EB0A034A46C9
:1016E0000221C8F8100001200B9309F0D1FC0A9DDB
:1016F00028460EF031F9821C5B4B0095D2B2484669
:1017000001210AF0B7FE012800F08C800A9B93F8B3
:101710002430DB0771D440460FF07CF8DFF84491A9
:10172000A6FB09564AA3D3E900238346314628463F
:10173000FEF7E6FCA368CDF818800BF10304A3F1D3
:101740003A0B4A4B07934A4B05934FF4E4730893C3
:10175000D8F8103020F07F4746484FF0000ACDE916
:1017600003A3A7FB00010723281A03FB071166EB5D
:1017700001014FF47A720023FEF7C2FC0B9BCDE906
:101780000170A3FB090132A3D3E90023FEF7B8FCE3
:10179000E4B220F07F4000905B4622460121504693
:1017A0000AF0DEFD30F002030CD0334A33493448EE
:1017B00040F2C9131AF0F7FA404080F311884FF055
:1017C000030002DF01220221104609F061FC17B07C
:1017D000BDE8F08F1CF0BDFA15E7062200211CF0D1
:1017E000B8FA1AE77B7F43F040037B77504613F04B
:1017F0005DF80123F8832B773BE700230122009358
:10180000184611460AF036FE85E71B4A1D491C485A
:10181000F1231AF0C8FA404080F311884FF003001A
:1018200002DFDDE60DF098F80A9B83423FF46EAFCD
:10183000114A1549124840F29F231AF0B4FA404069
:1018400080F311884FF0030002DF5FE7AFF3008001
:101850008D49FD1A0700000083DE1B43FF59620219
:101860007FC3C90100CA9A3B354601000546010005
:10187000714601008D49FD1A0C240200DC22020091
:10188000EC1B0200F01D02006824020001481AF05F
:101890008ABA00BF982C020011B103481AF083BA2B
:1018A00002481AF080BA00BFB62C0200D62C020003
:1018B00030B593B01CF061FF0378044607AD032BED
:1018C00024D8DFE803F0021D1F21134928461CF02D
:1018D000ECF9A379059562780492A2780392E278F4
:1018E000029222790192627900921E210B4A0AA883
:1018F0001AF066FA0A480AA91AF055FA13B030BD70
:101900000849E3E70849E1E70849DFE7084A0A210F
:1019100028461AF055FADCE7E12C0200032D0200FC
:10192000262D0200E82C0200EF2C0200F92C020008
:10193000CD48020070B5002088B003F0F3FF0646E2
:1019400030B101461D4808B0BDE870401AF02BBA0E
:101950001B4D1C481AF027FA0FCD03AC0FC42B689F
:101960002360194900963346022203A804F05EFE64
:101970000146F8B115481AF016FA1548154C05F04D
:101980004FFE00214FF4004019F09AFE23780133F6
:10199000DBB2A02B08BF5A232370207801F06EFB26
:1019A00001F00EFB013810F0FF0008BF642001F0C9
:1019B0000DFBE6E708481AF0F6F9DEE73D2D0200D8
:1019C000A01302005D2D020078140200742D0200A5
:1019D000680100205B0800209A2D02000B6801338B
:1019E0000B60014B1B6818478C010020014B1860ED
:1019F000704700BF8C01002007B50B46002102464E
:101A00000191034801A900F0F9F803B05DF804FB67
:101A1000DD19000030B585B0CDE90101044600258F
:101A200001A90548039500F0E9F8DDE90230984284
:101A3000B8BF255405B030BD81BD01002DE9F84F78
:101A4000B0F8189019F00808044693460DD0012903
:101A50000CBF49F0100949F02009A0F818908BF349
:101A60001188BFF36F8FBDE8F88F09F007090229CD
:101A700007D120461AF0B1F90028F0D00128238BB5
:101A80004ED16769218B002F15DA256821F00701F7
:101A9000C4E9008841F0010121830026218B01F077
:101AA000070ACA4502D0A368002B5AD10DB9002EEF
:101AB00071D0002356E001F007035A1F012A1ED8F7
:101AC00021F00701062B256889B2C4E900880AD1F4
:101AD0003DB1638B2A46126801339BB2002AFAD1CA
:101AE000638341F00201218320461AF076F906460D
:101AF0000028D3D0238B43F020032383CDE7042B8E
:101B00000CD121F0070189B2218320461AF065F932
:101B100005460028C1D041F0200121830025BCE703
:101B2000032809D1226923F00703166843F006034E
:101B3000238300252F46B1E7042806D1226923F02C
:101B40000703566843F00403F2E7052806D122692B
:101B500023F00703966843F00503E9E700252E46C6
:101B6000E8E7012341F0080121838BF31188BFF3DB
:101B70006F8FFBB985BB16B11F492046B0474FF0A8
:101B80002003EFF3118B83F31288BFF36F8F238B46
:101B900023F008032383238BDA0625D523F01003D3
:101BA00023830121B4F8189009F0070900297FF474
:101BB0005EAF54E7A1680029DCD0D1F80090D1F8DD
:101BC00004B03B4652462046D847B9F1000FD1D069
:101BD0004946D9F80090F2E729463B46524620464E
:101BE0002D681AF016F9C5E713F020011EBF23F087
:101BF000200323830221D5E73FBE01002DE9F04FEA
:101C000091B08B46029092461C4600259AF800003F
:101C100008B928465FE325280AF1010707D0029B8F
:101C2000594698470028C0F25683013512E218221F
:101C300000210AA81CF08DF89AF80130252B78D0E5
:101C400000221046964694461646394617F8013B40
:101C50002B2B00F09D8000F29480202B00F09B80C5
:101C6000232B00F09B802EB19DF8306046F00406D7
:101C70008DF83060BCF1000F05D09DF8306046F063
:101C800008068DF83060BEF1000F05D09DF8306079
:101C900046F010068DF8306028B19DF8300040F015
:101CA00020008DF830002AB19DF8302042F040022B
:101CB0008DF830209DF8302002F04400442803D1F4
:101CC0006FF386128DF830209DF830202A2B42F0D9
:101CD00080028DF830207BD19DF8312042F0010246
:101CE0004B1C8DF831201A782E2A9DF831200CBF1C
:101CF0000121002161F341028DF8312074D15A781D
:101D00002A2A6AD0013300210A26184610F8012B2E
:101D1000A2F13007092F40F28E809DF830200E91FD
:101D2000C2F3400040EAD17161F341028DF83020E6
:101D30005AE00AF102078DF833309DF83130D907A7
:101D400040F1498154F8049BB9F1000F07DA9DF87E
:101D5000302042F004028DF83020C9F100095A0702
:101D600040F1428154F8048BB8F1000F80F24181B8
:101D70009DF831306FF341038DF831304FF0FF386B
:101D800037E12D2B0CD0302B7FF46DAF01225CE7B7
:101D90004FF0010C59E74FF0010E56E7012054E7D0
:101DA000012652E70CFB0202303A33461E4616F873
:101DB000010BA0F13007092FF4D9994293D09DF877
:101DC00030100D92D20F62F341018DF830108AE786
:101DD0000B4600224FF00A0CE8E79DF8312042F054
:101DE00004028DF8312002331F4617F8012B6C2AAC
:101DF00041D025D8682A2BD06A2A46D04C2A4CD00C
:101E00001F4617F8012B9DF831308DF83320782AC2
:101E100000F2D980572A4DD8412A03D0453A022AE8
:101E200000F2D1809DF83230042262F302038DF873
:101E3000323001239EE006FB01213039034664E77E
:101E4000742A26D07A2ADBD19DF8313006220DE0A3
:101E50005A78682A9DF8312006D1012161F3C60223
:101E60008DF831209F1CCCE71346022262F3C60393
:101E70008DF83130C5E75A786C2A9DF8312001D1B0
:101E80000421EBE713460322F0E79DF831300522E9
:101E9000ECE79DF831300722E8E7BDF8303023F455
:101EA000F04323F0020343F4804343F00203ADF810
:101EB0003030A6E7A2F15801202900F2848001A069
:101EC00050F821F0891F0000C71F0000C71F000045
:101ED000C71F0000C71F0000C71F0000C71F00006A
:101EE000C71F0000C71F0000251E0000C71F0000FD
:101EF000891F0000491F0000251E0000251E00004C
:101F0000251E0000C71F0000491F0000C71F00005A
:101F1000C71F0000C71F0000C71F0000911F00005F
:101F2000891F0000AD1F0000C71F0000C71F000071
:101F3000AD1F0000C71F0000891F0000C71F000061
:101F4000C71F0000891F00009DF83210012003F018
:101F5000780360F30201402B8DF8321002BF9DF828
:101F6000301041F001018DF83010632A31D1003B6F
:101F700018BF01239DF83020C2F340010B4363F3E7
:101F800041028DF83020D8E69DF832100220DEE7BD
:101F90009DF8322003F07803A3F14000032161F3A0
:101FA000020243428DF832204341E3E79DF832209C
:101FB000032113F0780F61F302028DF8322014BF71
:101FC00001230023D6E79DF8303043F001038DF85C
:101FD00030300023CEE79DF93020002AB4BFDDF871
:101FE00034904FF0FF39BAE69B077FF5C7AEDDF8B6
:101FF00038809DF831100023CDE90D339DF8323043
:1020000003F00703012BC1F3C30138D1CB1E042B0E
:1020100022D8DFE803F003090921210054F8043B2A
:10202000DA17CDE90A3206E0073424F00704F4E8B1
:102030000223CDE90A239DF8303013F0030656D071
:1020400002983B46524659461AF0ADF90028C0F2B4
:1020500042810544BA46D9E554F8043B01294FEAC8
:10206000E372CDE90A3205D19DF828300A930023A6
:102070000B93E0E70229DED1BDF92830D0E7022B2F
:1020800023D1CB1E042B13D8DFE803F0030A0A1276
:10209000120022680A920023201D0B930446CAE70F
:1020A000E01D20F00700F0E80223CDE90A23F5E760
:1020B00054F8043B0A9301294FF000030B93D3D04B
:1020C0000229B8D1BDF82830D0E7042B09D1E31D8F
:1020D00023F0070303F10804D3E90023CDE90A2321
:1020E000A9E7032B04BF54F8043B0A93A3E79DF828
:1020F00033007828AED8622822D825283FF48FAD47
:102100005828A7D10DF126030093DDE90A0104AB9D
:102110000CAA1AF002F98246B8F1000F0DF1260060
:102120000CDB9DF83020A0EB0A036FF38612984574
:102130008DF8302002D9A8EB03030D9380463DE0D3
:102140006338152886D801A252F820F0CD2100006E
:1021500031220000552000005520000055200000CD
:1021600055200000312200005520000055200000BD
:1021700055200000552000008B220000592200004D
:102180005D2200005520000055200000A521000020
:102190005520000059220000552000005520000065
:1021A00059220000B8F1000FDDF828A00ADB4146F3
:1021B00050461BF09DFD0AEB00080026BAF1000F07
:1021C0000CD147E750461BF08CFDF4E70A9B8DF8D5
:1021D000103000260DF1100A0DF11108A8EB0A03CA
:1021E00006B101339DF83220D00668D5023352067D
:1021F0000D9948BF0E9A0B4448BF9B18B9F1000FC8
:1022000076DD9DF83020A9EB0309C2F38003039328
:1022100053076DD4500661D546B1029B59463046EE
:102220009847002857DB039B01351E46302356E0B4
:102230001E070FD413F0100618BF2026DDE90A236D
:10224000002BBFF65FAF524263EB4303CDE90A2395
:102250002D2657E72B26F1E7002653E70A9840B3CF
:102260000DF1260300930CAA04AB00211AF055F8D7
:10227000BDF8323003F0EF0343F4F04343F01003B2
:102280008246ADF83230002646E70A9B07293FF622
:10229000E1AEDFE801F00C04060C08080C0C1D7020
:1022A000D8E61D80D6E6EA17C3E90052D2E61D60E3
:1022B000D0E6DFF8C8A006460AF105088EE7110748
:1022C00048BF013393E7184603935946029B98474A
:1022D0000028039B04DA11B0BDE8F08F20234D44A1
:1022E0004A46002AA5EB090109F1FF39EBDC0D464E
:1022F00036B1029B5946304698470028EBDB013542
:102300009DF83230D90601D41A0706D5029B5946EA
:10231000302098470028DEDB01359DF83230DB069F
:1023200007D59DF83300029B594698470028D2DB19
:1023300001350D9E2E44731B002B16DC029843467C
:10234000524659461AF02FF80028C4DB0544A94428
:10235000A9EB0503002B7FF77DAE029B5946202099
:1023600098470028B7DB0135F2E7029B5946302039
:1023700098470028AFDB0135DDE700BFBC2D020028
:1023800030B51049104889B000221EF02DFC0F4DC9
:102390000F4900220023CDE9062300240E23CDE9B6
:1023A0000334CDE901440B4B00944FF440722846AE
:1023B00018F016FB084928461EF0BBF8204609B065
:1023C00030BD00BFDD230000780A0020B00A0020E5
:1023D000A02E002039270000C22D0200014818F06D
:1023E0008BBC00BFF80800200C4A002310B5137006
:1023F0000B4A13600B4B0C4A1A604FF4004000F07C
:10240000D7FC00F077FA094819F0E4FFBDE8104066
:1024100007490848082348221EF041B81529002022
:102420008C1500209001002013C401009415002099
:10243000085200209C15002070B5124BBFF35B8F33
:1024400053E8005F6A1C43E800210029F8D1BFF37C
:102450005B8F2DB90C4C0D4E361B3611B54200DB8F
:1024600070BD237B53B123689B690BB1204698470D
:10247000636804221968204600F02EFA01351034F2
:10248000ECE700BF901500205C1302007C130200F3
:1024900010B54FF02003EFF3118483F31288BFF3DC
:1024A0006F8F044819F0A6FF84F31188BFF36F8F74
:1024B00010BD00BF9415002010B5044C237813B94B
:1024C000034818F019FC0123237010BD14290020C3
:1024D000F80800200C4BBFF35B8F53E8002F01324C
:1024E00043E800210029F8D1BFF35B8FBFF35B8F76
:1024F000064B53E8002F013A43E800210029F8D1A8
:10250000BFF35B8F704700BF8C150020881500203B
:102510000020064BBFF35B8F024653E8000F43E8F1
:1025200000210029F9D1BFF35B8F70478C15002083
:10253000F8B5FFF7EDFF0A4C0A4D2D1B07462D118C
:102540000026AE4200DBF8BD63685B792BB12368DF
:102550001B6913B139462046984701361034F0E71D
:102560005C1302007C130200164B984237B50446F8
:1025700002D3154B984220D314480022002301A90E
:1025800018F0CEF90546D8B90122019BBFF35B8F45
:1025900053E8001F43E800200028F9D1BFF35B8F08
:1025A00001982146412204301BF089FB019C7E23C7
:1025B00084F8453084F846500434204603B030BDDA
:1025C000034CFAE7EC0E0200D84B02009C150020E9
:1025D000CA2D020050B1064B984206D303F5107382
:1025E00098422CBF0020012070470020704700BF98
:1025F00008520020434B1B782DE9F74F044603B9DE
:10260000A0B1FFF745FF054618B19CB128461AF066
:102610000CF82CB93C4B1B68002B01DDFFF788FF41
:102620003A4819F0E5FE041E18BF0124204603B005
:10263000BDE8F08F364BBFF35B8F53E8002F013AB4
:1026400043E800210029F8D1BFF35B8F314B1B78A1
:10265000BBB92B7ADB0714D419F0FAFF8046284661
:1026600019F0C1FF0146404619F0D7FE2A4B2B4A0C
:10267000DFF8ACA0DFF8ACB09B1A06464FEAD309EE
:1026800036B9294E294FBF1B3F114FF0000836E0E5
:10269000B6FA86F7C7F11F073946284619F0A6FF94
:1026A000234B9842024602D3224B984216D310463F
:1026B000FFF790FF90B9524510D06989C1F3891195
:1026C00000F0FCF84FEA891343F001030246ADF82D
:1026D000003039464346584619F0F9FE012303FA03
:1026E00007F726EA0706CBE773685B7923B13368FF
:1026F00029465B683046984708F101081036B8450E
:10270000F2DB83E7142900208C15002094150020AB
:1027100088150020152900201C130200EC1102006E
:10272000CA2D0200E42D02005C1302007C1302009B
:10273000EC0E0200D84B020010B5FFF77DFE18F03A
:10274000D9FF0C4B186030B10B4B1B68092B02DD15
:102750000A4818F0D1FA094C0020FFF74BFF002877
:10276000FAD14FF0FF324FF0FF33204618F0EAFA6B
:10277000F2E700BFB815002088150020F8080020F7
:10278000284B37B51B68418104469847E0604FF0FD
:102790002003EFF3118583F31288BFF36F8F224874
:1027A000214619F01BFE85F31188BFF36F8FBFF32D
:1027B0005B8F1E4B53E8002F511C43E8001000288C
:1027C000F8D1BFF35B8F1A4B1B7883B14FF0200316
:1027D000EFF3118483F31288BFF36F8F0020FFF7AC
:1027E00009FF84F31188BFF36F8F03B030BD114B25
:1027F0001B68002BF9D052B900220023CDE9002339
:102800000D484FF40042002319F088F9EDE70A2A39
:10281000EBD109481EF0F4F9084803B0BDE8304098
:1028200018F06ABA90010020941500208815002045
:1028300015290020B8150020780A0020F80800208B
:10284000F8B50E4F3D7875B90D4C0E4EFFF7F4FDFF
:10285000361B3611B54207DB0020FFF7CBFE002800
:10286000FAD101233B70F8BD63685B791BB1236823
:1028700020465B69984701351034EBE715290020A5
:102880005C1302007C13020007B504380190BFF30B
:102890005B8F50E8003F5A1E40E800210029F8D124
:1028A000BFF35B8F012B03D1034801A91DF012FE7A
:1028B00003B05DF804FB00BF9C150020044A054BE3
:1028C0009B1AB1EBD30F34BF52F831000020704790
:1028D000EC1102005C130200054A4368801A0011E3
:1028E00001300122187119605A71FFF7E5BD00BF70
:1028F0005C1302002023024902481A461DF0CFBD96
:1029000048540020BC15002037B50023094D019321
:102910000120FFF76FFE0446FFF7DCFD00220023D5
:1029200001A9284617F0FCFF08B1002CF0D101984E
:1029300003B030BDBC15002007B500230193074844
:102940000022002301A917F0EBFF10B1FFF7DCFF15
:102950000190019803B05DF804FB00BFBC15002096
:10296000F0B5037A85B0DC0701901ED4457A2D09B5
:102970001BD0002426460198314619F037FE074641
:10298000FFF728FE70B134B9019B2946186919F088
:1029900044FD044648B124FA06F3D90702D5384667
:1029A000FFF772FF0136AE42E5D3019B1A7A920718
:1029B00004D55B69084C0393039B2BB9064801A916
:1029C0001DF088FD05B0F0BD1D6803A920461DF06F
:1029D00081FD0395F0E700BFBC1500200EB403B5E0
:1029E00003AB014653F8042B04480193FFF706F9A3
:1029F00002B05DF804EB03B0704700BF09CA0100E4
:102A00002DE9F0471D46089B1746DA0604460E4698
:102A100005D499064CBF2A492A49FFF7DFFFDFF8A2
:102A2000A8904FF00008A8452ADBDFF8A080DFF867
:102A3000A090DFF894A00025BD422FD2725D4946D8
:102A40002046FFF7CBFF0135102D20D12149DFF8BB
:102A50007880DFF884902046FFF7C0FF0025AF4262
:102A600028D9725DA2F120035F2B28BF2E22494690
:102A70002046FFF7B3FF0135102D14D1BDE8F087D4
:102A800049462046FFF7AAFF08F10108CBE76A078D
:102A9000D2D151462046FFF7A1FFCDE7414620465F
:102AA000FFF79CFFCFE76B07D9D141462046FFF7E0
:102AB00095FFD4E741462046FFF790FFDBE700BFD4
:102AC000292E0200282E0200332E0200312E020091
:102AD0002B2E0200352E0200372E02002DE9F04F7A
:102AE00087B01C4601F0010305929DF84090BDF9A6
:102AF00048A004930746884601F0020B01F008063F
:102B000019F00CFD0246002844D03A493846FFF738
:102B100065FF0546BBF1000F08D018F0440F3BD10C
:102B2000354922463846FFF759FF0544049B53B107
:102B3000324B334953F82920324B3846002A08BF1C
:102B40001A46FFF74BFF3EB12F4B304953F829206F
:102B50003846FFF743FF0646BAF1000F16DB059B28
:102B6000002B45D0012303FA09F9294B294C19F010
:102B7000100F18BF1C4651469DF84400FFF79EFEFB
:102B8000214602463846FFF729FF0644701907B070
:102B9000BDE8F08F0546BDE71F4B18680028C4D07C
:102BA0001E4B4FF47A781B68B4FBF3F44FF4616169
:102BB000B4FBF0F300FB134408FB04F44FF03C0CAF
:102BC000B3FBF1F201FB1231B4FBF0FEB1FBFCF3FD
:102BD00000FB1E440CFB131108FB04F40091B4FB32
:102BE000F0F00F49CDE901E03846FFF7F7FE9CE72A
:102BF000084CC0E7482E02004C2E02008814020048
:102C0000C13A02003A2E02009C140200712E02000A
:102C1000442E02003F2E0200D8150020DC150020B3
:102C2000552E020038B50C46E107054603D5084A83
:102C30000849FFF7D3FEE20608D4A30628464CBF96
:102C400005490649BDE83840FFF7C8BE38BD00BF9A
:102C50003A2E0200C13A0200292E0200282E02005C
:102C60002DE9F0478B7A13F007088AB005460E4627
:102C7000174622D00A7A4989C3F3C203C1F38911E6
:102C8000D243CDE900830291F36802F00102394694
:102C9000FFF724FF8146347AE44314F001040ED098
:102CA0002946304619F046FDB8F1000F2BD04246B8
:102CB00039462846FFF7B6FF25E0C146EBE7B8F1F5
:102CC000000F26D12746EB68069306AA3B46A96863
:102CD000304619F01BFD069A6B681A603AB1AB6872
:102CE000134413F8014CA4F10A035C425C412846EA
:102CF00019F07DFE069B1F44002BE4D11CB1144942
:102D00002846FFF76BFE28460AB0BDE8F04719F0E9
:102D10006EBE304619F09CFC0E4902462846FFF76D
:102D20005DFE4FF0100A05AA234606A93046CDF8ED
:102D300014A019F0EBFC059A002AB8D04B46009776
:102D400006A92846FFF75CFE059B1C44EBE700BF85
:102D5000772E0200C13A020073B542F20F738B4224
:102D600028BF0B4605680F4A04460521684619F03E
:102D700027F863680C495B6806460B22284619F061
:102D8000CCFC63683246694628465B6819F0C5FC8E
:102D9000636806495B681B22284619F0BEFC02B036
:102DA00070BD00BFC6360200B52E0200992E02008B
:102DB000084A10B50123084C13600021A04204D832
:102DC00001B11360054B186010BD40085B00012184
:102DD000F4E700BFDC15002040420F00D8150020AA
:102DE000F8B5074F0D4604464618B44201D12846AF
:102DF000F8BD386814F8011B83685B689847F4E7EE
:102E0000F4150020014B024A1A607047F4150020A7
:102E1000EC0F0200024B034801221A7019F0E7BDC3
:102E200016290020CC1402000148FFF795BF00BF0F
:102E3000CC14020010B508460C4619F0C7FB054833
:102E400021460F22FFF70CFF2046BDE8104019F085
:102E5000ECBB00BFCC140200014B01221A7070477A
:102E600028290020024B034801221A7019F0BFBD27
:102E700029290020F81402000148FFF76DBF00BFA8
:102E8000F814020010B508460C4619F09FFB0548DF
:102E900021460F22FFF7E4FE2046BDE8104019F05E
:102EA000C4BB00BFF8140200054B1B781BB141F2F4
:102EB00088301DF06ABEA420002118F001BC00BFBC
:102EC000292900202DE9F047DFF88C90DFF88CA04D
:102ED00080460F46042499F80050CDB94FF0FF33D7
:102EE0004FF0FF32504617F019FE3A464146284649
:102EF00017F006FB0646504617F088FE184DFEB147
:102F000001232B7099F800306BB93846BDE8F08783
:102F10003A464146002017F0F3FA0646EEE75CB960
:102F20002C704FF0FF34002017F036FB0028ECD057
:102F30002B78002BF3D1E8E7013CFFF7B5FFF2E770
:102F40002B7813B1013C04D12C702B78002BC2D10B
:102F5000DBE7FFF7A9FFF8E729290020CC080020CC
:102F600028290020074B084A0848D21AD208084BE3
:102F70009201012914BF0146194642F00302054897
:102F800019F078BAEC110200EC110200152F0200C2
:102F90000D2F02001E2F020010B5084C86B02478B9
:102FA0008DF81740012402940DF117040194BDF827
:102FB000204000941CF07BFA06B010BD5C08002095
:102FC000014B1878704700BF5C08002000B589B03D
:102FD00064288DF8070019D80E4B182218700021AC
:102FE00002A81AF0B6FE0C4B03930DF107030493ED
:102FF00002A901230020ADF8143006F0B7F810F153
:10300000800F08BF002009B05DF804FB6FF01500C9
:10301000F9E700BF5C08002080150200024B012286
:103020001A700020704700BF2C2900201FB5012412
:103030000294044C0194BDF8184000941CF037FA37
:1030400004B010BD2C290020074B084A0848D21AAA
:10305000D208084B9201012914BF0146194642F0DB
:103060000302054819F006BAEC110200141302001D
:10307000152F02000D2F0200372F020010B50D4C46
:1030800086B00623607018220021684623701AF06B
:1030900060FE094B6946CDE9013400200223ADF8FA
:1030A0000C3006F063F810F1800F08BF002006B066
:1030B00010BD00BF2A290020D01502002DE9F843D9
:1030C00005464FF02003EFF3118683F31288BFF318
:1030D0006F8F0E4B1C689CB10D4FDFF838804FF09E
:1030E0000C09D4E90132002D08BF13462BB198F822
:1030F000142009FB02F2B85C98472468002CF0D138
:1031000086F31188BFF36F8FBDE8F8830C1600209B
:1031100018160020B028002000F01F0301229A405A
:103120000A4BBFF35B8F400903EB800050E8003F80
:1031300043EA020140E8001CBCF1000FF6D1BFF3E6
:103140005B8F1A4214BF0120002070472416002014
:1031500030B51D4B1C7DBFF35B8F04F01F030122B4
:103160009A401A4B610985B0D04303EB810353E8C1
:10317000001F01EA000543E8005CBCF1000FF6D136
:10318000BFF35B8F114217D0114D0C2202FB04528A
:1031900007CA01AB83E807000E4A7AB193E807003B
:1031A0001AF0F6FD0020FFF789FF0C235C432A1973
:1031B00000232B51C2E9013305B030BD82F31188E1
:1031C000BFF36F8FEEE700BFB02800201416002079
:1031D0001816002091DD01002DE9F041374B384CE5
:1031E0001D7D88B080462846FFF796FF60B96F4680
:1031F00042462946384619F03EFC97E807000C265F
:1032000006FB054686E807000C236B43E218E05CEA
:103210006E0905F01F0700283BD0B8F1FF3F10D022
:10322000D2F808E02748284A4FF4004C0021002338
:10323000EEFB0C01FCF764FF0121A8EB00001DF080
:1032400084FC17F0BFFF0120FFF738FFBFF35B8F4F
:103250001E4B0122BA4003EB860353E8001F1143C3
:1032600043E800100028F8D1BFF35B8F0C2303FB69
:10327000054494E8070005AB83E80700144A1AB137
:1032800093E807001AF071FDFFF762FF18F068F984
:103290000120104ABFF35B8F0123BB40DB4302EBED
:1032A000860656E8002F1A4046E800210029F8D18A
:1032B000BFF35B8F08B0BDE8F08100BFB0280020ED
:1032C000181600203F420F0040420F001416002045
:1032D0006BDD010024160020014B1868704700BF09
:1032E0000C020020F0B5082289B019F077FDCB6AF6
:1032F00003930B6B04934B6B05938B6B0693CB6B18
:10330000079313466A460C460646002711461046A8
:10331000CDE90177009719F077FC31460546304634
:1033200019F072FC216B0391616B0491A16B059103
:10333000E16B0544CDE906171046114619F064FC0F
:1033400031460544304619F05FFC0544206A009080
:10335000606A0190A06A0290A06B0690E06B0790F3
:103360003046CDE90477039719F04EFC0544606AB6
:103370000090A06AD4F838C00190E06A0290CDF8BD
:1033800010C0606BD4F83CC00390CDE905C0206A42
:103390000790304619F038FC0544E06A0090206B35
:1033A0000190606B0290206A0690A06A07903046F8
:1033B000CDE90477039719F044FD236B0093636B09
:1033C0000193A36B0293E36B0393636A0693E36A2F
:1033D00007932D1A08233046CDE9047719F031FD03
:1033E000636B0093A36B0193E36B0293236A0393D4
:1033F000636A0493A36ACDE90537236B07932D1AFB
:103400000823304619F01DFDA36B0093E36BCDE953
:103410000137636A0393A36A0493E36ACDE905372E
:10342000636B07932D1A0823304619F00AFD2D1AF5
:1034300010D40D4C35B908223146204619F0DAFC7B
:1034400001280FD0082322463146304619F0F9FCF6
:103450002D1AEFE7044A08233146304619F0D4FB11
:103460002D18F8D409B0F0BD601602000449431EBF
:103470000F3013F8012F8A5C1A708342F9D170471C
:10348000532F0200F0B5264E07460C460FCE8DB0E6
:1034900001AD0FC50FCE0FC596E8070085E8070000
:1034A0003846002F38D0002C38D0381F214602462D
:1034B00010344B780D781B0443EA0563CD782B4319
:1034C0008D78043143EA05238C4242F8043FF0D161
:1034D000144C04218A07036916D1C3F30742A55C83
:1034E0001A0EA25C42EA0562C3F30725DBB2655DF2
:1034F000E35C42EA054242EA03220CAD21F00303F9
:103500002B4453F82C3C534050F8042F01315340C6
:103510002C290361DED101200DB0F0BD2046FBE770
:10352000B4130200532F0200014910220A607047B1
:1035300010ED00E072B6404080F31188BFF36F8F4A
:10354000BFF34F8F30BF62B6BFF36F8F704700BFBE
:1035500072B6494081F3118820BF80F3118862B6AA
:10356000704700BF73B506460C4601B3134B144DAC
:103570001448ED1AED08AD0145F00105ADF8005015
:10358000D1E90123096818F0A2FFADF80050D4E991
:103590000423E1680C4818F09AFFE1690B482A46B9
:1035A00018F068FFA1690A482A4618F063FF21460F
:1035B000304602B0BDE8704017F05AB8EC11020076
:1035C0003C1302005330020082300200B13002008E
:1035D000C030020043B2002B08DB012200F01F00C4
:1035E00002FA00F05B09024A42F82300704700BF6C
:1035F00000E100E043B2002B0DDB01225B0900F08B
:103600001F0002FA00F02033034A42F82300BFF300
:103610004F8FBFF36F8F704700E100E0054B420909
:1036200000F01F0053F82220012303FA00F010409D
:10363000704700BF00E100E043B2002BA8BF03F1D8
:10364000604301F10101B8BF064B4FEA4111ACBF25
:1036500003F5614300F00F00C9B2B4BF195483F8F9
:103660000013704714ED00E008B572B6044B9A6978
:103670001AB100229A611CF063FF62B608BD00BF58
:10368000B028002030BFFFF7FDBF00BF0F4A08B5CC
:103690000F4B22F07F029A60BFF34F8FBFF36F8F03
:1036A000D3F8882022F47002C3F88820EFF3148343
:1036B00023F0040383F31488BFF36F8F17F07CF8B3
:1036C00018F092F800F016FB17F080F800000000E8
:1036D00000ED00E0094A0A4993680968D967094979
:1036E00098674B6843F080534B60002383F3118845
:1036F000BFF36F8F9368D86F704700BFB02800206A
:10370000802C020000ED00E012498A684FF0300082
:103710001044EFF3098C80E8F01F202080F312881A
:10372000BFF36F8F0C4F4FF00066CA698A603E602E
:10373000906F0023936780F3118804B5104600F062
:103740001BFBBDE8044002F1300090E8F01F8CF351
:1037500009887047B028002004ED00E01EF0040F37
:103760000CBFEFF30880EFF30980816911F8021CA8
:103770000229FFD001B51AF089FA01BD42F8203CB8
:10378000009B42F81C3C0A49019B42F8183C029BF2
:1037900042F8143C21F001014FF0807342F8043CE0
:1037A00042F8081C0023203A02658367704700BF77
:1037B0007BBF0100094A0346906870B113F1160FF0
:1037C000806E05D0A0F120029A4205D8834203D230
:1037D000814228BF0020704700207047B028002099
:1037E00008B5094B98600D46144600F0C5FA20460E
:1037F00085F30988002163B681F31188BFF36F8FC9
:103800000022002318F0B9FBB028002001B572B6E1
:103810000B4A906900281EBF002191611CF090FEA8
:1038200062B6EFF30580A0F110004FEAC000054931
:10383000014409C99847BDE8014003490847000011
:10384000B0280020041002004D380000044B996895
:10385000D869884203D003494FF080520A6070470C
:10386000B028002004ED00E02DE9F047354B364C40
:10387000364DE41AE408A40144F0010907468846DD
:1038800033484946164618F0E8FDAB6ADB0603D517
:103890003048494618F0E1FDAB6A180704D52E48B8
:1038A00044F0010118F0D9FD284DAB6A990723D4E3
:1038B0006FF01509254DAB6ADB0704D5274844F0A6
:1038C000010118F0CAFDAB6A980604D5244844F0FB
:1038D000010118F0C2FD1D4B9A6AD10624D49A6AE0
:1038E000920721D40020194A936A43F0FF039362A0
:1038F00000233370BDE8F08744F0010A19485146AF
:1039000018F0ABFDD5F83490AB6A1A06D0D516483E
:103910005246494618F0AEFDB8F1000FCAD0AB6A66
:1039200023F08003AB62C5E75B681B05DAD5394637
:103930004846FFF73FFF0028D4D080F309880220D3
:10394000D1E700BFEC1102003C13020000ED00E0E3
:10395000EE300200043102003731020078310200FB
:10396000973102004A3102006231020070B5234BE8
:10397000234C244D2448E41AE408A40144F0010631
:10398000314618F06AFDAB6A9B0103D51F483146EA
:1039900018F063FDAB6ADD0104D51D4844F0010158
:1039A00018F05BFD174DAB6A180304D5194844F0B5
:1039B000010118F052FDAB6A590304D5164844F0D2
:1039C000010118F04AFD0F4DAB6A9A0304D5134864
:1039D00044F0010118F041FDAB6ADB0304D5104847
:1039E00044F0010118F039FD064A936A6FEA034377
:1039F0006FEA13439362002070BD00BFEC11020018
:103A00003C13020000ED00E0C6310200DE3102008E
:103A1000F13102000B320200293202004E32020064
:103A2000683202002DE9F0412A4B2B4C2B4DE41A51
:103A3000E408A40144F0010807460E462848414620
:103A400018F00BFDAB6AD90403D52648414618F09F
:103A500004FDAB6A1A0504D5234844F0010118F0AF
:103A6000FCFC1E4DAB6A9B0512D544F001081F48B3
:103A7000414618F0F2FCA96BAB6A180408D51C4843
:103A8000424618F0F7FC1FB1AB6A23F40043AB6267
:103A9000124DAB6A590504D5164844F0010118F0DF
:103AA000DCFCAB6ADA050DD5134844F0010118F0CF
:103AB000D4FC0A4A936A002043F47F439362307037
:103AC000BDE8F081AB6A9B04F3D50C4844F00101DA
:103AD000EDE700BFEC1102003C13020000ED00E036
:103AE00093320200A932020037310200BA320200DA
:103AF000D3320200E83202000333020097310200A1
:103B00002DE9F043654B5E688BB00D46C6F30804A3
:103B1000002787F31188BFF36F8F02F07F43B3F163
:103B20007F4F0DD102F00C03082B0BD15C495D4B8C
:103B30005D48C91AC908890141F0010118F08DFCDE
:103B40003D4603E0120701D40546012700238DF806
:103B50000730E31E092B00F28880DFE803F00575CB
:103B6000797286868686867D4E4A4D4EDFF82C8198
:103B70004E48B61AF608B60146F00106314618F06E
:103B80006CFCD8F82C404FF0000914F002048DF8BA
:103B9000079005D04648314618F05FFC002407E046
:103BA000D8F82C30002B1DDA4248314618F055FC6D
:103BB0009DF807309BB92022294602A81AF0BEF8CA
:103BC000099B002F65D0C3F3080222B96FEA532383
:103BD0006FEA4323099302A92046FFF7C3FC0BB009
:103BE000BDE8F083D8F82C305B00E1D5324831468F
:103BF00018F033FCAB6933F8022C4DF602739A428D
:103C00000AD098F8283073B10DF107020121284637
:103C1000FFF72AFE0446CBE729682848324618F009
:103C200029FC2C68C4E798F829302BB10DF1070165
:103C30000120FFF7F7FEEDE7B8F82A309BB2002B22
:103C4000B6D0FFF793FEE5E70DF107020021DEE7AE
:103C50000DF107010020ECE71149124B1848C91A71
:103C6000C908890141F0010196E70E4A0C4B15483D
:103C700015499B1ADB0816F4F87F4FEA831318BF27
:103C8000014643F001031148A4F1100218F006FCAC
:103C900084E723F4FF7323F001039BE700ED00E0CA
:103CA0003C130200EC1102001B33020046330200F9
:103CB0005D3302007E3302008C330200AB3302001E
:103CC000C733020000340200EB3302001934020053
:103CD000024A536943F010035361704700ED00E05E
:103CE000EFF30880EFF3098101B57246FFF708FF93
:103CF00001BD00BF044800232021C2180133302B2E
:103D000082F80013F9D1704700E100E01DF0E8F8F7
:103D1000202080F3118808484FF40261401880F396
:103D20000988EFF314800221084380F31488BFF35D
:103D30006F8FFFF7ABFC000080440020064B9B68B0
:103D4000834207D1EFF3058323B1044A536843F05C
:103D50008053536017F0E4BCB028002000ED00E071
:103D6000024B034A0348012100F08CB800000420F4
:103D7000000000200C170200826E054B203A1A60EA
:103D8000044A2021C3E901121846012100F084B839
:103D90002816002000000B15F8B52A4F0E4600210A
:103DA000B14214DA4468002C48D0C3B104F1FF3C9E
:103DB00014EA0C0F0DD0244A244B2548D21AD208FD
:103DC000920142F0010218F055FB6FF01502104607
:103DD000F8BD1F2CEFD905681CEA050FEBD1202C8C
:103DE000D5B2D0F808C0026816D9B4F1004F15D882
:103DF000013CB4FA84F4C4F11F046400072D4CEABA
:103E000004040DD9104A114B1248D21AD20892015B
:103E100042F001022946D6E70824EFE73E24EDE709
:103E200022F01F022A4342F0100244F00104C7F8B6
:103E30009850C7F89C20C7F8A0406A1C01310C308C
:103E4000AEE700BF00ED00E02C130200EC11020011
:103E50003034020053340200044B0522C3F894208E
:103E6000BFF34F8FBFF36F8F704700BF00ED00E0CF
:103E7000BFF35F8F024B0022C3F89420704700BF4E
:103E800000ED00E010B5034C01232278FFF784FF1A
:103E9000207010BD2D29002008B5094A0023127892
:103EA000FFF77AFF10F1160F03D0064B0022072808
:103EB00000DD08BDC3F89800C3F8A0200130F6E784
:103EC0002D29002000ED00E014490868082810B5ED
:103ED00021D8FFF7CDFF124C49680022904201F132
:103EE0000C0105D10F4B1870FFF7B6FF002010BD75
:103EF000C4F8982051F80C3C23F01F03134343F0FF
:103F00001003C4F89C3051F8043C43F00103C4F89A
:103F1000A0300132E2E74FF0FF30E8E71817020067
:103F200000ED00E02D290020014B1860704700BF14
:103F30001002002010B54FF02003EFF3118083F33F
:103F40001288BFF36F8F114A0123C2F840354FF03A
:103F500080424FF08051C2F87835D1F83041082CBA
:103F600008D1D1F83411052904D8094C615C09B194
:103F7000C2F838364FF080430122C3F8802580F321
:103F80001188BFF36F8F002010BD00BF00E001401B
:103F90008C34020020B1034B800143F00103184729
:103FA000704700BF701402000E4B402970B528BF47
:103FB00040210D4C46181D46B04203F1020304D1C6
:103FC000002305F81130074870BD02781209A25C81
:103FD00003F8022C10F8012B02F00F02A25C03F888
:103FE000012CE9E74C2900209234020030B5037817
:103FF0008BB0044607AD032B21D8DFE803F0021A8B
:104000001C1E1249284619F050FE63780493A378C9
:104010000393E378029323790193637900930C4A25
:10402000A37905951E210B4817F0CAFE09480BB06D
:1040300030BD0949E6E70949E4E70949E2E7094AE9
:104040000A21284617F0BCFEDFE700BFE12C020082
:10405000032D02002E290020E82C0200EF2C020084
:10406000F92C0200CD48020070B5214CBFF35B8FE4
:104070002368BFF35B8FDA0706460D4601D50C2097
:1040800070BD012931D8BFF35B8F54E8003F43F086
:10409000020244E800210029F7D1BFF35B8F9B07A0
:1040A000EDD41448314619F0E9FE134806F1200119
:1040B00019F0E4FEBFF35B8F75B154E8003F43F0A5
:1040C000040344E80032002AF7D1BFF35B8F0B48AA
:1040D00016F012FE0020D3E754E8003F23F004035B
:1040E00044E80032002AF0D0F6E71220C8E700BF0B
:1040F00034160020ED2900200D2A0020E0080020C1
:104100002DE9F0476A4B6B4DDFF8AC81DFF8AC91DD
:10411000ED1AED0847464FF0FF324FF0FF334846A7
:1041200016F010FEBFF35B8FD8F80040BFF35B8F33
:1041300014F001045AD0DFF888A1624C624E634843
:104140005246214618F0B4FCE8BBA901604841F092
:10415000010118F082F94FF01F0A4FF0FF324FF0C3
:10416000FF33012000F080F900F108060221044627
:1041700030461BF0B8FE3E230370422343700121FA
:1041800030461BF0B0FE08230370412130461BF07F
:10419000AAFE064600F801ABBAF1000F1DD040227E
:1041A000002119F0D6FDBFF35B8F57E8003F23F0E5
:1041B000010347E80032002AF7D1BFF35B8F2046A6
:1041C00001F05EFAA7E720223146204619F0A5FD4E
:1041D0000028B4D04FF0000ABFE73C4919F04EFE6A
:1041E000203106F1210019F049FEDCE7BFF35B8FB7
:1041F000D8F80030BFF35B8F9B078CD5304933482C
:1042000019F00FFB011E38DAAA01324842F0010210
:1042100018F030F94FF0FF324FF0FF33012000F07B
:1042200023F900F1080A0221064650461BF05BFE06
:104230003E23037022234370012150461BF053FE9E
:1042400009230370212150461BF04DFE0346013027
:104250003CBB1F221A70FF21202219F07AFDBFF308
:104260005B8F57E8003F23F0020347E80032002A43
:10427000F7D1BFF35B8F3046A2E71249BFF35B8FE4
:10428000D8F800301048BFF35B8F13F0040F01F132
:1042900020020B4B18BF0146104618F058FC04468C
:1042A000B8E7002209491A7019F0E8FDD7E700BF06
:1042B000EC110200DC12020034160020E00800209D
:1042C00038170200CD29002006350200ED29002014
:1042D000AA340200D334020070B5067D044676B9D4
:1042E00083681D8842F22602954245D00FD842F2DB
:1042F000010295424FD042F225039D4213D02A4B32
:10430000D3F8543120461B69BDE87040184742F28B
:104310005E039D42F3D1032108301BF003FEA06829
:1043200090F840102EE0032108301BF0FBFD2046E2
:1043300014F0AEFABFF35B8F1C4B1A68BFF35B8FB0
:10434000920707D50C26314642F2250019F072FD7E
:10435000002070BDBFF35B8F53E8002F42F00101D6
:1043600043E800100028F7D1BFF35B8FD307E9D4EF
:104370000F4816F0C1FCE6E7032108301BF0D2FD20
:10438000A0683146FFF770FE0646204614F080FA1A
:1043900031462846DAE7DA7802F07F02DA701A79D5
:1043A00022F001021A71AAE7000000203416002052
:1043B000E008002010B588B00C4C0D490022002305
:1043C000CDE9062300230A22CDE90323CDE90133F9
:1043D00000934FF48F62074B204616F001FB06490D
:1043E000204608B0BDE810401CF0A3B8300B0020F8
:1043F000C031002001410000F434020030B4034613
:1044000008461A78012A13D0022A26D072B9154A12
:1044100002F1100452F8045B41F8045BA242F9D1A6
:104420005B8812780A7043731B0A837330BC704731
:104430000C4A02F1100452F8045B41F8045BA242FA
:10444000F9D15B6812780A70C3F3072243731B0C1F
:10445000C3731B0A82730374E8E730BC1122194648
:1044600019F06CBC2635020038B5054605481BF02E
:10447000D8FC044620B1002108301BF0F1FC257562
:10448000204638BD200A00200B460B490246D1F8D1
:10449000380110B520B9BDE810400120FFF7E4BF96
:1044A0001BF0EFFC012300210375818104460830D5
:1044B0001BF0D6FC204610BD0000002070B504465D
:1044C0000F2C0D461046194605D80D2C12D9BDE803
:1044D0007040FFF7D9BF132C0CD10B481BF0A1FC87
:1044E000044628B1002108301BF0BAFC01232375D3
:1044F000204670BD02460B460DB10448EEE7BDE80C
:1045000070400120FFF7B0BF4C0A00209C0900203A
:1045100070B50B4D06460FCD8EB001AC0FC40FCD5C
:104520000FC40FCD0FC40C2E2B6823609BBF0EABA6
:1045300003EB8606034856F8340C0EB070BD00BF7E
:10454000E01302002D3602000549064A836806483A
:10455000521AD2089201197842F0020217F08ABF6B
:10456000EC110200D41202003536020038B583681F
:104570001A7872B9B3F80140204602F0A9FC05464A
:1045800040B9084B1A8822B96FEA04506FEA1050FC
:10459000188038BD012102F0A3FC2846BDE8384050
:1045A0001AF030B8F0280020F8B585682E78EEB9FA
:1045B000B5F80170384602F08BFC044660B90C4B2C
:1045C0000C4A0D48D21AD2089201394642F0010233
:1045D000BDE8F84017F04EBFEB780373314602F0A8
:1045E0007FFC2046BDE8F8401AF00CB8F8BD00BFCB
:1045F000EC110200D41202005D360200836810B58F
:104600001C88204602F064FC60B9084A084B09483F
:10461000D21AD2089201214642F00102BDE81040B0
:1046200017F028BFBDE8104019F0ECBFD41202000B
:10463000EC1102008336020008B5012108301BF09E
:1046400079FC064B064A01780648D21AD208920134
:10465000BDE8084042F0010217F00CBFEC11020067
:10466000D4120200A736020010B50A4A0A4C81890A
:104670008068A41AFFF798FCFDF776FFE408A40110
:1046800044F00204014622460448BDE8104017F0F9
:10469000F1BE00BFEC110200D4120200C9360200C4
:1046A00073B58568B5F80160304602F011FC044628
:1046B00068B9254B254A2648D21AD208920142F001
:1046C0000102314602B0BDE8704017F0D3BE2B782E
:1046D000CBB92A79EB7843EA0223A0F89E30AA7975
:1046E0006B7943EA0223A0F8A430EB792A7A43EAF3
:1046F0000223A0F8A63002F009FD204602B0BDE872
:10470000704019F07FBF1A2BF7D1C378012BF4D179
:104710004FF48061043019F050FC4305EDD4B4F837
:10472000A030ADF80030B4F8A230ADF80230B4F8E3
:10473000A830ADF804306946B4F8AA30ADF80630B8
:10474000204603F01DF9D8E7EC110200D412020054
:104750008336020013B50D4C0146052294F867001C
:1047600002F006FE78B90A4B586B1A8F009093F846
:104770003A30ADF8042094F867008DF80630042232
:10478000694602F0F5FD02B010BD00BF0000002038
:10479000E013020073B502EBC30305460846117827
:1047A000A9421AD008329A42F9D18689164B174C81
:1047B00080683146E41AFFF7F7FBFDF7D5FEE40801
:1047C000A40144F002040346ADF80040104832460C
:1047D000294617F07CFE02B070BD818953788B4268
:1047E0000DD9094A094B0B489B1ADB089B0143F082
:1047F00001032A4602B0BDE8704017F04FBE53686F
:1048000002B0BDE870401847EC110200D41202005B
:104810000F370200ED36020010B5012104460830C2
:104820001BF088FB2146034A0078BDE810400A23AC
:10483000FFF7B0BF181802002DE9FF410746907935
:10484000DFF818810E46144613F05EFF804516D03F
:10485000434B444DA0790097ED1AED08019013F0F9
:1048600053FFAD0145F00205CDE902082B463E4855
:104870000422694617F047FE04B0BDE8F0812046E7
:1048800013F04AFF394D4FF00C0808FB00504388E5
:10489000BB4214D0324B334E2046F61A13F03CFF85
:1048A000F60808FB0055B60146F002066A88304853
:1048B0003346394604B0BDE8F04117F0EFBD2D4F47
:1048C000D7F8380120B113F0E3FF0023C7F83831DF
:1048D000204613F021FF0C2707FB00504368A3B1CB
:1048E0009EB9204613F018FF07FB005001234768CC
:1048F000D7E9002000F01F0103FA01F13B7A4009DB
:10490000E3B102EB800019F058FB204613F004FFDE
:104910000C2707FB00508368002BADD0204613F016
:10492000FBFE78432E54204613F0F6FE07FB00559D
:10493000A86804B0BDE8F04116F0DEB9CB4302EB45
:104940008002BFF35B8F52E8001F194042E800105D
:104950000028F8D1BFF35B8FD7E700BFF409002030
:10496000EC110200D4120200313702003816002088
:10497000663702000000002038B5042104460830E4
:104980001BF0D8FA4578017840882246FFF754FF9B
:1049900025B10348BDE8384016F0AEB938BD00BFB8
:1049A0002001002038B50321044608301BF0C2FA6C
:1049B000A36805781978B0F801002246FFF73CFF9C
:1049C00025B10348BDE8384016F096B938BD00BFA0
:1049D000200100202DE9F84F514D524BDFF848914E
:1049E000DFF848A1ED1AED08D9F80C3050486FF304
:1049F0005233C9F80C3002F035FA471C4A484FF0E0
:104A0000FF324FF0FF33394617F0DAF860B1494909
:104A1000494840F68E13524617F0C5F9404080F3DE
:104A200011884FF0030002DF444EDFF8FC8006F5EA
:104A3000907B17B916F0BCFDD6E7D8F80C10C1F37F
:104A40004531012959D9042963D198F80C30002B3C
:104A500057D13B48002200231BF0E8F9044660B917
:104A60003849354840F62513524617F09CF9404026
:104A700080F311884FF0030002DF4FF0FF334FF057
:104A8000FF32584616F05EF9D6F8383163B1A90105
:104A90002D4841F0010117F0E0FCD6F8380113F081
:104AA000F7FE0023C6F8383120461BF0EAF9C6F8B5
:104AB00038012046FFF710FC0146F0B1AA01234857
:104AC00042F0010217F0D6FC214816F015F92046F5
:104AD00013F022FE1F4B0C2202FB00301F214088E6
:104AE0002246FFF7A9FED6F8380113F0D1FE0023C5
:104AF0002046C6F8383113F0CBFE08F11408013F08
:104B000097E7012BF9D1D8F81000383802F028FDCA
:104B1000F3E7AA01104842F0020217F0ABFCECE701
:104B2000D4120200EC110200140200209937020096
:104B300028020020CD370200D637020000000020F6
:104B40003C0100203A350200F33702000E38020023
:104B50002001002038160020303802002DE9F84FDF
:104B6000394D3A4BD0F80880DFF8E4A0ED1A002662
:104B7000ED08B14698F800309E4201DBBDE8F88FA1
:104B800008EB8603B3F801B0B3F80370584602F09F
:104B90009FF90446D8B100F1280B002F33D04FF015
:104BA0002003EFF3118283F31288BFF36F8FE36961
:104BB000B3B1013BE36182F31188BFF36F8F2046ED
:104BC00002F024F8013F16F097F8BFB2E5E7AA011A
:104BD000204842F00102594617F04CFC0136C9E763
:104BE00063692BB1A169186860618B4208BFA0613D
:104BF00082F31188BFF36F8F4BB9A90141F0010116
:104C0000504617F02AFC204619F0FCFCE6E74FF06E
:104C10002002EFF3118182F31288BFF36F8FDA68FD
:104C2000E261626AC3F80C90C3F800904AB9C4E923
:104C3000083381F31188BFF36F8F584616F0C8F917
:104C4000BDE713606362F4E7D4120200EC110200C6
:104C50006D3802005138020010B5C1E900239DF8FB
:104C600008300B720C4613F057FD034B0C2202FB6D
:104C700000335C6010BD00BF381600202DE9F047FE
:104C80004FF0FF324FF0FF3306461748174D0F46DF
:104C90001BF0C7F8044600F1080A00214FF0000895
:104CA00050461BF0DDF884F81480204613F034FDE4
:104CB0004FF00C0909FB00504680204613F02CFDF4
:104CC00009FB0050C0F80880204613F025FD09FBC1
:104CD00000550321C5F8048050461BF004F9877085
:104CE00006802046BDE8F087F40900203816002031
:104CF00038B505460C4619B9FFF7C0FF0446F0B1B8
:104D000040F635439D4214D12046FFF7E5FA0546AB
:104D100068B10C4B0C4AD21AD2089201014642F0FB
:104D200001020A4817F0A6FB204613F0B1FD284601
:104D300038BD074821461BF097F80025F7E76FF0CC
:104D40006805F4E7EC110200D41202000E380200EC
:104D50003C010020F0B585682E88B7B287B0384690
:104D600002F0B6F8044668B9274B284A2848D21AF8
:104D7000D208920142F00102394607B0BDE8F04086
:104D800017F078BB02AFD5F80220D5F806300197AE
:104D9000698900911AF0BFFE28B3122142F21A006D
:104DA000FFF76CFF054670B91849174B1948C91A27
:104DB000C908890141F0010117F04FFB204619F0A5
:104DC00021FC07B0F0BD122108301BF08CF83946E9
:104DD00020F8026B102218F0B1FF294642F21A00A7
:104DE000FFF786FFEAE7022142F21B00FFF746FFCA
:104DF00005460028D8D0022108301BF074F8294657
:104E0000068042F21B00EBE7EC110200D412020014
:104E1000833602008438020070B506460D4642F221
:104E200021000321FFF72AFF044658B90C490D4B16
:104E30000D48C91AC9088901BDE8704041F0010157
:104E400017F00BBB032108301BF04DF8857006806E
:104E5000214642F22100BDE87040FFF749BF00BF84
:104E6000D4120200EC1102009B380200F7B58368EF
:104E7000D9789A781F8842EA0122ADF80020597942
:104E80001A7942EA0122ADF802209A79D97942EAE8
:104E90000122ADF804201A7A5B7ABCB242EA0323FD
:104EA0002046ADF8063002F013F8064680B9204BD4
:104EB000204A2148D21AD2089201214642F001022A
:104EC00017F0D8FA02212046FFF7A6FF03B0F0BD85
:104ED000694602F05FF938B91E212046FFF79CFFB2
:104EE000304619F08FFBF1E70E2142F22000FFF768
:104EF000C5FE05460028F3D00E2108301AF0F3FF56
:104F00000E220446002118F024FFBDF80030638013
:104F1000BDF80230A380BDF80430E380BDF8063050
:104F200027802381294642F22000FFF7E1FED7E7E0
:104F3000EC110200D4120200833602002DE9F04188
:104F4000074686B015460C4621B9FFF797FE044682
:104F5000002857D00122002168461BF0CDFB2046D7
:104F600013F0DAFBDFF8A4800C2303FB0080C0F809
:104F700008D020461AF085FF014625481AF074FF34
:104F80004FF4A0220023684615F0DCFE064680B1EF
:104F9000204A2149214840F2311316F004FF2048ED
:104FA000314616F000FF404080F311884FF00300B7
:104FB00002DF204613F0B0FB0C23584318F80060C2
:104FC000BEB1184A184B19489B1ADB089B0143F0E5
:104FD00002033246394617F061FA204613F058FCB6
:104FE000092E0CBF6FF06E006FF0040006B0BDE834
:104FF000F08115B12C603046F8E7204613F048FCEC
:105000002846F3E76FF06800F0E700BF381600208D
:105010003C01002099370200CD370200D63702004C
:10502000B5380200EC110200D4120200D53802009B
:1050300073B506460D4601AA002142F22F00FFF784
:105040007DFF044660B10C490C4B0D48C91AC908D4
:10505000890141F0010117F000FA204602B070BD4D
:1050600001988368B3F801203280B3F803302B80B5
:1050700013F00EFCF1E700BFD4120200EC110200A5
:10508000F13802007FB5437B072B04466ED1BFF396
:105090005B8F4368BFF35B8F9B0400F104061BD456
:1050A000C37823B1324B93F8D0301D0714D50221B9
:1050B00042F21600FFF7E2FD054668B10221083012
:1050C0001AF011FF23880380294642F2160004B02B
:1050D000BDE87040FFF70CBEBFF35B8F6368244DE3
:1050E000BFF35B8F13F4805FC3F300311CD195F8DD
:1050F000D130D80718D5022300911A46204618F05F
:10510000B3FF014630B98021304604B0BDE870409D
:1051100018F053BF174A184B1848D21AD2089201F8
:1051200042F0010217F0A6F995F8D0309A061DD585
:10513000D5F854319B689B0718D50DF10E0103A8D3
:10514000FFF776FF90B9BDF80C10BDF80E20204691
:1051500018F06DFF014648B1064A074B0848D21ABD
:10516000D208920142F0010217F084F904B070BD38
:1051700000000020D4120200EC11020011390200DC
:105180002B39020038B58368B3F80150284601F086
:105190009FFE044660B9144B144A1548D21AD2082F
:1051A0009201294642F00102BDE8384017F062B989
:1051B0000430BFF35B8F50E8003F23F0800240E8EB
:1051C00000210029F7D1BFF35B8F1B0606D54FF4F2
:1051D000805118F0F2FE2046FFF754FF2046BDE84C
:1051E000384019F00FBA00BFEC110200D4120200CF
:1051F0008336020070B58568B5F80160304601F06D
:1052000067FE044660B9104A104B1148D21AD20802
:105210009201314642F00102BDE8704017F02AB910
:105220002B7823B90822E91CAC3018F087FD4FF425
:105230000051201D18F0C1FE2046FFF723FF204635
:10524000BDE8704019F0DEB9D4120200EC11020082
:10525000833602002DE9F043B0F80190814A6FEAED
:10526000095311886FEA13539BB2994205464FF0D8
:10527000000808BFA2F8008085B008BF4FF0010801
:1052800000F03AFC2C781FFA89F7002C3AD03C2C1D
:105290002AD101F08FF8BFF35B8F103050E8003F48
:1052A00023F0400340E80032002AF7D1BFF35B8FC0
:1052B0000020FFF74FFA054660B96B4B6B496C480D
:1052C000C91AC908890141F0010105B0BDE8F043E0
:1052D00017F0C3B80473002101F002FE284605B0A0
:1052E000BDE8F04319F08EB95F4B604A6148D21AAD
:1052F000D208920142F00202214605B0BDE8F04317
:1053000017F0B8B82B79023B012B05F1040648D8F9
:105310000722314602A818F011FD9DF80830062238
:10532000023B05F111010DF101008DF8083018F074
:1053300005FD01238DF80030EB78012B19D102A86F
:10534000FFF708FAEB78012B044611D101F032F88F
:10535000BFF35B8F00F1100353E8002F22F04002EF
:1053600043E800210029F7D1BFF35B8F19F0D0F893
:1053700064BB3D4A3D4C3046A41AFEF737FEFDF7AC
:10538000F3F8E408A40144F00104014622463A4837
:1053900017F070F81F21384618F02EFE05B0BDE852
:1053A000F083EB78012B04BF344B93F86740314610
:1053B000204618F098FF0722014602A818F0BEFC0C
:1053C00007223146684618F0B9FCB5E720460722A7
:1053D00020F8889B02A918F0B1FC2A7EEB7D43EAF5
:1053E0000223A4F89E30AA7E6B7E43EA0223A4F82F
:1053F000A4302A7FEB7E43EA0223A4F8A630EB78A0
:10540000E3700022012B227317D10722694604F1B1
:105410008F0018F093FC00F0CDFF217A174DC1EBFF
:10542000C1010722294404F1960018F087FCD5F841
:10543000DC305B0601D501F091F90721204601F02F
:105440004FFDB8F1000F03D00121204601F048FDC7
:10545000204619F013F92046FFF714FE204619F0F4
:10546000D1F89BE7F0280020EC110200D4120200D2
:10547000473902006839020081390200000000202B
:1054800029289ABF014B185C09207047973C0200FD
:1054900070B58368B3F801601D78304601F018FDDF
:1054A000044660B91F4A204B2048D21AD208920104
:1054B000314642F00102BDE8704016F0DBBF65B135
:1054C0002846FFF7DDFF29460246204601F0CAFEC6
:1054D0002046BDE8704019F095B88378012B07D1BC
:1054E00005F0CAFB204618F050FD002808BF05252E
:1054F0002846FFF7C5FF29460246204601F0B2FEC6
:10550000002DE5D0084B07490948C91AC908890187
:1055100041F0010116F0A1FF2946204619F0B7F825
:10552000D6E700BFD4120200EC1102005D36020083
:105530009D390200F8B58668B6F8017035783846AE
:1055400001F0C6FC044660B9204B214A2148D21A1A
:10555000D2089201394642F00102BDE8F84016F047
:1055600089BF65B12846FFF78BFF294602462046D2
:1055700001F078FE2046BDE8F84019F043B8827883
:10558000F378C372012A08D10BB105F075FB2046F0
:1055900018F0FBFC002808BF05252846FFF770FF20
:1055A00029460246204601F05DFE002DE2D0074B61
:1055B00007490948C91AC908890141F0010116F0D3
:1055C0004CFF2946204619F062F8D3E7EC1102009F
:1055D000D41202005D3602009D3902002DE9F0412F
:1055E000044600F1080630461AF0B4FCB4F80C800A
:1055F000B8F1010F05460CD81C4A1D491D4840F65C
:10560000225316F0D0FB404080F311884FF0030086
:1056100002DF304602211AF08DFC0746007818F0B0
:10562000A2FCC20706460CD4104A1349114840F6A2
:10563000265316F0B8FB404080F311884FF003006A
:1056400002DF05230D4A38782146FFF7A3F8B30798
:1056500007D52069A4F80C8010FA85F5A560BDE88F
:10566000F0812046BDE8F04113F012B999370200ED
:10567000C3390200D6370200DC390200C818020024
:1056800070B5017D012904464BD0032978D1838967
:10569000032B0CD8424A4349434840F2B51316F055
:1056A00082FB404080F311884FF0030002DF0421A9
:1056B00004F108001AF03EFCA18942880688FF2305
:1056C000C6F30B008A42E08263750DD03748384B31
:1056D0001B1ADB089B01374843F0010316F0DEFE7E
:1056E000204613F0D5F81AE001F0F2FB054658B950
:1056F0002E4B2F4AE18A3048D21AD208920142F04A
:10570000010216F0B7FEEBE701F0D0FC320B60753A
:105710002146284601F0B2FA284618F073FF00200F
:1057200070BD8389012B0CD81D4A1E491E4840F6C6
:10573000121316F038FB404080F311884FF003003D
:1057400002DF022104F108001AF0F4FB054600789C
:1057500018F009FC83070CD4114A1849124840F686
:10576000161316F020FB404080F311884FF0030021
:1057700002DF134A287806232146FFF70BF8AFE72C
:105780000A4B0B4A0F48D21AD208920142F001028A
:1057900016F070FE204613F07BF86FF01500BFE79F
:1057A00099370200C3390200D6370200EC1102001B
:1057B000D4120200F5390200193A02003B3A020005
:1057C00088180200693A020010B5037D012B0446D7
:1057D0000CD0094A09490A4840F6695316F0E3FA21
:1057E000404080F311884FF0030002DF2046FFF7AE
:1057F000F5FE002010BD00BF993702007D3A02007F
:10580000D6370200084A0346D2F8540130B9D968A5
:1058100039B1196929B1C2F8543170476FF0770076
:1058200070476FF015007047000000202DE9F0432D
:105830002D4D2E4C2E4EDFF8BC9087B0022105F185
:10584000CC0018F0BAFB2C4B2C49E41AEB79284613
:10585000012B88BF0E46FEF7C9FBFCF785FEE40866
:10586000A40144F00308024631462548434616F099
:1058700015FE2F460126EB799E4207F1070725DB2F
:1058800095F868603046FEF743FEB5F86A30049339
:1058900044F00304B5F86E300593CDE902062346C3
:1058A00002A90422174816F02EFE95F869603046CA
:1058B000FEF72EFEB5F86C30ADF8004001463246DA
:1058C000114816F004FE07B0BDE8F0833846FEF735
:1058D0008DFBFCF749FE314602464346484616F02A
:1058E000DDFD0136C7E700BF00000020D412020032
:1058F0002A2E0200B33A0200EC110200A03A020084
:10590000A43A0200C43A0200023B020010B5FAF7C2
:1059100067FD034B1B6813B1BDE81040184710BD6D
:105920005016002070B52B4DD5F8543188B006467E
:1059300073B9294B29492A48C91AC908890141F074
:10594000010116F08AFD6FF01204204608B070BD08
:10595000012105F1CC0018F030FB10EA010336D12B
:10596000204A1660002000216FF00802CDE90601F0
:10597000CDE90232CDE9003304931B491B4B1C488F
:105980004FF4207215F02CF81A4919481AF0D1FD7D
:10599000FEF710FDD5F85431DB689847044658B13E
:1059A0000D4B0E4AD21AD2089201014642F0010272
:1059B000114816F05FFDC8E726B908B0BDE8704091
:1059C000FAF70EBD05F1BC0015F002FBBDE76FF064
:1059D0007704BAE700000020EC110200D4120200A4
:1059E000443C02005016002060360020D5490000DB
:1059F000B00B00205D3C0200633C02000048704791
:105A00007F3C0200F8B50B4F06460025FB79ECB24F
:105A1000A34202D86FF0010409E0C4EBC4010722DD
:105A20003944304618F079F901350028EED1204686
:105A3000F8BD00BF0000002038B514490622054615
:105A400018F06BF90446E0B1062142F20500FFF7B9
:105A500015F90446B8B10622294608301AF049FA69
:105A60002146002242F20500FFF768FA044640B9D9
:105A700006220648294618F061F9054B012283F8F1
:105A80006020204638BD6FF06804FAE7610000200E
:105A90000000002030B5044685B00D4699B10023C2
:105AA000072202A928460293CDF80B3018F035F9E9
:105AB00048B11048C4EBC4042946204418F099FBAF
:105AC000002005B030BD684618F03FFA0028F8D134
:105AD0006846FFF797FF0028F5DA0648C4EBC404D0
