:10000000206B00202D330000EF6B01000133000056
:100010000133000001330000013300000000000044
:10002000000000000000000000000000153000008B
:100030000133000000000000C12F00000133000068
:10004000C530000049F80000C5300000C530000090
:10005000C5300000C5300000C5300000C5300000CC
:10006000C5300000C5300000C5300000C5300000BC
:10007000C5300000C5300000C5300000C5300000AC
:10008000C5300000C5300000C5300000C53000009C
:10009000C5300000C5300000C5300000C53000008C
:1000A000C5300000C5300000C5300000C53000007C
:1000B000C5300000C5300000C5300000C53000006C
:1000C000C5300000C5300000C5300000C53000005C
:1000D000C5300000C5300000C5300000C53000004C
:1000E000C5300000C5300000C5300000C53000003C
:1000F000C5300000C5300000C5300000C53000002C
:1001000053B94AB9002908BF00281CBF4FF0FF317E
:100110004FF0FF3000F00CB8ADF1080C6DE904CEE3
:1001200000F008F8DDF804E0DDE9022304B07047D0
:10013000704700BF2DE9F04F07468C460846099EE0
:1001400015463C461946002B40F0C6808242B2FA62
:1001500082F746D94FB1C7F1200E24FA0EFE00FAFD
:1001600007F3BD404EEA030CBC404FEA15481FFAA6
:1001700085FEBCFBF8F9220C08FB19C309FB0EFA3B
:1001800042EA03439A4528D9EB1809F1FF3004D21B
:100190009A4502D9A9F102002B44A3EB0A03A4B2A9
:1001A000B3FBF8F208FB123302FB0EFE44EA0344F1
:1001B000A64514D92C1902F1FF3303D2A64501D963
:1001C000931E2C44A4EB0E0443EA00401EB1FC40F5
:1001D000002334607360BDE8F08F4846DDE71346C6
:1001E000F0E702B9FFDE87BB831A01214FEA154E03
:1001F000AAB2B3FBFEFC200C0EFB1C330CFB02F876
:1002000040EA0343984563D9EB180CF1FF3004D260
:10021000984502D9ACF102002B44A3EB0803A4B229
:10022000B3FBFEFC0EFB1C330CFB02F244EA03445E
:10023000A2424FD92C190CF1FF3304D2A24202D9A9
:10024000ACF102032C44A41ABEE7C7F1200C20FA3B
:100250000CF800FA07F324FA0CFCBD404CEA030248
:100260004FEA154EABB2B8FBFEFC110C0EFB1C8026
:100270000CFB03F941EA0040814504FA07F423D955
:1002800028180CF1FF3104D2814502D9ACF10201EA
:100290002844A0EB090092B2B0FBFEFC0EFB1C0050
:1002A0000CFB03F842EA004398450FD9EB180CF118
:1002B000FF3204D2984502D9ACF102022B44A3EBE1
:1002C000080342EA014191E76146E2E76246F6E748
:1002D0006046A2E76346B6E7834205D90EB1C6E998
:1002E00000700021084676E7B3FA83F181B98342B2
:1002F00001D3BA420AD8BC1A60EB030301209C4622
:10030000002E68D0C6E9004C002164E70846F7E7F4
:10031000C1F1200C8B4022FA0CF41C4302FA01F5C7
:1003200000FA01F327FA0CF220FA0CFB4FEA144909
:100330001343BBFBF9F81FFA84FE09FB18BB1A0C28
:1003400008FB0EFA42EA0B42924507FA01F73ED942
:10035000A21808F1FF3004D2924502D9A8F1020098
:100360002244A2EB0A029BB2B2FBF9F809FB182265
:1003700008FB0EFE43EA024296452AD9A21808F16C
:10038000FF3304D2964502D9A8F10203224443EA7E
:100390000040A0FB0593A2EB0E029A42CE4698467F
:1003A00002D306D14F4504D2B9EB050E63EB040826
:1003B000013886B1B7EB0E0362EB080707FA0CFCB5
:1003C000CB404CEA0303CF40C6E900379CE74046E8
:1003D000C7E74346DBE73146FDE6000000000000CA
:1003E0002DE9F041D0E90B35866A5C193034A6421C
:1003F0008846174618D81C4DA3FB050118A3D3E95E
:100400000023FFF77DFEA41B20F07F40C8F800000A
:1004100013A3D3E90023A4FB0501FFF771FE20F02D
:100420007F403860BDE8F0810F4C0DA3D3E9002375
:10043000A6FB0401FFF764FE05F1300120F07F40C8
:10044000C8F8000006A3D3E90023A1FB0401FFF7CD
:1004500057FE20F07F403860BDE8F081AFF30080A8
:100460008D49FD1A0700000000CA9A3B00000000F9
:1004700000284FD02DE9F04F6B4C94F86A5015F0DE
:10048000010591B040F0BF8094F82500FF2300F0F3
:10049000030084F826300EF0F3FD94F86A0042075A
:1004A00029D494F8292094F8353004EB820204EB27
:1004B0008303D76AD3F8389087B15B48394608F090
:1004C0005BFA3B785B0605D5062103F06FF900283F
:1004D00000F004825448494608F04EFA3B7813F085
:1004E0000E0F19D1236A002B00F0AA800C25284694
:1004F00011B0BDE8F08F2A4604F16B01C0F3C000D3
:100500000EF030FFFF2884F82600CAD028460EF0EF
:10051000FDFDC6E707F09EBF94F824300121C3F328
:1005200042030CA88DF8303003F0CCFA00286FD0CD
:1005300099F801100246384608F01CF83B49B4F817
:10054000689031230026A360A0FB010134A3D3E906
:100550000023C4E9056626706660E660FFF7D0FDFB
:10056000206104F04BFD8046B9F1000F07D13E78C1
:1005700006F00F06A6F10106B6FA86F6760994F89B
:100580002400236966F3000010F0010684F82400BB
:1005900040F07481264A2748049303F24713A9FBCD
:1005A0000001069402961360912303FB0911224B6C
:1005B0000793224B05934FF6FF7309924FF0020900
:1005C00003930EAF16A3D3E90023CDF83890089714
:1005D000FFF796FD4346CDE900604A4630460321C9
:1005E00004F08CFB394607F057FA88B994F86A3062
:1005F00043F0010384F86A3008F0A6FB18B9012023
:100600000EF020FD73E70025284611B0BDE8F08FFD
:10061000236A002B3FF46AAF07F0F0FE0C2566E773
:100620008D49FD1A070000001C43002000CA9A3BB8
:1006300094430020002AE7846D710000E5850000E6
:1006400007F0A6F98246002800F0508107F0ACF9C7
:100650008346002800F0478109F060FA064600282A
:1006600000F03E814FF6FF73406F338506F11C03A7
:100670000B93002800F03C8106F1680206F164014A
:1006800003F0A0F8B6F86030DFF86CC223F4EF6333
:1006900023F0070343F4887343F00103A6F86030A6
:1006A00096F8393003F03F0363F07F0386F8393062
:1006B00096F87A3023F0070386F87A3096F83C30C3
:1006C00023F0070386F83C3096F8D6304FF0000848
:1006D0004FF01B10C6E9160C68F300037F2086F864
:1006E000D63086F8BD00FF2306220DF1310106F158
:1006F000D700A6F8C020C6E91288C6F87480A6F80C
:100700007880A6F82E80C6F8308086F83B80C6F840
:100710005080A6F8C480A6F8C880A6F8D080A6F8B5
:10072000CC808DF831308DF832308DF833308DF843
:1007300034308DF835308DF830808DF8363016F045
:1007400084FA96F8D61068F3410186F8D610FF2394
:1007500006220DF1390106F1DD008DF839308DF8F2
:100760003A308DF83B308DF83C308DF83D308DF8C7
:100770003E308DF8388016F068FA96F8E430A6F826
:10078000F08023F0070386F8E43086F8F280C6F89C
:100790001481A6F81881A6F8308106F0A7FC96F817
:1007A0004A31A6F8488123F0030386F84A3196F8C7
:1007B0007A30A6F8508123F0180386F87A3096F83C
:1007C000763186F8538123F0070386F8763196F860
:1007D0009631C6F854A168F3451386F8963196F819
:1007E000BE31A6F8748168F3C303002286F8BE31D7
:1007F0000023C6E94E01C6E9502386F8E580A6F835
:100800009481C6F8EC80A6F8BC81A6F8C88109F0EE
:1008100093FDA6F8D20009F095FDD6F8CC21374B10
:10082000A6F8D4001340C6F8CC3109F091FD96F833
:10083000D03160F3020386F8D03109F08FFD06F164
:100840001C03236296F8D031C6F8D48160F3C50347
:10085000C4E918ABC6E97888C6E97688C6E9058890
:1008600086F80080F66186F8D0310FF057FC00283A
:100870003FF452AE07F0C2FD032538E60020204ABF
:10088000DFF88090049302260EAF019305920321B6
:10089000CDE902000694434600900897CDF81C90DD
:1008A00032460E9604F080FA394607F0F5F8002833
:1008B0007FF4AEAE144A05924AF2D8320092CDE9E6
:1008C0000300CDE90100CDF81C900897069443463B
:1008D000012203210E9604F067FA83E6122506E64C
:1008E000584607F067F8504607F058F80725FEE528
:1008F00006F16C007067BFE6480148010000FFF692
:10090000E58500006D7100004983000000000000D3
:1009100070B590F824308AB0C3F342030D46044604
:1009200001210DF1230016468DF8233003F0CAF89B
:1009300071780246284607F01DFE1D491AA3D3E927
:100940000023A0FB0101FFF7DBFB2369984205466A
:1009500020D21B1A00220192164A0293164BA21AA9
:10096000A3FB02320221920900230A4409AE099135
:1009700012490591CDE903330321D2B206960093C3
:10098000184604F083FA314607F086F848B9256125
:100990000AB070BD02D9C21A0023DCE700200AB0F9
:1009A00070BD0C200AB070BD8D49FD1A0700000013
:1009B00000CA9A3B1C430020898888886D7100001A
:1009C00038B5194C9DF810E094F844C01CF00105AE
:1009D00022D163F3420C400194F83230A1874FEAF0
:1009E000CE0E0EF0180E00F0200040EA0E0023F0AC
:1009F000380303430D4884F83230A2FB00019123F1
:100A000003FB021106A3D3E9002384F844C0FFF7D7
:100A100077FB2064284638BD0C25284638BD00BF2A
:100A20008D49FD1A07000000B8430020002AE78422
:100A300010B59DF808C0044649014FEACC0000F00B
:100A4000180001F0200CA17D22844CEA000C0C4817
:100A500021F038014CEA010C9122A3FB000102FBBA
:100A6000031184F816C004A3D3E90023FFF748FB61
:100A7000606210BDAFF300808D49FD1A07000000D1
:100A8000002AE784000000002DE9F047044600F149
:100A9000350190F8440094F83230C0F3400060F320
:100AA00086138CB084F8323004F0E0FA94F83220E7
:100AB000A38F4D48E46102F079020025A3FB0001F9
:100AC00084F83220912202FB0311C4E9055544A3A6
:100AD000D3E900232570FFF713FB3123C4E9015349
:100AE000236CE5600933A0F13102934232BF2361E8
:100AF00022612564064604F081FA236A07460DF157
:100B00002C08002B4CD0394D394BCDF82080069461
:100B1000651BA3FB05353448A38F4FF0000AA3FBE8
:100B200000019122CDF80CA002FB0311236904936C
:100B3000304B0793304B05934FF0020928A3D3E9BC
:100B40000023CDF82C90FFF7DBFA104619464FF43E
:100B50007A720023FFF7D4FA2D090435EDB22A4644
:100B6000CDE901603B460321CDF800A0504604F0DA
:100B70001BF9414606F090FF054668B994F84430E9
:100B800043F0010384F8443007F0CCFE0446F8B18A
:100B900028460CB0BDE8F0870C200CB0BDE8F0870B
:100BA000CDE90A33216943460AAA032001F050F92E
:100BB0000B990029A7D0114809A3D3E90023A1FB71
:100BC0000001FFF79DFA0A9F20F07F4007449AE753
:100BD00048460EF037FA20460CB0BDE8F08700BF5B
:100BE0008D49FD1A07000000002AE784B843002061
:100BF000398EE3386D710000498B000000CA9A3BC2
:100C00002DE9F04FC38D458E1D4490F81A31ADB2D9
:100C10002944164613F007028BB0044689B20AD065
:100C2000531E042B00F24A83DFE813F0A8011402DC
:100C3000890140011702B0F8F470C91B1FFA81F84E
:100C4000090400F15E8190F93930002BC0F247822F
:100C500094F8F03084F8F13094F8942194F89531B8
:100C600094F8181184F8191193420AD094F8963127
:100C700003F00F03062B04D1002384F89521A4F878
:100C8000C830B34BD4F814911A68944204BF0022C0
:100C90001A60B9F1000F00F04A81D9F8000000286D
:100CA00000F04581B4F81C31B4F82AC04268C4F899
:100CB00014216345B4F81E21B4F8201100F0178206
:100CC000B4F828C0A9F81E30182389F8043000238E
:100CD000A9F806C0A9F82020A9F8221089F81C302C
:100CE000494606F06DFE06F075FEA368002B09DA92
:100CF000E168626823F0004391422CBF7618B61871
:100D0000A360F61A608DB4F81C9110FB08F080B255
:100D1000B0FBF9F119FB01F39BB298421FFA81FA7B
:100D200080F0F4801B1A40F2E2418A4803FB01F193
:100D3000A1FB000184A3D3E90023FFF7E1F920F030
:100D40007F400644E38D1F4494F939307D1B5544A0
:100D500040F2E24B002BE5850BFB09F7C0F2E9817D
:100D6000D4F824117B4878A3D3E90023A1FB000128
:100D7000FFF7C6F920F07F483D4608F10108764AA2
:100D8000B4F82031B4F81E017449A4F82A903A440A
:100D9000B2FBF7F2A4F8C62042F2107202FB037312
:100DA0003944013BB1FBF7F1B3FBF7F78AB2831D7E
:100DB0009A42A085A4F8C270A4F8CE2004DDC0F544
:100DC0007F43FA331A4492B294F81A31A4F8CA2035
:100DD0001B0744BF0023A4F8C4300221012012F0F5
:100DE00047F8002202218146012002F03BFD5C49C8
:100DF0004FF4F872204602F0C5FC00F1050A5FFAD4
:100E00008AFA584B009452460121002004F056F80B
:100E100030F0020304D0544840F6B44101F096FD8E
:100E20004C4FA5FB077B48A3D3E90023384659461E
:100E3000FFF766F920F07F454C480723A5FB00012A
:100E4000381A03FB05116BEB01014FF47A72002392
:100E5000FFF756F9CDE9015008940694CDF80080CB
:100E6000216994F93950424804914249424C07940F
:100E700011EA250138BF014605914FF6FE71334650
:100E8000039152460121002003F08EFF30F002034F
:100E900004D0354840F6CE4101F058FDB9F1000FBD
:100EA00040F0418100200BB0BDE8F08F828D90F8BA
:100EB0001A51D0F8F83006321144D0F8D42189B252
:100EC0006FF30205A0F8F4101981A3F10900D4F81A
:100ED000D81184F81A5122B194F87651AE0740F136
:100EE0007681002900F08A81D4F8DC21116843F86A
:100EF000091C106053F8092CC4F8DC01002A00F02A
:100F00007A816FF076000BB0BDE8F08F09FB11011C
:100F100040F2E2430F4889B203FB01F1A1FB00015B
:100F200009A3D3E90023FFF7EBF8361A0AE70E48C6
:100F300040F6094101F00AFDD9F80000B2E66FF071
:100F40000F000BB0BDE8F08F8D49FD1A07000000BF
:100F50001444002000CA9A3BFF5962027FC3C901B2
:100F6000D00A002019900000D08301008D49FD1A9D
:100F70007DDF0000E9DD0000E98F0000DFF8188365
:100F8000012006F02DFD0746002800F04881C348E7
:100F900002F0C2FB0546002800F04181C04B1A68F0
:100FA000002A00F0128106F039FD3B68D4F81421C4
:100FB0005A602B79C4F8147103F01C0343F0030347
:100FC0002B710C236B710023AB71EB7194F82831FA
:100FD0002B72B44AD4F82431A2FB03239B0AA5F850
:100FE0000930B4F81C31A5F80B30B4F81E31A5F85F
:100FF0000D30B4F82031A5F80F3094F81A31C4F848
:10100000FC60032262F3020384F81A31A368002B08
:101010000ADAE168626823F0004391422CBF761837
:10102000B618F31AC4F8FC309F4B01220935C4F8F6
:10103000F85002211046C3E9024802F045FC00289E
:101040003FF45FAF994840F65C3101F07FFC6FF0F0
:10105000760028E7DFF8588292E7D0F8F820D0F839
:10106000D43190F8F00084F8F10094F818018C491C
:1010700084F8190194F8940184F89501002008601F
:10108000D4F8D801A2F10901B3B194F87651AD07B3
:1010900012D494F8CF51EF070ED4D4F8E051AB42FC
:1010A00000F0D78058B9187900F00300032800F049
:1010B000DF80C4F8D83104E0002800F0A980D4F81B
:1010C000DC31186842F8090C196052F8093CC4F880
:1010D000DC11002B00F0A6806FF08B00E3E690F8A7
:1010E000E530002B3FF4B4AD80F8E520B4E5B4F86A
:1010F0002CC094457FF4E4AD40F2E24C0CFB03FEBF
:1011000042F2107C0CFB01EC0CF1FF3CBCFBFEFC42
:10111000B4F8C2E01FFA8CFCE6457FF4D1AD0123A0
:1011200089F80430DCE501220221104602F09AFB26
:10113000B8E6226CA36C02FB1833A3640FF05AF8D4
:10114000054694F8E400DFF86C81C0F3C2000FF0AC
:1011500053F8054407FB05F5574B94F8282105F58E
:10116000742505F23F25A3FB0535AD0CA36C256462
:101170000BFB02F205FB0AF022657A080344963A5B
:10118000934228BF1346C4E911230023A0FB0801A2
:10119000C4F8EC303EA3D3E90023FEF7B1FF414B86
:1011A000361AD4F82401A3FB0030800A0BFB00F0B0
:1011B000A0FB080136A3D3E90023FEF7A1FF7D1BA6
:1011C000B4F81C9120F07F48D9E51C60EBE694F858
:1011D000CF51ED073FF585AED4F8E051AA4226D0B5
:1011E00000297FF481AE117901F00301032946D073
:1011F000C4F8D8217AE6C4F8E40182E643F8092C61
:10120000C4E97500C4F8DC01002A7FF47AAEF2E785
:1012100042F8093CC4E97511C4F8DC1159E76FF0D4
:10122000680040E6C4F8E4116FF08B003BE61568F7
:10123000C4F8E05100297FF457AE116843F8091C47
:10124000106053F8092CC4E97600002A7FF459AEE7
:10125000D1E71D68C4F8E05100287FF430AF18686A
:1012600042F8090C196052F8093CC4E9761130E7DC
:10127000D8790328F3D00A287FF41BAFEFE7D179A0
:101280000329DAD00A29B3D1D7E700BFAFF3008032
:101290008D49FD1A0700000011E500003C450020C3
:1012A000144400205917B7D18C060020D0830100C8
:1012B000F91F000000CA9A3B83DE1B4303484FF42A
:1012C0003B6101F043FB4FF0000859E6D083010079
:1012D0002DE9F04F0B68D2F800B01B6897B08A4632
:1012E0000A93037F00F11E01C3F3801304461546E1
:1012F00014A806228DF8473015F0A7FC9AF81100C3
:101300000C90FF280DF1480900F083804A460DF14A
:1013100047010DF0ADFB9DF847600236F6B28DF83F
:1013200047600A9B277FD4F800C0CDF82CC003F19A
:101330007108FF094B4606F001024146384609F0A4
:1013400013F800284BD19BF8D6200D9066F341028C
:101350008BF8D620494606220BF1DD0015F075FC0E
:101360009BF8D62067F3000241468BF8D6200BF19C
:10137000D700062215F069FC2F1D032204F12E016F
:1013800005F1080015F061FC05F11806042204F1CE
:101390002A01384615F059FC052204F13A0130467D
:1013A00015F053FC3046052102F08CFB6A7F94F85F
:1013B0003F1000F03F0060F305026A77C1F30402BA
:1013C000AA77A68EEE810128B6B201F01F0206D9D7
:1013D0001B3202F01F020B2A01D80D9B0EBB0A9B89
:1013E000E6680B9800225A6195F82030012762F3D5
:1013F000000385F820302146277106F0E1FA3068B5
:101400003771314606F0DCFA06F0E4FA17B0BDE8B1
:10141000F08F062214A9484615F017FC9DF8476086
:101420007FE7DAF80020536094F8372094F83630DC
:1014300043EA02232B829BF8E430628E0E92490924
:1014400061F3C5038BF8E4300EF0D4FE0D909BF8E9
:10145000E400C0F3C2000EF0CFFE0D9BB64A298A0D
:1014600040F2E24808FB06F6034406FB03F303F5EB
:10147000742303F23F23A2FB03239B0C6B6294F8BB
:101480003130AE4A08FB03F3AB637308963BAB62A3
:10149000B4F83880AA4B42F210703244B2FBF6F234
:1014A000ABF8C6201FFA88F200FB02623344013A0F
:1014B000881DB2FBF6F2B3FBF6F3ABF8C2209AB28A
:1014C0008242ABF8CE2004DDC1F57F41FA310A44F7
:1014D00092B2ABF8CA20394604220BF1E80015F0AD
:1014E000B4FB234613F81C2FC2F34011DA070F9107
:1014F0000D9100F1F7804FF48073A3830A9B93F85A
:1015000026000EF04DF80146062204F12B000029BA
:1015100000F0E08004F1240115F097FB0C9BFF2BF9
:1015200004F1250000F0D98014A9062215F08DFBE6
:101530009DF84730A3774946062204F11F0015F0B5
:1015400084FB9BF8E430EA896286C3F3C2032A8AEB
:10155000A28684F83830A4F83680584608F0EAFAB3
:101560002146A881E080DAF804400B9806F028FABA
:10157000AB89E3801B2323710D9BD4F80080002BE3
:1015800040F0BD809DF83C3023772146404606F070
:1015900017FA06F01FFA95F84500B5F84040B5F87F
:1015A0004270012100F007000EF062FC274407F5AD
:1015B000E17739188146634800273123CBF808309A
:1015C000A1FB00015AA3D3E90023CBF80470CBF8A8
:1015D0000C70FEF795FD6B6A0E9ADAF80C4020F05D
:1015E0007F40F61A40F2E24303FB024402213A46EE
:1015F000CBF81000012002F035F90A9D284607F0CB
:1016000077F9821C504B0095D2B23846012103F085
:1016100055FC04F2B2440128A4EB09047AD00A9BD9
:1016200093F82430DB0762D4584608F083FADFF8D9
:101630001491A6FB09863EA3D3E900230546314653
:101640004046FEF75DFDDAF80830CDF818B0A3F19A
:101650003A0A3E4B07933E4B05934FF4E4730893CD
:10166000DBF81030049320F07F473A480023A7FBB3
:10167000000103930723B8EB000003FB071166EB9F
:1016800001014FF47A720023FEF73AFD28A3D3E953
:101690000023CDE90170A4FB0901FEF731FD0535FA
:1016A00020F07F40EDB2009053462A4601210020F1
:1016B00003F07AFB30F0020304D0274840F2C9114E
:1016C00001F044F901220221104602F0CBF817B0D4
:1016D000BDE8F08F15F0C4FA20E70622002115F0CE
:1016E000BFFA25E71C48F12101F030F903E7002398
:1016F000012200931846114603F0E0FB94E76B7F4C
:1017000043F040036B7738460CF0B0FF0123E883C9
:1017100023773AE706F0F2F90A9B83423FF47FAF62
:101720000D4840F29F2101F011F978E7AFF30080F6
:101730008D49FD1A0700000083DE1B43FF5962023A
:101740007FC3C90100CA9A3BC1DD0000ADDD0000C6
:10175000E9DD00008D49FD1A1C8401000000000035
:101760002DE9F04F8BB0CDE904011F460020BDF8F4
:1017700060309DF85490BDF858A0BDF85CB003935C
:10178000164607F0EFFA002800F0BE8109F00108C4
:101790000546404603F05AFC0290B8F1000F6AD1AA
:1017A000149B02993A46404608F0DEFD002840F0BE
:1017B000BC812B6A05F11C020692002B62D02B6AB9
:1017C0001C6807F0010A93F844000293C0F3C001BB
:1017D00000F007000EF04AFB029BB3F8401000F542
:1017E000E1700144B3F842000144D948D6A3D3E9DB
:1017F0000023A1FB0001FEF783FC20F07F40206165
:1018000030460DF05FFC95F833306FF3410385F8F7
:101810003330FF2385F83430002E00F07981A9F1B0
:101820000203012B40F2858195F84430149969F345
:10183000420385F8443095F833306AF3000385F8A5
:101840003330062205F1240015F0FFF9039B2B86A7
:1018500005F11C00DDE9042300210096FFF7E8F8FC
:101860000EF05CFC002840F07F812846FFF70CF961
:101870000BB0BDE8F08F062101F098FF00288FD152
:101880001220F5E706F084F80690002800F0988111
:1018900008F044F90446002800F0A081203002F04E
:1018A00025F904F11C03002840F07F81032104F195
:1018B000240007930EF0C6F9606F079BA4F82CB0C4
:1018C0004FF6FF72A4F82AA02285002800F0748148
:1018D00004F1640104F16802079301F073FFB4F8A6
:1018E00060209C4B22F4EF6222F0070242F48872DF
:1018F00042F00102A4F8602094F87A2022F0070256
:1019000084F87A204FF01B124FF0000BC4E9162325
:101910007F2284F8BD20C4F874B0A4F878B0A4F88D
:101920002EB0C4F830B004F134000CF053FE94F83B
:10193000392060F3050284F8392001210DF12700D8
:101940000EF080F99DF82710834AA08D84F83BB0F3
:10195000A2FB0132D20802EB4202A1EB8202053265
:1019600084F83A2094F83920039BA4F8C4B002F01C
:101970003F0240F2E24184F8392094F83C20A4F878
:10198000C8B001FB0AFA7549A4F8D0B022F00302EE
:10199000514484F83C20B1FBFAF1714AA4F8C61016
:1019A00042F2107101FB03A152440139B2FBFAF279
:1019B000B1FBFAFA0621A4F8C01000F1060C91B2AE
:1019C0006145079BA4F8CCB0A4F8C2A0A4F8CE103F
:1019D00002DD0639091A89B294F8E420A4F8CA1085
:1019E0004FF0000B22F0070284F8E420A4F8F0B0D6
:1019F00084F8F2B0C4F814B1A4F818B1A4F830B166
:101A0000079305F073FB94F84A21069BC4F8543100
:101A100022F0030284F84A2194F87A20A4F848B10D
:101A200022F0180284F87A2094F87621A4F850B1B4
:101A300022F0070284F8762194F8962184F853B1B5
:101A40006BF3451284F8962194F8BE21A4F874B182
:101A50006BF3C302C4E94E0100210020C4E9500128
:101A600084F8BE21A4F894B1A4F8BCB1A4F8C8B11C
:101A700008F062FCA4F8D20008F064FCD4F8CC11A1
:101A8000384AA4F8D4000A40C4F8CC2108F060FC1D
:101A900094F8D02160F3020284F8D02108F05EFCB3
:101AA00094F8D0211499C4F8D4B160F3C50284F835
:101AB000D02194F8D620C4F804B007F0010A6AF3E4
:101AC000410284F8D6203122A260C4E978BB062204
:101AD000C4E976BBC4F80CB004F1DD0015F0B5F82C
:101AE00094F8D620029969F3000284F8D62004F114
:101AF000D700062215F0A9F8079B2B62C4E905BBA5
:101B000084F800B0E4615EE60C200BB0BDE8F08F15
:101B10000DF092FE00283FF482AE1499384632460A
:101B20000DF020FC85F8340079E60B200BB0BDE801
:101B3000F08F00200DF0EAFA95F8333043F00203FD
:101B4000C14685F833306FE68D49FD1A0700000065
:101B500000CA9A3B48014801ABAAAAAAFF596202EF
:101B60007FC3C9010000FFF62C6AA36D23B11E4894
:101B700040F2B44100F0EAFE04F14C0104F14800E7
:101B800001F024FE064618B32768A665D7F854412D
:101B9000C4B1204605F002FF384607F0C5FF002318
:101BA00003202B620BB0BDE8F08F0F480793BF21D5
:101BB00000F0CCFE079B79E604F16C00606787E6D5
:101BC000072055E6084840F2BD4100F0BFFEE0E7BF
:101BD000054840F2B64100F0B9FED5E7069805F099
:101BE000DDFE072044E600BF648401000000000021
:101BF0002DE9F04F80468FB004460F46154600F1A0
:101C0000240106220CA818F81C6F15F01EF894F891
:101C10001C9018F0010FC9F3401BC6F3C016D9463B
:101C200040F0F4800023A383B97C97F8118011F071
:101C3000010104F12B004FF0060200F0D18004F105
:101C40001E0115F002F8B8F1FF0F04F1250304F1AD
:101C50001F0A00F0CF805246404604F11E010B934C
:101C60000CF006FF0B9B1846A37F02330CA9A37749
:101C7000062214F0EAFF3B68D3F800A0EB896386E4
:101C80002B8AA386BAF83030E3860EF0B1FA84F8D6
:101C90003800D5F80080404607F04CFF7E68A881E8
:101CA0002146E080206805F08BFEAB89F3801B2382
:101CB00034683371B9F1000F40F0AE8086F81CB083
:101CC0003146204605F07CFE05F084FED8F804304D
:101CD000D8F8086095F84400B5F80E90FC689E426C
:101CE00038BF1E46C0F3C00140F2E24300F00700D7
:101CF00003FB09F90EF0BAF8203400220221241A5D
:101D0000012001F0AFFD504607F004F8021D4A4BD8
:101D1000CDF800A0D2B20121002003F0CFF830F0BE
:101D2000020304D0454840F2C53100F00FFE4FF0E9
:101D3000000A534603220121CDF800A0504603F0CB
:101D4000BDF8404607F0F6FEBB68CDF81880093BA9
:101D50009E1B3B4B07933B4B059340F2F5333A4FA9
:101D60000893D8F81030A9FB0798CDE903A3451DC7
:101D70002FA3D3E9002348464146FEF7C1F9104698
:101D800019464FF47A720023FEF7BAF928A3D3E973
:101D90000023029041464846FEF7B2F924A3D3E956
:101DA00000230190A4FB0701FEF7AAF9EDB220F091
:101DB0007F40009033462A460121504602F0F4FF4E
:101DC00030F0020304D01D4840F2F63100F0BEFDB1
:101DD00001220221104601F045FD0FB0BDE8F08F51
:101DE00014F03EFFB8F1FF0F04F1250304F11F0AC0
:101DF0007FF431AF18460622002114F031FFA67798
:101E00000CA95046062214F020FF34E70B484FF48B
:101E1000517100F09BFD05E76B7F43F040036B774A
:101E2000281D0CF023FC0123E883337748E700BF2B
:101E30008D49FD1A0700000065DF00006484010081
:101E400069DF00007DDF000000CA9A3B000000004F
:101E50002DE9F04F8FB04FF0FF0A1546DFF8F090F4
:101E6000DFF8F0B009930A1D0021044608928DF8AE
:101E70002FA019600C91049105910DF134080CAF5D
:101E80000226CDE9019800972B460DF12F0221463D
:101E900000200D9603F054F802282ED00D9B002B45
:101EA00031D19DF82F00FF2835D00538C3B20F2B54
:101EB000E7D880B207F046FE0028E2D090F939302A
:101EC000002BDEDBBAF1FF0F02690C9B0CD00599E9
:101ED00007921846069303F093F8049B089A991802
:101EE0008842DDE9063219D8CDE904239DF82FA0F8
:101EF000C7E72146002003F069F80D9B022BF8D0BC
:101F00000D9B002BCDD05846732100F01FFD9DF88E
:101F10002F00FF28C9D1BAF1FF0F10D0DDE904323C
:101F20000D481344A3FB0001072202FB031106A383
:101F3000D3E90023FEF7E4F8099B803018600FB066
:101F4000BDE8F08FAFF3008000CA9A3B00000000AC
:101F500089E20000A88401008D49FD1A00000000FC
:101F600070B582B01C4601921546064601AA0220B1
:101F7000FFF76EFF23680BB30198431B1B021FD4AE
:101F8000294603F03DF81A4A03460721A0FB020246
:101F900001FB032114A3D3E90023FEF7B1F8226863
:101FA00002442260002A09DB40F2E24006FB00F016
:101FB000904203D2121A8242FCD8226002B070BD55
:101FC0000146284603F01CF8094A03460721A0FBF6
:101FD000020201FB032104A3D3E90023FEF790F8DA
:101FE0002268121A2260DDE700CA9A3B0000000056
:101FF0008D49FD1A000000002DE9F041B0F8A41150
:1020000088B0044640F2E2434748002603FB01F152
:1020100005AD0623C5E901668DF80F30A1FB00016F
:102020003FA3D3E900230596FEF76AF80DF10F03ED
:1020300001950093B4F89A31049004AA2046012136
:102040000CF024F99DF80F8008F1FF3C5FFA8CFC3E
:102050000DF11603304604F5D27703EB4C0C04F572
:10206000D8764FF6FF7E3A88B8F1000F0AD02B469B
:10207000724504D0198891424FF001001DD00233FF
:102080009C45F5D10237BE42EDD1D4F8F83048BBBB
:10209000BDF8142040F2E24102FB01F1100AC4F83D
:1020A00024111A70587094F81A31042262F3020352
:1020B00084F81A3108B0BDE8F081D4F8F81040F285
:1020C000E24302FB03F3100AC4F824310A7048709B
:1020D00094F81A31042262F3020384F81A3108B02A
:1020E000BDE8F081032203F8042C13F8052C94F8C2
:1020F0001A11052542F00302112003F8020C03F81F
:10210000052C65F302010F20202203F8010C1A7040
:1021100084F81A1108B0BDE8F08100BFAFF3008069
:102120008D49FD1A0700000000CA9A3B000000001C
:1021300038B504460EF02CFEA27DC2F341030133F4
:1021400003F00303032B34D063F34202A27503F1BF
:1021500025000DF055FE63680BB32369FBB110F049
:10216000F3FC054602F04AFFC11C002010F09CFC65
:1021700010F036FD10F0E8FC294602F041FF12494C
:1021800003460722A0FB010102FB03110CA3D3E9C4
:102190000023FDF7B5FF23691B1A236138BD02F048
:1021A0002DFFC11C002010F07FFCBDE8384010F06E
:1021B00017BD6FF34202A2752520CAE7AFF3008076
:1021C00000CA9A3B000000008D49FD1A0000000083
:1021D0002DE9F04F89B0044610F0C2F9C0B250B9F1
:1021E0000DF05AFEB848214610F052F809B0BDE88B
:1021F000F04F10F089B910F0D3F9054610F0BEFB8E
:10220000834610F0C5FB814610F00AFE064610F02A
:10221000EBFD824610F076FBEDB2804610F050FBED
:102220000DF03AFE002DDDD0012005F013FD05462E
:10223000002800F085811BF0FF0BF6B240F077819B
:10224000002E40F0D380FF275A463B4631462046B9
:102250000EF068FF0028C5D02B7F626800218DF842
:102260001B105FFA88F803F00F01002A00F0DA80F3
:10227000626892F82020900700F1D4800729B1D03D
:10228000A27D120740F16281002940F0B5806B7F8A
:10229000252B00F22A81042005F0DCFC0028A1D0C7
:1022A00010F0A6FC636A814643B9238C40F2712288
:1022B00002FB03F3B0FBF3F203FB120923681A6974
:1022C000824B0721A2FB030301FB02317CA3D3E96C
:1022D0000023FDF715FFA0F242334B4582D310F0E7
:1022E000E1FA6368059338460DF068F9E37D9B07D2
:1022F000814640F1CE81002800F0CB8101464FF0AD
:10230000010B049110F05AF92B7F049907AA03924C
:1023100005F11E02CDE901B182460146C3F38013E7
:102320000092204600220EF017FF504610F0BEF833
:1023300010F00CF9002840F0C181654821460FF0EB
:10234000A7FFB8F1000F40F0BF816168A37D91F84D
:10235000202043F0800342F0010281F82020A37581
:1023600005F096FC1623804603714FF6FF732D7F10
:10237000C380514624221C3014F067FC98F81C30AE
:10238000C8F80840C5F3401565F3451388F81C30BC
:1023900010F0DAFB0021C8F810000120079D10F0B2
:1023A00099F8002E08BFFF2788F81970E37D2D1AD1
:1023B00013F00203C8F8145003D0B9F1000318BF9A
:1023C000012398F81A2063F3000288F81A2005F018
:1023D0005FFC03464146D8F80000C8F80C3005F011
:1023E0006DFC05F07BFC09B0BDE8F08F5FFA8AF068
:1023F0000DF048F9074627E7012915D16B7F0C2B13
:102400007FF4F0AE2A7F009700230193D20905F1F3
:10241000240320460EF0F8FD00287FF43CAF297F0E
:1024200001F00F01002955D0062953D0022900F0F0
:10243000A080012959D16B7F0C2B7FF4D3AE2A7F6A
:1024400000970DF11B030193D20905F1240300212C
:1024500020460EF0D9FD002847D06B7F002B3FF4BB
:10246000C1AE63682BB12B7F03F00F03072B7FF402
:10247000B9AE03209DF81B9005F0ECFB0546002843
:102480003FF4B0AE05F004FC4FF6FF73EB8005237C
:102490002B71B8F1000F68D17F20AB7E2876002E1B
:1024A00008BFFF2769F341032868AB7629466F769A
:1024B00005F004FC05F012FC94E600BFAFF30080C9
:1024C00000CA9A3B00000000310E01008D49FD1A40
:1024D000D10F01006B7F252B07D8A27D920602D574
:1024E0006268002A47D0252BB8D92B7F03F00F0351
:1024F000042B7FF477AE6B7F252B3FF673AEA37D65
:10250000D9077FF56FAE10F059F82B7F0278C3F32F
:102510008013B3EBD21F7FF465AE0830062205F1BD
:102520001E0114F081FB00287FF45CAE95E7A07DCE
:102530005FFA89F1C0F3C0000DF064F8074683E646
:1025400067484FF4307100F001FA74E6FF2F8DF800
:102550001C70C3F3801978D0237EDB1BB3FA83F39E
:102560005B09002B7FF490AE5CE710F0BDF9C0B2C0
:1025700093E76B7FB7E7962010F020FA002010F069
:1025800067F9032005F066FB814600283FF42AAE78
:1025900005F07EFB4FF6FF73A9F80630052389F896
:1025A0000430B8F1000F70D17F23002E89F8183065
:1025B00014BF3B46FF2389F8193099F81A30D9F82F
:1025C00000006FF3410389F81A30494605F076FBA5
:1025D00005F084FB0FF0F2FF2B7F0646C3F3801358
:1025E0003278DB0102F0700243F0030313433370CF
:1025F0000C23384673700CF0E1FFE37D9F074ED546
:1026000000284CD033780146304643F0400300F8B0
:10261000023B062214F019FB062205F11E0106F109
:10262000080014F012FB30460FF040FF0FF08EFF51
:1026300000284FD110F0D4FAA37D2A4843F00103BB
:10264000A37521460FF024FECDE605F11E0A07AA68
:10265000514648460DF094F800283FF4E0AEE37D83
:1026600003F001034B457FF4DAAE5146062204F134
:10267000080014F0D9FA297FB0FA80F35B0901F061
:102680000F01002B7FF400AECCE610F02DF9C3B2A1
:102690008BE7A27D04F11901C2F3801B31E6A37D13
:1026A0003278C3F38013304663F3861200F8022BAE
:1026B00004F11901062214F0C8FAADE7084840F207
:1026C000A24100F043F938E610F00EF9059B83F8BB
:1026D000A1003AE6024840F2275100F037F9A9E795
:1026E000D8850100450E010038B5094D4FF0FF3285
:1026F0004FF0FF33284614F06CFB044600F0C8FF8F
:1027000010B1204610F0FCFD13F04AFCEEE700BFCC
:102710009008002010B50F4C204614F0E9FEA0B13F
:10272000204613F07AFF204613F07FFFA3682BB1F9
:102730009B6C1BB10849002220469847A3689B6AFE
:1027400033B104489847002010BD6FF01500FBE737
:102750001846F9E7607F01005D2700002DE9F0478A
:10276000704CA5686B6B8CB02BB12046984710B9A4
:10277000204613F04BFF6B4813F048FF60B16A4CE2
:102780002368A3B969480022002314F022FB2060CB
:1027900068B9644813F049FF6B6BFBB9644E654D33
:1027A0003378032B1ED8DFE803F0203893AD23687D
:1027B00099689A896B6973B15A48984701462068AD
:1027C000083014F059FB20688689002EE4D110F0FF
:1027D00097FD2660E0E76FF05701F0E75148984712
:1027E0000028DBD10CB0BDE8F087534C4D480122E6
:1027F000214613F004FF0028F4D02278531EDBB2E8
:10280000012B01D9052ACBD1042B96BF4B4A0023BB
:10281000D3562B6001233370C2E7DFF81CA1DFF829
:1028200020919AF800303F48013BDBB2042B9CBF5B
:10283000424AD1562A6888BF0021891A494413F0B8
:10284000DEFE2F683F1A04462F60002F56D1012369
:10285000CDE900A300220023062000F0BDFEDFF832
:10286000E480C8F8000008B93070BBE79AF800307F
:10287000022B26D0052B1FD0012B25D199F8022041
:102880002A60013BDBB2042B98BF2C4A2C4998BF2D
:10289000D75608303A4614F0DDFAD8F80000083070
:1028A00014F0FAFA2B68984210D2D8F8000010F011
:1028B00027FD0323337021E0B9F80220C2F30D0293
:1028C000DEE7B9F80220DBE73A46D9E70223F1E771
:1028D0001C4F2A683B68134899899B68194413F078
:1028E0008EFE39682F688B893F1A034404468B811A
:1028F0002F601FB9144814F08AFA3770002C7FF447
:102900004FAF6FE72A680748212A28BF212203A971
:1029100013F075FE2B681B1A04462B60002BEDD1BB
:10292000C8E700BF607F0100D42B0020A80800206A
:102930009E5A0020D82B00209F5A0020D08B0100E7
:102940009A5A0020D02B00209008002070B5044631
:102950000E464FF02002EFF3118382F31288BFF38B
:102960006F8F234813F059FE214813F05EFE002CB0
:1029700037D125461E48042113F054FE1C48FF2180
:1029800013F050FEA91D1A48C9B213F04BFE1848A7
:10299000AA2113F047FE3DB1154D013C14F8011F6B
:1029A00011BB134813F03EFE1148F1B213F03AFE8A
:1029B0000F48C6F3072113F035FE0D48C6F3074153
:1029C00013F030FE0A48310E13F02CFEFEE70133FF
:1029D0002F2A08BF1D46E25C002AF8D12C445D1B5B
:1029E000C8E700252B46F6E7284613F01BFED5E77F
:1029F000607F010070B5184888B000F04FFE0022DB
:102A00000023CDE9062300236FF00802CDE903235C
:102A1000CDE9013300931149114B12484FF4806204
:102A200012F04AFE10490F480B4D104E104C14F096
:102A3000FCFD4FF0FF324FF0FF33284614F0C9F988
:102A40000146304614F0E3F9A368DB69002BF0D0AF
:102A500020469847EDE700BF78080020005F00207F
:102A6000E926000048090020C48B0100A8080020C6
:102A7000607F01002DE9F84FB0F8189019F00808B0
:102A8000044693460DD001290CBF49F0100949F0C6
:102A90002009A0F818908BF31188BFF36F8FBDE861
:102AA000F88F09F00709022907D1204613F0EFFD3E
:102AB0000028F0D00128238B4ED16769218B002F8D
:102AC00015DA256821F00701C4E9008841F0010109
:102AD00021830026218B01F0070ACA4502D0A36892
:102AE000002B5AD10DB9002E71D0002356E001F011
:102AF00007035A1F012A1ED821F00701062B25685B
:102B000089B2C4E900880AD13DB1638B2A461268B4
:102B100001339BB2002AFAD1638341F00201218381
:102B2000204613F0B4FD06460028D3D0238B43F093
:102B300020032383CDE7042B0CD121F0070189B2B8
:102B40002183204613F0A3FD05460028C1D041F0A3
:102B5000200121830025BCE7032809D1226923F045
:102B60000703166843F00603238300252F46B1E7C9
:102B7000042806D1226923F00703566843F00403B2
:102B8000F2E7052806D1226923F00703966843F08F
:102B90000503E9E700252E46E8E7012341F0080197
:102BA00021838BF31188BFF36F8FFBB985BB16B1FF
:102BB0001F492046B0474FF02003EFF3118B83F3FA
:102BC0001288BFF36F8F238B23F008032383238B9B
:102BD000DA0625D523F0100323830121B4F81890D9
:102BE00009F0070900297FF45EAF54E7A1680029C6
:102BF000DCD0D1F80090D1F804B03B4652462046D4
:102C0000D847B9F1000FD1D04946D9F80090F2E782
:102C100029463B46524620462D6813F054FDC5E731
:102C200013F020011EBF23F0200323830221D5E7E8
:102C3000F36601002DE9F84305464FF02003EFF35A
:102C4000118683F31288BFF36F8F0E4B1C689CB103
:102C50000D4FDFF838804FF00C09D4E90132002D18
:102C600008BF13462BB198F8142009FB02F2B85C98
:102C700098472468002CF0D186F31188BFF36F8F3A
:102C8000BDE8F883DC2B0020E82B0020505A002000
:102C900000F01F0301229A400A4BBFF35B8F4009EB
:102CA00003EB800050E8003F43EA020140E8001CCB
:102CB000BCF1000FF6D1BFF35B8F1A4214BF0120A5
:102CC00000207047F42B002030B51D4B1C7DBFF356
:102CD0005B8F04F01F0301229A401A4B610985B0F3
:102CE000D04303EB810353E8001F01EA000543E8EA
:102CF000005CBCF1000FF6D1BFF35B8F114217D01F
:102D0000114D0C2202FB045207CA01AB83E80700F5
:102D10000E4A7AB193E8070013F0BEFF0020FFF7D8
:102D200089FF0C235C432A1900232B51C2E901338C
:102D300005B030BD82F31188BFF36F8FEEE700BF9F
:102D4000505A0020E42B0020E82B0020996C010051
:102D50002DE9F041374B384C1D7D88B08046284620
:102D6000FFF796FF60B96F4642462946384613F092
:102D70002FFF97E807000C2606FB054686E80700AC
:102D80000C236B43E218E05C6E0905F01F07002876
:102D90003BD0B8F1FF3F10D0D2F808E02748284ACE
:102DA0004FF4004C00210023EEFB0C01FDF7A8F9C5
:102DB0000121A8EB000014F0D4FE12F043FF012023
:102DC000FFF738FFBFF35B8F1E4B0122BA4003EBC6
:102DD000860353E8001F114343E800100028F8D190
:102DE000BFF35B8F0C2303FB054494E8070005AB9E
:102DF00083E80700144A1AB193E8070013F039FF7B
:102E0000FFF762FF13F0A4F80120104ABFF35B8FB5
:102E10000123BB40DB4302EB860656E8002F1A4035
:102E200046E800210029F8D1BFF35B8F08B0BDE868
:102E3000F08100BF505A0020E82B00203F420F00D5
:102E400040420F00E42B0020736C0100F42B0020A3
:102E5000014910220A60704710ED00E072B6404050
:102E600080F31188BFF36F8FBFF34F8F30BF62B60F
:102E7000BFF36F8F704700BF72B6494081F311886E
:102E800020BF80F3118862B6704700BF43B2002BA9
:102E900008DB012200F01F0002FA00F05B09024A81
:102EA00042F82300704700BF00E100E043B2002B6E
:102EB0000DDB01225B0900F01F0002FA00F0203355
:102EC000034A42F82300BFF34F8FBFF36F8F704761
:102ED00000E100E0054B420900F01F0053F82220FA
:102EE000012303FA00F01040704700BF00E100E04A
:102EF00043B2002BA8BF03F1604301F10101B8BF49
:102F0000064B4FEA4111ACBF03F5614300F00F00DF
:102F1000C9B2B4BF195483F80013704714ED00E030
:102F200008B572B6044B9A691AB100229A6114F07E
:102F300081FB62B608BD00BF505A002030BFFFF7CA
:102F4000FDBF00BF0F4A08B50F4B22F07F029A6009
:102F5000BFF34F8FBFF36F8FD3F8882022F4700236
:102F6000C3F88820EFF3148323F0040383F3148859
:102F7000BFF36F8F12F0DEFA13F02EF900F0CAF9EA
:102F800012F0E2FA0000000000ED00E0094A0A49F0
:102F900093680968D967094998674B6843F080537B
:102FA0004B60002383F31188BFF36F8F9368D86F52
:102FB000704700BF505A0020C08B010000ED00E0B8
:102FC00012498A684FF030001044EFF3098C80E812
:102FD000F01F202080F31288BFF36F8F0C4F4FF04B
:102FE0000066CA698A603E60906F0023936780F331
:102FF000118804B5104600F0CFF9BDE8044002F195
:10300000300090E8F01F8CF309887047505A002078
:1030100004ED00E01EF0040F0CBFEFF30880EFF3A7
:103020000980816911F8021C0229FFD001B513F053
:10303000D6FD01BD42F8203C009B42F81C3C0A49E9
:10304000019B42F8183C029B42F8143C21F001011C
:103050004FF0807342F8043C42F8081C0023203AE9
:1030600002658367704700BF2F680100094A034665
:10307000906870B113F1160F806E05D0A0F1200298
:103080009A4205D8834203D2814228BF002070476C
:1030900000207047505A002008B5094B98600D4633
:1030A000144600F079F9204685F30988002163B6BB
:1030B00081F31188BFF36F8F0022002313F0B7FB59
:1030C000505A002001B572B60B4A906900281EBF05
:1030D0000021916114F0AEFA62B6EFF30580A0F121
:1030E00010004FEAC0000549014409C99847BDE8EE
:1030F0000140034908470000505A0020907F01001A
:1031000005310000044B9968D869884203D003490F
:103110004FF080520A607047505A002004ED00E0E2
:1031200038B5194B14469A6A9A6A9A6A0546900706
:1031300019D5586B9A6A120615D519B19A6A22F0F8
:1031400080029A629A6A9A6A9A6AD1060ED49B6A37
:103150009A070BD400200C4A936A43F0FF03936252
:103160000023237038BD6FF01500EBE7064B5B685A
:103170001B05EFD52946FFF779FF0028EAD080F339
:1031800009880220E7E700BF00ED00E00D4B9A6AD6
:103190009A6A9A6A920508D59A6B9A6A120404D5BB
:1031A00018B19A6A22F400429A62064B9A6A9A6AA5
:1031B000D20558BF9A6A9A6A002042F47F429A6206
:1031C0000870704700ED00E070B5484B5B688AB04E
:1031D0000D46C3F30803002686F31188BFF36F8FF3
:1031E00002F07F41B1F17F4F11D102F00C010829AB
:1031F0000DD0110701D4054601260022033B8DF8AE
:103200000720032B6BD8DFE803F00455595D3546E2
:10321000F3E7364BDC6A14F0020460D1DA6A002A64
:1032200015DBDA6A520012D5AA6932F8021C4DF693
:10323000027291420AD093F828200AB30DF10702D6
:1032400001212846FFF76CFF044600E02C689DF83A
:1032500007309BB92022294602A813F0F6FC099BEF
:10326000002E3ED0C3F3080222B96FEA53236FEA5F
:103270004323099302A9204613F0AFFC0AB070BDA6
:1032800093F829202AB10DF107010120FFF77EFFF5
:10329000DAE75A8D92B2002AD9D09A6A9A6A9A6A63
:1032A0009A6A9A6A9A6A9A6A6FEA02426FEA1242C4
:1032B0009A62CCE70DF107020021C2E70DF1070188
:1032C0000020E3E7094B9A6A9A6A9A6A9A6A9A6AAC
:1032D0009A6A9A6A6FEA02426FEA12429A6200247C
:1032E000B5E723F4FF7323F00103C2E700ED00E02C
:1032F000024A536943F010035361704700ED00E048
:10330000EFF30880EFF3098101B57246FFF75CFF28
:1033100001BD00BF044800232021C2180133302B17
:1033200082F80013F9D1704700E100E014F0AEFD1F
:10333000202080F3118808484FF40261401880F380
:103340000988EFF314800221084380F31488BFF347
:103350006F8FFFF7F7FD0000A06C0020064B9B6805
:10336000834207D1EFF3058323B1044A536843F046
:103370008053536012F0CCBE505A002000ED00E0A4
:10338000024B034A0348012100F06EB800000420FC
:103390000000002058810100826E054B203A1A601F
:1033A000044A2021C3E901121846012100F066B841
:1033B000F82B002000000B15F0B51F4F00268E42A1
:1033C00001DB1046F0BD44689CB353B104F1FF3CEF
:1033D00014EA0C0F18D11F2C16D905681CEA050F2A
:1033E00012D1202C0568D0F808C0D2B20FD9B4F1A0
:1033F000004F0ED8013CB4FA84F4C4F11F046400F9
:10340000072A4CEA040406D96FF01502D9E708240C
:10341000F6E73E24F4E725F01F05154345F01005B7
:1034200044F00104C7F89820C7F89C500132C7F84F
:10343000A04001360C30C2E700ED00E0044B05224D
:10344000C3F89420BFF34F8FBFF36F8F704700BF57
:1034500000ED00E0BFF35F8F024B0022C3F8942021
:10346000704700BF00ED00E010B5034C0123227847
:10347000FFF7A2FF207010BDA05A002008B5094A2E
:1034800000231278FFF798FF10F1160F02D0064ABA
:10349000072800DD08BDC2F89800C2F8A03001304E
:1034A000F6E700BFA05A002000ED00E014490868CC
:1034B000082810B521D8FFF7CDFF124C496800222B
:1034C000904201F10C0105D10F4B1870FFF7B6FFC8
:1034D000002010BDC4F8982051F80C3C23F01F03C5
:1034E000134343F01003C4F89C3051F8043C43F0FC
:1034F0000103C4F8A0300132E2E74FF0FF30E8E703
:103500006481010000ED00E0A05A002010B54FF0EA
:103510002003EFF3118083F31288BFF36F8F114AFA
:103520000123C2F840354FF080424FF08051C2F87D
:103530007835D1F83041082C08D1D1F8341105295B
:1035400004D8094C615C09B1C2F838364FF08043A9
:103550000122C3F8802580F31188BFF36F8F00200C
:1035600010BD00BF00E00140E48B010020B1034B1F
:10357000800143F001031847704700BF50810100EC
:10358000074A0346106828B9D96831B1196921B1D1
:10359000136070476FF0770070476FF01500704749
:1035A000042C0020052870B5054611D8012606FA1E
:1035B00000F414F02A0409D0064813F005FC044670
:1035C00020B13146083013F01EFC2575204670BD31
:1035D0000024FBE7180900202DE9F0410228DDE96D
:1035E0000667044629D0062802D040B300251EE015
:1035F000144909780129F9D13478012C1AD0022C08
:10360000F4D111480136013F13F0DEFB05460028D6
:10361000ECD000F108080121404613F0F4FB2C75B2
:103620002EB127B13A463146404613F013FC2846E6
:10363000BDE8F08105480024E4E70348E4E70348D7
:10364000E2E700BF2C080020C0080020EC080020A2
:1036500010B50D4B1B78012B04460CD1037D012BBB
:1036600004D0032B0ED06FF0150010BD042104F11F
:10367000080013F0F8FB054B2146186813F0C7FB50
:103680000020F2E70221F2E72C080020082C00209D
:10369000014B1B681B691847042C0020044B054A8A
:1036A0001B6810600BB1DB6818476FF012007047A1
:1036B000042C0020082C00202DE9F0411646C21DE4
:1036C00022F00302751E0F46ADB2186082B00446A8
:1036D00016800021042207FB050013F0C1FABDB1DA
:1036E000023EB6B206FB077306FB07F81C44A8EBC4
:1036F00003080025042204EB08000DEB02010194ED
:1037000013F0A3FAB542A4EB070405F10105F1D1CA
:1037100002B0BDE8F08100BF70B5056882B095B118
:10372000EB1D23F003030422044629460DEB02009F
:103730001E8813F08AFA019B23B1DA1D22F00302DE
:10374000013E16802360284602B070BD0B6870B53C
:103750000C46054683B1073323F003031E88013668
:10376000B6B204222146284613F06FFAEB1D23F06F
:1037700003031E80256070BD0126F2E702FB0100F5
:10378000704700BF401A80B2B0FBF2F0704700BF34
:10379000531E11449BB242B1DB430138CA1811F8E1
:1037A000013D00F8013F9142F9D17047014402E028
:1037B00010F8013B1BB98842FAD100207047012064
:1037C000704700BF10600860704700BF0A6803467A
:1037D0000068904205BF00220A6000201A6070470E
:1037E000D2F800C0CCF80000D2F800C0CCF8041029
:1037F00010607047884203D01AB143681360704765
:10380000002070470B68834209D02AB158681060C5
:103810001A680A6018467047002BF9D1FAE70023AE
:10382000F8E700BF2DE9F041DFF830800C4E0C279F
:1038300006F130044546221D214628460C3CFFF780
:10384000C1FFB442A5F10805F5D1043F3B1DA8F125
:103850002008A4F13006EBD1BDE8F081842C0020D3
:10386000142D002010B40346154C8C4692B100EB89
:1038700040010CEB4C00000100EB81012144487A2F
:103880000C7AA04204BF0130087210BC6146184691
:103890000FF0DABA01EB4102120100EB400302EB38
:1038A000830323449C7ADA7AA24201D010BC704789
:1038B00001329A72034B01225A5410BC0FF002BB22
:1038C000902C00208C2C002070B582B0064601910F
:1038D0001C460D462AB322786378D21A12F00302EE
:1038E00005D0012A42D00133DBB223700FE001334F
:1038F000DBB230212370042311FB05311C4A6068C0
:103900000C2313FB06131A442146FFF769FF194BDA
:10391000012230465A5529460FF0D4FA002002B051
:1039200070BD0FF0B9FA0028D5D0294630460FF007
:103930009FFA0028CFD005EB450212010C4906EB97
:10394000460302EB83030B449A7ADB7A9A42C2D194
:1039500022786378D21A920702D00233DBB2237046
:10396000D4E902039847002002B070BD1046D6E7A4
:10397000902C00208C2C0020504A135C002B00F06F
:103980009B802DE9F04F00234D4F135487B01A460A
:103990004FF03C0BCDE901200BFB007B039300EBC8
:1039A00040030BF1040807EB03174FF00309002352
:1039B000D7E9090105AA0593FFF71CFF07F12406C3
:1039C0008346002834D0059C63782578ED1A05F0ED
:1039D0000305012D06D1013B6370D4E90202904733
:1039E000059C63782078C31A03F00303012B4FF082
:1039F000000231465FFA80FA0FD0B86AFFF702FF83
:103A000094F801C02378C4F804B0A3EB0C0303F0CE
:103A10000303012B84F801A046D0D7E9090105AAC8
:103A2000FFF7E8FE012D009083462BD00028CAD175
:103A300097F82E3097F82F209A4203D087F82F302E
:103A40000123019397F82C3097F82D209A4203D048
:103A500087F82D300123039309F1FF395FFA89F9C3
:103A6000B9F1FF0FA7F10C07A1D1DDE9013AC3B10C
:103A7000039BB3B91A465146504607B0BDE8F04F14
:103A80000FF0E2B9B9F1000F01D10028D0D0DDF874
:103A900008A00A4A012302F80A30514650460FF0A6
:103AA00011FA07B0BDE8F08F42462146584684F827
:103AB00001C0FFF795FEB0E7704700BF8C2C0020D7
:103AC000902C00204B1EDBB271B1411E00EB030CA9
:103AD000002011F8013F23B15A1E01301340C0B23B
:103AE000FAD16145F5D17047084670472DE9F04F8E
:103AF000A24D83B0074603260124042138460CF06A
:103B0000A1F838684FF000084FEAD07E1E234FF02E
:103B1000010AC346C1461AE008F101010E2BC9B2E1
:103B20005FFA83FE40F29980D2B39646CC461C2BB6
:103B300040F2A2801B2B40F20F8119293BD088460E
:103B40009246BCF10C0FE14635D0013B3BD320FA45
:103B500003F202F001027245DED10AF10102072BE5
:103B6000D2B240F2DD80062A40F2D480BEF1000FCE
:103B700051D004FA03F220EA0200CC464FF0000EC6
:103B800008F101010E2BC9B288BF0122D5D8E14549
:103B900000F0BD8019290ED088464FF0010AD4E705
:103BA000CC460122052B40F28680062A4FF0000EFB
:103BB000BDD11929C3D1013304FA03F3BEF1000FBB
:103BC0003DD05B42184080EA050301930DF1040CDF
:103BD0000DF1080E00221CF8013B23B1591E0132E1
:103BE0000B40D2B2FAD1E645F5D1012A09D983B208
:103BF000B3EB104F4FEA104224D1C3B2B3EB106FB6
:103C000020D1013E16F0FF067FF477AF6FF00D0074
:103C100003B0BDE8F08F04FA03F210434146CC46EE
:103C20004FF0010E8845ABD00E2B8AD8E1458CD1E0
:103C300041460CF1010C5FFA8CFC52467DE7013BDA
:103C40001843C0E7C0F30721130A387000207970C9
:103C5000BA70FB7003B0BDE8F08F09F1010CBEF142
:103C6000070F5FFA8CFC1DD912B9964601225EE758
:103C7000012907D0964660E700297FF45BAFBEF1CB
:103C8000000F37D004FA03F2072B20EA020088BFA6
:103C90004FF0000EC6D80BF1FF3B5FFA8BFB4FF0E5
:103CA000000EBFE7002A3FF47CAF0BF1010B5FFA77
:103CB0008BFB96463EE7BBF1000F0BD0042B3FF683
:103CC00074AFBBF1010F05D9032B3FF66EAFBBF10B
:103CD000020F09D804FA03F210430BF1010B5FFA4B
:103CE0008BFB4FF0010E9DE7062A0DD011B14FF06E
:103CF000000E1FE704FA03F2072B40EA020088BF18
:103D00004FF0010E8ED8E8E74FF0000E15E74FF0A8
:103D1000010A8EE7BEF1000F12D14146CC4641E7C1
:103D2000BEF1000F1FD00BF1010B062A5FFA8BFBCF
:103D30000BD904FA03F220EA02004146CC46AAE776
:103D4000062A18D14146CC46F9E6FBD04146CC467E
:103D5000B8F1000F96D0EDE601293FF6EEAEBEF1C8
:103D6000000FC7D08EE7062AD7D904FA03F2104312
:103D70004146CC46B1E74146CC46D8E6D6BE898E10
:103D800030B5437F0568FF2B14D003EB43028B4211
:103D900005EB021228D04FF0000C01E099420BD045
:103DA0009E4613789468FF2B03EB4302A44405EB73
:103DB0000212F3D1002030BD714518D013789068FD
:103DC0000FFA8EFE0EEB4E0E4FEA0E1E05F80E3069
:103DD0001378FF2B06D003EB430305EB0315AB6809
:103DE0000344AB60604430BD9E464FF0000C137836
:103DF0004377E4E7A2EB010C1CF4000F10B48368D6
:103E000044690AD12CF07F410B44A34214D91B1BF7
:103E1000002110BC836041617047891A21F07F4105
:103E20008B4206D82144C91A002310BC836041612B
:103E300070475B1AA342EAD8E11AF5E72DE9F04F83
:103E400087B00346427A0190006802905868059056
:103E5000002A00F0F480531EDBB200EBC3030F46D0
:103E60000393039B5A685E780492FF2F5ED007EBA2
:103E70004704029B4FEA041AB84613F80A7003EB92
:103E800004140025019B4FF0FF0984F80090D3F83B
:103E900000E05A7F0EEB0A0B4A45DBF808100FD101
:103EA000C8E0091A06D1BBF81EA0BCF81EC0E24546
:103EB00000F286801EF80330FF2B914672D01A461E
:103EC00002EB42030EEB031C1B01DCF808008842E6
:103ED000E7D9B9F1FF0FCBF808108BF8002066D1B5
:103EE000019B83F81D80FF2A08D002EB42020EEBF3
:103EF000021EDEF808305B1ACEF80830A3780133D2
:103F00006370002DB1D04FF00002EB6A2A700022DE
:103F1000AA6213B1296B104698476368002BA4D19D
:103F2000D5E90B23FF2FC4E90823A0D1039B987880
:103F3000B0422FD0DDE903B906EB460206EB820260
:103F40009BF8001019F822300136F6B2B14208BFD2
:103F50000026042B09EB82051AD195F801800299FD
:103F600008EB480301EB03144FEA031AA1786378C6
:103F70005B1A13F0FF0325D04FF0000309F822303D
:103F8000EB6A0120A8620BB1296B98479BF80200ED
:103F9000B042D1D1039A05999142A2F108034ED0C3
:103FA00003935EE7CBF808108BF800301A460FFA3F
:103FB00089F909EB49094FEA09190EF8098092E7D6
:103FC000014686E7AA8A0199D5F824904969D5E97E
:103FD00003EC4FF6FE708242C4F82890C4F804E067
:103FE000C4F820C024D04FF6FF73D31AB3FA83F37A
:103FF0005B0984F82C304FF6FD739A4288BF00228B
:10400000AB69A361EB69E3602B6A2361AB68A360D2
:104010000023A28363616A6820469946FFF7EAFE9F
:104020004FF00103C4F82490A4F81E90E37029E730
:104030001A46E5E70EF80A2083F81D805EE707B010
:10404000BDE8F08F2DE9F04F827F8FB001230692FB
:10405000C377002A5BD1437FFF2B814656D00EF0F9
:10406000AFF8D9F8142099F81C3099F81D80801AFF
:10407000FF2B20F07F4700F03C81D9F81830BB427D
:1040800094BF002301230393B8F1FF0FD9F800B0C8
:1040900000F045814FF0000ACDF8109008EB480879
:1040A0000BEB08144FEA0818A368BB4237D8A17875
:1040B0001BF80880FF1A9A4463785B1ADBB2012B65
:1040C0002AD1A669002E54D0039B002B4CD0E38B41
:1040D0000593A36A3BB11A681AB11A7A002A00F054
:1040E000EF8000221A72059A94F82C00013292B2E5
:1040F000E28378B1A08B90420CD2002B00F0FC80C0
:104100001A7A012A06D04FF0010C36E0C2770FB0C0
:10411000BDE8F08F0139A170B8F1FF0FBED1DDF815
:104120001090514699F80B3099F80A209A420AD11A
:104130000132D2B2022A1CBF13460693069A89F8AE
:104140000B2008BF002309EB8303D9F82440D96072
:10415000002289F81F204B46012204210320A44697
:104160000FB0BDE8F04F604794F92D3007938033CE
:1041700041D1A36AF3B14FF0000C00221A72E56836
:10418000481E59685A60A070002DC5D0049B606914
:104190005B69626A2669AAEB0000184420F07F4040
:1041A000E378BCF1000F16D0CDE900364FF6FF736F
:1041B000A847B1E7E5680139A170002DACD01946D8
:1041C0006369626A2669AAEB0300049B5B69184471
:1041D000E37820F07F40B4F81EC0CDE90036634696
:1041E000A847A369002B039B18BF01230393002357
:1041F000E383E37090E7B8F1FF0FBAD0E28BA38BB3
:10420000656805929A4228BFD21A02FB05500890B1
:104210000798CDE90A17121ACDE90CA8434609926E
:10422000A0464FF0000C2C461BB203EB43030BEBF4
:1042300003121B01D2F808E0F444664539D39169B2
:1042400099B3D18B908BD2F8049092F92D70814262
:104250000D4628BF0D1AB9F1000F3ED0A9EB0E0E86
:10426000BCB309FB05EEDDF82090F1458CBF4FF0A3
:10427000010E4FF0000E34BF4FF001094FF000095E
:10428000814292F803A098F803200ED3924529D8D2
:1042900017F1800F26D0099AED1B954202DDBEF181
:1042A000000F1FD0079ABA4219D01BF80330FF2B1A
:1042B000BAD14446DDE90B7A0A99DDF8348058E733
:1042C000A28B059882423FF60CAF4FF001021A72A2
:1042D00009E74FF0010EA146D2E7CE46C0E7B9F19B
:1042E000000FE2D04446DDE90B7A0A99DDF834800C
:1042F000EFE6069B0393C7E6E5680139A170002D40
:104300003FF40AAF19466369626A2669AAEB0300A3
:10431000049B5B69184420F07F40E37844E7002366
:104320001946FFE6C37F002B40F021842DE9F04FB2
:10433000827F8DB08346002A40F08C80837AC17AD8
:1043400001208BF81E009942DBF81400079000F062
:1043500030840133DBB2022B08BF13460BEB830220
:104360008BF80A309BF81D30D2680993079B0392A3
:10437000134423F07F439BF80920CBF81430DBF87B
:1043800000300093DBF804300593531E0692DBB235
:10439000002A00F0C58101220B92059A02EBC309A5
:1043A00000230893FF230193CA46DAF804809AF8A1
:1043B00003C09AF80270674544D09AF800207B1C2D
:1043C0003EB2DBB29A4208BF002306EB460206EB80
:1043D00082068AF8023018F82600042808EB8604C2
:1043E00042D9082842D86178009A01EB410502EBD6
:1043F00005156A7895F802E0A2EB0E0212F0FF02B2
:1044000034D0052841D0012A40F01881062806D072
:104410005846FFF7B5FCAB78A8606B7061789BF8E5
:104420001C308B4200F0D980002008F82600E36A97
:10443000A0620BB1216B98479AF803C09AF80270FA
:104440006745BAD1059A5245AAF1080300F00781E1
:104450009A46AAE7446A0421034601220420A4469E
:104460000DB0BDE8F04F60471F46A4E7002208F8F2
:104470002620E26A0120A062002AF5D0216B904735
:104480009AF803C09AF8027095E7606848B9A06886
:1044900038B9E06828B9206918B9606930F07F4000
:1044A000E4D0012A40F0CA805846FFF769FCDBF8E7
:1044B0001430A860074602930DF082FE029BC21AD8
:1044C000039B22F07F42D1188F42814640F2AF8099
:1044D0006B6904937A1AD5F804C0BCF1000F51D06F
:1044E000A38A002B4ED0013B9FB29445EB8BA78251
:1044F00023D20CF1010ECDF818800A9418E0696AF5
:10450000DFF81082844C8844A04584BF01F1E87133
:1045100001F5D43170462C6A94BF604601F5A5714F
:10452000013B121A091B9BB294456962EB8301D2CD
:104530009F42E4D3DDF818800A9CBB4221D20CF1E3
:104540000100D5E908E106900A9405E001339BB229
:1045500060469F42024411D06E486F4C7144081867
:10456000A042F3D801330698A1F1E8719BB2A1F5FE
:10457000D4319F42A1F5A5710244EDD10A9C696234
:10458000EF83AF836168A068049B0A44AA60AA6AAB
:1045900003446B611AB113680BB1091A51604A46A2
:1045A00002992846FFF726FCE268AB6913442269AA
:1045B00093428CBF9B1A0023AB61A37D03B1EB70C8
:1045C000E37D13B1013B85F82C30019B2B706B7898
:1045D0006278019201336B7026E7FF238BF81C3061
:1045E00018F82630062B13D0082B11D00DF0E8FD5B
:1045F000DBF81420831A1D0210D4039A23F07F43A2
:104600001344DBF818209A4288BFCBF818300BE728
:104610006068DBF81420831A1D02EED5131A039A82
:1046200023F07F43934234BFD31A0023E9E76B6939
:10463000DA1B531804936B6100224CE704215B469C
:104640000122DBF824400846A047059A8AF8027048
:10465000012352450893AAF108037FF4F9AE9BF8B1
:104660001D30099A9B1A18BF012306930B9B002B40
:104670005AD101995846FFF7E1FB9BF81D30009392
:10468000009B099A934200F05C82089B002B00F08B
:10469000D6819BF81D300093009BFF2B00F0B48265
:1046A000099BFF2B00F0BB82009ADBF800301B4E09
:1046B00002EB420203EB02130A279D680DF080FD16
:1046C000DBF81440031B23F07F430333AB422CBFC2
:1046D000E418641924F07F44DBF828308046204633
:1046E00098470DF06DFDA0EB080323F07F43A4EB8A
:1046F0000804033324F07F44A34207F1FF3740F25C
:104700002782002FDAD140F63E113046FEF71EF91F
:10471000D4E700BF5A2B17FF592B177FB481010034
:10472000069B0893FF2301930DF04AFD079B9BF81E
:104730001D60C31A23F07F4AFF2EDBF80030009380
:1047400050D00023DFF89082DFF89092039F02930D
:10475000009A06EB460302EB03141B010493A368C3
:104760009F42C0F04382029AB4F81EE0DDF810C008
:104770001A440292DBF818209342A7EB0307AAEB36
:10478000030A25BF4FF0FF338BF81C30D31A0023E8
:10479000CBF81830A2786378A069A16A65689B1A83
:1047A000DBB20593009B13F80CC018B1059B022BDC
:1047B00000F035810023A3608BF81DC0002D40F070
:1047C000DA8019B1097A012900F01181059B23B122
:1047D000012B45D0BEF1000F42D162709BF81D60E5
:1047E000FF2EB5D1069B099A0199964218BF012365
:1047F00058460693FFF722FB9BF81D30DBF800A01C
:10480000CDE9003B0022009BFF2B0FD0009E33B26E
:1048100003EB43030AEB03151B01AF6A17B1397AA7
:10482000012925D01AF80360FF2EF0D1DDF804B07D
:10483000002A3FF425AF009B09998B427FF425AFF6
:10484000089B002B7FF428AFDBF8043001939BF822
:1048500009305F1EFFB2002B3FF41EAF0692FAE054
:10486000236A002BB9D0616A01209847A278B4E787
:10487000019B1B7FFF2B4BD0019B039A9B699342AB
:1048800046D9A3EB020C7A68AB6895F800B0D31A4E
:1048900002933B689A4280F0BD80BBF1FF0FA3EB0F
:1048A000020800F0B780D5F818E0F0454FF000039B
:1048B00031D3F1465A461C461CE081680B1F04297F
:1048C000234409D9434528BF4346994504D2B3EB55
:1048D0000E0301D09C451ED983691AF8022001EB12
:1048E000030C0C44A8EB0E03FF2A04EB0E0912D0B4
:1048F000C84510D302EB42020AEB02101201816A92
:104900000029DAD0097A0129D7D11AF80220EBE779
:104910004FF0000CB7E7029A1A447A605C46AB602D
:104920004FF0FF0E00E0144621B201EB41020AEB0A
:10493000021C1201DCF80800984280F04D811B1A1D
:10494000AB601AF80220FF2AA646ECD1019BCDF8F5
:1049500000B001EB4101090183F81DB01AF80130E4
:104960002B700AF80160EB8B013BEB834FF00203E5
:104970003B72012247E711B10B7A012B37D0BEF110
:10498000000F59D1B4F81CE07246681CD4E908C382
:104990000021059004E02846013A0144501C0FD044
:1049A000634403EB08004845F5D80598A3F1E87384
:1049B000013AA3F5D4330144501CA3F5A573EFD1FC
:1049C00094F82C206362002A00F0D2800022724406
:1049D000A160E2830DE000BF5A2B17FF592B177F10
:1049E000C4F808E08BF81DC0002D3FF4EBAE6270F8
:1049F000A760079B029ADBF814109A182046FFF76D
:104A0000F9F9009A0499019B535463780196013394
:104A10006370E3E6029B7B600023AB60A3E7BEF11B
:104A2000000F7FF4C7AE11B10B7A012BD8D0CBF8B1
:104A300018008BF81C60BDE662700022A5E79BF8A9
:104A40000930DBF8042001925F1EFFB2002B3FF417
:104A500020AE01230693019B002603EBC7074FF00E
:104A6000010A7B78FA787D689A420CD15BE0012BD1
:104A700053D07B7839780133DBB2994208BF0023E9
:104A80009A427B704FD01BB203EB430103EB8103CF
:104A900005EB830015F82330022B17D0032BE6D14A
:104AA00043789BF808209A423AD9DBF8002003EBC0
:104AB000430302EB0313027983F82D208662C36A55
:104AC00013B1016B806A9847FA78D2E7D0E901C147
:104AD0009CF80020D0F80CE0DBF80040DBF8143044
:104AE000FF2A03D0D1F80080984523D09BF81D20E1
:104AF0000B604FF000080AE002EB420304EB0311E5
:104B00001B01D1F808908969C84411B9E25CFF2AF9
:104B1000F2D18CF80020CEF80080C36A8662CFE71D
:104B2000C0F828A0CBE7019ABA42A7F108030BD03E
:104B30001F4696E702EB42021301DEF80080E25CBA
:104B4000E5E7089B002B54D0069B002B7FF4A1AD1A
:104B50009BF81F3000228BF81E202BB1DBF824407D
:104B60005B460122032179E40DB0BDE8F08F704768
:104B70008A457FF62CAF681C0594044605E028465C
:104B8000014401328A4592B210D9634403EB080014
:104B90004845F4D82046A3F1E8730144A3F5D43383
:104BA00001328A45A3F5A57392B2EED8059C6362E3
:104BB0000DE79BF81D309BF809100993DBF80030D6
:104BC0000093DBF8043005934B1E0891DBB2A1B3D0
:104BD0000B920392FFF7E1BBC31ABEF1FF0FCCF8B3
:104BE00008303FF4C0AE0FFA8EF1AFE6DB1BA360D6
:104BF000F8E59BF80930DBF8042001925F1EFFB254
:104C0000002B7FF428AF9FE70DF0C0FA00289FD15A
:104C1000CBF818000DF0D4FACBF8140098E70DF09B
:104C2000CFFA04460DF0A2FA9BF81D30009300283D
:104C30007FF43AADCBF8144036E5FF23069101939B
:104C400017E500BFF0B4049D9DF81470069C002881
:104C500037D11D4E01F1FF3C317232605FFA8CFC9E
:104C600049B10CEB4C0C02EB0C11914281F82D0078
:104C7000A1F13001F9D15A1E73727560D2B283B1BD
:104C800005EBC2025460104612F8083903EB4301E9
:104C900003EB81018542A7EB030304EB8104DFB240
:104CA000F0D177B9079A3262089A72624FF6FF73B1
:104CB000099AB2623846C6E90577B3837781F0BCBA
:104CC00070470120F0BC7047502D00200A4B2C2269
:104CD00002FB003210B4546A5CB100EB800200EBBE
:104CE000420003EB8003A446012210BC03210220F2
:104CF000604710BC704700BF502D00202DE9F843DD
:104D0000284EBDF82C8004462C2505FB046508467A
:104D100004EB840104EB4104696801EBC00706EB76
:104D2000840697F803E011F8304079780EF1010C11
:104D30005FFA8CFC644598BF4FF0000C61452ED0A3
:104D400079680EEB4E040EEB840E01EB8E044FF0EF
:104D5000040901F82E906360089BA360099BE3603F
:104D60000A9B23610C9BA361119B63620D9BE36112
:104D70000E9B23620F9BE362109B236302236270EE
:104D8000A362A4F8148087F803C0D5E908359847D2
:104D9000334649460022A847A06ABDE8F8830120AF
:104DA000BDE8F883502D002010B58AB00C9C00940B
:104DB0000D9C01940E9C0294BDF83C400394109C01
:104DC0000494119C0594129C0694139C0794149CC3
:104DD000089400240994FFF791FF0AB010BD00BFAA
:104DE0002DE9F84F284DBDF834709DF83880044601
:104DF00008462C2101FB045104EB840604EB460415
:104E000005EB84054C6804EBC00614F8309096F866
:104E100003E074780EF1010C5FFA8CFCE14598BF59
:104E20004FF0000C64459DF844902AD0D6F804A0B9
:104E30000EEB4E040EEB840E0AEB8E044FF0050BC6
:104E40000AF82EB063600A9BA3600B9BE3600C9B87
:104E500023610F9BE362109B236302236270A362B2
:104E6000A78284F8168084F8179086F803C0D1E9E9
:104E7000083698472B4600220421B047A06ABDE8B7
:104E8000F88F0120BDE8F88F502D002010B588B0B4
:104E90000A9C00940B9C01940C9C0294BDF8344035
:104EA00003949DF8384004940F9C0594109C06943C
:104EB00000240794FFF794FF08B010BD2DE9F041DE
:104EC0001E4C844608462C2101FB0C410CEB8C0542
:104ED0000CEB450C4D6805EBC00615F8307096F8E4
:104EE00003E0757804EB8C040EF1010C5FFA8CFC86
:104EF000674598BF4FF0000C65451CD077680EEBF6
:104F00004E050EEB850E07EB8E054FF0070807F8F0
:104F10002E80EB62069B2B6302236A70AB6286F8DD
:104F200003C0D1E908369847234600220421B04740
:104F3000A86ABDE8F0810120BDE8F081502D002075
:104F40002DE9F041204D844608462C2101FB0C51EF
:104F50000CEB8C040CEB440C4C6804EBC00614F80E
:104F6000307096F803E0747805EB8C050EF1010CB7
:104F70005FFA8CFC674598BF4FF0000C644520D069
:104F800077680EEB4E040EEB840E07EB8E044FF6A3
:104F9000027827F82E80C4E90123069BE360079B73
:104FA000E362089B23630223A36286F803C0D1E96E
:104FB000083698472B4600220421B047A06ABDE876
:104FC000F0810120BDE8F081502D002070B50A4D20
:104FD0002C2202FB0052D2E90836044608469847C4
:104FE00004EB840304EB430305EB8303B446002284
:104FF000BDE8704004216047502D00200DF0E0B85E
:10500000401A20F07F40704770B5044600200D46DE
:1050100003F096FC98B903F0B1FE10F006060ED12D
:1050200034B106222946074811F00FFE304670BD04
:1050300006222946044811F008FE204670BD0C20C7
:1050400070BD00BF842D00207C2D00200128034668
:1050500005D8044A0448002B18BF104670470020AA
:10506000704700BF842D00207C2D0020012810B542
:1050700003460BD80846074C0749002B18BF0C46BF
:105080000622214611F0E1FD204610BD00242046F5
:1050900010BD00BF7C2D0020842D0020022801D0EF
:1050A0000120704738B5044608461D4604F052FDFD
:1050B00010B10020287038BD204638BD0023037091
:1050C0000B70704708B50248FEF75AFA002008BD79
:1050D0005482010030B5838983B023B1037D044637
:1050E000C3B1022B04D06FF01505284603B030BDC4
:1050F00001A901F0AFFA019B054613B1184611F062
:1051000020FE002DF1D120460EF0FAF800252846A9
:1051100003B030BD01A9019300F0C6FB0028F2D016
:1051200011F00FFE019D002DEDD0284601F086FF05
:1051300068710199014812F0F4FAE4E76008002070
:105140002DE9F041DFF8B0802C4F82B00CE011F077
:10515000F5FD2246BDF80210044601F057FF204637
:1051600011F0EFFD10F01CFF0DF1020101A802F09B
:1051700015FA04464FF0FF324FF0FF3300211320A1
:10518000002CE4D1019B93B102F0DCFA019E304681
:1051900001F054FF019D70716B79032B02D12B79C3
:1051A000172B0CD02946384612F0BBFADCE74FF03B
:1051B000FF324FF0FF33404610F076FBD4E74FF05C
:1051C000FF3321464FF0FF320520EE8811F0B6FD87
:1051D00031460246044605F11C0001F09FFA3046B4
:1051E00001F0BCFA204624B111F0ABFD20460EF0D0
:1051F00087F8019DD6E700BF48080020600800201E
:10520000D0B51B4888B002F00FFF044660BB1948B8
:1052100001F02AFF002600276FF00902CDE90324E0
:10522000CDE90667CDE90144134B144900944FF4CE
:10523000E072134810F040FA1249114812F0F5F9E3
:105240006FF00702CDE90324CDE90667CDE90144FB
:105250000D4B0E4900944FF400720D4810F02CFADB
:105260000C490B4812F0E1F9204608B0D0BD00BF50
:105270004808002038000020415100002063002031
:10528000C8090020F4810100995200000065002047
:10529000480A0020008201002DE9F04FAC4DAD4FCF
:1052A000DFF8B482DFF8B4A2DFF8B492DFF8B4B26A
:1052B00085B04FF0FF324FF0FF330221284611F046
:1052C000DFF8002840F0AD80EB6803F4FC23B3F571
:1052D000005F00F0A2802B6A03F4FC23B3F5004FBB
:1052E00000F006810024EA682B6A6FF352326FF3F4
:1052F0005233EA602B629C4A9C4B1E68BFF35B8F63
:1053000052E8003F23F0010142E800100028F7D1E5
:10531000BFF35B8FDB0744BF0023C7E90033002ED8
:1053200040F3ED80DAF80010D9F80030711A194412
:105330003B68C8F80010002B00F006815A79002C59
:1053400075D1042A47D8022A00F2BA8040F2E91146
:105350005846CDE90032FDF7F9FA019A009B039314
:10536000002A40F0B3804FF4BD715846FDF7EEFAC5
:10537000039B00221A6003A802F076FADAF80030E4
:10538000F61AD9F800301E443B68C8F800602BB10B
:105390005B79DA1E012A16D9052B12D0002C88D091
:1053A000204611F041FD21460646002011F040FD47
:1053B000B389044630465BB1FEF74AF910F0F0FDC0
:1053C000ECE7002EEAD00021694811F0B5F8E5E7D6
:1053D0000DF096FFF2E7052A16D100293FF469AFD8
:1053E00079681A683A608B4200F0EE8003934FF0C0
:1053F000FF324FF0FF330320FEF7D4F80446014696
:10540000039801F0CDF9B3E740F2E9115846009353
:10541000FDF79CFA009B0393A5E72B6900249C6091
:1054200061E740F221215846FDF790FA4CE7D01E83
:10543000012840F28280052A00F09C8001316279C7
:1054400065D0511E3B68052900F2D180DFE801F0EC
:1054500003031B1B3003042A03945DD9052A1BD1C7
:105460004FF0FF324FF0FF330320FEF79BF8044666
:105470002146039801F094F9039B00221A6003A8C7
:1054800002F0F2F98AE70121C8F80010002B40F081
:105490008A800394002A3FD158464FF4BD71FDF72E
:1054A00055FA039B00221A6003A802F0DDF900E719
:1054B000002B78D1D8F80030002B74D00394CFE7BC
:1054C00078681968396083427CD00393022A71D0CE
:1054D0004FF0FF324FF0FF330120FEF763F8044630
:1054E000002C3FF445AF0398214601F0AFF93FE7A8
:1054F000686A0022002310F07DF90446F3E64FF0BD
:10550000FF33C8F80030002C3FF4D3AE6279039427
:10551000042AA3D8002ABFD0022A5DD001204FF070
:10552000FF324FF0FF33FEF73DF80446002C4DD01C
:105530000398214601F08AF99EE700210C4810F0FB
:10554000FBFFD8F8001079E7002C7FF477AFB0E6C6
:1055500010000020902D00208C2D00204C2E0020CB
:10556000282E002008820100542E0020502E0020FA
:10557000380000200029E0D16279511E052936D873
:1055800001A050F821F000BF57540000575400000C
:10559000A1550000A1550000B1540000575400006F
:1055A0000123C8F800307B6800222260E3B11C6050
:1055B0007C607EE6002200230121002011F0BEFB6A
:1055C00004468DE7796080E77A600FE7039B03A8C4
:1055D0001C6002F049F96CE6012100200022002342
:1055E00011F0ACFB0446A1E7C7E9004461E64FF4C3
:1055F000D0715846FDF7AAF903944DE72DE9F0471D
:10560000DFF8A890D9F80030002B80460F461646E8
:1056100012DD274C002521460622304611F004FBFE
:1056200018B914F8013CBB4229D0D9F80030013533
:105630009D4204F10804EEDB1E4D1F4CD5F800A07E
:1056400031464FEACA06701C2044062211F0FDFACA
:10565000012303FA08F8D9F8003004F83A7034440A
:105660000F2B84F807801CDC01331A46C9F8003080
:105670002B600020102A08BF2860BDE8F0870E4B81
:1056800003EBC5050120EA7922FA08F313F00103C0
:10569000F3D100FA08F842EA0802EA711846BDE8B8
:1056A000F0872A6801322A60E3E700BF9C2D0020C2
:1056B000A52D0020A02D0020A42D0020F8B5194C08
:1056C0006468A40004D51546174A1268120700D46E
:1056D000F8BD03F1080407460E462046022111F0EA
:1056E000B3FB3E2303700C2343700121204611F0CD
:1056F000ABFB034604221A7020460B2111F0A4FBD9
:1057000008220770A0F801502FB9311D0330BDE801
:10571000F84011F09ABABDE8F8400021033011F0CA
:105720009FBA00BF0000002008000020F0B501383B
:1057300087B01546092806D8DFE800F00927440598
:105740000558056C899E6FF0150007B0F0BD544BED
:105750000D21188811F013FB0D212860083011F07D
:1057600073FB0346022200200724632118705A703D
:105770009870DA70187158719A71DC7118725972D8
:105780009872D872187307B0F0BD454B4121188844
:1057900011F0F5FA41212860083011F055FB002482
:1057A0000546402200F8014B214611F059FA6A786B
:1057B000AB7862F0580243F0030320466A70AB7086
:1057C00007B0F0BD364B0921188811F0D8FA09212D
:1057D0002860083011F038FB002400F8014B082243
:1057E000214611F03DFA204607B0F0BD896800203F
:1057F000FFF70AFC2A4B0121188811F0C0FA012199
:105800000446083011F020FB0346002018702C607D
:1058100007B0F0BD234E224F0FCE0DF1040CACE8C3
:105820000F0033683888ACF80030132111F0A7FA64
:1058300013212860083011F007FB002400F8014B09
:10584000122201A911F001FA204607B0F0BD144B55
:105850001821188811F093FA18212860083011F0E7
:10586000F3FA00240546012100F8024B0DF0D0FBAD
:105870006870204607B0F0BD094B2121188811F04F
:105880007EFA21212860083011F0DEFA014600245A
:1058900001F8114B01300DF02FFC204607B0F0BD90
:1058A000905A002068820100F0B583898FB00022F1
:1058B000022B099233D904460E460830032111F019
:1058C000E3FAA28983789A4229D30288CC4FC2F3A3
:1058D0008523082B90B23A80C2F309050DD8BBB1DD
:1058E000013B072B14D8DFE813F01E0013002D0036
:1058F0001F013901130013007C003F2B08D109AAB6
:1059000021462846FFF712FF163040F04D863888B2
:10591000012111F046FA044620460FB0F0BD0024E4
:1059200020460FB0F0BD062D00F027861D2DEFD1CB
:10593000A368188804F038FB0146388811F031FA62
:105940000446E9E7352D00F23F812C2D00F222813B
:10595000012D00F07A81032DDAD1AA48AA49AB4A79
:10596000AB4B4FF0FF34046041F6FF754FF0FF344E
:10597000C1E9004500200021C2E900011F200021EB
:10598000C3E9000102F0BCFB0121388811F0F7F9EE
:1059900001210546083011F057FA9E4B9E499F4A57
:1059A00000241C609E4B04700C6014609D481C60B9
:1059B00020222146099511F053F9BFF35B8F9A4BD2
:1059C00053E8002F42F0010243E800210029F7D1FB
:1059D000BFF35B8F954B1868214610F0ADFD099C15
:1059E0009AE76A1E4D2A93D801A353F822F000BF0C
:1059F0006B65000043650000F5640000115900006C
:105A0000EB640000B364000095640000896400004A
:105A10007D640000736400005B6400002B64000080
:105A2000A56300009D6300007963000073630000BC
:105A30006B630000636300003B630000336300009E
:105A400007630000F1620000BB6200009762000083
:105A50007762000067620000576200002362000066
:105A6000156200000F620000E3610000C5610000E4
:105A7000AD610000D56000009F60000093600000F1
:105A80001159000011590000856000007D60000080
:105A90007760000055600000276000007D61000015
:105AA000736100005161000003610000CD5F0000E0
:105AB000AF5F0000515F0000255F0000F55E000051
:105AC000115900001159000011590000115900002E
:105AD000115900001159000011590000115900001E
