:10000000802E0020FD270000DBDE0000D12700004D
:10001000D1270000D1270000D127000000000000F8
:100020000000000000000000000000004D22000061
:10003000D127000000000000F9210000D1270000B6
:10004000FD22000091EE0000FD220000FD220000D4
:10005000FD220000FD220000FD220000FD22000024
:10006000FD220000FD220000FD220000FD22000014
:10007000FD220000FD220000FD220000FD22000004
:10008000FD220000FD220000FD220000FD220000F4
:10009000FD220000FD220000FD220000FD220000E4
:1000A000FD220000FD220000FD220000FD220000D4
:1000B000FD220000FD220000FD220000FD220000C4
:1000C000FD220000FD220000FD220000FD220000B4
:1000D000FD220000FD220000FD220000FD220000A4
:1000E000FD220000FD220000FD220000FD22000094
:1000F000FD220000FD220000FD220000FD22000084
:1001000053B94AB9002908BF00281CBF4FF0FF317E
:100110004FF0FF3000F00CB8ADF1080C6DE904CEE3
:1001200000F008F8DDF804E0DDE9022304B07047D0
:10013000704700BF2DE9F04F07468C460846099EE0
:1001400015463C461946002B40F0C6808242B2FA62
:1001500082F746D94FB1C7F1200E24FA0EFE00FAFD
:1001600007F3BD404EEA030CBC404FEA15481FFAA6
:1001700085FEBCFBF8F9220C08FB19C309FB0EFA3B
:1001800042EA03439A4528D9EB1809F1FF3004D21B
:100190009A4502D9A9F102002B44A3EB0A03A4B2A9
:1001A000B3FBF8F208FB123302FB0EFE44EA0344F1
:1001B000A64514D92C1902F1FF3303D2A64501D963
:1001C000931E2C44A4EB0E0443EA00401EB1FC40F5
:1001D000002334607360BDE8F08F4846DDE71346C6
:1001E000F0E702B9FFDE87BB831A01214FEA154E03
:1001F000AAB2B3FBFEFC200C0EFB1C330CFB02F876
:1002000040EA0343984563D9EB180CF1FF3004D260
:10021000984502D9ACF102002B44A3EB0803A4B229
:10022000B3FBFEFC0EFB1C330CFB02F244EA03445E
:10023000A2424FD92C190CF1FF3304D2A24202D9A9
:10024000ACF102032C44A41ABEE7C7F1200C20FA3B
:100250000CF800FA07F324FA0CFCBD404CEA030248
:100260004FEA154EABB2B8FBFEFC110C0EFB1C8026
:100270000CFB03F941EA0040814504FA07F423D955
:1002800028180CF1FF3104D2814502D9ACF10201EA
:100290002844A0EB090092B2B0FBFEFC0EFB1C0050
:1002A0000CFB03F842EA004398450FD9EB180CF118
:1002B000FF3204D2984502D9ACF102022B44A3EBE1
:1002C000080342EA014191E76146E2E76246F6E748
:1002D0006046A2E76346B6E7834205D90EB1C6E998
:1002E00000700021084676E7B3FA83F181B98342B2
:1002F00001D3BA420AD8BC1A60EB030301209C4622
:10030000002E68D0C6E9004C002164E70846F7E7F4
:10031000C1F1200C8B4022FA0CF41C4302FA01F5C7
:1003200000FA01F327FA0CF220FA0CFB4FEA144909
:100330001343BBFBF9F81FFA84FE09FB18BB1A0C28
:1003400008FB0EFA42EA0B42924507FA01F73ED942
:10035000A21808F1FF3004D2924502D9A8F1020098
:100360002244A2EB0A029BB2B2FBF9F809FB182265
:1003700008FB0EFE43EA024296452AD9A21808F16C
:10038000FF3304D2964502D9A8F10203224443EA7E
:100390000040A0FB0593A2EB0E029A42CE4698467F
:1003A00002D306D14F4504D2B9EB050E63EB040826
:1003B000013886B1B7EB0E0362EB080707FA0CFCB5
:1003C000CB404CEA0303CF40C6E900379CE74046E8
:1003D000C7E74346DBE73146FDE6000000000000CA
:1003E0002DE9F0478CB020B90CB0BDE8F04706F01D
:1003F0005BBC574C94F83E5015F0010504D0002525
:1004000028460CB0BDE8F08794F82000FF2380094F
:1004100084F8213006F03CFF94F83E0042070DD5E9
:100420002A4604F13F01C0F3C00007F0A7F8FF28F7
:1004300084F8210002D0284606F06EFF94F825309B
:1004400004EB83039E6A94F8313004EB83035F6B03
:1004500056B13F4831460EF0A7FB33785B0612D405
:100460003B4839460EF0A0FB94F820300121C3F33D
:1004700002030DF12B008DF82B300EF00AF8024626
:1004800040B90C25BCE706210DF0D7FF0028E7D1C5
:100490001225B5E7797830460EF03DFB2D49B4F8CA
:1004A0003C8000263123C4E90236A0FB010126A3CB
:1004B000D3E90023C4E9056626706660FFF720FED5
:1004C00020610EF08EFA2369234A03F2471111606E
:1004D0000992224A2249CDE90642224A4FF0910C64
:1004E000CDE9043207464FF6FF73A8FB0101CDE9C1
:1004F00002634FF0020A14A3D3E900230DF12C0983
:100500000CFB0811CDF82CA0CDF82090FFF7F8FDDA
:100510000321CDE900603B465246304604F006FE1A
:10052000494605F071FE0028ABD194F83E3043F007
:10053000010384F83E3006F0ADFC00287FF45FAF85
:10054000012006F085FE5BE78D49FD1A07000000DB
:10055000FC11002000CA9A3B4412002009600000F0
:10056000002AE784496A000070B590F820308AB00C
:10057000C3F302030D46044601210DF12300164684
:100580008DF823300DF085FF7178024628460EF075
:10059000C2FA1D491AA3D3E90023A0FB0101FFF70A
:1005A000AFFD216905468D421FD2481B0021174A25
:1005B00002230993A21A4823B2FBF3F2144B0593CA
:1005C00009AE00230232CDE90110CDE90333032146
:1005D00006960093D2B218460EF0EBF9314605F0BC
:1005E00013FE40B925610AB070BD02D9691A002016
:1005F000DDE70020F7E70C20F5E700BFAFF3008050
:100600008D49FD1A0700000000CA9A3BFC1100202A
:1006100009600000000000002DE9F04F044690F84A
:10062000300094F82030444EC0F3400060F386134D
:100630008DB084F8203004F123010EF0D4F9678DD9
:1006400094F82030E4610025A7FB06014FF0910CDF
:1006500003F079030CFB0711C4E9055584F8203039
:10066000257033A3D3E90023FFF74AFD3123C4E902
:100670000235E36A65600933A0F13102934228BF75
:10068000E5622E4D34BF236122610746651B0EF0E3
:10069000A8F93423B5FBF3F5294BCDE906430DF159
:1006A0002C0B284BCDF820B00593236904934FF011
:1006B000000ACDF80CA0B4F82AC0B14680469121BA
:1006C000ACFB090901FB0C9119A3D3E90023022615
:1006D0000B96FFF715FD104619464FF47A7200236A
:1006E000FFF70EFD0435EDB22A46CDE90170434611
:1006F0000321CDF800A050460EF040F9594605F010
:1007000083FD054680B994F8303043F0010384F846
:10071000303006F0BBFA044640B9304606F098FD8A
:1007200020460DB0BDE8F08F0C20FAE72846F8E728
:100730008D49FD1A07000000002AE7846812002096
:1007400009600000B96D0000F8B5044600201646A7
:100750001F4606F0ADFB054620B390F830304185CA
:1007600067F3420380F830309DF818306401DB00F5
:1007700003F0180304F020041C4390F8203023F009
:1007800038031C4380F8204009489124A6FB00014F
:1007900005A3D3E9002304FB0611FFF7B1FCE862CF
:1007A0000020F8BD0C20FCE78D49FD1A0700000071
:1007B000002AE784024A937801339370704700BFA0
:1007C000D004002070B58CB00021142202A80DF0D6
:1007D000DFFB4FF010131E4804930CF04AFD00207D
:1007E00003F02CF8014620B11A480CF042FD0CB081
:1007F00070BD19480CF03DFD184902A803F082FEB7
:100800000146B0B9164E174D002143F234300CF0BA
:10081000A3F90FCD07AC0FC42B682360002331462A
:100820000093012207A803F0DFFC014618B10E482F
:10083000DBE70E48D9E7002143F234300CF08CF9A5
:1008400003F004FD01460028DDD00948CDE700BFD4
:10085000240A0100460A0100660A0100B5070000EB
:10086000B807010050070100A00A01007D0A01003D
:10087000C60A01000B6801330B60014B1B68184767
:1008800028010020014B1860704700BF280100209C
:1008900007B50B46002102460191034801A900F06B
:1008A000F9F803B05DF804FB7508000030B585B0B9
:1008B000CDE901010446002501A90548039500F092
:1008C000E9F8DDE902309842B8BF255405B030BDE3
:1008D0004DD200002DE9F84FB0F8189019F0080833
:1008E000044693460DD001290CBF49F0100949F088
:1008F0002009A0F818908BF31188BFF36F8FBDE823
:10090000F88F09F00709022907D120460CF0CBFC2B
:100910000028F0D00128238B4ED16769218B002F4E
:1009200015DA256821F00701C4E9008841F00101CA
:1009300021830026218B01F0070ACA4502D0A36853
:10094000002B5AD10DB9002E71D0002356E001F0D2
:1009500007035A1F012A1ED821F00701062B25681C
:1009600089B2C4E900880AD13DB1638B2A46126876
:1009700001339BB2002AFAD1638341F00201218343
:1009800020460CF090FC06460028D3D0238B43F081
:1009900020032383CDE7042B0CD121F0070189B27A
:1009A000218320460CF07FFC05460028C1D041F091
:1009B000200121830025BCE7032809D1226923F007
:1009C0000703166843F00603238300252F46B1E78B
:1009D000042806D1226923F00703566843F0040374
:1009E000F2E7052806D1226923F00703966843F051
:1009F0000503E9E700252E46E8E7012341F0080159
:100A000021838BF31188BFF36F8FFBB985BB16B1C0
:100A10001F492046B0474FF02003EFF3118B83F3BB
:100A20001288BFF36F8F238B23F008032383238B5C
:100A3000DA0625D523F0100323830121B4F818909A
:100A400009F0070900297FF45EAF54E7A168002987
:100A5000DCD0D1F80090D1F804B03B465246204695
:100A6000D847B9F1000FD1D04946D9F80090F2E744
:100A700029463B46524620462D680CF030FCC5E71F
:100A800013F020011EBF23F0200323830221D5E7AA
:100A90000BD300002DE9F04F91B08B4602909246A7
:100AA0001C4600259AF8000008B928465FE325286F
:100AB0000AF1010707D0029B594698470028C0F267
:100AC0005683013512E2182200210AA80DF060FABF
:100AD0009AF80130252B78D000221046964694468D
:100AE0001646394617F8013B2B2B00F09D8000F28B
:100AF0009480202B00F09B80232B00F09B802EB154
:100B00009DF8306046F004068DF83060BCF1000FAF
:100B100005D09DF8306046F008068DF83060BEF1D3
:100B2000000F05D09DF8306046F010068DF830605B
:100B300028B19DF8300040F020008DF830002AB137
:100B40009DF8302042F040028DF830209DF8302092
:100B500002F04400442803D16FF386128DF8302050
:100B60009DF830202A2B42F080028DF830207BD176
:100B70009DF8312042F001024B1C8DF831201A788B
:100B80002E2A9DF831200CBF0121002161F3410282
:100B90008DF8312074D15A782A2A6AD00133002185
:100BA0000A26184610F8012BA2F13007092F40F24F
:100BB0008E809DF830200E91C2F3400040EAD17142
:100BC00061F341028DF830205AE00AF102078DF8F6
:100BD00033309DF83130D90740F1498154F8049BF6
:100BE000B9F1000F07DA9DF8302042F004028DF8C9
:100BF0003020C9F100095A0740F1428154F8048BB2
:100C0000B8F1000F80F241819DF831306FF341035C
:100C10008DF831304FF0FF3837E12D2B0CD0302BD1
:100C20007FF46DAF01225CE74FF0010C59E74FF004
:100C3000010E56E7012054E7012652E70CFB0202A1
:100C4000303A33461E4616F8010BA0F13007092F43
:100C5000F4D9994293D09DF830100D92D20F62F3DF
:100C600041018DF830108AE70B4600224FF00A0C44
:100C7000E8E79DF8312042F004028DF8312002337C
:100C80001F4617F8012B6C2A41D025D8682A2BD093
:100C90006A2A46D04C2A4CD01F4617F8012B9DF8E3
:100CA00031308DF83320782A00F2D980572A4DD878
:100CB000412A03D0453A022A00F2D1809DF8323011
:100CC000042262F302038DF8323001239EE006FB1A
:100CD00001213039034664E7742A26D07A2ADBD111
:100CE0009DF8313006220DE05A78682A9DF83120AF
:100CF00006D1012161F3C6028DF831209F1CCCE79B
:100D00001346022262F3C6038DF83130C5E75A78E4
:100D10006C2A9DF8312001D10421EBE71346032210
:100D2000F0E79DF831300522ECE79DF831300722DD
:100D3000E8E7BDF8303023F4F04323F0020343F436
:100D4000804343F00203ADF83030A6E7A2F158012A
:100D5000202900F2848001A050F821F0210E00002B
:100D60005F0E00005F0E00005F0E00005F0E0000CF
:100D70005F0E00005F0E00005F0E00005F0E0000BF
:100D8000BD0C00005F0E0000210E0000E10D000010
:100D9000BD0C0000BD0C0000BD0C00005F0E00008B
:100DA000E10D00005F0E00005F0E00005F0E00000E
:100DB0005F0E0000290E0000210E0000450E00000D
:100DC0005F0E00005F0E0000450E00005F0E000089
:100DD000210E00005F0E00005F0E0000210E0000DB
:100DE0009DF83210012003F0780360F30201402BDC
:100DF0008DF8321002BF9DF8301041F001018DF8DE
:100E00003010632A31D1003B18BF01239DF83020F8
:100E1000C2F340010B4363F341028DF83020D8E662
:100E20009DF832100220DEE79DF8322003F07803AF
:100E3000A3F14000032161F3020243428DF8322006
:100E40004341E3E79DF83220032113F0780F61F36B
:100E500002028DF8322014BF01230023D6E79DF84B
:100E6000303043F001038DF830300023CEE79DF998
:100E70003020002AB4BFDDF834904FF0FF39BAE6D5
:100E80009B077FF5C7AEDDF838809DF83110002351
:100E9000CDE90D339DF8323003F00703012BC1F388
:100EA000C30138D1CB1E042B22D8DFE803F003099D
:100EB0000921210054F8043BDA17CDE90A3206E093
:100EC000073424F00704F4E80223CDE90A239DF84F
:100ED000303013F0030656D002983B46524659462E
:100EE0000CF0A2FC0028C0F242810544BA46D9E5C4
:100EF00054F8043B01294FEAE372CDE90A3205D1E7
:100F00009DF828300A9300230B93E0E70229DED1F5
:100F1000BDF92830D0E7022B23D1CB1E042B13D8E8
:100F2000DFE803F0030A0A12120022680A92002383
:100F3000201D0B930446CAE7E01D20F00700F0E8EF
:100F40000223CDE90A23F5E754F8043B0A9301296B
:100F50004FF000030B93D3D00229B8D1BDF828304D
:100F6000D0E7042B09D1E31D23F0070303F10804A4
:100F7000D3E90023CDE90A23A9E7032B04BF54F8E2
:100F8000043B0A93A3E79DF833007828AED8622883
:100F900022D825283FF48FAD5828A7D10DF126037C
:100FA0000093DDE90A0104AB0CAA0CF0F7FB8246C2
:100FB000B8F1000F0DF126000CDB9DF83020A0EBFE
:100FC0000A036FF3861298458DF8302002D9A8EBFA
:100FD00003030D9380463DE06338152886D801A2AF
:100FE00052F820F065100000C9100000ED0E00005E
:100FF000ED0E0000ED0E0000ED0E0000C910000027
:10100000ED0E0000ED0E0000ED0E0000ED0E0000F4
:1010100023110000F1100000F5100000ED0E00009B
:10102000ED0E00003D100000ED0E0000F11000007C
:10103000ED0E0000ED0E0000F1100000B8F1000F01
:10104000DDF828A00ADB414650460CF070FF0AEBA1
:1010500000080026BAF1000F0CD147E750460CF00B
:101060005FFFF4E70A9B8DF8103000260DF1100A9F
:101070000DF11108A8EB0A0306B101339DF83220E7
:10108000D00668D5023352060D9948BF0E9A0B441C
:1010900048BF9B18B9F1000F76DD9DF83020A9EB11
:1010A0000309C2F38003039353076DD4500661D53F
:1010B00046B1029B594630469847002857DB039BB0
:1010C00001351E46302356E01E070FD413F01006DC
:1010D00018BF2026DDE90A23002BBFF65FAF52427E
:1010E00063EB4303CDE90A232D2657E72B26F1E7CF
:1010F000002653E70A9840B30DF1260300930CAA8B
:1011000004AB00210CF04AFBBDF8323003F0EF03D2
:1011100043F4F04343F010038246ADF8323000262A
:1011200046E70A9B07293FF6E1AEDFE801F00C0431
:10113000060C08080C0C1D70D8E61D80D6E6EA17D0
:10114000C3E90052D2E61D60D0E6DFF8C8A006462B
:101150000AF105088EE7110748BF013393E71846E7
:1011600003935946029B98470028039B04DA11B069
:10117000BDE8F08F20234D444A46002AA5EB090123
:1011800009F1FF39EBDC0D4636B1029B594630467A
:1011900098470028EBDB01359DF83230D90601D4A1
:1011A0001A0706D5029B5946302098470028DEDBF7
:1011B00001359DF83230DB0607D59DF83300029BE0
:1011C000594698470028D2DB01350D9E2E44731BEB
:1011D000002B16DC02984346524659460CF024FB7D
:1011E0000028C4DB0544A944A9EB0503002B7FF7C5
:1011F0007DAE029B5946202098470028B7DB013579
:10120000F2E7029B5946302098470028AFDB0135B2
:10121000DDE700BFEB0A010030B51049104889B086
:1012200000220EF037FF0F4D0F4900220023CDE9B9
:10123000062300240E23CDE90334CDE901440B4BF2
:1012400000944FF4407228460AF04EFE08492846A2
:101250000EF006FC204609B030BD00BF751200003C
:10126000D005002008060020C01E0020D115000077
:10127000F10A010001480AF0C3BF00BF00050020C9
:101280000C4A002310B513700B4A13600B4B0C4A29
:101290001A604FF4004000F0D7FC00F077FA0948DC
:1012A0000CF0D9FABDE81040074908480823482245
:1012B0000EF08CBBF31700200C0A00202C0100203C
:1012C00095D80000140A0020403C00201C0A002091
:1012D00070B5124BBFF35B8F53E8005F6A1C43E8A5
:1012E00000210029F8D1BFF35B8F2DB90C4C0D4EB6
:1012F000361B3611B54200DB70BD237B53B123682A
:101300009B690BB120469847636804221968204600
:1013100000F02EFA01351034ECE700BF100A00206F
:101320000C0701002C07010010B54FF02003EFF36C
:10133000118483F31288BFF36F8F04480CF09BFA7B
:1013400084F31188BFF36F8F10BD00BF140A002013
:1013500010B5044C237813B903480AF051FF012358
:10136000237010BDF2170020000500200C4BBFF3C6
:101370005B8F53E8002F013243E800210029F8D1A8
:10138000BFF35B8FBFF35B8F064B53E8002F013A2F
:1013900043E800210029F8D1BFF35B8F704700BFFD
:1013A0000C0A0020080A00200020064BBFF35B8FC8
:1013B000024653E8000F43E800210029F9D1BFF3AA
:1013C0005B8F70470C0A0020F8B5FFF7EDFF0A4C61
:1013D0000A4D2D1B07462D110026AE4200DBF8BD3D
:1013E00063685B792BB123681B6913B139462046CA
:1013F000984701361034F0E70C0701002C07010074
:10140000164B984237B5044602D3154B984220D369
:1014100014480022002301A90AF006FD0546D8B9A8
:101420000122019BBFF35B8F53E8001F43E80020BC
:101430000028F9D1BFF35B8F019821464122043087
:101440000CF05CFD019C7E2384F8453084F8465006
:101450000434204603B030BD034CFAE77C0301009E
:10146000A82301001C0A0020F90A010050B1064B14
:10147000984206D303F5107398422CBF0020012038
:1014800070470020704700BF403C0020434B1B7852
:101490002DE9F74F044603B9A0B1FFF745FF054614
:1014A00018B19CB128460CF001FB2CB93C4B1B68D1
:1014B000002B01DDFFF788FF3A480CF0DAF9041E33
:1014C00018BF0124204603B0BDE8F08F364BBFF3B0
:1014D0005B8F53E8002F013A43E800210029F8D13F
:1014E000BFF35B8F314B1B78BBB92B7ADB0714D46E
:1014F0000CF0EFFA804628460CF0B6FA014640465A
:101500000CF0CCF92A4B2B4ADFF8ACA0DFF8ACB0DA
:101510009B1A06464FEAD30936B9294E294FBF1BFD
:101520003F114FF0000836E0B6FA86F7C7F11F0703
:10153000394628460CF09BFA234B9842024602D3C8
:10154000224B984216D31046FFF790FF90B95245B0
:1015500010D06989C1F3891100F0FCF84FEA8913B2
:1015600043F001030246ADF8003039464346584681
:101570000CF0EEF9012303FA07F726EA0706CBE79A
:1015800073685B7923B1336829465B6830469847B6
:1015900008F101081036B845F2DB83E7F2170020A6
:1015A0000C0A0020140A0020080A0020F31700206B
:1015B000CC06010004060100F90A0100130B01002A
:1015C0000C0701002C0701007C030100A823010087
:1015D00010B5FFF77DFE0BF0D9FA0C4B186030B157
:1015E0000B4B1B68092B02DD0A480AF009FE094C67
:1015F0000020FFF74BFF0028FAD14FF0FF324FF0E9
:10160000FF3320460AF022FEF2E700BF380A00202E
:10161000080A002000050020284B37B51B684181CF
:1016200004469847E0604FF02003EFF3118583F301
:101630001288BFF36F8F224821460CF010F985F312
:101640001188BFF36F8FBFF35B8F1E4B53E8002FE2
:10165000511C43E800100028F8D1BFF35B8F1A4BF0
:101660001B7883B14FF02003EFF3118483F31288CA
:10167000BFF36F8F0020FFF709FF84F31188BFF3DA
:101680006F8F03B030BD114B1B68002BF9D052B9DE
:1016900000220023CDE900230D484FF4004200232F
:1016A0000BF088FCEDE70A2AEBD109480EF0FEFCAE
:1016B000084803B0BDE830400AF0A2BD2C0100206C
:1016C000140A0020080A0020F3170020380A00201E
:1016D000D005002000050020F8B50E4F3D7875B903
:1016E0000D4C0E4EFFF7F4FD361B3611B54207DBED
:1016F0000020FFF7CBFE0028FAD101233B70F8BD94
:1017000063685B791BB1236820465B6998470135A4
:101710001034EBE7F31700200C0701002C07010041
:1017200007B504380190BFF35B8F50E8003F5A1EA5
:1017300040E800210029F8D1BFF35B8F012B03D1D2
:10174000034801A90EF05DF903B05DF804FB00BF8A
:101750001C0A0020044A054B9B1AB1EBD30F34BF7F
:1017600052F8310000207047040601000C07010008
:10177000054A4368801A001101300122187119606E
:101780005A71FFF7E5BD00BF0C0701002023024995
:1017900002481A460EF01AB9803E00203C0A00208A
:1017A00037B50023094D01930120FFF76FFE044672
:1017B000FFF7DCFD0022002301A928460AF034FBD4
:1017C00008B1002CF0D1019803B030BD3C0A0020D4
:1017D00007B50023019307480022002301A90AF05E
:1017E00023FB10B1FFF7DCFF0190019803B05DF817
:1017F00004FB00BF3C0A0020F0B5037A85B0DC078B
:1018000001901ED4457A2D091BD00024264601984C
:1018100031460CF02CF90746FFF728FE70B134B9B9
:10182000019B294618690CF039F8044648B124FA9E
:1018300006F3D90702D53846FFF772FF0136AE42EC
:10184000E5D3019B1A7A920704D55B69084C039390
:10185000039B2BB9064801A90EF0D3F805B0F0BDE3
:101860001D6803A920460EF0CCF80395F0E700BFF1
:101870003C0A00200EB403B503AB014653F8042B19
:1018800004480193FFF706F902B05DF804EB03B0DA
:10189000704700BF8BDE00002DE9F0471D46089B16
:1018A0001746DA0604460E4605D499064CBF2A4967
:1018B0002A49FFF7DFFFDFF8A8904FF00008A8459E
:1018C0002ADBDFF8A080DFF8A090DFF894A00025E5
:1018D000BD422FD2725D49462046FFF7CBFF01354E
:1018E000102D20D12149DFF87880DFF88490204640
:1018F000FFF7C0FF0025AF4228D9725DA2F1200397
:101900005F2B28BF2E2249462046FFF7B3FF013543
:10191000102D14D1BDE8F08749462046FFF7AAFFF5
:1019200008F10108CBE76A07D2D151462046FFF7FC
:10193000A1FFCDE741462046FFF79CFFCFE76B07AD
:10194000D9D141462046FFF795FFD4E741462046CE
:10195000FFF790FFDBE700BF580B0100570B0100BA
:10196000620B0100600B01005A0B0100640B0100C7
:10197000660B01002DE9F04F87B01C4601F0010312
:1019800005929DF84090BDF948A00493074688460B
:1019900001F0020B01F008060CF001F802460028E5
:1019A00044D03A493846FFF765FF0546BBF1000FC2
:1019B00008D018F0440F3BD1354922463846FFF78E
:1019C00059FF0544049B53B1324B334953F8292046
:1019D000324B3846002A08BF1A46FFF74BFF3EB18C
:1019E0002F4B304953F829203846FFF743FF06466E
:1019F000BAF1000F16DB059B002B45D0012303FA3B
:101A000009F9294B294C19F0100F18BF1C465146F3
:101A10009DF84400FFF79EFE214602463846FFF738
:101A200029FF0644701907B0BDE8F08F0546BDE7F1
:101A30001F4B18680028C4D01E4B4FF47A781B68DF
:101A4000B4FBF3F44FF46161B4FBF0F300FB134417
:101A500008FB04F44FF03C0CB3FBF1F201FB123134
:101A6000B4FBF0FEB1FBFCF300FB1E440CFB1311B6
:101A700008FB04F40091B4FBF0F00F49CDE901E05C
:101A80003846FFF7F7FE9CE7084CC0E7770B0100EC
:101A90007B0B0100C007010049150100690B010023
:101AA000D4070100A00B0100730B01006E0B0100B5
:101AB000580A00205C0A0020840B010038B50C464F
:101AC000E107054603D5084A0849FFF7D3FEE206B9
:101AD00008D4A30628464CBF05490649BDE838404E
:101AE000FFF7C8BE38BD00BF690B010049150100F2
:101AF000580B0100570B01002DE9F0478B7A13F0CA
:101B000007088AB005460E46174622D00A7A498948
:101B1000C3F3C203C1F38911D243CDE9008302911B
:101B2000F36802F001023946FFF724FF8146347A58
:101B3000E44314F001040ED0294630460CF03BF883
:101B4000B8F1000F2BD0424639462846FFF7B6FFC2
:101B500025E0C146EBE7B8F1000F26D12746EB6838
:101B6000069306AA3B46A96830460CF010F8069A80
:101B70006B681A603AB1AB68134413F8014CA4F1D6
:101B80000A035C425C4128460CF072F9069B1F4434
:101B9000002BE4D11CB114492846FFF76BFE284600
:101BA0000AB0BDE8F0470CF063B930460BF091FF86
:101BB0000E4902462846FFF75DFE4FF0100A05AABF
:101BC000234606A93046CDF814A00BF0E0FF059A95
:101BD000002AB8D04B46009706A92846FFF75CFEBE
:101BE000059B1C44EBE700BFA60B01004915010053
:101BF00073B542F20F738B4228BF0B4605680F4A3C
:101C00000446052168460BF041FB63680C495B689C
:101C100006460B2228460BF0C1FF63683246694630
:101C200028465B680BF0BAFF636806495B681B22B5
:101C300028460BF0B3FF02B070BD00BF7918010059
:101C4000E00B0100C40B0100084A10B50123084C49
:101C500013600021A04204D801B11360054B186045
:101C600010BD40085B000121F4E700BF5C0A0020C2
:101C700040420F00580A0020F8B5074F0D460446B1
:101C80004618B44201D12846F8BD386814F8011B43
:101C900083685B689847F4E7740A0020014B024AA6
:101CA0001A607047740A00206C040100024B03485C
:101CB00001221A700CF0DCB8F417002004080100AF
:101CC0000148FFF795BF00BF0408010010B50846A2
:101CD0000C460BF0BCFE054821460F22FFF70CFF17
:101CE0002046BDE810400BF0E1BE00BF0408010033
:101CF000014B01221A70704706180020024B03485E
:101D000001221A700CF0B4B8071800203008010046
:101D10000148FFF76DBF00BF3008010010B508464D
:101D20000C460BF094FE054821460F22FFF7E4FE17
:101D30002046BDE810400BF0B9BE00BF30080100DE
:101D4000054B1B781BB141F288300EF074B9A4200A
:101D500000210AF001BF00BF071800202DE9F0475D
:101D6000DFF88C90DFF88CA080460F46042499F8A9
:101D70000050CDB94FF0FF334FF0FF3250460AF01C
:101D800051F93A464146284609F03EFE064650467D
:101D90000AF0C0F9184DFEB101232B7099F80030FC
:101DA0006BB93846BDE8F0873A464146002009F055
:101DB0002BFE0646EEE75CB92C704FF0FF34002096
:101DC00009F06EFE0028ECD02B78002BF3D1E8E769
:101DD000013CFFF7B5FFF2E72B7813B1013C04D1CA
:101DE0002C702B78002BC2D1DBE7FFF7A9FFF8E7B7
:101DF00007180020EC040020061800202DE9F84305
:101E000005464FF02003EFF3118683F31288BFF3EA
:101E10006F8F0E4B1C689CB10D4FDFF838804FF070
:101E20000C09D4E90132002D08BF13462BB198F8F4
:101E3000142009FB02F2B85C98472468002CF0D10A
:101E400086F31188BFF36F8FBDE8F8838C0A0020FA
:101E5000980A0020B017002000F01F0301229A40CA
:101E60000A4BBFF35B8F400903EB800050E8003F53
:101E700043EA020140E8001CBCF1000FF6D1BFF3B9
:101E80005B8F1A4214BF012000207047A40A002073
:101E900030B51D4B1C7DBFF35B8F04F01F03012287
:101EA0009A401A4B610985B0D04303EB810353E894
:101EB000001F01EA000543E8005CBCF1000FF6D109
:101EC000BFF35B8F114217D0114D0C2202FB04525D
:101ED00007CA01AB83E807000E4A7AB193E807000E
:101EE0000CF075F80020FFF789FF0C235C432A19DA
:101EF00000232B51C2E9013305B030BD82F31188B4
:101F0000BFF36F8FEEE700BFB0170020940A0020E8
:101F1000980A0020CFDF00002DE9F041374B384C04
:101F20001D7D88B080462846FFF796FF60B96F4652
:101F30004246294638460BF0C3FF97E807000C26B7
:101F400006FB054686E807000C236B43E218E05CBD
:101F50006E0905F01F0700283BD0B8F1FF3F10D0F5
:101F6000D2F808E02748284A4FF4004C002100230B
:101F7000EEFB0C01FEF7C4F80121A8EB00000EF007
:101F80003AF80AF06BFB0120FFF738FFBFF35B8FD5
:101F90001E4B0122BA4003EB860353E8001F114396
:101FA00043E800100028F8D1BFF35B8F0C2303FB3C
:101FB000054494E8070005AB83E80700144A1AB10A
:101FC00093E807000BF0F0FFFFF762FF0AF014FD43
:101FD0000120104ABFF35B8F0123BB40DB4302EBC0
:101FE000860656E8002F1A4046E800210029F8D15D
:101FF000BFF35B8F08B0BDE8F08100BFB0170020D1
:10200000980A00203F420F0040420F00940A00202F
:10201000A9DF0000A40A0020014910220A607047CD
:1020200010ED00E072B6404080F31188BFF36F8F6F
:10203000BFF34F8F30BF62B6BFF36F8F704700BFE3
:1020400072B6494081F3118820BF80F3118862B6CF
:10205000704700BF73B506460C4601B3134B144DD1
:102060001448ED1AED08AD0145F00105ADF800503A
:10207000D1E9012309680BF06BFCADF80050D4E9FD
:102080000423E1680C480BF063FCE1690B482A4625
:102090000BF031FCA1690A482A460BF02CFC2146C2
:1020A000304602B0BDE8704009F066BD040601008C
:1020B000EC060100190C0100480C0100770C01002E
:1020C000860C010043B2002B08DB012200F01F0048
:1020D00002FA00F05B09024A42F82300704700BF91
:1020E00000E100E043B2002B0DDB01225B0900F0B0
:1020F0001F0002FA00F02033034A42F82300BFF326
:102100004F8FBFF36F8F704700E100E0054B42092E
:1021100000F01F0053F82220012303FA00F01040C2
:10212000704700BF00E100E043B2002BA8BF03F1FD
:10213000604301F10101B8BF064B4FEA4111ACBF4A
:1021400003F5614300F00F00C9B2B4BF195483F81E
:102150000013704714ED00E008B572B6044B9A699D
:102160001AB100229A610DF082FC62B608BD00BF70
:10217000B017002030BFFFF7FDBF00BF0F4A08B502
:102180000F4B22F07F029A60BFF34F8FBFF36F8F28
:10219000D3F8882022F47002C3F88820EFF3148368
:1021A00023F0040383F31488BFF36F8F09F088FDD5
:1021B0000AF066FD00F016FB09F08CFD000000003F
:1021C00000ED00E0094A0A4993680968D96709499E
:1021D00098674B6843F080534B60002383F311886A
:1021E000BFF36F8F9368D86F704700BFB0170020A0
:1021F0000C0A010000ED00E012498A684FF030003F
:102200001044EFF3098C80E8F01F202080F312883F
:10221000BFF36F8F0C4F4FF00066CA698A603E6053
:10222000906F0023936780F3118804B5104600F087
:102230001BFBBDE8044002F1300090E8F01F8CF376
:1022400009887047B017002004ED00E01EF0040F6D
:102250000CBFEFF30880EFF30980816911F8021CCD
:102260000229FFD001B50BF030FE01BD42F8203C41
:10227000009B42F81C3C0A49019B42F8183C029B17
:1022800042F8143C21F001014FF0807342F8043C05
:1022900042F8081C0023203A02658367704700BF9C
:1022A000FDD30000094A0346906870B113F1160F80
:1022B000806E05D0A0F120029A4205D8834203D255
:1022C000814228BF0020704700207047B0170020CF
:1022D00008B5094B98600D46144600F0C5FA204633
:1022E00085F30988002163B681F31188BFF36F8FEE
:1022F000002200230BF082F8B017002001B572B65F
:102300000B4A906900281EBF002191610DF0AFFBC0
:1023100062B6EFF30580A0F110004FEAC000054956
:10232000014409C99847BDE8014003490847000036
:10233000B0170020840401003D230000044B99687D
:10234000D869884203D003494FF080520A60704731
:10235000B017002004ED00E02DE9F047354B364C76
:10236000364DE41AE408A40144F001090746884602
:102370003348494616460BF0B1FAAB6ADB0603D583
:10238000304849460BF0AAFAAB6A180704D52E4824
:1023900044F001010BF0A2FA284DAB6A990723D44F
:1023A0006FF01509254DAB6ADB0704D5274844F0CB
:1023B00001010BF093FAAB6A980604D5244844F067
:1023C00001010BF08BFA1D4B9A6AD10624D49A6A4C
:1023D000920721D40020194A936A43F0FF039362C5
:1023E00000233370BDE8F08744F0010A19485146D4
:1023F0000BF074FAD5F83490AB6A1A06D0D51648AB
:10240000524649460BF077FAB8F1000FCAD0AB6AD2
:1024100023F08003AB62C5E75B681B05DAD539465C
:102420004846FFF73FFF0028D4D080F309880220F8
:10243000D1E700BF04060100EC06010000ED00E05A
:10244000B40C0100CA0C0100FD0C01003E0D01009E
:102450005D0D0100100D0100280D010070B5234B2A
:10246000234C244D2448E41AE408A40144F0010656
:1024700031460BF033FAAB6A9B0103D51F48314656
:102480000BF02CFAAB6ADD0104D51D4844F00101C4
:102490000BF024FA174DAB6A180304D5194844F021
:1024A00001010BF01BFAAB6A590304D5164844F03E
:1024B00001010BF013FA0F4DAB6A9A0304D51348D0
:1024C00044F001010BF00AFAAB6ADB0304D51048B3
:1024D00044F001010BF002FA064A936A6FEA0343E3
:1024E0006FEA13439362002070BD00BF0406010031
:1024F000EC06010000ED00E08C0D0100A40D0100D0
:10250000B70D0100D10D0100EF0D0100140E010007
:102510002E0E01002DE9F0412A4B2B4C2B4DE41AD5
:10252000E408A40144F0010807460E462848414645
:102530000BF0D4F9AB6AD90403D5264841460BF019
:10254000CDF9AB6A1A0504D5234844F001010BF01C
:10255000C5F91E4DAB6A9B0512D544F001081F4812
:1025600041460BF0BBF9A96BAB6A180408D51C48AF
:1025700042460BF0C0F91FB1AB6A23F40043AB62D3
:10258000124DAB6A590504D5164844F001010BF011
:10259000A5F9AB6ADA050DD5134844F001010BF03B
:1025A0009DF90A4A936A002043F47F439362307096
:1025B000BDE8F081AB6A9B04F3D50C4844F00101FF
:1025C000EDE700BF04060100EC06010000ED00E0AD
:1025D000590E01006F0E0100FD0C0100800E01007C
:1025E000990E0100AE0E0100C90E01005D0D010043
:1025F0002DE9F043654B5E688BB00D46C6F30804C9
:10260000002787F31188BFF36F8F02F07F43B3F188
:102610007F4F0DD102F00C03082B0BD15C495D4BB1
:102620005D48C91AC908890141F001010BF056F94A
:102630003D4603E0120701D40546012700238DF82B
:102640000730E31E092B00F28880DFE803F00575F0
:10265000797286868686867D4E4A4D4EDFF82C81BD
:102660004E48B61AF608B60146F0010631460BF0A0
:1026700035F9D8F82C404FF0000914F002048DF819
:10268000079005D0464831460BF028F9002407E0B2
:10269000D8F82C30002B1DDA424831460BF01EF9D9
:1026A0009DF807309BB92022294602A80BF065FC53
:1026B000099B002F65D0C3F3080222B96FEA5323A8
:1026C0006FEA4323099302A92046FFF7C3FC0BB02E
:1026D000BDE8F083D8F82C305B00E1D532483146B4
:1026E0000BF0FCF8AB6933F8022C4DF602739A42FA
:1026F0000AD098F8283073B10DF10702012128465D
:10270000FFF72AFE0446CBE72968284832460BF03B
:10271000F2F82C68C4E798F829302BB10DF10701C5
:102720000120FFF7F7FEEDE7B8F82A309BB2002B47
:10273000B6D0FFF793FEE5E70DF107020021DEE7D3
:102740000DF107010020ECE71149124B1848C91A96
:10275000C908890141F0010196E70E4A0C4B154862
:1027600015499B1ADB0816F4F87F4FEA831318BF4C
:10277000014643F001031148A4F110020BF0CFF819
:1027800084E723F4FF7323F001039BE700ED00E0EF
:10279000EC06010004060100E10E01000C0F01002F
:1027A000230F0100440F0100520F0100710F0100BF
:1027B0008D0F0100C60F0100B10F0100DF0F0100F6
:1027C000024A536943F010035361704700ED00E083
:1027D000EFF30880EFF3098101B57246FFF708FFB8
:1027E00001BD00BF044800232021C2180133302B53
:1027F00082F80013F9D1704700E100E00DF0B8FD58
:10280000202080F3118808484FF40261401880F3BB
:102810000988EFF314800221084380F31488BFF382
:102820006F8FFFF7ABFC000000300020064B9B6869
:10283000834207D1EFF3058323B1044A536843F081
:10284000805353600AF0B8B9B017002000ED00E0E3
:10285000024B034A0348012100F08CB80000042019
:102860000000002040080100826E054B203A1A60EB
:10287000044A2021C3E901121846012100F084B85E
:10288000A80A002000000B15F8B52A4F0E460021BB
:10289000B14214DA4468002C48D0C3B104F1FF3CC3
:1028A00014EA0C0F0DD0244A244B2548D21AD20822
:1028B000920142F001020BF01EF86FF01502104673
:1028C000F8BD1F2CEFD905681CEA050FEBD1202CB1
:1028D000D5B2D0F808C0026816D9B4F1004F15D8A7
:1028E000013CB4FA84F4C4F11F046400072D4CEADF
:1028F00004040DD9104A114B1248D21AD208920181
:1029000042F001022946D6E70824EFE73E24EDE72E
:1029100022F01F022A4342F0100244F00104C7F8DB
:102920009850C7F89C20C7F8A0406A1C01310C30B1
:10293000AEE700BF00ED00E0DC0601000406010088
:10294000F60F010019100100044B0522C3F8942072
:10295000BFF34F8FBFF36F8F704700BF00ED00E0F4
:10296000BFF35F8F024B0022C3F89420704700BF73
:1029700000ED00E010B5034C01232278FFF784FF3F
:10298000207010BD0818002008B5094A00231278ED
:10299000FFF77AFF10F1160F03D0064B002207282D
:1029A00000DD08BDC3F89800C3F8A0200130F6E7A9
:1029B0000818002000ED00E014490868082810B548
:1029C00021D8FFF7CDFF124C49680022904201F157
:1029D0000C0105D10F4B1870FFF7B6FF002010BD9A
:1029E000C4F8982051F80C3C23F01F03134343F024
:1029F0001003C4F89C3051F8043C43F00103C4F8C0
:102A0000A0300132E2E74FF0FF30E8E74C08010068
:102A100000ED00E008180020014B1860704700BF6F
:102A20003001002010B54FF02003EFF3118083F345
:102A30001288BFF36F8F114A0123C2F840354FF05F
:102A400080424FF08051C2F87835D1F83041082CDF
:102A500008D1D1F83411052904D8094C615C09B1B9
:102A6000C2F838364FF080430122C3F8802580F346
:102A70001188BFF36F8F002010BD00BF00E0014040
:102A80005210010020B1034B800143F001031847AD
:102A9000704700BFB00701000E4B402970B528BF3A
:102AA00040210D4C46181D46B04203F1020304D1EB
:102AB000002305F81130074870BD02781209A25CA6
:102AC00003F8022C10F8012B02F00F02A25C03F8AD
:102AD000012CE9E7271800209D10010030B503788C
:102AE0008BB0044607AD032B21D8DFE803F0021AB0
:102AF0001C1E124928460BF0F7F963780493A3785B
:102B00000393E378029323790193637900930C4A4A
:102B1000A37905951E210B480AF0B8FB09480BB0B4
:102B200030BD0949E6E70949E4E70949E2E7094A0E
:102B30000A2128460AF0AAFBDFE700BF581001006F
:102B40007A100100091800205F10010066100100D2
:102B5000701001003413010038B5054605480CF02B
:102B600029FC044620B1002108300CF042FC2575F8
:102B7000204638BDA00500200B460B490246D1F87F
:102B8000F80010B520B9BDE810400120FFF7E4BF00
:102B90000CF040FC012300210375818104460830BC
:102BA0000CF027FC204610BD0000002070B5054643
:102BB0000E3D012D0C461046194603D8BDE8704065
:102BC000FFF7DABF64B109480CF0F4FB044628B102
:102BD000002108300CF00DFC01232375204670BD48
:102BE000BDE870400120FFF7B7BF00BF48050020D7
:102BF00070B50B4D06460FCD8EB001AC0FC40FCD96
:102C00000FC40FCD0FC40C2E2B6823609BBF0EABDF
:102C100003EB8606034856F8340C0EB070BD00BFB7
:102C200064070100AB11010008B5012108300CF068
:102C300020FC064B064A01780648D21AD2089201B7
:102C4000BDE8084042F001020AF055BE040601004A
:102C5000A4060100B311010010B50A4A0A4C81898B
:102C60008068A41AFFF718FFFEF7CAFBE408A40166
:102C700044F00204014622460448BDE810400AF030
:102C80003ABE00BF04060100A4060100D5110100F0
:102C900073B502EBC303054608461178A9421AD062
:102CA00008329A42F9D18689164B174C8068314612
:102CB000E41AFFF7F1FEFEF7A3FBE408A40144F0D9
:102CC00002040346ADF800401048324629460AF097
:102CD0003FFE02B070BD818953788B420DD9094AFD
:102CE000094B0B489B1ADB089B0143F001032A4662
:102CF00002B0BDE870400AF012BE536802B0BDE8F1
:102D00007040184704060100A40601001B120100D0
:102D1000F911010010B50121044608300CF0A9FB9F
:102D20002146034A0078BDE810400123FFF7B0BFF9
:102D30008C0801002DE9FF4107469079DFF82481D6
:102D40000E46144606F064FF804516D0464B474DAC
:102D5000A0790097ED1AED08019006F059FFAD013A
:102D600045F00205CDE902082B4641480422694698
:102D70000AF00AFE04B0BDE8F081204606F050FFDC
:102D80003C4D4FF00C0808FB00504388BB4214D068
:102D9000354B364E2046F61A06F042FFF60808FB81
:102DA0000055B60146F002066A8833483346394674
:102DB00004B0BDE8F0410AF0B2BD304FD7F8F800DA
:102DC00020B106F0E9FF0023C7F8F830204606F0EE
:102DD00027FF0C2707FB00504368E3B1DEB920460C
:102DE00006F01EFF07FB005001224068D0E90031C9
:102DF000007A01F01F07BA40490928B3BFF35B8F7F
:102E000003EB810353E8001F114343E8001000283F
:102E1000F8D1BFF35B8F204606F002FF0C2707FBBB
:102E200000508368002BA5D0204606F0F9FE7843B9
:102E30002E54204606F0F4FE07FB0055A86804B0A7
:102E4000BDE8F04109F0DCB9D24303EB8103BFF3E5
:102E50005B8F53E8001F114043E800100028D8D0D2
:102E6000F7E700BF7405002004060100A406010076
:102E70003D120100B40A002072120100000000207F
:102E800038B50321044608300CF0F3FAA36805783E
:102E90001978B0F801002246FFF74CFF25B103482E
:102EA000BDE8384009F0ACB938BD00BFE0000020F3
:102EB00038B50421044608300CF0DBFA4578017877
:102EC00040882246FFF736FF25B10348BDE8384069
:102ED00009F096B938BD00BFE000002010B5C1E987
:102EE00000239DF808300B720C4606F099FE034B48
:102EF0000C2202FB00335C6010BD00BFB40A00204E
:102F00002DE9F0474FF0FF324FF0FF3306461748E8
:102F1000174D0F460CF04EFA044600F1080A002146
:102F20004FF0000850460CF064FA84F814802046F4
:102F300006F076FE4FF00C0909FB00504680204653
:102F400006F06EFE09FB0050C0F80880204606F02F
:102F500067FE09FB00550321C5F8048050460CF0BC
:102F600069FA877006802046BDE8F0877405002066
:102F7000B40A00202DE9F041074686B015460C46FC
:102F800021B9FFF7BDFF0446002857D001220021D8
:102F900068460CF03CFE204606F042FEDFF8A480B6
:102FA0000C2303FB0080C0F808D020460CF032FA56
:102FB000014625480CF021FA4FF4A0220023684670
:102FC00009F044F9064680B1204A2149214840F2DF
:102FD00031130AF04EF9204831460AF04AF94040D0
:102FE00080F311884FF0030002DF204606F018FE40
:102FF0000C23584318F80060BEB1184A184B194802
:103000009B1ADB089B0143F00203324639460AF063
:1030100086FC204606F0C0FE092E0CBF6FF06E0045
:103020006FF0040006B0BDE8F08115B12C603046A9
:10303000F8E7204606F0B0FE2846F3E76FF0680098
:10304000F0E700BFB40A0020FC000020A512010038
:10305000D9120100E2120100FF1201000406010072
:10306000A40601001F130100F0B5B74DD5F81431C7
:10307000996811F0010187B023D101AA40F60340FD
:10308000FFF778FF0446002875D1019B9B681B78E9
:10309000A3B901F053F9BFF35B8F2B4653F8CC2F44
:1030A000BFF35B8F02F00502BFF35B8F53E8001F95
:1030B00043E800200028F9D1BFF35B8F019806F0A8
:1030C0006BFE01AA002141F20300FFF753FF044603
:1030D000002850D1019B9D489968082201310AF0CF
:1030E0004CFF019806F058FE214601AA41F201006A
:1030F000FFF740FF044600283DD1019883685A78C5
:1031000085F86820D9789A7842EA0122A5F86A20E1
:103110001A7985F86920197ADA7942EA0122A5F844
:103120006C205A799B7942EA0323A5F86E3006F0A9
:1031300033FE214601AA41F20200FFF71BFF0446BD
:10314000C8B9019B82489968402201310AF015FFF5
:10315000019806F021FE95F8743058060ED47D4B88
:103160007D497E48C91AC908890141F001010AF068
:10317000B5FB6FF01204204607B0F0BD214601AA4E
:1031800042F20300FFF7F6FE04460028F3D1019B4C
:1031900073489968082201310AF0EFFE019806F0A1
:1031A000FBFD95F87430990656D595F894301A07BA
:1031B0006DD4082142F20100FFF7A2FE0446002868
:1031C00051D0082108440CF035F90227002207707D
:1031D00042708270C270027142718271C271214666
:1031E00042F20100FFF7C6FE04460028C3D10821C1
:1031F00040F60140FFF784FE0646A0B308210844CC
:103200000CF018F98023437020230470847004713B
:1032100044718471C770C3712246314640F6014043
:10322000FFF7A8FE04460028A5D101466A464FF6DE
:103230000140FFF79FFE484C464BE41AE408A40106
:10324000002839D0474844EA07010AF047FB07B095
:10325000BDE8F04000F0CCBD022140F66D40FFF724
:103260004FFE064610B96FF0680484E7022108306B
:103270000CF0E0F80123447003702246314640F61A
:103280006D40FFF777FE044600288ED073E701AA51
:10329000002142F21C00FFF76DFE044600287FF477
:1032A0006AAF01988368D3F80120D3F80530C5E9E7
:1032B000362306F071FD7CE7009B2B489E68B6F82C
:1032C0000120032A96BF2949294951F8221044F0C8
:1032D00003030AF024FBB6F80110B6F80320022914
:1032E00044F003032ED1032A2CD8224951F822108E
:1032F00021480AF014FB72792048032A96BF20491E
:103300001B4951F82210CDE90112B2790392B6F8A7
:1033100007200492D6F80920059244F00303052201
:1033200001A90AF031FB009806F036FD6A4600213B
:103330004FF60240FFF71EFE064628B3114844F040
:10334000020182E70A49D3E7000000207000002054
:103350007800002004060100A40601003B130100D0
:10336000D00000205F13010083130100CC0801008E
:10337000AB110100A40801009C130100B41301006B
:10338000EC080100E1130100009B12489968022239
:1033900001310AF0F2FD009806F0FEFC95F8B93014
:1033A0005B077FF554AF6A4631464FF60340FFF79F
:1033B000E1FD18B1084844F0020146E7009B0748C8
:1033C0009968012211440AF0D8FD009806F0E4FC47
:1033D0003DE700BFB90000200A140100B80000203A
:1033E000024BD3F814311B69184700BF00000020BE
:1033F0002DE9F041464B474D474E484FED1AED0839
:1034000006F1E008FB686FF35233FB6043484FF06E
:10341000FF324FF0FF33012109F01EFE60B1404A38
:103420004049414840F68E1309F023FF404080F3A5
:1034300011884FF0030002DFF968C1F3453101291B
:1034400007D9042908D0AA01384842F002020AF03C
:1034500052FA09F0F9FAD5E73B7B002BF9D1344851
:10346000002200230BF0ABFF0446002842D04FF0AF
:10347000FF334FF0FF32404608F0E8FED6F8F83050
:1034800053BB20460BF0C6FFC6F8F8002046FFF7F6
:10349000A7FF01460028DCD0AA01264842F001021D
:1034A0000AF029FA244808F0ABFE204606F0B8FBE3
:1034B000224B0C2202FB00301F2122464088FFF7DE
:1034C00039FCD6F8F80006F067FC00232046C6F861
:1034D000F83006F061FCBCE7A901194841F0010190
:1034E0000AF0FCF9D6F8F80006F056FC0023C6F8FE
:1034F000F830C6E70A4A13490B4840F6251309F08D
:10350000B8FE404080F311884FF0030002DFAEE7C1
:1035100004060100A4060100000000203401002080
:10352000A5120100D9120100E21201005514010098
:10353000FC00002033140100E0000020B40A002049
:1035400076140100B81001002DE9F041044600F1A5
:10355000080630460BF09DFFA789012F05460CD8C1
:10356000214A2249224840F6225309F082FE404077
:1035700080F311884FF0030002DF304602210BF088
:1035800078FF0378052B064626D00E3B012B94BF0F
:103590004FF001084FF0020818F0010F0CD1124A49
:1035A0001449134840F6265309F063FE404080F367
:1035B00011884FF0030002DF0F4A307802232146C2
:1035C000FFF766FB18F0020F09D02069A78110FAF7
:1035D00085F5A560BDE8F0814FF00308DCE72046E3
:1035E000BDE8F04106F0D8BBA5120100911401001E
:1035F000E2120100AA140100DC08010070B5057D8B
:10360000012D044638D18389012B0CD8234A244943
:10361000244840F6121309F02CFE404080F3118834
:103620004FF0030002DF022104F108000BF021FF3C
:103630000378052B06461DD00E3B012B88BF0225C3
:10364000AB070CD4154A1849164840F6161309F072
:1036500010FE404080F311884FF0030002DF134A50
:10366000307803232146FFF713FB204606F094FB36
:10367000002070BD0325E3E70D4B0E4A0E48D21A19
:10368000D208920142F0010229460AF034F920469C
:1036900006F082FB6FF01500EBE700BFA5120100FA
:1036A00091140100E2120100C3140100B4080100EA
:1036B00004060100A4060100F114010010B5037D09
:1036C000012B04460CD0094A09490A4840F66953BF
:1036D00009F0CFFD404080F311884FF0030002DF76
:1036E0002046FFF731FF002010BD00BFA5120100EA
:1036F00005150100E2120100084A0346D2F8140140
:1037000030B9D96839B1196929B1C2F81431704793
:103710006FF0770070476FF01500704700000020D1
:103720002DE9F043334DBFF35B8F87B005F1CC0338
:1037300053E8002F42F0020243E800210029F7D1AC
:10374000BFF35B8F002000F0FFFD2B4C2B4B2C496F
:103750002C4EDFF8B490E41AEB792846012B88BF91
:103760000E46FFF7BBF9FDF74BFEE408A40144F059
:10377000030802463146254843460AF0D0F82F4652
:103780000126EB799E4207F1070725DB95F8686073
:103790003046FFF72DFAB5F86A30049344F003047D
:1037A000B5F86E300593CDE90206234602A904223E
:1037B00017480AF0E9F895F869603046FFF718FAFB
:1037C000B5F86C30ADF800400146324611480AF0B9
:1037D000BFF807B0BDE8F0833846FFF77FF9FDF783
:1037E0000FFE31460246434648460AF098F8013635
:1037F000C7E700BF00000020A40601000406010086
:1038000028150100590B01003B1501002C15010082
:103810004C1501008A15010010B5FFF725FC044680
:1038200008B9FFF77DFF044B1B681BB12046BDE8BC
:103830001040184710BD00BFCC0A002070B5304DB5
:10384000D5F8143188B0064673B92E4B2E492F484F
:10385000C91AC908890141F001010AF03FF86FF067
:103860001204204608B070BD05F1CC02BFF35B8F97
:1038700052E8003F43F0010142E800100028F7D170
:10388000BFF35B8F13F0010337D1214A166000208C
:1038900000216FF00802CDE90601CDE90232CDE941
:1038A000003304931B491C4B1C484FF4207208F052
:1038B0001BFB1B4919480CF0D3F8D5F81431DB6811
:1038C0009847044658B10F4B0F4AD21AD2089201BA
:1038D000014642F0010213480AF00DF8C1E73EB973
:1038E000FFF7C2FB04460028BBD1FFF719FFB8E77A
:1038F00005F1BC0008F0B8FDB3E76FF07704B0E75E
:103900000000002004060100A4060100B11501001A
:10391000CC0A0020E0210020F133000088060020BE
:10392000CA150100D015010000487047EC150100D0
:10393000F8B50B4F06460025FB79ECB2A34202D83E
:103940006FF0010409E0C4EBC4010722394430469A
:103950000AF002FB01350028EED12046F8BD00BF79
:103960000000002038B51449062205460AF0F4FA92
:103970000446E0B1062142F20500FFF7C1FA044611
:10398000B8B10622294608300BF05AFD2146002224
:1039900042F20500FFF7EEFA044640B90622064857
:1039A00029460AF0EAFA054B012283F860202046F6
:1039B00038BD6FF06804FAE76100002000000020C5
:1039C00030B5044685B00D46A1B10023072202A9F7
:1039D00028460293CDF80B300AF0BEFA50B11248D7
:1039E000C4EBC4040722294620440AF0C6FA00208A
:1039F00005B030BD68460AF03CFB0028F8D16846A7
:103A0000FFF796FF0028F5DA0748C4EBC404044426
:103A10000722694620460AF0B0FA002DE7D00722B7
:103A200021462846E1E700BF0000002008B5054810
:103A30000AF064FB030502D402480AF05FFB012090
:103A400008BD00BFCC00002073B50C46054618B970
:103A500044B36FF0150023E000230722694600936A
:103A6000CDF803300AF078FA0028F1D02B78012B3A
:103A700004D1AB7903F0C003C02B0AD01B4B1C4907
:103A80001C48C91AC908890141F0010109F026FF43
:103A9000DFE72846FFF74CFF0028D9DB6FF07700FF
:103AA00002B070BD144EF379012B1CD006F1CC008E
:103AB0000AF024FBC3070BD4002DCAD007226946A5
:103AC00028460094CDF803400AF046FA0028C0D0FA
:103AD000F4792946631C2046F371FFF771FF002833
:103AE00008BF2046DCE76FF00B00D9E704060100B1
:103AF000AC060100F31501000000002070B586B08F
:103B0000064601AA002141F20900FFF733FA0446F4
:103B100060B11E491E4B1F48C91AC908890141F0EE
:103B2000020109F0DBFE002006B070BD019B02908F
:103B30009D68ADF80C000135062202A928460AF05E
:103B40000BFA18B9019806F027F9ECE7FF230622D3
:103B500004A928468DF810308DF811308DF81230F8
:103B60008DF813308DF814308DF815300AF0F4F913
:103B70000028E7D006222946701C0AF0FEF90198B9
:103B8000347006F009F90120CEE700BFAC06010051
:103B9000040601002116010007B56846FFF7AEFFD5
:103BA000044BD87118B169460020FFF709FF03B034
:103BB0005DF804FB000000202DE9F341254B93F84C
:103BC000BA4014F0010407460E460AD12249234B9D
:103BD0002348C91AC908890141F0020109F07EFE93
:103BE00012E001AA00214FF60940FFF7C3F905468C
:103BF00070B11A4B18491B48C91AC908890141F00C
:103C0000020109F06BFE0024204602B0BDE8F081FD
:103C1000019B9B685C78B44228BF34464FF016087D
:103C20009E1CA5420DDB019806F0B6F8002CEBD1E6
:103C300009490A4B0C48C91AC908890141F0020117
:103C4000CCE708FB0570162231460AF096F90135DB
:103C5000E7E700BF00000020AC06010004060100F9
:103C60003F1601006B1601008B160100F0B5154ED2
:103C7000F47989B0F4B9012102A8FFF79DFFF07132
:103C8000C0B1162702ABE5B207FB053106220DF1E4
:103C900001000AF072F90123694628468DF80030C8
:103CA000FFF78EFE20B9F2790134E3B29A42E9D8E7
:103CB00009B0F0BD0021084609B0BDE8F040FFF7AB
:103CC000C3BE00BF0000002070B5104B1B780B7006
:103CD00006460D460AF018FAA0B90AF021FA044681
:103CE00070B186B90AF010FA68B1094A094B0A485E
:103CF000D21AD208920142F00202214609F0FBFDDD
:103D000001232B700024204670BD00BF000000205E
:103D1000AC06010004060100B41601002DE9F047CD
:103D200011F00104067880460D4691461F462BD0BF
:103D3000DFF8B4802AB1880603D598F8D030590648
:103D40004FD5C6EBC6034FEAC60A18F80330012B5D
:103D500009D0AAEB060618F80630B9F1000F0ED10B
:103D60003B70002408E0072010FB06304044FFF7BA
:103D7000F9FD04460028ECD02046BDE8F087AA06ED
:103D800048BF43F00203EBE711F0040514D0DFF85D
:103D90005880C6EBC603F50018F80330012B06D196
:103DA000072010FB06304044FFF7DCFD0446AD1B46
:103DB00018F805303B70DFE70C480AF09FF98306DE
:103DC000C0F3401602D528460AF0D0FA40460AF061
:103DD000B9F9044601203870002ECDD00AF0C6FA99
:103DE000CAE76FF08504C7E700000020CC00002080
:103DF00038B5164DEB7913B10024204638BDFFF7D6
:103E0000CBFE044650B11249124B1348C91AC908D7
:103E1000890141F0010109F061FDEEE7EB79002B2A
:103E2000EAD1FFF723FF04460028ECD1681CFFF716
:103E300099FD04460028E0D00549064B0748C91AF9
:103E4000C908890141F00101E5E700BF0000002039
:103E5000AC06010004060100EA1601000917010082
:103E6000436837B50446580502D5002003B030BD7D
:103E700022690AB1D907F8D51A4D2078EB79834227
:103E8000F3D9C0EBC0000023072269462844009301
:103E9000CDF803300AF060F80028E6D06068C20769
:103EA00006D495F86830082B02D8A3689F2BDCD97C
:103EB00010F0300F02D02369002BD6D0C30601D4F6
:103EC000236943B9D4E902239A42CED81F2ACCD918
:103ED000B3F5804FC9D800F46030B0F5603018BF3A
:103EE0000120C3E7000000202DE9F74F0C462021F8
:103EF00082461646FFF704F8054600285CD02021CC
:103F000008300BF097FA2022002181460AF040F891
:103F100004EBC60309F1010B00930026D4F80080DE
:103F20000023626893420DD3009B08349C42F5D174
:103F300000222946504689F8006003B0BDE8F04FE2
:103F4000FFF718B898F8012098F800C0B01C811845
:103F50001F291AD9BCF1090FC0F11F0201D1002A93
:103F600011DC174B17491848C91AC908890141F0D3
:103F7000010109F0B3FC284605F00EFF6FF01500B3
:103F800003B0BDE8F08F4FF0080CD7B2791C0BF8E6
:103F90000610711CC9B25BFA80F00BF801C0D8F8AA
:103FA00004100193023709F0E8FF019B3E44F6B28A
:103FB000013308F10808B4E76FF06800E0E700BFDC
:103FC00004060100040601002C1701000048704798
:103FD000180000202DE9F04F0E698DB0B6F10009F0
:103FE00005467C48059218BF4FF001090AF0D4F845
:103FF00080070C469A4640F1E4800846FFF730FF00
:1040000028B96FF0150B58460DB0BDE8F08F20466B
:10401000FFF70CFD80460028F3D005F11007384665
:104020000AF0BAF84106C0F3801B00F1CD800F22E0
:10403000594608A809F0ACFFA368ADF820306068C5
:10404000E368ADF822300AF098F82A7823788DF8E2
:104050002D009A428DF82EB004D05E486FF4805146
:104060000AF0A0F85C4A23782B7082F86730616808
:104070000DF125034A462846FFF750FE83460028E7
:10408000C1D105F10900002E43D02169072209F0B2
:1040900074FF20460AF023F96368DA07814641D5A8
:1040A000002E3CD013F0100F14BF0423012321690C
:1040B0008DF8243007220DF1260009F05EFF4FF045
:1040C00000080F2142F20600FEF71AFF834600287F
:1040D0007DD00F2208A908300BF0B2F95946002212
:1040E00042F20600FEF746FF834600288BD156B306
:1040F000012128460AF003F9834690B3374A38492C
:104100003848891AC908890141F0010109F0E6FB24
:1041100079E706960722CDF81B6006A9B7E78DF868
:104120002460CEE7980504D4169B13B9B9F1020FA9
:1041300003D102238DF82430C3E70323DDF8588030
:104140008DF82430BDE7179B0093CDE90189169BBC
:104150000599524628460AF04BF883460028C7D0F6
:1041600051E766BB626882F00202C2F34002384641
:104170000D210AF026F809F1FF335A425A41384618
:1041800007210AF01EF8A9F102014A424A413846C5
:1041900008210AF016F86268384602F00102092187
:1041A0000AF00FF8424638460A210AF00AF8626817
:1041B0000C21C2F3800238460AF003F823E70246D6
:1041C000D5E76FF00A0B1EE76FF0770B1BE76FF078
:1041D000680B18E7CC000020000000200406010056
:1041E000040601004517010073B51546069A0C46F2
:1041F000CDE900322B460A4601461148FFF7EAFE98
:1042000021460646002340F201109D4202D130466D
:1042100002B070BD0A88824204D14A6812B1127895
:10422000D20702D401330831EFE7064906480BF004
:104230008BFD4FF470220023034808F0B1F9E6E744
:1042400018000020A94200003000002010B51348DB
:104250000AF07AF812486FF4005109F0A3FF1048F1
:1042600009F09AFF420602D40024204610BD0B48F4
:1042700000210AF044F804460028F6D1094809F064
:104280008BFF8306F0D520460AF070F8204609F02F
:1042900047FF01200AF06AF8E7E700BF1800002096
:1042A00028000020CC00002008B5FFF7CFFF064B08
:1042B000064AD21AD20892010146BDE808400448D5
:1042C00042F0020209F017BB0406010004060100D7
:1042D0006017010030B5022187B0044642F20C009D
:1042E000FEF70EFE054618B3022108300BF0A2F8C7
:1042F000012C1BD1BFF35B8F0F4B1B68BFF35B8F90
:10430000C3F300234370631E04705C425C410A4A9D
:10431000009403A928460523FEF7E0FD0022294664
:1043200042F20C00FEF726FE07B030BD0023E9E79D
:104330006FF06800F8E700BFCC000020014B0022BE
:104340001A607047D80A00200A4BBFF35B8F1A68C7
:10435000BFF35B8FC2F38010520608D4BFF35B8FAC
:104360001B68BFF35B8F9B0601D5FFF7B3BF00202F
:10437000704700BFCC0000202DE9F04F00F1080885
:104380008BB0044640460BF07CF8DFF85CB1064683
:1043900016B90BB0BDE8F08FA389082B0CD8534B8E
:1043A00053495448C91AC908890141F001010BB0A9
:1043B000BDE8F04F09F092BA092140460BF059F8D8
:1043C00090F808907F238DF81E3000EB090301223E
:1043D0005B7A8DF81D30FF238DF81C300023ADF87B
:1043E0002230ADF8242002788DF81F20042A9CBFCB
:1043F000414B9B5CADF82030404BBFF35B8F1B689B
:10440000BFF35B8F5A06054600F101011FFA89F9D7
:104410000BD5BDF820305B0707D5297A404601311E
:10442000013E0BF01EF8F6B2B2E76B789A1E012A35
:1044300048D8072202A809F0A0FD9DF80830023BE9
:104440008DF8083002AB0693DBF80030A3B140468C
:104450000BF01FF8A7899DF81F209DF91D10DBF8B0
:1044600000C0A4F80C908246434602A8E0472069A9
:10447000A78110FA8AF0A060214B1A68002ACCD0DC
:1044800052F8087907B1083F1368019293B140468A
:104490000AF0FFFF019AA3891268A4F80C908246E3
:1044A000414606A8009390472069009BA38110FA1B
:1044B0008AF0A060002FB0D0BB6803B1083B3A4639
:1044C0001F46E1E7FF2B09D1002304930722CDF813
:1044D000133004A902A809F050FDB3E7002009F049
:1044E0001DFE07220146F5E7D80A00200406010058
:1044F000BC06010086170100A7170100CC000020B0
:10450000D00A00202DE9F743624CBFF35B8F23688C
:10451000BFF35B8F13F0020F05460F46264600F0EF
:10452000B6800278012A05D96FF01504204603B041
:10453000BDE8F083436833F00F03F5D10089031F12
:104540009BB243F6FC7C6345EED869890B1F9BB296
:104550006345E9D88842E7D38AB9BFF35B8F56E851
:10456000000F40F0400346E80032002AF7D1BFF3C5
:104570005B8F10F0400007D06FF07704D6E709F0AA
:10458000F3FD0028E9D1CFE7BFF35B8F2368BFF3CA
:104590005B8F990609D5FFF79DFE044628B16FF0A1
:1045A00040013C4809F0D3FEC0E76B68DA0715D537
:1045B000BFF35B8F56E8003F43F4807346E8003258
:1045C000002AF7D1BFF35B8FAC896CB131486FF033
:1045D000400109F0BCFE6FF08504A7E76FF480711D
:1045E0002C4809F0B4FEEFE795F80080B5F8089084
:1045F0006D8921460722684609F0CAFC08F1FF339D
:1046000058420DF1050158418DF806408DF80080A3
:10461000ADF80190ADF80350FFF756FB04460028B3
:10462000BDD1072142F20B00FEF76AFC054658B3E4
:104630000722694608300AF003FF2246294642F263
:104640000B00FEF797FC04460028A8D10120FFF7D5
:1046500041FE04460028A2D1B8F1010F0ED1BFF3EC
:104660005B8F56E8003F43F0800346E80032002AA3
:10467000F7D1BFF35B8F084B1F6057E76FF08001E6
:10468000044809F064FEF6E76FF0680487E76FF00E
:104690000A044BE7CC000020D80A00202DE9F0479F
:1046A000114FDFF848A00424013CE4B2FF2C18D0DD
:1046B00004EB44064FEA8409360104254FF00C0848
:1046C0000AE018FB05610A1D05EB09003A4439446C
:1046D0000AEBC00009F0BCFE013DEDB2FF2DF0D1A8
:1046E000E2E7BDE8F08700BF5C0B0020DC0A002099
:1046F00070B506460D461C46A2B1012362782078AB
:10470000801A10F003002CD01BB3012828D00132EE
:10471000D2B222701C4B01225A552946304605F070
:10472000C5F91CE00AF09AFD0028E6D0294630467B
:1047300005F09CF90028E0D030230C226B4302FBEB
:104740000633124A1A44937AD27A9B1A18BF01236D
:10475000D4E70232D2B22270D4E902039847002093
:1047600070BD002BF8D00132D2B222700423302267
:1047700012FB05320C2313FB0623044A60681A441B
:10478000214609F068FEC5E7A81800205C0B002050
:104790002DE9F04F554B1A5C89B00446002A00F011
:1047A0009E804FF0000803F8008000EB40031B01DF
:1047B0004F4E049304253C2313FB0053F31803933B
:1047C000C346013DEDB2FF2D0FD1BBF1000F00F04C
:1047D0008680B8F1000F40F0828042462146204694
:1047E00009B0BDE8F04F05F021B900234FF00C09E6
:1047F000079309FB05FA302303FB04A3F118F058D3
:10480000496807AA09F02EFE049B19FB053906EB3F
:10481000090307460293002F43D0079B93F80090AB
:104820005A78A9EB020909F00309B9F1010F04D183
:10483000013A5A70D3E902029047079B05931A7810
:10484000D1B201915978521A02F00302012A19D00B
:10485000302000FB04A0304402994068002209F097
:1048600009FE059B019A59785A701A785F60521AAE
:1048700002F00302012A05D15970039A19463846FD
:1048800009F0E9FD302303FB04A3F118F05849684F
:1048900007AA09F0E7FDB9F1010F0746BBD1BDB981
:1048A000B0B930220C21624301FB05223244937AD5
:1048B000D07A984216D13023634301FB0533334449
:1048C0001A7A597A91421CBF5A724FF0010878E760
:1048D000064B01221A552146204605F0E7F809B09B
:1048E000BDE8F08FD3724FF0010BE4E7A818002069
:1048F0005C0B00202DE9F04FC37F8BB00446002BEA
:1049000040F0BD83827F4AB1456A034601220421FB
:104910000420AC460BB0BDE8F04F604743690493F8
:104920000121837A8177C07A984257D00B44DBB259
:10493000022B08BF0023A37204EB83030191DB6801
:104940000093009A049B134423F07F436361637FC9
:1049500003932368029363680893637A013B5FFAC9
:1049600083FB002305934FF0FF09BBF1FF0F38D104
:10497000637F039A9B1A18BF01230293019B002BAC
:1049800000F0238204F0AEFC049B009FA0EB030B1D
:104990002368069300232BF07F4B0793667FFF2E3F
:1049A0000DD035B205EB45052B010893069B03EBB3
:1049B0000515AB68BB4240F2C880DB1BAB60DDE98C
:1049C000012303992046B14218BF1346494602937A
:1049D00009F0C3FD25680023677F6BE10192009217
:1049E000B5E7089B03EBCB08D8F80430069398F89A
:1049F0000310342098F802708F4200F0DA82069B90
:104A000098F8005017FB00F29E187B1CDBB29D4209
:104A100008BF002388F80230069B9A5C042AE9D973
:104A2000717801EB41052B010993029B03EB0515FE
:104A3000082A6B78A878A3EB0003DBB218D8BBB1C7
:104A4000052A40F0A9827268002A40F0B782B26855
:104A5000002A40F0B382F268002A40F0AF82326947
:104A6000002A40F0AB82726932F07F4240F0A682A9
:104A70000121304609F067FDB9E7696A914FDFF817
:104A800048A2CF19574581BF01F1E87101F5D43132
:104A900001F5A5716962D5E908178CBF4FF0010ACD
:104AA0004FF0000A791A82440EF1FF3E6962A3EBCF
:104AB0000A03A5F81EE0A7E2D5E908173944814F9B
:104AC000DFF804A2CF1957459DBFA1F1E871A1F508
:104AD000D431A1F5A571696296BF696200210121F7
:104AE00001440EF1010E0B44A5F81EE093E2062AE4
:104AF00005D0204609F0DEFCAB78A8606B70227F01
:104B000073789A4240F0B982FF2323773378062BDB
:104B100001D0082B0DD170686369C21A11020BD441
:104B200022F07F43009A1344A2699A4288BFA3618E
:104B3000A3E204F0D7FBEFE7009A1B1A23F07F43B0
:104B40009A428CBFD31A0023EEE7079AB5F81EC02D
:104B50001A440792A2699342A7EB0307ABEB030B3E
:104B600025BFFF232377D31A0023A361A9786B788D
:104B7000A869AA6A5B1ADBB260B1022B0AD1BCF148
:104B8000000F07D122B192F808E0BEF1010F01D069
:104B90002677A0610020A860DDF820E0069810F8D4
:104BA0000E006077D5F804E0BEF1000F19D1002A9D
:104BB00063D0107A012860D1137A012B13D1AF6032
:104BC0006970049B079A61699A18284609F09DFC50
:104BD000069B089A03F802906B7801336B70B1461C
:104BE000DCE6002AE8D1BCF1000F24D1A88B804676
:104BF0000022D5E908130B443249DFF8CCA059183C
:104C000051459FBFA3F1E873A3F5D433A3F5A57372
:104C10006B6292BF019B6B6200237344B8F1010881
:104C20001A44E6D295F82C302BB300236044184484
:104C3000AA60E883C5E769700020D8E7D5E90813C2
:104C40000B442049DFF880A0591851459FBFA3F1BC
:104C5000E873A3F5D433A3F5A5736B6292BF019BF0
:104C60006B62002373441A4408F1010893451FFA4C
:104C700088F3E3D8DAE79846F8E74BB1012B02D086
:104C8000BCF1000F04D02B6A13B1696A0120984768
:104C9000AB786B704E46A2E707EB4702110105EBBC
:104CA000021215F801E0966A1EB1317A012900F06E
:104CB0006D817746FF2FEFD1002B029A18BF1A465D
:104CC000029286E05A2B17FF592B177FA069009B91
:104CD000834280F05F81C31A0193D6E9003A9A4576
:104CE0005BD24FF0000CA3EB0A0B71466346FF2921
:104CF00006D0D2F818800CEB0800834506901CD231
:104D00009168AAEB01011944716093607146FF2319
:104D1000FF2947D001EB41004FEA001905EB0010D5
:104D2000D2F80880D0F808C0E04538D9A8EB0C03C9
:104D300093600B4615F80910EAE701EB4101080101
:104D400005EB01110490D1F82890B9F1000F07D0BC
:104D500099F80890B9F1010F02D10146695CC6E7E4
:104D6000D1F80890B9F1040F0ED9ACF104034B440B
:104D70005B45069828BF5B46834205D9B3EB080321
:104D800002D001988342BBD28869049900EB0903E1
:104D90000193CC44ABEB0803E0E70023B0E7ACEBB6
:104DA00008018160FF2B08D01BB203EB43031B01FA
:104DB00084F81DE0E95C1170EF54D38B013BD38381
:104DC0004FF002033372012306E64946204609F0FC
:104DD000C4FB637F039A9342059B40F0D1803BB9AB
:104DE000657A63680093013DEDB20027FF2D16D16F
:104DF000029B4BB1637FFF2B79D104F04DFA18B9B8
:104E0000A06104F06FFA60610023A377E37F002BB9
:104E100000F03581656A23460122032178E5009B75
:104E200003EBC506D6F804807378F2789A4202D173
:104E3000013DEDB2DAE7342213FB02F208EB020384
:104E400018F80220022A12D0032A40D0012A05D1E4
:104E50009F62DA6A12B1196B986A90477378327858
:104E60000133DBB29A4208BF00237370DCE7D3E959
:104E7000019099F80020D3F80CE0D4F800C06169E3
:104E8000FF2A03D0D0F800A0514509D0627F01600D
:104E90000020FF2A0CD189F80020CEF80000D7E7C7
:104EA00002EB42021201DEF800001CF80220F0E7DB
:104EB00002EB42014FEA011B0CEB0111D1F808A0F3
:104EC000896950440029E6D11CF80B20E1E75A78A3
:104ED000217A914208D9216802EB420201EB0212C9
:104EE000197982F82D10B3E701229A62B1E7039B8A
:104EF000FF2B06D104F0F6F9054604F0BFF900B91E
:104F00006561637F2268DFF87C81DFF87C91DFF8E0
:104F10007CA103EB430302EB03130A269F6804F012
:104F2000E1F96569431B23F07F430333BB422CBF88
:104F3000ED18ED1925F07F45A36A8346284698476A
:104F400004F0D0F9A0EB0B0323F07F43A5EB0B0596
:104F5000033325F07F45AB4206F1FF367FF654AFB1
:104F6000002EDCD140F63E1342464946504608F03A
:104F700080F9404080F311884FF0030002DFCEE754
:104F8000002B7FF437AF0123029329E7237FFF2B08
:104F90007FF49CAE00239FE6012B3FF4A8AD0421D3
:104FA0002346656A01220846A847012388F8027053
:104FB00005930BF1FF335FFA83FBD6E4012BEED1AF
:104FC000204609F077FA6369A8600746079304F062
:104FD00089F9079B0099C31A23F07F430B449F4232
:104FE00098BF6969024698BFC91B68689BBF5B1878
:104FF0006B61FB1A0023A8B1B18A99B101F1FF3CA2
:105000001FFA8CFCA6F814C09842B5F81EE002D234
:10501000E6453FF632ADB5F81EE0F4453FF64CAD3F
:10502000A5F81CC07168B068AF6A0B44AB606B69CF
:1050300003446B611FB13B680BB1091A7960079992
:10504000284609F062FAF268AB6913443269934268
:105050008CBF9B1A0023AB61B37D03B1EB70F37D72
:1050600013B1013B85F82C30029B099A03F802909A
:105070006B7896F8019001336B700021F9E40BB066
:10508000BDE8F08FAC17010058190100E2120100D1
:10509000F0B5059F9DF81850DDF81CC008B101203F
:1050A000F0BD184C217222600139C9B2FF2916D116
:1050B000637267603422013BDBB2FF2B16D1002DF7
:1050C000EDD1089B2362099B63620A9BA3624FF6A2
:1050D000FF73C4E90555A38365812846E0E701EB2A
:1050E000410602EB061686F82D00DDE707EBC3014B
:1050F000C1F804C017F833002D1A00FB02CCEDB242
:10510000D9E700BF1C0C0020074B2C2202FB00310A
:1051100010B44C6A34B10B46A446012210BC0321E2
:105120000220604710BC70471C0C00202DE9F8439A
:105130000646084611461A46224B2C2406FB043923
:10514000D9F8043003EBC00C13F830309CF803702E
:105150007D1CEDB2AB4298BF00259CF80130AB42FC
:105160002ED0342317FB03F7DCF804304FF004088B
:10517000DC1903F80780089BA360099BE3600A9B86
:1051800023610C9BA361BDF82C30A382119B636249
:105190000D9BE3610E9B23620223A3620F9BE362DC
:1051A000109B6170626023638CF80350D9E9083565
:1051B00098474B4600224146A847A06ABDE8F883BD
:1051C0000120FBE71C0C00202DE9F041234C064692
:1051D000084611462C2206FB0248D8F8044004EB8E
:1051E000C00C14F830209CF803707D1CEDB2AA426C
:1051F00098BF00259CF80120AA422CD0342217FB2E
:1052000002F7DCF80420D4194FF0050E02F807E08D
:105210006360069BA360079BE360089B2361BDF866
:105220002430A3829DF82830A3759DF83430E375AF
:105230000223A3620B9BE3620C9B617023638CF8D7
:105240000350D8E908359847434600220421A8476F
:10525000A06ABDE8F0810120FBE700BF1C0C002024
:105260002DE9F8431A4C0546084611462C2205FB49
:105270000249D9F8042002EBC00712F83020FE786A
:10528000741CE4B2A24298BF00247A78A2421DD0D6
:10529000342216FB02F67A684FF0070C02F806C0BB
:1052A00002EB06080222C8E90A23089B88F80110CD
:1052B000C8F83030FC70D9E9083498474B460022D2
:1052C0000421A047D8F82800BDE8F8830120FBE7B7
:1052D0001C0C002070B5044600200D4609F055FC5A
:1052E00010B10C24204670BD09F088FD10F00606B0
:1052F000F7D10622294624B1044808F03EFE344680
:10530000F0E7034808F039FEECE700BFB2180020D0
:10531000AC1800200128024605D8044B0448002A96
:1053200008BF184670470020704700BFAC18002027
:10533000B218002008B50248FEF7DEF9002008BDCB
:10534000FC080100838937B5044663B91849194B35
:105350001948C91AC908890141F0010108F0BEFACB
:105360006FF0150016E0017DB1B9019101A900F0BF
:1053700005FA58B1FEF7A2F9019D3DB1284609F0A2
:105380005FFB019968710D480AF0F0FB204604F0BC
:1053900003FD002003B030BD064B054A0848D21A71
:1053A000D208920142F0010208F0A5FAD8E700BF46
:1053B0004406010004060100FA1701003005002030
:1053C0000B180100F7B5284E00274FF0FF324FF0C1
:1053D000FF33304606F0E0FE0028F6D090F90530A5
:1053E00001905A1E032A2DD8022B23D1002200231C
:1053F00001210020FDF7DAFB044618B101460198AF
:1054000000F07AFC019B01A81F6000F057FE002C01
:10541000DBD0204609F0FEFF21460546002009F0BA
:10542000FDFFAB8904462846DBB1FEF7E7F807F03D
:105430000BFBECE74FF0FF324FF0FF330120FDF79D
:105440008BFBD9E7094A0A490A484FF4BD7307F0B4
:1054500010FF404080F311884FF0030002DF00246A
:10546000D0E704F099FCE2E7300500201F180100A6
:10547000E0210100E212010073B50F4D0F4E0DF156
:10548000020101A800F0C6FD0028F8D1019B5BB124
:1054900000F0D2FD019C204609F0D2FA019960711A
:1054A00030460AF063FBEAE74FF0FF324FF0FF337C
:1054B000284606F0CBFEE2E7180500203005002064
:1054C000D0B5204888B001F0F7F8044668B11E4A0C
:1054D0001E4BD21AD2089201014642F001021C482A
:1054E00008F009FA204608B0D0BD00F0FBFC002609
:1054F00000276FF00903CDE90243CDE90667CDE946
:105500000044144B144904944FF4E072134806F01D
:10551000EBFC134911480AF0A3FA6FF00703CDE939
:105520000243CDE90667CDE900440E4B0E490494D1
:105530004FF480620D4806F0D7FC0D490B480AF085
:105540008FFACFE718050020440601000406010089
:105550005F18010079540000802400200807002013
:105560007C180100C5530000602600208807002039
:105570008618010038B5074B05460121188808F048
:1055800099FD01210446083009F054FF05702046BA
:1055900038BD00BFF01700202DE9F84F264DDFF889
:1055A0009C9006460F4690460024D9F800309C4255
:1055B00024DB234C234DD4F800B04FEACB0A0AF188
:1055C000010028440622414608F0D7FCD9F80030F3
:1055D00005F83B700F2BCABF2368013301332360EA
:1055E000D8BFC9F80030554423680120B040E871A5
:1055F000102B4FF0000008BF20601BE00622294658
:10560000404608F0A9FC18B915F8013CBB4202D08D
:1056100001340835C9E70B4B03EBC404E27922FAE5
:1056200006F010F001034FF0010003D1B040104329
:10563000E0711846BDE8F88FB9180020480C00202A
:105640004C0C0020B818002038B5064B05461888C9
:105650000C4608F02FFD21462860BDE83840083090
:1056600009F0E8BEF0170020F0B5013887B0144605
:1056700009287DD8DFE800F0051C337C7C5A7C3F8C
:1056800063700D211046FFF7DFFF02234370C370E4
:10569000837107230021C37163230170817001713D
:1056A0004171017243728172C1720173002413E06F
:1056B00041211046FFF7C8FF00240546402200F8AC
:1056C000014B214608F064FC6B7863F058036B7063
:1056D000AB7843F00303AB70204607B0F0BD09215F
:1056E0001046FFF7B1FF002400F8014B08222146C5
:1056F00008F04EFCF0E7204B01AA03F11007164614
:1057000018685968154603C50833BB422A46F7D1C5
:105710001B882B8013212046FFF796FF002400F8FA
:10572000014B1222314608F028FCD5E78968002099
:10573000FFF7D0FD0020FFF71DFF2060B6E718211E
:105740001046FFF781FF00240546012100F8024BB7
:1057500009F0A2FD6870BFE721211046FFF774FF32
:105760000146002401F8114B013009F0EBFDB3E7CD
:105770006FF01504B0E700BFAA18010070B5838967
:105780008AB00025022B044605950CD8D149D24B8E
:10579000D248C91AC908890141F0010108F09EF8F0
:1057A00028460AB070BD0321083009F062FEA289C4
:1057B00083789A4208D2C749C74BC948C91AC90851
:1057C000890141F00101E9E70388C64EC3F30900EE
:1057D0003380C3F38523082B00F0C78008D8032B40
:1057E0000FD0042B31D03088012108F075FC2AE05D
:1057F0003F2BF8D105AA2146FFF736FF1630F2D02D
:1058000098E003280AD063281AD00128EBD1A068B9
:1058100009F012F9B44BC3E9000111E0B34B4FF0AA
:10582000FF321A60B04B4FF0FF3041F6FF71C3E911
:105830000001AF4B1F200021C3E9000100F0A2FFCF
:105840000020FFF797FE059074E001380828CAD8B9
:1058500001A353F820F000BF7D580000A7580000B6
:1058600039590000E7570000E7570000E7570000EC
:10587000E7570000E757000055590000092105A827
:10588000FFF7E2FE002303708370C3706FF00E0316
:105890000C22437105238371427002714FF0FF3374
:1058A000C371037246E0412105A8FFF7CDFE002138
:1058B0000446402200F8011B08F06AFBA379217F0F
:1058C000A27E63F03F03A371E37A43F00403E37223
:1058D000E37B43F02803E373237C43F00203237448
:1058E000E37D43F00403E375E37E63F03003E37686
:1058F00094F8233063F0070384F8233094F82430BD
:1059000043F0070384F8243094F8283061F03C0118
:1059100043F00403217784F82830617F94F827301E
:1059200041F0080162F0080263F07F036177A2761C
:1059300084F82730059834E7092105A8FFF784FE8D
:1059400000210446082200F8011B08F021FB602317
:105950006371EFE7072105A8FFF776FE01460020F7
:1059600001F8010B09F03FF8E4E701384D283FF654
:105970003AAF01A353F820F0B15A0000BB5A00001F
:10598000F55A0000E7570000315B0000BF5B0000E4
:10599000DB5B0000EB5B0000F75B0000035C0000DA
:1059A0000D5C0000255C0000E7570000E757000091
:1059B0003B5B0000515B0000575B00005F5B000039
:1059C000E7570000E7570000E7570000E7570000DF
:1059D000675B00008D5B0000E7570000E7570000A1
:1059E000E7570000A35B0000E7570000E7570000FF
:1059F000E7570000E7570000E7570000E7570000AF
:105A0000E7570000E7570000E7570000E75700009E
:105A10004B5C0000595C0000615C0000675C0000AA
:105A20007D5C00009D5C0000BB5C0000C55C00006C
:105A3000E7570000E7570000E7570000E75700006E
:105A4000E7570000E7570000E7570000E75700005E
:105A5000E7570000E7570000E7570000E75700004E
:105A6000E7570000E7570000E7570000E75700003E
:105A7000E7570000E7570000E7570000E75700002E
:105A8000E7570000E7570000E7570000E75700001E
:105A9000E7570000E7570000E7570000E75700000E
:105AA000D95C0000E7570000E7570000CF5C00001A
:105AB000A06808F0C1FF0E4BADE6042105A8FFF772
:105AC000C3FD002303701B22837003234270C37045
:105AD00030E700BF3C06010004060100BC180100CD
