:1010000040430020AD570000B5B2010081570000F9
:101010008157000081570000815700000000000048
:1010200000000000000000000000000095540000D7
:101030008157000000000000415400006FBB010018
:101040004555000031270100455500004555000079
:101050004555000045550000455500004555000028
:101060004555000045550000455500004555000018
:101070004555000045550000455500004555000008
:1010800045550000455500004555000045550000F8
:1010900045550000455500004555000045550000E8
:1010A00045550000455500004555000045550000D8
:1010B00045550000455500004555000045550000C8
:1010C00045550000455500004555000045550000B8
:1010D00045550000455500004555000045550000A8
:1010E0004555000045550000455500004555000098
:1010F0004555000045550000455500004555000088
:1011000053B94AB9002908BF00281CBF4FF0FF316E
:101110004FF0FF3000F00CB8ADF1080C6DE904CED3
:1011200000F008F8DDF804E0DDE9022304B07047C0
:10113000704700BF2DE9F04F07468C460846099ED0
:1011400015463C461946002B40F0C6808242B2FA52
:1011500082F746D94FB1C7F1200E24FA0EFE00FAED
:1011600007F3BD404EEA030CBC404FEA15481FFA96
:1011700085FEBCFBF8F9220C08FB19C309FB0EFA2B
:1011800042EA03439A4528D9EB1809F1FF3004D20B
:101190009A4502D9A9F102002B44A3EB0A03A4B299
:1011A000B3FBF8F208FB123302FB0EFE44EA0344E1
:1011B000A64514D92C1902F1FF3303D2A64501D953
:1011C000931E2C44A4EB0E0443EA00401EB1FC40E5
:1011D000002334607360BDE8F08F4846DDE71346B6
:1011E000F0E702B9FFDE87BB831A01214FEA154EF3
:1011F000AAB2B3FBFEFC200C0EFB1C330CFB02F866
:1012000040EA0343984563D9EB180CF1FF3004D250
:10121000984502D9ACF102002B44A3EB0803A4B219
:10122000B3FBFEFC0EFB1C330CFB02F244EA03444E
:10123000A2424FD92C190CF1FF3304D2A24202D999
:10124000ACF102032C44A41ABEE7C7F1200C20FA2B
:101250000CF800FA07F324FA0CFCBD404CEA030238
:101260004FEA154EABB2B8FBFEFC110C0EFB1C8016
:101270000CFB03F941EA0040814504FA07F423D945
:1012800028180CF1FF3104D2814502D9ACF10201DA
:101290002844A0EB090092B2B0FBFEFC0EFB1C0040
:1012A0000CFB03F842EA004398450FD9EB180CF108
:1012B000FF3204D2984502D9ACF102022B44A3EBD1
:1012C000080342EA014191E76146E2E76246F6E738
:1012D0006046A2E76346B6E7834205D90EB1C6E988
:1012E00000700021084676E7B3FA83F181B98342A2
:1012F00001D3BA420AD8BC1A60EB030301209C4612
:10130000002E68D0C6E9004C002164E70846F7E7E4
:10131000C1F1200C8B4022FA0CF41C4302FA01F5B7
:1013200000FA01F327FA0CF220FA0CFB4FEA1449F9
:101330001343BBFBF9F81FFA84FE09FB18BB1A0C18
:1013400008FB0EFA42EA0B42924507FA01F73ED932
:10135000A21808F1FF3004D2924502D9A8F1020088
:101360002244A2EB0A029BB2B2FBF9F809FB182255
:1013700008FB0EFE43EA024296452AD9A21808F15C
:10138000FF3304D2964502D9A8F10203224443EA6E
:101390000040A0FB0593A2EB0E029A42CE4698466F
:1013A00002D306D14F4504D2B9EB050E63EB040816
:1013B000013886B1B7EB0E0362EB080707FA0CFCA5
:1013C000CB404CEA0303CF40C6E900379CE74046D8
:1013D000C7E74346DBE73146FDE6000000000000BA
:1013E0002DE9F041D0E90B35866A5C193034A6420C
:1013F0008846174618D81C4DA3FB050118A3D3E94E
:101400000023FFF77DFEA41B20F07F40C8F80000FA
:1014100013A3D3E90023A4FB0501FFF771FE20F01D
:101420007F403860BDE8F0810F4C0DA3D3E9002365
:10143000A6FB0401FFF764FE05F1300120F07F40B8
:10144000C8F8000006A3D3E90023A1FB0401FFF7BD
:1014500057FE20F07F403860BDE8F081AFF3008098
:101460008D49FD1A0700000000CA9A3B00000000E9
:101470002DE9F04FAE4C8FB094F86A20002800F0B0
:101480003C8112F0010740F03A8194F82500FF23D7
:1014900000F0030084F8263010F05CFC94F86A0039
:1014A00041072DD494F8292094F8353004EB8202BA
:1014B00004EB8303D2F82C80D3F83890B8F1000FF6
:1014C00011D09B48414609F03BFF98F800305A067E
:1014D00005D5062104F0A6FB002800F0D38194482E
:1014E000494609F02DFF98F8003013F00E0F40F038
:1014F000F180236A9BB10C2738460FB0BDE8F08F0E
:101500003A4604F16B01C0F3C00010F0B9FDFF28AA
:1015100084F82600C6D0384610F062FCC2E708F016
:10152000BBFF8246002800F0B78108F0C1FF834668
:10153000002800F0B6810BF007F80546002800F0FF
:10154000AD81406F4FF6FF732B8505F11C0300281A
:1015500000F09E8105F1680205F164010B9304F02F
:101560006DFBB5F86020734B22F4EF6222F00702A6
:1015700042F4887242F00102A5F8602095F8392003
:1015800002F03F0262F07F0285F8392095F87A2058
:1015900022F0070285F87A2095F83C2022F0070215
:1015A00085F83C2095F8D82022F0070285F8D8204D
:1015B0004FF01B12C5E916237F22002685F8BD20B7
:1015C0000622A5F8C020C5E912666E67A5F8786006
:1015D000EE852E6385F83B602E65A5F8C460A5F8FE
:1015E000C860A5F8D060A5F8CC60A5F8E46085F8DF
:1015F000E660C5F80861A5F80C61A5F8206108F05F
:1016000019F895F83A21A5F8386122F0030285F817
:101610003A2195F87A20A5F8406122F0180285F861
:101620007A2095F8662185F8436122F0070285F853
:10163000662195F88621C5F844A166F3451285F820
:10164000862195F8AE21A5F8646166F3C302C5E969
:101650004A0100210020C5E94C0185F8AE2185F83A
:10166000D960A5F88461C5F8E060A5F8AC61A5F87B
:10167000B8610BF057FBA5F8D2000BF059FBD5F879
:10168000BC112D4AA5F8D4000A40C5F8BC210BF0C6
:1016900055FB95F8C02160F3020285F8C0210BF0DC
:1016A00053FB0B9B236295F8C031C5F8C46160F30E
:1016B000C503C4E918ABC5E97466C5E97266C5E936
:1016C00005662E70ED6185F8C03111F08BFD0028A4
:1016D00040F0DA8094F824300121C3F342030DF185
:1016E00033008DF8333004F023FC38BB236A002B21
:1016F0003FF401AF09F0EEFAFDE6D50704D4002768
:1017000038460FB0BDE8F08F236A5BB193F8202014
:1017100042F0020283F82020236A93F82030D80791
:101720003FF5E9AE0FB0BDE8F04F09F015BB00BFC3
:10173000441A0020480148010000FFF699F8011002
:101740000246404609F0B6FB5B49E46131230025BF
:10175000A360A0FB010156A3D3E90023C4E905550A
:1017600025706560E560FFF7CBFCB4F868902061F8
:1017700005F096FE0646B9F1000F08D198F8005022
:1017800005F00F05A5F10105B5FA85F56D0994F889
:101790002400236965F3000010F0010584F824009B
:1017A00031D00020454ADFF81891049302250DF14D
:1017B0003408019305920321CDE9020006943346D3
:1017C0000090CDF82080CDF81C902A460D9505F0AC
:1017D0003DFD414608F0F0FE002887D1394A0592C8
:1017E0004AF2D8320092CDE90300CDE90100CDF8EC
:1017F0001C90CDF8208006943346012203210D95DC
:1018000005F024FD29E0304A3048049303F24713E1
:10181000A9FB0001069402951360912303FB0911B3
:10182000274B0793254B05934FF6FF7309924FF013
:10183000020903930DF134081DA3D3E90023CDF869
:101840003490CDF82080FFF75BFC3346CDE90050A3
:101850004A462846032105F0A3FC414608F0ACFEA9
:1018600000287FF443AF94F86A3043F0010384F812
:101870006A3009F045FF00287FF441AF012010F0E5
:101880004BFA39E6122737E609F024FA032733E644
:1018900005F16C0068675DE607272DE6584608F0FD
:1018A0000DFE504608F0FEFD072725E6AFF3008049
:1018B0008D49FD1A0700000000CA9A3B29AF0000BD
:1018C0000197000065AA0000B81A0020002AE784EA
:1018D00070B590F824308AB0C3F342030D46044635
:1018E00001210DF1230016468DF8233004F020FB72
:1018F00071780246284609F0DDFA1D491AA3D3E99A
:101900000023A0FB0101FFF7FBFB2369984205467A
:1019100020D21B1A00220192164A0293164BA21AD9
:10192000A3FB02320221920900230A4409AE099165
:1019300012490591CDE903330321D2B206960093F3
:10194000184605F0F5FC314608F036FE48B9256129
:101950000AB070BD02D9C21A0023DCE700200AB029
:1019600070BD0C200AB070BD8D49FD1A0700000043
:1019700000CA9A3B441A002009CB3D8D0197000014
:1019800038B5194C9DF810E094F844C01CF00105DE
:1019900022D163F3420C400194F83230A1874FEA20
:1019A000CE0E0EF0180E00F0200040EA0E0023F0DC
:1019B000380303430D4884F83230A2FB0001912321
:1019C00003FB021106A3D3E9002384F844C0FFF708
:1019D00097FB2064284638BD0C25284638BD00BF3B
:1019E0008D49FD1A07000000DC1A0020002AE78458
:1019F00010B59DF808C0044649014FEACC0000F03C
:101A0000180001F0200CA17D22844CEA000C0C4847
:101A100021F038014CEA010C9122A3FB000102FBEA
:101A2000031184F816C004A3D3E90023FFF768FB71
:101A3000606210BDAFF300808D49FD1A0700000001
:101A4000002AE784000000002DE9F047044600F179
:101A5000350190F8440094F83230C0F3400060F350
:101A600086138CB084F8323005F020FD94F83220D3
:101A7000A38F4D48E46102F079020025A3FB000129
:101A800084F83220912202FB0311C4E9055544A3D6
:101A9000D3E900232570FFF733FB3123C4E9015359
:101AA000236CE5600933A0F13102934232BF236118
:101AB00022612564064605F0F3FC236A07460DF112
:101AC0002C08002B4CD0394D394BCDF82080069492
:101AD000651BA3FB05353448A38F4FF0000AA3FB19
:101AE00000019122CDF80CA002FB0311236904939D
:101AF000304B0793304B05934FF0020928A3D3E9ED
:101B00000023CDF82C90FFF7FBFA104619464FF44E
:101B10007A720023FFF7F4FA2D090435EDB22A4654
:101B2000CDE901603B460321CDF800A0504605F009
:101B30008DFB414608F040FD054668B994F84430F5
:101B400043F0010384F8443009F0D0FB0446F8B1B7
:101B500028460CB0BDE8F0870C200CB0BDE8F0873B
:101B6000CDE90A33216943460AAA032001F05CF952
:101B70000B990029A7D0114809A3D3E90023A1FBA1
:101B80000001FFF7BDFA0A9F20F07F4007449AE763
:101B9000484610F0C1F820460CB0BDE8F08700BF01
:101BA0008D49FD1A07000000002AE784DC1A002096
:101BB000398EE33801970000FDB4000000CA9A3B5B
:101BC0002DE9F04FC38D458E1D4490F80E310D4424
:101BD000174613F007028BB00446ADB20AD0531E6D
:101BE000042B00F27583DFE813F0CB013C02A30164
:101BF00052013F02B0F8E880A5EB080318041FFA71
:101C000083FB00F16F8194F93930002B0E46C0F24E
:101C10006D8294F8E43084F8E53094F8842194F8E7
:101C2000853194F80C1184F80D1193420AD094F880
:101C3000863103F00F03062B04D1002384F885219D
:101C4000A4F8C830C04BD4F808911A68944204BF75
:101C500000221A60B9F1000F00F05A81D9F8000093
:101C6000002800F05581B4F81031B4F82AC0426859
:101C7000C4F808216345B4F81221B4F8141100F037
:101C80003D82B4F828C0A9F81E30182389F8043022
:101C90000023A9F806C0A9F82020A9F8221089F885
:101CA0001C30494608F010FC08F018FCA368002B13
:101CB00009DAE168626823F0004391422CBF7F1883
:101CC000BF18A360FF1A608DB4F8109110FB0BF0E1
:101CD00080B2B0FBF9F119FB01F39BB298421FFAF5
:101CE00081FA80F004811B1A40F2E241974803FB1D
:101CF00001F1A1FB000192A3D3E90023FFF700FA51
:101D000020F07F400744E18D94F93930A8EB0508B5
:101D1000D0440E444644002B40F2E248E68508FBDE
:101D200009F6C0F20D82D4F81811884884A3D3E9CB
:101D30000023A1FB0001FFF7E3F920F07F48B34641
:101D400008F10108824AB4F81431B4F8121181483C
:101D5000A4F82A903244B2FBF6F2A4F8C62042F26C
:101D6000107202FB03633044013BB0FBF6F0B3FB9F
:101D7000F6F683B2881D8342A185A4F8C260A4F858
:101D8000CE3002DD5B1A063B9BB2A4F8CA3094F851
:101D90000E311B0744BF0023A4F8C43002210120E8
:101DA00014F0DCF8002202218146012003F096FFA6
:101DB00069494FF4F072204603F020FF00F1050A54
:101DC0005FFA8AFA654B009452460121002005F023
:101DD000C7FA30F002030CD0614A6249624840F60B
:101DE0004A3318F00BFE404080F311884FF0030097
:101DF00002DF564EABFB066B51A3D3E900233046FE
:101E00005946FFF77DF920F07F4558480723A5FB89
:101E10000001301A03FB05116BEB01014FF47A72DC
:101E20000023FFF76DF9CDE9015008940694CDF831
:101E30000080216994F939504D4804914D494E4C28
:101E4000079411EA250138BF014605914FF6FE714E
:101E50003B46039152460121002005F0F7F930F08E
:101E600002030CD03E4A3F493F4840F6643318F025
:101E7000C5FD404080F311884FF0030002DFB9F147
:101E8000000F40F0578100200BB0BDE8F08F838D2C
:101E900090F80E01D4F8C4211D440635D4F8EC3076
:101EA000ADB26FF30200A4F8E850A3F109011D815F
:101EB00084F80E01D4F8C80122B194F86651AE0737
:101EC00040F18C81002800F0A081D4F8CC2110686A
:101ED00043F8090C116053F8092CC4F8CC11002AFE
:101EE00000F090816FF076000BB0BDE8F08F09FB39
:101EF000110140F2E243154889B203FB01F1A1FB55
:101F000000010FA3D3E90023FFF7FAF83F1AFAE61E
:101F1000134A1A49144840F69F2318F06FFD4040B9
:101F200080F311884FF0030002DFD9F800009AE631
:101F30006FF00F000BB0BDE8F08F00BFAFF3008073
:101F40008D49FD1A07000000381B002000CA9A3B8B
:101F5000FF5962027FC3C9017808002041BC00001C
:101F6000DCD00100BCD1010044CB01008D49FD1A39
:101F7000F50C0100050B0100E9BB0000A8D1010030
:101F8000DFF81483012008F0AFFA0646002800F0BD
:101F90004D81C24803F0FCFD0546002800F0468153
:101FA000BF4B1A68002A00F0178108F0BBFA3368AB
:101FB000D4F808215A602B79C4F8086143F0030370
:101FC0002B710C236B710023EB7194F81C312B7275
:101FD000B44AD4F81831A2FB03239B0AA5F80930B0
:101FE000B4F81031A5F80B30B4F81231A5F80D3063
:101FF000B4F81431A5F80F3094F80E31C4F8F0702D
:10200000032262F3020384F80E31A368002B0ADA7C
:10201000E168626823F0004391422CBF7F18BF182B
:10202000FB1AC4F8F030A04B01220935C4F8EC507B
:1020300002211046C3E9024803F082FE00283FF463
:1020400051AF9A4A9A499B4840F6F41318F0D6FCCF
:10205000404080F311884FF0030002DF6FF07600FC
:1020600012E7DFF854828DE7D0F8EC20D0F8C431C5
:1020700090F8E40084F8E50094F80C01884984F8AD
:102080000D0194F8840184F8850100200860D4F8DB
:10209000C801A2F10901B3B194F86651AD0712D499
:1020A00094F8BF51EF070ED4D4F8D051AB4200F0F2
:1020B000D78058B9187900F00300032800F0DF80BA
:1020C000C4F8C83104E0002800F0A980D4F8CC316D
:1020D000186842F8090C196052F8093CC4F8CC1190
:1020E000002B00F0A6806FF08B00CDE694F8D9307D
:1020F000002B3FF48EAD84F8D9208EE5B4F82CC0C7
:1021000094457FF4BEAD40F2E24C0CFB03FE42F27C
:10211000107C0CFB01EC0CF1FF3CBCFBFEFCB4F8AA
:10212000C2E01FFA8CFCE6457FF4ABAD012389F8D1
:102130000430B6E501220221104603F0CFFDA2E6ED
:10214000226CA36C02FB1B33A36411F09FF80546BD
:1021500094F8D800C0F3C20011F09AF8054406FBC9
:1021600005F5564B94F81C2105F5742505F23F251D
:10217000A3FB0535AD0C08FB02F2A36C226505FB41
:102180000AF072080344963A934228BF1346256426
:10219000A6EB050B4A4DC4E911230023C4F8E03037
:1021A000A0FB05013AA3D3E90023FEF7A9FF3D4BAD
:1021B0003F1AD4F81801A3FB0030800A08FB00F096
:1021C00033A3D3E90023A0FB0501FEF799FFB4F880
:1021D000109120F07F48B5E51C60E6E694F8BF5109
:1021E000ED073FF56FAED4F8D051AA4226D00028B3
:1021F0007FF46BAE107900F00300032862D0C4F8BE
:10220000C82164E6C4F8D4116CE643F8092CC4E98B
:102210007111C4F8CC11002A7FF464AEF2E742F8E1
:10222000093CC4E97111C4F8CC1159E76FF068009A
:102230002AE6C4F8D4116FF08B0025E61568C4F8BF
:10224000D05100287FF441AE106843F8090C1160AA
:1022500053F8092CC4E97211002A7FF443AED1E788
:102260001D68C4F8D05100287FF430AF186842F8D8
:10227000090C196052F8093CC4E9721130E7D879A9
:102280000328F3D00A287FF41BAFEFE7AFF30080F9
:102290008D49FD1A07000000E9120100601C0020B2
:1022A000381B00205917B7D178030020DCD001007B
:1022B000F4CD010044CB0100F12F000083DE1B436D
:1022C00000CA9A3BD0790328BED00A2897D1BBE731
:1022D000074A0849084840F6482318F08FFB404059
:1022E00080F311884FF0030002DF4FF0000849E649
:1022F000DCD00100C4CB010044CB01000000000091
:102300002DE9F04F0B68D2F800A01B6897B00C467F
:102310000A93037F00F11E01C3F38013054617469D
:1023200014A806228DF8473018F0F8FF94F81290A0
:10233000B9F1FF0F12AE5CD032460DF147014846AD
:102340000FF08EFA9DF8473002338DF8473029465A
:10235000032251F82E3B0B9307F1080007F1040B01
:1023600018F0DCFF07F11808042205F12A0158468D
:1023700018F0D4FF052205F13A01404618F0CEFFCF
:102380004046052103F0D4FD7B7F95F83F1000F017
:102390003F0060F305037B77C1F30403BB77B5F817
:1023A0003480A7F80E8001281FFA88F201F01F037D
:1023B00005D91B3303F01F030B2B00D8FAB90A9B76
:1023C000EC680B9800225A6197F82030012662F3DE
:1023D000000387F8203029462E7108F075F8206830
:1023E0002671214608F070F808F078F817B0BDE8BB
:1023F000F08F062214A9304618F090FFA7E7236853
:102400000020586095F8363095F8370043EA0023ED
:102410003B829AF8D830490961F3C503698E8AF87E
:10242000D83040F2E24303FB02F80D9110F02EFF8A
:102430000C909AF8D800C0F3C20010F029FF0C9A53
:10244000B749024408FB02F202F5742202F23F226D
:10245000A1FB0232920C7A6295F83120398A40F25F
:10246000E24302FB03F3BB634FEA5803963BBB62B4
:102470002B8FAC4AADF83A3018464244AA4BB2FB17
:10248000F8F2AAF8C62082B242F2107000FB028273
:102490004344013A881DB2FBF8F2B3FBF8F3AAF803
:1024A000C2209AB28242AAF8CE2002DD521A063A1F
:1024B00092B25946AAF8CA200AF1DC00042218F0A8
:1024C0002DFF4FF480722B7FAA830A9A92F8260080
:1024D000C3F340120F920C920FF068FF01460622E0
:1024E00005F12B00002900F0E78005F1240118F028
:1024F00015FFB9F1FF0F05F1250000F0E08014A9E8
:10250000062218F00BFF9DF84730AB7731460622C4
:1025100005F11F0018F002FF9AF8D830FA896A8690
:102520003A8AAA86C3F3C203BDF83A2085F8383048
:10253000EA8650460AF014F82946B881E8806568B2
:102540000B9807F0C1FFBB89EB801B232B710C9B01
:102550002E68002B40F0C0809DF83C302B77294638
:10256000304607F0B1FF07F0B9FF97F84500B7F81C
:102570004050B7F84260012100F0070010F094FCD1
:102580002E4406F5E176311881466848002631234D
:10259000CAF80830A1FB00015FA3D3E90023CAF801
:1025A0000460CAF80C60FEF7ABFD7B6A0D9AE56823
:1025B00020F07F40A8EB030840F2E24303FB025502
:1025C00002213246CAF81000012003F087FB0A9F5F
:1025D000384608F071FE821C554B0097D2B2304647
:1025E000012104F0BDFE05F2B2450128A5EB090565
:1025F0007DD00A9B93F82430DB0765D4504609F060
:10260000AFFFDFF82891A8FB098643A3D3E9002395
:10261000834631464046FEF773FDA368CDF818A007
:102620000BF10504A3F13A0B424B0793424B059380
:1026300040F2AB130893DAF81030049320F07F4790
:102640003E480023A7FB000103930723B8EB0000DB
:1026500003FB071166EB01014FF47A720023FEF7CA
:102660004FFD2DA3D3E90023CDE90170A5FB09019E
:10267000FEF746FDE4B220F07F4000905B46224624
:102680000121002004F0E2FD30F002030CD02C4ABE
:102690002C492D484FF4D67318F0B0F9404080F320
:1026A00011884FF0030002DF01220221104603F0DF
:1026B00015FB17B0BDE8F08F18F03BFE19E70622B6
:1026C000002118F036FE1EE7002301220093184671
:1026D000114604F045FE91E77B7F43F040037B7792
:1026E00058460EF0AFFE0123F8832B7737E707F04B
:1026F000A1FF0A9B83423FF47CAF114A1349124861
:1027000040F26E2318F07AF9404080F311884FF0C0
:10271000030002DF6DE700BF8D49FD1A07000000CE
:1027200083DE1B43FF5962027FC3C90100CA9A3B83
:10273000C90A0100990A0100050B01008D49FD1A23
:10274000C4D20100BCD1010044CB01001CD3010064
:102750002DE9F04F89B080460393BDF850300493C3
:102760000020BDF858309DF84CA0BDF854B002933D
:102770008946164608F0D2FF002800F0C581036A9A
:1027800000F11C0205460592002B62D0076A3C68E6
:1027900097F84400C0F3C00100F0070010F082FB7E
:1027A000B7F8401000F5E1700144B7F84200014469
:1027B000D948D7A3D3E90023A1FB0001FEF7A0FC71
:1027C00020F07F40206130460FF0E6FA95F8333074
:1027D0006FF3410385F83330FF2385F8343066B357
:1027E000AAF10203012B40F2588195F84430039A74
:1027F0006AF3420385F8443095F8333062F30003FE
:1028000085F833301299062205F1240018F086FD70
:10281000029B2B8642464B4605F11C000021009688
:10282000FFF7E6F810F0DEFC002840F04281284671
:10283000FFF70AF909B0BDE8F08F0FF071FF00282B
:10284000CED01299039832460FF01AFC85F8340066
:10285000C6E707F021FE0590002800F0808109F00E
:1028600073FE0446002800F07C81203003F078FBE2
:1028700004F11C07002840F06181032104F12400C9
:1028800010F0C4F9049B606F63854FF6FF73A4F8E2
:102890002CB02385002800F05E8104F1640104F16E
:1028A000680203F0CBF9B4F860309C4A23F4EF637C
:1028B00023F0070343F4887343F00103A4F8603066
:1028C00094F87A3023F0070384F87A304FF01B1322
:1028D0004FF0000BC4E916327F2384F8BD30C4F8F2
:1028E00074B0A4F878B0A4F82EB0C4F830B004F1F5
:1028F00034000EF05BFD94F8393060F305030121DC
:1029000084F839300DF11F0010F080F99DF81F2078
:10291000834BDDF808C0A08D84F83BB0A3FB021305
:10292000DB0803EB4303A2EB8303053384F83A305F
:1029300094F839300499A4F8C4B003F03F0384F844
:10294000393094F83C30A4F8C8B023F0030340F2C7
:10295000E24284F83C30734BA4F8D0B002FB01F1A2
:102960000A460B44B3FBF1F36F49A4F8CCB0114411
:10297000B1FBF2F1A4F8C61042F2107101FB0C2178
:102980000139B1FBF2F2A4F8C2200622A4F8C0205B
:10299000811D9AB28A42A4F8CE2002DD121A063AAC
:1029A00092B294F8D830A4F8CA204FF0000B23F06C
:1029B000070384F8D830A4F8E4B084F8E6B0C4F88B
:1029C00008B1A4F80CB1A4F820B106F033FE059BC1
:1029D000C4F8443194F83A31A4F838B123F0030331
:1029E00084F83A3194F87A30A4F840B123F018030F
:1029F00084F87A3094F8663184F843B123F0070301
:102A000084F8663194F88631A4F864B16BF3451309
:102A100084F8863194F8AE31A4F884B16BF3C30323
:102A2000002284F8AE310023C4E94A01C4E94C23F2
:102A3000A4F8ACB1A4F8B8B10AF074F9A4F8D200C3
:102A40000AF076F9D4F8BC21384BA4F8D40013402E
:102A5000C4F8BC310AF072F994F8C03160F3020393
:102A600084F8C0310AF070F994F8C031C4F8C4B1E8
:102A700060F3C50384F8C0313123C4E974BBC4E9F1
:102A800072BBC4F804B0C4F80CB0A3602F62C4E9F0
:102A900005BB84F800B0E4617AE600200FF0A0F9ED
:102AA00095F8333043F002030AF0010A85F8333019
:102AB0009BE62C6AA36D63B11D4A1E491E4840F275
:102AC000324317F09BFF404080F311884FF0030022
:102AD00002DF04F14C0104F1480003F0B3F80646AC
:102AE000002851D02768A665D7F84441002C3DD076
:102AF000204607F0D7FC384609F02CFD00230320C0
:102B00002B6209B0BDE8F08F0C2009B0BDE8F08F52
:102B10008D49FD1A0700000000CA9A3B4801480190
:102B2000ABAAAAAA7FC3C901FF5962020000FFF63F
:102B30004CD3010020D0010044CB0100194A1A49AE
:102B40001A48B12317F05AFF404080F311884FF024
:102B5000030002DF91E604F16C0060679DE6072048
:102B600068E6059807F09EFC072063E60D4A1049C9
:102B70000E4840F23B4317F041FF404080F311887C
:102B80004FF0030002DFB3E7064A0949074840F265
:102B9000344317F033FF404080F311884FF00300B7
:102BA00002DF9FE74CD30100B8CD010044CB010008
:102BB00034D10100000000002DE9F04F8FB0044631
:102BC000067F0F46154600F1240106220CA818F0D6
:102BD000A5FB002394F81C90A383797C97F81280BE
:102BE000C9F3401B11F00201C6F3C016D94604F127
:102BF0002B004FF0060200F0E18004F11E0118F0F6
:102C00008DFBB8F1FF0F04F1250304F11F0A00F05A
:102C1000DF805246404604F11E010B930EF020FE69
:102C20000B9B1846A37F02330CA9A377062218F04A
:102C300075FB3B68D3F800A0EB8963862B8AA386DB
:102C4000BAF83030E38610F01FFB84F83800D5F86E
:102C50000080404609F084FC7E68A8812146E0801F
:102C6000206807F031FCAB89F3801B233468337193
:102C7000B9F1000F40F0B88086F81CB0314620460C
:102C800007F022FC07F02AFCD8F80430D8F80860D6
:102C900095F84400B5F80E90FC689E4238BF1E4679
:102CA000C0F3C00140F2E24300F0070003FB09F962
:102CB00010F0F8F8203400220221241A012003F039
:102CC0000DF8504608F002FD021D4F4BCDF800A054
:102CD000D2B20121002004F043FB30F002030CD0FB
:102CE0004A4A4B494B4840F24D3317F087FE40406B
:102CF00080F311884FF0030002DF4FF0000A5346C3
:102D000003220121CDF800A0504604F029FB4046E3
:102D100009F026FCBB68CDF81880093B9E1B3E4B92
:102D200007933E4B059340F27D333D4F0893D8F80F
:102D30001030A9FB0798CDE903A3451D30A3D3E9C3
:102D4000002348464146FEF7DBF9104619464FF48A
:102D50007A720023FEF7D4F929A3D3E90023029065
:102D600041464846FEF7CCF925A3D3E9002301905C
:102D7000A4FB0701FEF7C4F9EDB220F07F400090FC
:102D800033462A460121504604F060FA30F002032F
:102D90000CD01E4A1E491F4840F27E3317F02EFE0B
:102DA000404080F311884FF0030002DF012202212E
:102DB000104602F093FF0FB0BDE8F08F18F0B9FA9B
:102DC000B8F1FF0F04F1250304F11F0A7FF421AFCE
:102DD00018460622002118F0ACFAA6770CA9504636
:102DE000062218F09BFA24E76B7F43F040036B77D1
:102DF000281D0EF027FB0123E88333773EE700BF51
:102E00008D49FD1A07000000C10C01004CD30100E0
:102E1000BCD1010044CB0100C50C0100F50C010040
:102E200000CA9A3B000000002DE9F04F8FB01E460B
:102E300009931546FF230A1DDFF80481DFF804B16A
:102E4000DFF804A1DFF80491089200213160044604
:102E50008DF82F3004930C91059106910DAF0CAEB7
:102E600002230D93CDE9018700962B460DF12F0229
:102E70002146002004F0B6FA02282DD00D9B002B2D
:102E800030D19DF82F30FF2B3CD0052BE8D100200E
:102E900009F06EFB0028E3D090F93930002BDFDB1E
:102EA000049902690C9BFF290CD0069907921846D9
:102EB000049304F0F7FA059B089A99188842049B3A
:102EC000079A22D8CDE905239DF82F300493C7E750
:102ED0002146002004F0CCFA0D9B022BF8D00D9B6C
:102EE000002BCED06C235A465146484617F086FD3B
:102EF000404080F311884FF0030002DF9DF82F302F
:102F0000FF2BC2D1049BFF2B10D0DDE90532104806
:102F10001344A3FB0001072202FB031106A3D3E91C
:102F20000023FEF7EDF8099B803018600FB0BDE874
:102F3000F08F00BFAFF3008000CA9A3B0000000092
:102F40003110010090D30100D4D3010044CB010023
:102F50008D49FD1A0000000070B582B01C46019238
:102F60001546064601AA0220FFF75EFF23680BB351
:102F70000198431B1B021FD4294604F093FA1A4AF6
:102F800003460721A0FB020201FB032114A3D3E99E
:102F90000023FEF7B5F8226802442260002A09DB0C
:102FA00040F2E24006FB00F0904203D2121A824245
:102FB000FCD8226002B070BD0146284604F072FAC7
:102FC000094A03460721A0FB020201FB032104A3D7
:102FD000D3E90023FEF794F82268121A2260DDE795
:102FE00000CA9A3B000000008D49FD1A0000000055
:102FF0002DE9F041B0F8941188B0044640F2E24364
:103000004748002603FB01F105AD0623C5E901662B
:103010008DF80F30A1FB00013FA3D3E900230596F3
:10302000FEF76EF80DF10F0301950093B4F88A31A5
:10303000049004AA204601210DF0FCFF9DF80F80AA
:1030400008F1FF3C5FFA8CFC0DF11603304604F5E5
:10305000CA7703EB4C0C04F5D0764FF6FF7E3A8826
:10306000B8F1000F0AD02B46724504D0198891425E
:103070004FF001001DD002339C45F5D10237BE420E
:10308000EDD1D4F8EC3048BBBDF8142040F2E24159
:1030900002FB01F1100AC4F818111A70587094F864
:1030A0000E31042262F3020384F80E3108B0BDE849
:1030B000F081D4F8EC1040F2E24302FB03F3100A73
:1030C000C4F818310A70487094F80E31042262F383
:1030D000020384F80E3108B0BDE8F081032203F842
:1030E000042C13F8052C94F80E11052542F0030268
:1030F000112003F8020C03F8052C65F302010F20E0
:10310000202203F8010C1A7084F80E1108B0BDE8F3
:10311000F08100BFAFF300808D49FD1A0700000069
:1031200000CA9A3B0000000038B5044610F054FF76
:10313000A27DC2F34103013303F00303032B34D018
:1031400063F34202A27503F125000FF069FE636884
:103150000BB32369FBB112F06DFD054604F0A0F935
:10316000C11C002012F034FD12F0B0FD12F062FD1F
:10317000294604F097F9124903460722A0FB0101F2
:1031800002FB03110CA3D3E90023FDF7B9FF236968
:103190001B1A236138BD04F083F9C11C002012F012
:1031A00017FDBDE8384012F091BD6FF34202A275E1
:1031B0002520CAE7AFF3008000CA9A3B0000000058
:1031C0008D49FD1A000000002DE9F04F89B004463A
:1031D00012F03CFAC0B250B90FF07AFE64482146B2
:1031E00012F0CEF809B0BDE8F04F12F003BA12F0B9
:1031F0004DFAC7B212F056FCC6B212F05DFC824620
:1032000012F078FE5FFA80F812F058FE834612F052
:103210000DFC814612F0E8FB0FF05AFE012007F08A
:10322000ABFA0546002870D0002E7DD1B8F1000F12
:1032300040F086804FF0FF0A002FCFD0A37D1F07FC
:1032400040F18780002E00F050812B7F62680021C2
:103250008DF81B105FFA89F603F00F012AB162683E
:1032600092F82020900740F18B80002900F05681D1
:10327000062900F05381022900F08281012940F0E3
:1032800059816B7F0C2BA9D12A7FCDF800A00DF1BD
:103290001B030193D20905F124030021204610F0FD
:1032A000D9FF002800F046816B7F002B96D0636821
:1032B00023B12B7F03F00F03072B8FD1B8F1000F41
:1032C0004FF003009DF81B7008BF4FF0FF0A07F096
:1032D00053FA0546002881D007F06CFA4FF6FF73C9
:1032E000EB8005232B71002E40F046817F232B7647
:1032F0006B7E286885F81AA067F3000329466B7671
:1033000007F06EFA07F07CFA68E71A4A1A491B4878
:1033100040F2912317F072FB404080F311884FF088
:10332000030002DF002E81D0A07D5FFA8AF1C0F396
:10333000C0000FF06DF88246002F3FF44FAF7DE7DD
:103340005FFA8BF00FF0CEF88246002F3FF446AFC5
:1033500074E7002E3FF479AF514640460FF050F924
:1033600000287FF472AFA37D19077FF537AF6CE7B4
:10337000B5400100ECD70100A0D7010044CB01000B
:1033800007293FF42BAFA27DC2F3C009120740F119
:10339000B380002940F0F6806B7F252B00F2CA80B5
:1033A000042007F0E9F900283FF418AF12F096FC6A
:1033B000636A074643B9238C40F2712202FB03F390
:1033C000B0FBF3F203FB120723681A69C04B072115
:1033D000A2FB030301FB0231BBA3D3E90023FDF7EA
:1033E0008FFEA0F24233BB42FFF4F8AE12F0EEFAC9
:1033F0005046D4F804B00EF0E7FFE37D9B07074684
:1034000040F15981002800F0568101460122CDE9A2
:10341000042112F049F9049A2B7F019207AA059919
:10342000039205F11E0281460291C3F38013014607
:1034300000922046002210F0DFFF484612F0ACF860
:1034400012F0FAF8002840F05881A248214611F005
:1034500097FF002E40F05F816168A37D91F82020E6
:1034600043F0800342F0010281F82020A37507F0A9
:10347000A1F91623064603714FF6FF732D7FC38013
:10348000494624221C3017F049FF337FB460C5F34E
:10349000401565F34513337712F0CCFB0021306102
:1034A0000120079D12F08CF8B8F1000F08BF4FF013
:1034B000FF0A86F81AA0E37D2D1A13F00203756146
:1034C00002D03B1E18BF0123727E63F34102727665
:1034D00007F070F9034631463068F36007F080F971
:1034E00007F08EF909B0BDE8F08F50460FF04CF8A8
:1034F00000287FF4AAAE71E6BAF1FF0F8DF81CA088
:10350000C3F3801700F0BD80237EA3EB0A03B3FA58
:1035100083F35B09002B7FF43CAFA6E66B7F252B82
:1035200008D8A27D920602D56268002A43D0252BD6
:103530007FF6BBAE2B7F03F00F03042B7FF44EAE60
:103540006B7F252B3FF64AAEA37DD8077FF546AEAD
:1035500012F0AAF82B7F0278C3F38013B3EBD21FCB
:103560007FF43CAE0830062205F11E0117F0C5FEBF
:1035700000287FF433AE97E612F04AFAC3B2B6E6FB
:103580006B7FD4E701297FF473AE6B7F0C2B7FF444
:1035900025AE2A7FCDF800A000230193D20905F1C2
:1035A0002403204610F056FE00287FF4F9AE297F50
:1035B00001F00F0159E6962012F094FA002012F063
:1035C000DDF9B8F1000F4FF0030014BFD0464FF003
:1035D000FF0807F0D1F8074600283FF4FFAD07F0D9
:1035E000E9F84FF6FF73FB8005233B71002E5ED197
:1035F0007F233B767B7E386887F81A806FF3000361
:1036000039467B7607F0ECF807F0FAF812F04CF840
:103610002B7F0646C3F380133278DB0102F0700281
:1036200043F00303134333700C23737050460EF0C2
:10363000CBFEE37D9F07014650D500284ED033785E
:10364000304643F0400300F8023B062217F066FEC6
:10365000062205F11E0106F1080017F05FFE304654
:1036600011F09AFF11F0E8FF002859D112F02EFB5B
:10367000A37D194843F00103A375214611F080FE94
:1036800030E705F11E0B07AA594638460EF0ECFF4D
:1036900000288CD0E37D03F00103BB424ED04B46A3
:1036A000297F01F00F01002B7FF473AEDDE512F0EE
:1036B000AFF9C3B29DE7A27D04F11901C2F38012F4
:1036C000A5E600BFAFF3008000CA9A3B00000000EF
:1036D0008D49FD1A79400100C9400100A37D32786F
:1036E000C3F38013304663F3861200F8022B04F113
:1036F0001901062217F012FEAAE7154A15491648C5
:1037000040F24C4317F07AF9404080F311884FF0B3
:10371000030002DF99E612F07BF98BF8A1009BE62B
:103720000B4A0C490C4840F2D24317F067F940406D
:1037300080F311884FF0030002DF97E75946062215
:1037400004F1080017F0D9FDB0FA80F35B09A7E790
:10375000ECD70100A8D7010044CB010008B5002038
:1037600001F064F820B10348BDE8084017F046B9FD
:103770000148F9E70CDC010021DC01000B68013392
:103780000B60014B1B6818471000002007B50B4663
:10379000002102460191034801A900F0E5F803B0B9
:1037A0005DF804FB7D3700002DE9F84FB0F8189064
:1037B00019F00808044693460DD001290CBF49F0C2
:1037C000100949F02009A0F818908BF31188BFF375
:1037D0006F8FBDE8F88F09F00709022907D120464D
:1037E00017F033F90028F0D00128238B4ED16769F8
:1037F000218B002F15DA256821F00701C4E9008824
:1038000041F0010121830026218B01F0070ACA45FE
:1038100002D0A368002B5AD10DB9002E71D000231D
:1038200056E001F007035A1F012A1ED821F00701B4
:10383000062B256889B2C4E900880AD13DB1638BA3
:103840002A46126801339BB2002AFAD1638341F001
:1038500002012183204617F0F8F806460028D3D04D
:10386000238B43F020032383CDE7042B0CD121F0DD
:10387000070189B22183204617F0E7F805460028A2
:10388000C1D041F0200121830025BCE7032809D1E4
:10389000226923F00703166843F0060323830025FB
:1038A0002F46B1E7042806D1226923F007035668A2
:1038B00043F00403F2E7052806D1226923F0070349
:1038C000966843F00503E9E700252E46E8E7012363
:1038D00041F0080121838BF31188BFF36F8FFBB98F
:1038E00085BB16B11F492046B0474FF02003EFF3C8
:1038F000118B83F31288BFF36F8F238B23F00803A0
:103900002383238BDA0625D523F01003238301219B
:10391000B4F8189009F0070900297FF45EAF54E766
:10392000A1680029DCD0D1F80090D1F804B03B4662
:1039300052462046D847B9F1000FD1D04946D9F8B0
:103940000090F2E729463B46524620462D6817F084
:1039500098F8C5E713F020011EBF23F0200323834E
:103960000221D5E7AFAA01002DE9F04F91B08B46B7
:10397000029092461C4600259AF8000008B9284695
:103980005FE325280AF1010707D0029B59469847B3
:103990000028C0F25683013512E2182200210AA83D
:1039A00017F0C7FC9AF80130252B78D0002210467A
:1039B000964694461646394617F8013B2B2B00F0E5
:1039C0009D8000F29480202B00F09B80232B00F040
:1039D0009B802EB19DF8306046F004068DF8306073
:1039E000BCF1000F05D09DF8306046F008068DF858
:1039F0003060BEF1000F05D09DF8306046F0100633
:103A00008DF8306028B19DF8300040F020008DF82E
:103A100030002AB19DF8302042F040028DF830206D
:103A20009DF8302002F04400442803D16FF3861241
:103A30008DF830209DF830202A2B42F080028DF83E
:103A400030207BD19DF8312042F001024B1C8DF8D3
:103A500031201A782E2A9DF831200CBF0121002137
:103A600061F341028DF8312074D15A782A2A6AD044
:103A7000013300210A26184610F8012BA2F1300765
:103A8000092F40F28E809DF830200E91C2F3400045
:103A900040EAD17161F341028DF830205AE00AF119
:103AA00002078DF833309DF83130D90740F1498154
:103AB00054F8049BB9F1000F07DA9DF8302042F06A
:103AC00004028DF83020C9F100095A0740F1428103
:103AD00054F8048BB8F1000F80F241819DF8313029
:103AE0006FF341038DF831304FF0FF3837E12D2B64
:103AF0000CD0302B7FF46DAF01225CE74FF0010C4E
:103B000059E74FF0010E56E7012054E7012652E72E
:103B10000CFB0202303A33461E4616F8010BA0F1A8
:103B20003007092FF4D9994293D09DF830100D92A7
:103B3000D20F62F341018DF830108AE70B46002264
:103B40004FF00A0CE8E79DF8312042F004028DF8AE
:103B5000312002331F4617F8012B6C2A41D025D89B
:103B6000682A2BD06A2A46D04C2A4CD01F4617F818
:103B7000012B9DF831308DF83320782A00F2D9805E
:103B8000572A4DD8412A03D0453A022A00F2D18063
:103B90009DF83230042262F302038DF832300123A3
:103BA0009EE006FB01213039034664E7742A26D0E3
:103BB0007A2ADBD19DF8313006220DE05A78682A46
:103BC0009DF8312006D1012161F3C6028DF8312024
:103BD0009F1CCCE71346022262F3C6038DF83130F6
:103BE000C5E75A786C2A9DF8312001D10421EBE712
:103BF00013460322F0E79DF831300522ECE79DF8EB
:103C000031300722E8E7BDF8303023F4F04323F0E9
:103C1000020343F4804343F00203ADF83030A6E7DB
:103C2000A2F15801202900F2848001A050F821F06F
:103C3000F53C0000333D0000333D0000333D000003
:103C4000333D0000333D0000333D0000333D0000B4
:103C5000333D0000913B0000333D0000F53C000087
:103C6000B53C0000913B0000913B0000913B0000FF
:103C7000333D0000B53C0000333D0000333D000003
:103C8000333D0000333D0000FD3C0000F53C0000EA
:103C9000193D0000333D0000333D0000193D000098
:103CA000333D0000F53C0000333D0000333D000093
:103CB000F53C00009DF83210012003F0780360F31A
:103CC0000201402B8DF8321002BF9DF8301041F0F8
:103CD00001018DF83010632A31D1003B18BF012358
:103CE0009DF83020C2F340010B4363F341028DF88D
:103CF0003020D8E69DF832100220DEE79DF8322011
:103D000003F07803A3F14000032161F30202434270
:103D10008DF832204341E3E79DF83220032113F070
:103D2000780F61F302028DF8322014BF01230023C3
:103D3000D6E79DF8303043F001038DF83030002392
:103D4000CEE79DF93020002AB4BFDDF834904FF063
:103D5000FF39BAE69B077FF5C7AEDDF838809DF8DE
:103D600031100023CDE90D339DF8323003F0070305
:103D7000012BC1F3C30138D1CB1E042B22D8DFE8BD
:103D800003F003090921210054F8043BDA17CDE9B7
:103D90000A3206E0073424F00704F4E80223CDE9F0
:103DA0000A239DF8303013F0030656D002983B46A4
:103DB0005246594617F030FA0028C0F242810544B5
:103DC000BA46D9E554F8043B01294FEAE372CDE93C
:103DD0000A3205D19DF828300A9300230B93E0E7BF
:103DE0000229DED1BDF92830D0E7022B23D1CB1E2A
:103DF000042B13D8DFE803F0030A0A12120022682A
:103E00000A920023201D0B930446CAE7E01D20F010
:103E10000700F0E80223CDE90A23F5E754F8043B54
:103E20000A9301294FF000030B93D3D00229B8D194
:103E3000BDF82830D0E7042B09D1E31D23F0070398
:103E400003F10804D3E90023CDE90A23A9E7032BF2
:103E500004BF54F8043B0A93A3E79DF83300782885
:103E6000AED8622822D825283FF48FAD5828A7D194
:103E70000DF126030093DDE90A0104AB0CAA17F04B
:103E800085F98246B8F1000F0DF126000CDB9DF894
:103E90003020A0EB0A036FF3861298458DF830208E
:103EA00002D9A8EB03030D9380463DE06338152843
:103EB00086D801A252F820F0393F00009D3F000053
:103EC000C13D0000C13D0000C13D0000C13D0000FA
:103ED0009D3F0000C13D0000C13D0000C13D00000C
:103EE000C13D0000F73F0000C53F0000C93F000092
:103EF000C13D0000C13D0000113F0000C13D000078
:103F0000C53F0000C13D0000C13D0000C53F0000AD
:103F1000B8F1000FDDF828A00ADB4146504617F043
:103F2000D7F90AEB00080026BAF1000F0CD147E7D9
:103F3000504617F0C6F9F4E70A9B8DF810300026BA
:103F40000DF1100A0DF11108A8EB0A0306B10133B7
:103F50009DF83220D00668D5023352060D9948BF2D
:103F60000E9A0B4448BF9B18B9F1000F76DD9DF8FF
:103F70003020A9EB0309C2F38003039353076DD4E8
:103F8000500661D546B1029B5946304698470028F5
:103F900057DB039B01351E46302356E01E070FD426
:103FA00013F0100618BF2026DDE90A23002BBFF608
:103FB0005FAF524263EB4303CDE90A232D2657E757
:103FC0002B26F1E7002653E70A9840B30DF12603AC
:103FD00000930CAA04AB002117F0D8F8BDF83230DA
:103FE00003F0EF0343F4F04343F010038246ADF8CF
:103FF0003230002646E70A9B07293FF6E1AEDFE8AC
:1040000001F00C04060C08080C0C1D70D8E61D808D
:10401000D6E6EA17C3E90052D2E61D60D0E6DFF823
:10402000C8A006460AF105088EE7110748BF01330C
:1040300093E7184603935946029B98470028039B31
:1040400004DA11B0BDE8F08F20234D444A46002A1F
:10405000A5EB090109F1FF39EBDC0D4636B1029BF6
:104060005946304698470028EBDB01359DF8323041
:10407000D90601D41A0706D5029B59463020984725
:104080000028DEDB01359DF83230DB0607D59DF8D0
:104090003300029B594698470028D2DB01350D9E1C
:1040A0002E44731B002B16DC029843465246594699
:1040B00017F0B2F80028C4DB0544A944A9EB0503B6
:1040C000002B7FF77DAE029B5946202098470028A1
:1040D000B7DB0135F2E7029B5946302098470028AC
:1040E000AFDB0135DDE700BF3CDC01004306F0B586
:1040F00019D00E4A0E4B0F499B1A9B104B430024BC
:104100009C4201D10020F0BD156A177F0021043DBB
:10411000CEB2B74202D801342432F1E7013115F8AA
:1041200031608642F4D10120EDE700BF4C0600204B
:1041300070060020398EE338F0B5104B104C114D4D
:104140001B1B9B106B43104DD5F824C000259D42CE
:1041500002D16FF08500F0BD676867450AD3266914
:1041600046B197F802E00779BE4503D13346BDE872
:10417000F040184701352434E9E700BF70060020FD
:104180004C060020398EE338D80C00202DE9F0478A
:10419000174D184C184BDFF864A0641BA41006469A
:1041A0000F4690465C434FF000094C4503D16FF039
:1041B0008500BDE8F0876A68DAF824309A4212D3A5
:1041C000AB6983B190783179884205D1424639464E
:1041D0003046BDE8F04718475279012A03D14246DC
:1041E00039463046984709F101092435DDE700BF1B
:1041F0004C06002070060020398EE338D80C0020D1
:104200002DE9F8430E4D0F4C0F4B641BA4100646CE
:104210000F4690465C434FF000094C4502D16FF0C9
:1042200085000BE06B691BB909F101092435F4E73E
:1042300042463946304698470028F5D1BDE8F88314
:104240004C06002070060020398EE33807B58378CD
:104250008DF800300379427943EA0223ADF8023049
:10426000C378684603F003038DF8043012F000FDB4
:1042700010F1780F04D018B1002003B05DF804FBF2
:104280009DF8000012F07AFD10F1780F01D000289F
:10429000F2D1024B012083F8B900EEE7D80C0020E0
:1042A00002480822002117F044B800BF930D0020F7
:1042B000094808B50378C3F341130A3350F8233093
:1042C0003BB100F1080200F110019847C043C00F54
:1042D00008BD1846FCE700BFD80C00202DE9F14FBF
:1042E000284B294CE41A294BA410042805460E46F5
:1042F00003FB04F41CD1FFF7D3FFDFF8949099F887
:10430000B930BBB100F0A4FD042D13D11D4F4FF007
:104310000008444525D0D7F820B04FF0000A3A7F76
:104320005FFA8AF39A4213D808F101082437F0E7BC
:104330000528E2D0134F4FF00008A04515D1144BCB
:104340001B6AE3B13146284601B0BDE8F04F18477B
:104350000BEBC3030AF1010A187912F039FD0028AA
:10436000DDDA002389F8B930E4E7FB681BB1324697
:1043700029463846984708F101082437DDE701B09F
:10438000BDE8F08F4C06002070060020398EE3381F
:10439000D80C00202DE9F3479A4EB36905460F4625
:1043A00090465BB9287800F01F03012B7AD0022BCE
:1043B00000F0E4803BB16FF015008DE098470028D5
:1043C000F0D1002088E095F900206878002A2BDAE7
:1043D0000628D8F8002009D008281FD00028EAD1E4
:1043E00001235070137002233B6075E069880A0A4C
:1043F000101F0128DFD9072ADDD8CCB2716A184610
:104400000B78002BD7D04D78954203D1844200F031
:104410001C8101301944F3E70B781CE196F8BA10BF
:10442000117001223A60CCE7052818D00928C2D1C2
:104430006C8844B14FF0FF08776A1846C1463C7853
:104440009CB90028B7D0FFF72BFF6B8886F8BA30ED
:10445000F369002BB5D06C4903209847B1E7A878E1
:1044600012F0F4FB0028ACD0A5E77B78042B0CD02D
:10447000052B0DD0022B05D197F805806A8842459F
:1044800008BF01203B781F44D9E797F80390F9E76C
:104490006B884345F6D1B9F1000FF3D13846FFF7E9
:1044A000D5FEEFE796F8BA30002B84D0746AB5F8E1
:1044B00004C0287923461A78002A3FF47CAF597843
:1044C000022904D193F804E0864500F2C680134423
:1044D000F1E710705070396002B0BDE8F0870C440D
:1044E000C9E00B287FF467AF00274FF0FF0AD046E2
:1044F000B94606E06378042B0FD0052B22D0237831
:104500001C442378002BF5D1F36913B149460720E9
:104510009847002F7FF455AF4DE794F802A0AA8882
:1045200094F8038092455346E9D1698888451FFA7B
:1045300088F2E4D1072B1ED83344A14683F8BB2070
:104540000127DCE7AB885345D9D1AB7843450DD083
:10455000A778384600F05EFC384612F039FC10F1BE
:10456000780FEDD0B0FA80F77F09C8E72046FFF753
:104570006DFE0746C3E7A1460027C0E795F9002076
:104580006B78002A19DA002B7FF415AF2C792046BE
:10459000FFF7ACFD00283FF40EAF610604D096F89B
:1045A000BA30002B3FF407AFD8F800502046294618
:1045B00012F0C8FB0020687015E7012B26D0032BF2
:1045C0007FF4F9AE6B88002B7FF4F5AE2C798DF873
:1045D00007402046FFF78AFD00283FF4ECAE630653
:1045E00004D096F8BA30002B3FF4E5AE204612F026
:1045F00061FBF369002B3FF4E4AE0DF107010820E5
:104600002BE700BFD80C0020920D00206B88002BF8
:104610007FF4D1AE2C798DF807402046FFF766FD78
:1046200000283FF4C8AE620604D096F8BA30002BDA
:104630003FF4C1AE204612F065FBF369002B3FF456
:10464000C0AE0DF10701092007E7022AC8F80010E3
:104650007FF4E2AE4B883B60B3E695F900306878B2
:10466000002BBFF63EAFD8F8002000283FF431AF52
:104670000A287FF4A0AE217800293FF49CAE63782D
:10468000042B7FF42CAFA3789C457FF428AF072B35
:1046900096BF9B19002393F8BB3013700123DAE710
:1046A00013B5134C237DC3B9E268A168019201AB35
:1046B000802016F0C8FD0199A268E3680A445B1ADD
:1046C000A260E3603BB92369E2889A4203DD9B065E
:1046D00001D10123237502B010BD00231A461946EB
:1046E0008020237502B0BDE8104012F097BB00BFD8
:1046F000D80C002030B585B0002302460D4601934A
:1047000000285FD100293CD108220B460DEB0201A5
:1047100016F049FF002804DA802012F0CBFA05B029
:1047200030BD2D4C9DF809309DF808206370BDF810
:104730000A306380BDF80C302270A38004F1380188
:10474000BDF80E30E3801206C4E90355A16025755B
:104750000AD4802B04D9802012F0ACFA0020DCE7C8
:1047600013B1C4E90333DAE7FFF7A2FD0028D3D081
:10477000E28823699A42D4BFE260E360FFF790FFCA
:10478000CDE7154CD4E90215002D01AB04DC16F081
:104790000AFF0028C3DABFE72A4616F004FF002804
:1047A000D9DB0199A268E3680A445B1AA260E3605E
:1047B000002BB4D104F13803A360FFF779FD002882
:1047C000DCD1A9E78028AAD1034BDA68002AD5D129
:1047D0001B7D002BD2D1A2E7D80C0020054B064A46
:1047E0009A62064ADA62064A1A63064A58629A616F
:1047F00000207047D80C002095430000394100008C
:10480000014200008D410000074B10B593F8B840FD
:1048100024B900F0B3F918B1FFF7E0FF002010BD94
:104820004FF0FF30FBE700BFD80C00202DE9F74325
:104830000446384D38484FF0FF324FF0FF3315F043
:10484000A7F895F8B860002E41D134482C62E86191
:1048500012F0FAFB12F0BCF9041E39DB00F04CFB3D
:10486000041E35DB40236846ADF802308DF8046045
:104870008DF8006012F0FCF9041E29DB80276846E1
:104880008DF8007012F0F4F9041E21DB2449304643
:1048900012F0C6FB041E1BDB2149384612F0C0FB98
:1048A000041E15DB1F4F204C204BE41BA4105C435F
:1048B000B44214D1002012F061FA041E08DB8020FB
:1048C00012F05CFA041E03DB012385F8B8300024E3
:1048D000114815F0D5F8204603B0BDE8F083D7F8AD
:1048E00020904FF000083A7F5FFA88F39A4202D88E
:1048F00001362437DCE709EBC30259F8331010798D
:1049000012F08EFB08F101080028ECD04FF0FF34C4
:10491000DEE700BFD80C0020C8040020DD42000004
:10492000F54600004C06002070060020398EE33862
:1049300030B51E4B8BB005AA03F1100518685968F5
:10494000144603C40833AB422246F7D11B782370C8
:104950001022002101A816F0ECFC122200211448BC
:1049600016F0E7FC102101A816F046FF00281ADD1A
:10497000083801AA0E490028A8BF1218002012F812
:10498000013B0AAC04EB131403F00F0314F8144CAE
:104990000C700AAC2344013013F8143C4B70082807
:1049A00001F10201EBD102480BB030BD42DC010045
:1049B000423000202DE9F04F6B4A6C4B9B1A6C4A39
:1049C00087B09B1053430446019300254FF0011B11
:1049D000A9462E46AA46207820B9664B02349C424E
:1049E00017D0F2E76378052B05D8DFE803F08304DE
:1049F0000383072BA24623781C44ECE7E378002BC3
:104A0000F9D1A3789BB9584A0199994204D14FF042
:104A1000FF3007B0BDE8F08F51688C4202F12402EC
:104A20000AD1514A242606FB0326B36833B909F19B
:104A300001095FFA89F9DEE70133E5E749462046D7
:104A40009847F4E7002EE2D000230121327F934201
:104A5000DDD2326AA77802EBC3021079874201D017
:104A60000133F3E70127E07894F805C000F0030074
:104A70008DF81400207940EA0C20ADF8120094F96A
:104A8000020000285FFA87F828DA07F1100001FA1F
:104A900000F010EA0B0F29D168F07F008DF81000AC
:104AA00004A8CDE9023216F066FDDDE902320121EB
:104AB000E0B99DF81030A37013F0800F1CBF08F10F
:104AC00010085FFA88F813710B4615BF01FA08F851
:104AD000BB404BEA080B4BEA030B8CE701FA07F0EB
:104AE00010EA0B0F02D18DF81080D9E70137102F93
:104AF000B9D1B5E7032D1DD1FFF71AFF074668B1FD
:104B000016F0DFFB804648B11B4816F0DAFB804503
:104B100004D142463946A01C16F000FC23786FF001
:104B20000201E218091B04EB5303D14213D50135EE
:104B3000EDB260E7002DF1D1BAF1000F3FF467AF9D
:104B4000A4EB0A038AF80230C3F307238AF8033080
:104B50008AF80490EBE74FF0000002F8010C13F81C
:104B6000010902F8020DE0E74C0600207006002063
:104B7000398EE3384B06002042DC010008B50448BA
:104B8000FFF718FF0028024818BF002008BD00BF2B
:104B9000CC05002010B5094B00211A461C78844230
:104BA00005D15C681CB1482000FB012010BD01311B
:104BB000042903F14803F1D10020F7E79C0D002000
:104BC0002DE9F34150F8303C10F8346C10330446B2
:104BD00010D1036950F8282C99073CD502BB13F07B
:104BE000040304D11A461946304616F02CFB002364
:104BF00044F8303C54F8303C10330ED054F8205C6C
:104C00005DB154F8247C54F81C8C17F07FF900280F
:104C10004CD02E48214617F0E4FA02B0BDE8F081EE
:104C200050F82C1C01AB304616F00DFB10B16FF0A4
:104C30001503DDE7019A54F82C3C134444F82C3C4E
:104C400054F8283C9B1A44F8283C54F8243C13445C
:104C500044F8243CCEE750F82C1C01AB304612F04F
:104C600055F90028E3D1019D54F82C3C2B4444F81D
:104C70002C3C54F8283C5B1B44F8283C54F8243C5A
:104C80002B4444F8243C002DB1D0304612F0E2F918
:104C9000B5FBF0F303FB1055002DA8D154F8283CC8
:104CA000002BA4D0304612F079F9A3E744F8200C89
:104CB000A4F1180014F05AFF54F8303C8C33ACD0F7
:104CC000424639463046A847A7E700BF300C0020CF
:104CD0004B1E012B73B506460D460FD8FFF75AFF42
:104CE000044668B9012D09D101AB01220DF1030180
:104CF000304612F00BF9019B002BF5D102B070BDCC
:104D000017F004F904F1340108B1012D05D108466A
:104D100002B0BDE87040FFF753BF034802B0BDE8E2
:104D2000704017F05EBA00BF300C00202DE9F74F3D
:104D3000064601911546984616F0A2FA0446002848
:104D40005FD14FF02003EFF3118A83F31288BFF392
:104D50006F8FDFF8B4B04FF0480909FB04F7002269
:104D60000023584614F028FF68B9DFF8A09009EB3B
:104D70000704636813F1100F14D10193584614F01F
:104D8000F5FE019B06E00134042C0BF1480BE4D145
:104D90006FF00B038AF31188BFF36F8F184603B0CF
:104DA000BDE8F08F019B2061C4E902350C9B636173
:104DB0000D9BA3616FF00F0309F80760C4F84480EE
:104DC0006360304612F046F958B1304612F042F9AD
:104DD000B5FBF0F202FB10551DB1636C43F0040308
:104DE000636418F0020F07D03437094809EB070154
:104DF00017F0F7F90023CDE7304612F0CFF803465D
:104E0000C8E76FF00F03C9E7B80D00209C0D002024
:104E1000300C002010B54FF02003EFF3118483F322
:104E20001288BFF36F8FFFF7B5FE50B143681033A0
:104E300007D16FF08B03436000F13401034817F092
:104E4000D0F984F31188BFF36F8F10BD300C0020B0
:104E50002DE9F041104CDFF8448004256FF08B07FA
:104E60004FF02003EFF3118683F31288BFF36F8FA7
:104E70006368103305D104F134014046676017F0D0
:104E8000B0F986F31188BFF36F8F013D04F1480438
:104E9000E6D1BDE8F08100BF9C0D0020300C002061
:104EA000F0B504468BB00D4616461F460122002180
:104EB00004A817F00DF903AB01930E4B0093324693
:104EC0003B4629462046FFF731FF88B940F6CD42E0
:104ED000002304A814F070FE48B12046FFF75AFEE4
:104EE00010B143681033F1D06FF08B0000E00398ED
:104EF0000BB0F0BD77B2010070B50A4C0A4E002528
:104F00003146204617F064F90122A4F11800114639
:104F1000013517F0DDF8042D04F14804F0D100202C
:104F200070BD00BFD00D0020C14B0000014B997037
:104F3000704700BFE705002007B5037890F900002F
:104F4000002815DB03F06003202B11D10B680193BF
:104F50001368009300220023002000F0A3FD014607
:104F600048B1064816F0BCFA002003B05DF804FB17
:104F70006FF08500F9E76FF00B00F6E70C050020F5
:104F800070B50F4E0F4D4FF0FF334FF0FF323046EC
:104F900016F088FA037D012B044605D0032B0AD0B6
:104FA000204611F089FAEEE7828981682879062384
:104FB000FFF776FFF4E782898168287D0223F7E70F
:104FC000240500201400002038B5084D4FF0FF32B2
:104FD0004FF0FF33284616F065FA044600F094FDC2
:104FE0000028F3D0204611F067FAEFE70C05002007
:104FF0002DE9F3410E4600293FD02A4DD5F8008017
:10500000B8F1000F47D1284F01914FF0FF320097C0
:105010004FF0FF33022000F045FD047D234A286055
:10502000022C11D0042C14D034B1A2F8008011F05D
:1050300043FA00232B6013E0BB7803240333B4420C
:105040000BD900231380F2E77B8804339BB204243E
:10505000F5E77B8804339BB2F1E71380002BE6D0A1
:10506000296851B1114C8A8923889A4205D1104888
:1050700016F036FA00232B602380002301930D489D
:105080000D4B00930849007B05234022FFF74EFE9D
:1050900002B0BDE8F0810A4608F10800024916F0A6
:1050A00042FADDE7BC0E00205530002038300020E9
:1050B0000C05002014000020F14F0000013910B54C
:1050C00005291FD8DFE801F0191E030F1F23154B18
:1050D0001A78BAB901211970134BBDE81040187B3A
:1050E0001146FFF785BF104C2079FFF793FE207D16
:1050F000FFF790FE207BFFF78DFE0A4A0023137016
:105100000A4A137010BD094B01221A70FAE7074BC7
:105110001A78002AF6D000221A70024B1B78002B56
:10512000F0D0D9E754300020140000209530002042
:10513000F0B5184889B000F0EDFC044638BB0026F5
:1051400000276FF00705CDE90205CDE900000490C6
:10515000CDE90667104B114911484FF4806214F0F5
:1051600079FB10490E4816F0D7FE0F4B0F490094FB
:10517000CDE90667CDE90354CDE901444FF400724F
:105180000B4814F067FB0B49094816F0C5FE204692
:1051900009B0F0BD24050020C94F0000E030002018
:1051A0007006002053DC0100814F00000035002014
:1051B000F00600205DDC0100F8B505464FF0200345
:1051C000EFF3118683F31288BFF36F8F094B1C68CE
:1051D0005CB1094FD4E90132002D08BF13460BB171
:1051E000387898472468002CF4D186F31188BFF3EF
:1051F0006F8FF8BDC00E0020C80E00201FB50F4BEA
:105200001A68BAB901221A600D4A07CA01AB83E8CD
:1052100007000C4A4AB193E8070016F0A6F80020F0
:1052200005B05DF804EBFFF7C7BF82F31188BFF349
:105230006F8FF4E705B05DF804FB00BF2C00002081
:10524000C80E00206BB30100F0B589B06E46014670
:105250000546304616F01FF896E80700174C84E81C
:1052600007002078274638B3154B002119606B1CC6
:105270000DD0144816464FF4004C134A0023E6FBA9
:105280000C01FBF73DFF0121281A17F0F9F814F083
:105290007BFE0120FFF790FF97E8070005AB83E84E
:1052A00007000A4A1AB193E8070016F04BF8FFF717
:1052B000A5FF15F037F8207809B0F0BDC80E002022
:1052C0002C0000203F420F0040420F0045B3010078
:1052D000014910220A60704710ED00E072B64040AC
:1052E00080F31188BFF36F8FBFF34F8F30BF62B66B
:1052F000BFF36F8F704700BF72B6494081F31188CA
:1053000020BF80F3118862B6704700BF43B2002B04
:1053100008DB012200F01F0002FA00F05B09024ADC
:1053200042F82300704700BF00E100E043B2002BC9
:105330000DDB01225B0900F01F0002FA00F02033B0
:10534000034A42F82300BFF34F8FBFF36F8F7047BC
:1053500000E100E0054B420900F01F0053F8222055
:10536000012303FA00F01040704700BF00E100E0A5
:1053700043B2002BA8BF03F1604301F10101B8BFA4
:10538000064B4FEA4111ACBF03F5614300F00F003B
:10539000C9B2B4BF195483F80013704714ED00E08C
:1053A00008B572B6044B986918B100229A6116F0DC
:1053B000B8FD62B608BD00BFF82F002030BFFFF770
:1053C000FDBF00BF0F4A08B50F4B22F07F029A6065
:1053D000BFF34F8FBFF36F8FD3F8882022F4700292
:1053E000C3F88820EFF3148323F0040383F31488B5
:1053F000BFF36F8F14F01EF915F0D8F800F0CAF95A
:1054000014F022F90010000000ED00E0094A0A49FA
:1054100093680968D967094998674B6843F08053D6
:105420004B60002383F31188BFF36F8F9368D86FAD
:10543000704700BFF82F0020E4DB010000ED00E022
:1054400012498A684FF030001044EFF3098C80E86D
:10545000F01F202080F31288BFF36F8F0C4F4FF0A6
:105460000066CA698A603E60906F0023936780F38C
:10547000118804B5104600F0CFF9BDE8044002F1F0
:10548000300090E8F01F8CF309887047F82F002057
:1054900004ED00E01EF0040F0CBFEFF30880EFF303
:1054A0000980816911F8021C0229FFD001B515F0AD
:1054B000F9FE01BD42F8203C009B42F81C3C0A4921
:1054C000019B42F8183C029B42F8143C21F0010178
:1054D0004FF0807342F8043C42F8081C0023203A45
:1054E00002658367704700BF23AC0100094A034689
:1054F000906870B113F1160F806E05D0A0F12002F4
:105500009A4205D8834203D2814228BF00207047C7
:1055100000207047F82F002008B5094B98600D4611
:10552000144600F079F9204685F30988002163B616
:1055300081F31188BFF36F8F0022002315F071FBF8
:10554000F82F002001B572B60B4A906900281EBFE3
:105550000021916116F0E5FC62B6EFF30580A0F141
:1055600010004FEAC0000549014409C99847BDE849
:105570000140034908470000F82F0020C4C801007B
:1055800085550000044B9968D869884203D00349C7
:105590004FF080520A607047F82F002004ED00E0C1
:1055A00038B5194B14469A6A9A6A9A6A0546900762
:1055B00019D5586B9A6A120615D519B19A6A22F054
:1055C00080029A629A6A9A6A9A6AD1060ED49B6A93
:1055D0009A070BD400200C4A936A43F0FF039362AE
:1055E0000023237038BD6FF01500EBE7064B5B68B6
:1055F0001B05EFD52946FFF779FF0028EAD080F395
:1056000009880220E7E700BF00ED00E00D4B9A6A31
:105610009A6A9A6A920508D59A6B9A6A120404D516
:1056200018B19A6A22F400429A62064B9A6A9A6A00
:10563000D20558BF9A6A9A6A002042F47F429A6261
:105640000870704700ED00E070B5484B5B688AB0A9
:105650000D46C3F30803002686F31188BFF36F8F4E
:1056600002F07F41B1F17F4F11D102F00C01082906
:105670000DD0110701D4054601260022033B8DF809
:105680000720032B6BD8DFE803F00455595D35463E
:10569000F3E7364BDC6A14F0020460D1DA6A002AC0
:1056A00015DBDA6A520012D5AA6932F8021C4DF6EF
:1056B000027291420AD093F828200AB30DF1070232
:1056C00001212846FFF76CFF044600E02C689DF896
:1056D00007309BB92022294602A815F01FFE099B1E
:1056E000002E3ED0C3F3080222B96FEA53236FEABB
:1056F0004323099302A9204615F0D2FD0AB070BDDC
:1057000093F829202AB10DF107010120FFF77EFF50
:10571000DAE75A8D92B2002AD9D09A6A9A6A9A6ABE
:105720009A6A9A6A9A6A9A6A6FEA02426FEA12421F
:105730009A62CCE70DF107020021C2E70DF10701E3
:105740000020E3E7094B9A6A9A6A9A6A9A6A9A6A07
:105750009A6A9A6A6FEA02426FEA12429A620024D7
:10576000B5E723F4FF7323F00103C2E700ED00E087
:10577000024A536943F010035361704700ED00E0A3
:10578000EFF30880EFF3098101B57246FFF75CFF84
:1057900001BD00BF044800232021C2180133302B73
:1057A00082F80013F9D1704700E100E017F000F82B
:1057B000202080F3118808484FF40261401880F3DC
:1057C0000988EFF314800221084380F31488BFF3A3
:1057D0006F8FFFF7F7FD0000C0440020064B9B6869
:1057E000834207D1EFF3058323B1044A536843F0A2
:1057F0008053536014F076BEF82F002000ED00E0D7
:10580000024B034A0348012100F06EB80000042057
:1058100000000020A8CA0100826E054B203A1A60E1
:10582000044A2021C3E901121846012100F066B89C
:10583000D40E002000000B15F0B51F4F00268E423D
:1058400001DB1046F0BD44689CB353B104F1FF3C4A
:1058500014EA0C0F18D11F2C16D905681CEA050F85
:1058600012D1202C0568D0F808C0D2B20FD9B4F1FB
:10587000004F0ED8013CB4FA84F4C4F11F04640054
:10588000072A4CEA040406D96FF01502D9E7082468
:10589000F6E73E24F4E725F01F05154345F0100513
:1058A00044F00104C7F89820C7F89C500132C7F8AB
:1058B000A04001360C30C2E700ED00E0044B0522A9
:1058C000C3F89420BFF34F8FBFF36F8F704700BFB3
:1058D00000ED00E0BFF35F8F024B0022C3F894207D
:1058E000704700BF00ED00E010B5034C01232278A3
:1058F000FFF7A2FF207010BD9630002008B5094ABE
:1059000000231278FFF798FF10F1160F02D0064A15
:10591000072800DD08BDC2F89800C2F8A0300130A9
:10592000F6E700BF9630002000ED00E0144908685B
:10593000082810B521D8FFF7CDFF124C4968002286
:10594000904201F10C0105D10F4B1870FFF7B6FF23
:10595000002010BDC4F8982051F80C3C23F01F0320
:10596000134343F01003C4F89C3051F8043C43F057
:105970000103C4F8A0300132E2E74FF0FF30E8E75E
:10598000B4CA010000ED00E0963000204FF0200383
:10599000EFF3118283F31288BFF36F8F064901235F
:1059A000C1F840354FF08041C1F8783582F3118855
:1059B000BFF36F8F0020704700E0014020B1034B20
:1059C000800143F001031847704700BFA0CA0100DF
:1059D0004FF08043D3F84036DB072ED54FF010232D
:1059E000D3F8043303F00703072B26D1144A01230D
:1059F000C2F80435D2F80034002BFBD04FF0102150
:105A0000D1F8043323F0070343F00403C1F804334F
:105A10000023C2F804350A4AD2F80034002BFBD028
:105A2000BFF34F8F0749084BCA6802F4E062134383
:105A3000CB60BFF34F8F00BFFDE70020704700BF72
:105A400000E0014000ED00E00400FA05074A0346CB
:105A5000106828B9D96831B1196921B1136070474C
:105A60006FF0770070476FF015007047E00E002070
:105A7000052838B5054610D80124844014F02A04BE
:105A800009D0074815F009FD044620B1002108306F
:105A900015F022FD2575204638BD0024FBE700BF28
:105AA000A40500202DE9F0410546DDE90678C8B1DE
:105AB000022819D10D4815F0F0FC044678B100F128
:105AC00008060021304615F007FD25753FB1B8F1F5
:105AD000000F04D042463946304615F024FD2046DA
:105AE000BDE8F0810248E6E70024F8E7540500200D
:105AF0007C05002008B5034B0146186815F0F0FC42
:105B0000002008BDE40E0020014B1B681B691847EC
:105B1000E00E0020044B054A1B6810600BB1DB68E7
:105B200018476FF012007047E00E0020E40E0020CE
:105B30002DE9F0411646C21D22F00302751E0F46E4
:105B4000ADB2186082B0044616800021042207FB23
:105B5000050015F0EEFBBDB1023EB6B206FB0773C1
:105B600006FB07F81C44A8EB03080025042204EBFD
:105B700008000DEB0201019415F0D0FBB542A4EB37
:105B8000070405F10105F1D102B0BDE8F08100BFC5
:105B900070B5056882B095B1EB1D23F003030422B4
:105BA000044629460DEB02001E8815F0B7FB019B49
:105BB00023B1DA1D22F00302013E1680236028463D
:105BC00002B070BD0B6870B50C46054683B1073353
:105BD00023F003031E880136B6B20422214628466C
:105BE00015F09CFBEB1D23F003031E80256070BDA8
:105BF0000126F2E702FB0100704700BF401A80B2A5
:105C0000B0FBF2F0704700BF531E11449BB242B18B
:105C1000DB430138CA1811F8013D00F8013F9142F9
:105C2000F9D17047014402E010F8013B1BB98842EA
:105C3000FAD1002070470120704700BF1060086053
:105C4000704700BF0A6803460068904205BF002203
:105C50000A6000201A607047D2F800C0CCF800003B
:105C6000D2F800C0CCF8041010607047884203D00E
:105C70001AB1436813607047002070470B68834275
:105C800009D02AB1586810601A680A60184670472F
:105C9000002BF9D1FAE70023F8E700BF2DE9F04126
:105CA000DFF830800C4E0C2706F130044546221DEB
:105CB000214628460C3CFFF7C1FFB442A5F1080578
:105CC000F5D1043F3B1DA8F12008A4F13006EBD12B
:105CD000BDE8F081600F0020F00F002010B40346F3
:105CE000154C8C4692B100EB40010CEB4C000001CE
:105CF00000EB81012144487A0C7AA04204BF0130B4
:105D0000087210BC6146184610F008B901EB410258
:105D1000120100EB400302EB830323449C7ADA7AFE
:105D2000A24201D010BC704701329A72034B01228B
:105D30005A5410BC10F048B96C0F0020680F0020B6
:105D400070B506461C460D4622B322786378D21AF7
:105D500012F0030205D0012A40D00133DBB22370D8
:105D60000FE00133DBB230212370042311FB053136
:105D70001B4A60680C2313FB06131A442146FFF7E5
:105D80006BFF184B012230465A55294610F01CF97A
:105D9000002070BD10F002F90028D6D02946304608
:105DA00010F0DCF80028D0D005EB450212010C49B8
:105DB00006EB460302EB83030B449A7ADB7A9A42A2
:105DC000C3D122786378D21A920702D00233DBB2B1
:105DD0002370D4E902039847002070BD104670BDBF
:105DE0006C0F0020680F00204F4A135C002B00F05E
:105DF00099802DE9F04F00234C4F135487B01A4679
:105E00004FF03C0BCDE901200BFB007B039300EB33
:105E100040030BF1040807EB03174FF003090023BD
:105E2000D7E9090105AA0593FFF720FF07F124062A
:105E3000834698B3059C63782578ED1A05F0030531
:105E4000012D06D1013B6370D4E902029047059C05
:105E500063782078C31A03F00303012B4FF000028C
:105E600031465FFA80FA0FD0B86AFFF707FF94F85F
:105E700001C02378C4F804B0A3EB0C0303F00303C0
:105E8000012B84F801A045D0D7E9090105AAFFF745
:105E9000EDFE012D83462BD00028CBD197F82E3074
:105EA00097F82F209A4203D087F82F3001230193CF
:105EB00097F82C3097F82D209A4203D087F82D3090
:105EC0000123039309F1FF395FFA89F9B9F1FF0F53
:105ED000A7F10C07A3D1DDE9013AC3B1039BB3B924
:105EE0001A465146504607B0BDE8F04F10F016B8BC
:105EF000B9F1000F01D10028D0D0DDF808A00A4A7E
:105F0000012302F80A305146504610F05DF807B000
:105F1000BDE8F08F42462146584684F801C0FFF79D
:105F20009BFEB1E7704700BF680F00206C0F002098
:105F30004B1EDBB289B1411E00EB030C002011F8AF
:105F4000013F3BB15BB25A1E1340013013F0FF0317
:105F5000C0B2F7D16145F2D170470846704700BF23
:105F60002DE9F04FA44D83B00746032601240421F8
:105F700038460CF04BFE38684FF000084FEAD07EF0
:105F80001E234FF0010AC346C1461AE008F1010181
:105F90000E2BC9B25FFA83FE40F29C80D2B39646C4
:105FA000CC461C2B40F2A5801B2B40F212811929F4
:105FB0003BD088469246BCF10C0FE14635D0013B00
:105FC0003BD320FA03F202F001027245DED10AF15E
:105FD0000102072BD2B240F2E080062A40F2D780BD
:105FE000BEF1000F54D004FA03F220EA0200CC46BE
:105FF0004FF0000E08F101010E2BC9B288BF01223B
:10600000D5D8E14500F0C08019290ED088464FF060
:10601000010AD4E7CC460122052B40F28980062AEA
:106020004FF0000EBDD11929C3D1013304FA03F397
:10603000BEF1000F40D05B42184080EA0503019397
:106040000DF1040C0DF1080E00221CF8013B3BB1D0
:106050005BB2591E0B40013213F0FF03D2B2F7D1ED
:10606000E645F2D1012A09D983B2B3EB104F4FEACA
:10607000104224D1C3B2B3EB106F20D1013E16F011
:10608000FF067FF474AF6FF00D0003B0BDE8F08F32
:1060900004FA03F210434146CC464FF0010E884506
:1060A000A8D00E2B87D8E14589D141460CF1010CCF
:1060B0005FFA8CFC52467AE7013B1843BDE7C0F318
:1060C0000721130A387000207970BA70FB7003B092
:1060D000BDE8F08F09F1010CBEF1070F5FFA8CFCEF
:1060E0001DD912B9964601225BE7012907D09646D1
:1060F0005DE700297FF458AFBEF1000F37D004FAF6
:1061000003F2072B20EA020088BF4FF0000EC6D82A
:106110000BF1FF3B5FFA8BFB4FF0000EBFE7002A4D
:106120003FF479AF0BF1010B5FFA8BFB96463BE72F
:10613000BBF1000F0BD0042B3FF671AFBBF1010F89
:1061400005D9032B3FF66BAFBBF1020F09D804FA58
:1061500003F210430BF1010B5FFA8BFB4FF0010EC2
:106160009DE7062A0DD011B14FF0000E1CE704FA8E
:1061700003F2072B40EA020088BF4FF0010E8ED8D1
:10618000E8E74FF0000E12E74FF0010A8EE7BEF18C
:10619000000F12D14146CC463EE7BEF1000F1FD0A2
:1061A0000BF1010B062A5FFA8BFB0BD904FA03F201
:1061B00020EA02004146CC46AAE7062A18D1414609
:1061C000CC46F6E6FBD04146CC46B8F1000F96D05F
:1061D000EAE601293FF6EBAEBEF1000FC7D08EE72D
:1061E000062AD7D904FA03F210434146CC46B1E758
:1061F0004146CC46D5E600BFD6BE898E30B5437F3A
:106200000568FF2B14D003EB43028B4205EB02120F
:1062100028D04FF0000C01E099420BD09E46137835
:106220009468FF2B03EB4302A44405EB0212F3D165
:10623000002030BD714518D0137890680FFA8EFE9B
:106240000EEB4E0E4FEA0E1E05F80E301378FF2BA4
:1062500006D003EB430305EB0315AB680344AB60C7
:10626000604430BD9E464FF0000C13784377E4E75E
:10627000A2EB010C1CF4000F10B4836844690AD12E
:106280002CF07F410B44A34214D91B1B002110BCEE
:10629000836041617047891A21F07F418B4206D8A3
:1062A0002144C91A002310BC8360416170475B1A06
:1062B000A342EAD8E11AF5E72DE9F04F87B003468B
:1062C000427A01900068029058680590002A00F018
:1062D000F480531EDBB200EBC3030F460393039B12
:1062E0005A685E780492FF2F5ED007EB4704029B4A
:1062F0004FEA041AB84613F80A7003EB0414002599
:10630000019B4FF0FF0984F80090D3F800E05A7F1A
:106310000EEB0A0B4A45DBF808100FD1C8E0091A4A
:1063200006D1BBF81EA0BCF81EC0E24500F2868074
:106330001EF80330FF2B914672D01A4602EB42033F
:106340000EEB031C1B01DCF808008842E7D9B9F109
:10635000FF0FCBF808108BF8002066D1019B83F863
:106360001D80FF2A08D002EB42020EEB021EDEF86F
:1063700008305B1ACEF80830A37801336370002D23
:10638000B1D04FF00002EB6A2A700022AA6213B16A
:10639000296B104698476368002BA4D1D5E90B23DD
:1063A000FF2FC4E90823A0D1039B9878B0422FD0D7
:1063B000DDE903B906EB460206EB82029BF800100A
:1063C00019F822300136F6B2B14208BF0026042B7C
:1063D00009EB82051AD195F80180029908EB480370
:1063E00001EB03144FEA031AA17863785B1A13F0E8
:1063F000FF0325D04FF0000309F82230EB6A01209B
:10640000A8620BB1296B98479BF80200B042D1D12A
:10641000039A05999142A2F108034ED003935EE7D7
:10642000CBF808108BF800301A460FFA89F909EBFF
:1064300049094FEA09190EF8098092E7014686E7F3
:10644000AA8A0199D5F824904969D5E903EC4FF659
:10645000FE708242C4F82890C4F804E0C4F820C05A
:1064600024D04FF6FF73D31AB3FA83F35B0984F891
:106470002C304FF6FD739A4288BF0022AB69A361AE
:10648000EB69E3602B6A2361AB68A3600023A283FE
:1064900063616A6820469946FFF7EAFE4FF0010300
:1064A000C4F82490A4F81E90E37029E71A46E5E7A3
:1064B0000EF80A2083F81D805EE707B0BDE8F08F74
:1064C0002DE9F04F827F8FB001230692C377002A17
:1064D0005BD1437FFF2B814656D00EF0E9FED9F801
:1064E000142099F81C3099F81D80801AFF2B20F099
:1064F0007F4700F03C81D9F81830BB4294BF00239D
:1065000001230393B8F1FF0FD9F800B000F04581E3
:106510004FF0000ACDF8109008EB48080BEB081478
:106520004FEA0818A368BB4237D8A1781BF8088047
:10653000FF1A9A4463785B1ADBB2012B2AD1A66951
:10654000002E54D0039B002B4CD0E38B0593A36A01
:106550003BB11A681AB11A7A002A00F0EF800022C3
:106560001A72059A94F82C00013292B2E28378B143
:10657000A08B90420CD2002B00F0FC801A7A012AEA
:1065800006D04FF0010C36E0C2770FB0BDE8F08FB7
:106590000139A170B8F1FF0FBED1DDF8109051465E
:1065A00099F80B3099F80A209A420AD10132D2B2F6
:1065B000022A1CBF13460693069A89F80B2008BFCF
:1065C000002309EB8303D9F82440D960002289F81D
:1065D0001F204B46012204210320A4460FB0BDE832
:1065E000F04F604794F92D300793803341D1A36A6F
:1065F000F3B14FF0000C00221A72E568481E59688A
:106600005A60A070002DC5D0049B60695B69626A06
:106610002669AAEB0000184420F07F40E378BCF123
:10662000000F16D0CDE900364FF6FF73A847B1E74B
:10663000E5680139A170002DACD019466369626A22
:106640002669AAEB0300049B5B691844E37820F0F9
:106650007F40B4F81EC0CDE900366346A847A36961
:10666000002B039B18BF012303930023E383E370F4
:1066700090E7B8F1FF0FBAD0E28BA38B6568059263
:106680009A4228BFD21A02FB055008900798CDE91C
:106690000A17121ACDE90CA843460992A0464FF0FA
:1066A000000C2C461BB203EB43030BEB03121B0144
:1066B000D2F808E0F444664539D3916999B3D18B97
:1066C000908BD2F8049092F92D7081420D4628BF2C
:1066D0000D1AB9F1000F3ED0A9EB0E0EBCB309FBA9
:1066E00005EEDDF82090F1458CBF4FF0010E4FF024
:1066F000000E34BF4FF001094FF00009814292F8BB
:1067000003A098F803200ED3924529D817F1800FE3
:1067100026D0099AED1B954202DDBEF1000F1FD075
:10672000079ABA4219D01BF80330FF2BBAD144465E
:10673000DDE90B7A0A99DDF8348058E7A28B0598D9
:1067400082423FF60CAF4FF001021A7209E74FF098
:10675000010EA146D2E7CE46C0E7B9F1000FE2D064
:106760004446DDE90B7A0A99DDF83480EFE6069BB2
:106770000393C7E6E5680139A170002D3FF40AAF25
:1067800019466369626A2669AAEB0300049B5B6988
:10679000184420F07F40E37844E700231946FFE6E1
:1067A000C37F002B40F032842DE9F04F827F8DB003
:1067B0008346002A40F08C80837AC17A01208BF8CE
:1067C0001E009942DBF81400079000F04584013365
:1067D000DBB2022B08BF13460BEB83028BF80A30A7
:1067E0009BF81D30D2680993079B0392134423F052
:1067F0007F439BF80920CBF81430DBF8003000937E
:10680000DBF804300593531E0692DBB2002A00F039
:10681000D58101220B92059A02EBC309002308934C
:10682000FF230193CA46DAF804809AF803C09AF865
:106830000270674544D09AF800207B1C3EB2DBB260
:106840009A4208BF002306EB460206EB82068AF84E
:10685000023018F82600042808EB860442D90828DC
:1068600042D86178009A01EB410502EB05156A7880
:1068700095F802E0A2EB0E0212F0FF0234D00528D8
:1068800041D0012A40F01881062806D05846FFF76B
:10689000B5FCAB78A8606B7061789BF81C308B42BC
:1068A00000F0D980002008F82600E36AA0620BB14E
:1068B000216B98479AF803C09AF802706745BAD1DD
:1068C000059A5245AAF1080300F007819A46AAE703
:1068D000446A0421034601220420A4460DB0BDE809
:1068E000F04F60471F46A4E7002208F82620E26A1E
:1068F0000120A062002AF5D0216B90479AF803C0CE
:106900009AF8027095E7606848B9A06838B9E068FD
:1069100028B9206918B9606930F07F40E4D0012AB5
:1069200040F0CA805846FFF769FCDBF81430A860D5
:10693000074602930EF0BCFC029BC21A039B22F096
:106940007F42D1188F42814640F2AF806B69049339
:106950007A1AD5F804C0BCF1000F51D0A38A002BDD
:106960004ED0013B9FB29445EB8BA78223D20CF112
:10697000010ECDF818800A9418E0696ADFF82882C1
:106980008A4C8844A04584BF01F1E87101F5D431F7
:1069900070462C6A94BF604601F5A571013B121A3E
:1069A000091B9BB294456962EB8301D29F42E4D3F9
:1069B000DDF818800A9C9F4221D90CF10100D5E92D
:1069C00008E106900A9405E001339BB260469F42BD
:1069D000024411D07448754C71440818A042F3D891
:1069E00001330698A1F1E8719BB2A1F5D4319F4221
:1069F000A1F5A5710244EDD10A9C6962EF83AF83D2
:106A00006168A068049B0A44AA60AA6A03446B6197
:106A10001AB113680BB1091A51604A460299284607
:106A2000FFF726FCE268AB691344226993428CBFEE
:106A30009B1A0023AB61A37D03B1EB70E37D13B11F
:106A4000013B85F82C30019B2B706B7862780192AA
:106A500001336B7026E7FF238BF81C3018F82630C3
:106A6000062B13D0082B11D00EF022FCDBF81420DB
:106A7000831A1D0210D4039A23F07F431344DBF8DA
:106A800018209A4288BFCBF818300BE76068DBF813
:106A90001420831A1D02EED5131A039A23F07F43A4
:106AA000934234BFD31A0023E9E76B69DA1B53180A
:106AB00004936B6100224CE704215B460122DBF862
:106AC00024400846A047059A8AF8027001235245DF
:106AD0000893AAF108037FF4F9AE9BF81D30099AD8
